{
  "_format": "hh-sol-artifact-1",
  "contractName": "ERC721_V1",
  "sourceName": "contracts/ERC721.sol",
  "abi": [
    {
      "anonymous": false,
      "inputs": [
        {
          "indexed": true,
          "internalType": "address",
          "name": "owner",
          "type": "address"
        },
        {
          "indexed": true,
          "internalType": "address",
          "name": "approved",
          "type": "address"
        },
        {
          "indexed": true,
          "internalType": "uint256",
          "name": "tokenId",
          "type": "uint256"
        }
      ],
      "name": "Approval",
      "type": "event"
    },
    {
      "anonymous": false,
      "inputs": [
        {
          "indexed": true,
          "internalType": "address",
          "name": "owner",
          "type": "address"
        },
        {
          "indexed": true,
          "internalType": "address",
          "name": "operator",
          "type": "address"
        },
        {
          "indexed": false,
          "internalType": "bool",
          "name": "approved",
          "type": "bool"
        }
      ],
      "name": "ApprovalForAll",
      "type": "event"
    },
    {
      "anonymous": false,
      "inputs": [
        {
          "indexed": true,
          "internalType": "uint256",
          "name": "tokenId",
          "type": "uint256"
        },
        {
          "indexed": true,
          "internalType": "address",
          "name": "creator",
          "type": "address"
        }
      ],
      "name": "Mint",
      "type": "event"
    },
    {
      "anonymous": false,
      "inputs": [
        {
          "indexed": true,
          "internalType": "address",
          "name": "previousOwner",
          "type": "address"
        },
        {
          "indexed": true,
          "internalType": "address",
          "name": "newOwner",
          "type": "address"
        }
      ],
      "name": "OwnershipTransferred",
      "type": "event"
    },
    {
      "anonymous": false,
      "inputs": [
        {
          "indexed": true,
          "internalType": "address",
          "name": "from",
          "type": "address"
        },
        {
          "indexed": true,
          "internalType": "address",
          "name": "to",
          "type": "address"
        },
        {
          "indexed": true,
          "internalType": "uint256",
          "name": "tokenId",
          "type": "uint256"
        }
      ],
      "name": "Transfer",
      "type": "event"
    },
    {
      "inputs": [],
      "name": "_royaltiesPercentage",
      "outputs": [
        {
          "internalType": "uint256",
          "name": "",
          "type": "uint256"
        }
      ],
      "stateMutability": "view",
      "type": "function"
    },
    {
      "inputs": [
        {
          "internalType": "address",
          "name": "to",
          "type": "address"
        },
        {
          "internalType": "uint256",
          "name": "tokenId",
          "type": "uint256"
        }
      ],
      "name": "approve",
      "outputs": [],
      "stateMutability": "nonpayable",
      "type": "function"
    },
    {
      "inputs": [
        {
          "internalType": "address",
          "name": "owner",
          "type": "address"
        }
      ],
      "name": "balanceOf",
      "outputs": [
        {
          "internalType": "uint256",
          "name": "",
          "type": "uint256"
        }
      ],
      "stateMutability": "view",
      "type": "function"
    },
    {
      "inputs": [
        {
          "internalType": "uint256",
          "name": "tokenId",
          "type": "uint256"
        }
      ],
      "name": "getApproved",
      "outputs": [
        {
          "internalType": "address",
          "name": "",
          "type": "address"
        }
      ],
      "stateMutability": "view",
      "type": "function"
    },
    {
      "inputs": [],
      "name": "getRoyaltiesPercentage",
      "outputs": [
        {
          "internalType": "uint256",
          "name": "",
          "type": "uint256"
        }
      ],
      "stateMutability": "view",
      "type": "function"
    },
    {
      "inputs": [],
      "name": "getTotalItemsMinted",
      "outputs": [
        {
          "internalType": "uint256",
          "name": "",
          "type": "uint256"
        }
      ],
      "stateMutability": "view",
      "type": "function"
    },
    {
      "inputs": [],
      "name": "initialize",
      "outputs": [],
      "stateMutability": "nonpayable",
      "type": "function"
    },
    {
      "inputs": [
        {
          "internalType": "address",
          "name": "_owner",
          "type": "address"
        },
        {
          "internalType": "address",
          "name": "_operator",
          "type": "address"
        }
      ],
      "name": "isApprovedForAll",
      "outputs": [
        {
          "internalType": "bool",
          "name": "isOperator",
          "type": "bool"
        }
      ],
      "stateMutability": "view",
      "type": "function"
    },
    {
      "inputs": [
        {
          "internalType": "address",
          "name": "creator",
          "type": "address"
        },
        {
          "internalType": "string",
          "name": "_tokenURI",
          "type": "string"
        }
      ],
      "name": "mintNFT",
      "outputs": [
        {
          "internalType": "uint256",
          "name": "",
          "type": "uint256"
        }
      ],
      "stateMutability": "nonpayable",
      "type": "function"
    },
    {
      "inputs": [],
      "name": "name",
      "outputs": [
        {
          "internalType": "string",
          "name": "",
          "type": "string"
        }
      ],
      "stateMutability": "view",
      "type": "function"
    },
    {
      "inputs": [],
      "name": "owner",
      "outputs": [
        {
          "internalType": "address",
          "name": "",
          "type": "address"
        }
      ],
      "stateMutability": "view",
      "type": "function"
    },
    {
      "inputs": [
        {
          "internalType": "uint256",
          "name": "tokenId",
          "type": "uint256"
        }
      ],
      "name": "ownerOf",
      "outputs": [
        {
          "internalType": "address",
          "name": "",
          "type": "address"
        }
      ],
      "stateMutability": "view",
      "type": "function"
    },
    {
      "inputs": [],
      "name": "renounceOwnership",
      "outputs": [],
      "stateMutability": "nonpayable",
      "type": "function"
    },
    {
      "inputs": [],
      "name": "royaltiesReceiver",
      "outputs": [
        {
          "internalType": "address",
          "name": "",
          "type": "address"
        }
      ],
      "stateMutability": "view",
      "type": "function"
    },
    {
      "inputs": [
        {
          "internalType": "uint256",
          "name": "_nftId",
          "type": "uint256"
        },
        {
          "internalType": "uint256",
          "name": "_salePrice",
          "type": "uint256"
        }
      ],
      "name": "royaltyInfo",
      "outputs": [
        {
          "internalType": "address",
          "name": "receiver",
          "type": "address"
        },
        {
          "internalType": "uint256",
          "name": "royaltyAmount",
          "type": "uint256"
        },
        {
          "internalType": "uint256",
          "name": "tokenId",
          "type": "uint256"
        }
      ],
      "stateMutability": "view",
      "type": "function"
    },
    {
      "inputs": [
        {
          "internalType": "address",
          "name": "from",
          "type": "address"
        },
        {
          "internalType": "address",
          "name": "to",
          "type": "address"
        },
        {
          "internalType": "uint256",
          "name": "tokenId",
          "type": "uint256"
        }
      ],
      "name": "safeTransferFrom",
      "outputs": [],
      "stateMutability": "nonpayable",
      "type": "function"
    },
    {
      "inputs": [
        {
          "internalType": "address",
          "name": "from",
          "type": "address"
        },
        {
          "internalType": "address",
          "name": "to",
          "type": "address"
        },
        {
          "internalType": "uint256",
          "name": "tokenId",
          "type": "uint256"
        },
        {
          "internalType": "bytes",
          "name": "_data",
          "type": "bytes"
        }
      ],
      "name": "safeTransferFrom",
      "outputs": [],
      "stateMutability": "nonpayable",
      "type": "function"
    },
    {
      "inputs": [
        {
          "internalType": "address",
          "name": "operator",
          "type": "address"
        },
        {
          "internalType": "bool",
          "name": "approved",
          "type": "bool"
        }
      ],
      "name": "setApprovalForAll",
      "outputs": [],
      "stateMutability": "nonpayable",
      "type": "function"
    },
    {
      "inputs": [
        {
          "internalType": "uint256",
          "name": "newRoyalties",
          "type": "uint256"
        }
      ],
      "name": "setRoyalties",
      "outputs": [],
      "stateMutability": "nonpayable",
      "type": "function"
    },
    {
      "inputs": [
        {
          "internalType": "address",
          "name": "newRoyaltiesReceiver",
          "type": "address"
        }
      ],
      "name": "setRoyaltiesReceiver",
      "outputs": [],
      "stateMutability": "nonpayable",
      "type": "function"
    },
    {
      "inputs": [
        {
          "internalType": "bytes4",
          "name": "interfaceId",
          "type": "bytes4"
        }
      ],
      "name": "supportsInterface",
      "outputs": [
        {
          "internalType": "bool",
          "name": "",
          "type": "bool"
        }
      ],
      "stateMutability": "view",
      "type": "function"
    },
    {
      "inputs": [],
      "name": "symbol",
      "outputs": [
        {
          "internalType": "string",
          "name": "",
          "type": "string"
        }
      ],
      "stateMutability": "view",
      "type": "function"
    },
    {
      "inputs": [
        {
          "internalType": "uint256",
          "name": "index",
          "type": "uint256"
        }
      ],
      "name": "tokenByIndex",
      "outputs": [
        {
          "internalType": "uint256",
          "name": "",
          "type": "uint256"
        }
      ],
      "stateMutability": "view",
      "type": "function"
    },
    {
      "inputs": [
        {
          "internalType": "address",
          "name": "owner",
          "type": "address"
        },
        {
          "internalType": "uint256",
          "name": "index",
          "type": "uint256"
        }
      ],
      "name": "tokenOfOwnerByIndex",
      "outputs": [
        {
          "internalType": "uint256",
          "name": "",
          "type": "uint256"
        }
      ],
      "stateMutability": "view",
      "type": "function"
    },
    {
      "inputs": [
        {
          "internalType": "uint256",
          "name": "tokenId",
          "type": "uint256"
        }
      ],
      "name": "tokenURI",
      "outputs": [
        {
          "internalType": "string",
          "name": "",
          "type": "string"
        }
      ],
      "stateMutability": "view",
      "type": "function"
    },
    {
      "inputs": [
        {
          "internalType": "address",
          "name": "_owner",
          "type": "address"
        }
      ],
      "name": "tokensOfOwner",
      "outputs": [
        {
          "internalType": "uint256[]",
          "name": "ownerTokens",
          "type": "uint256[]"
        }
      ],
      "stateMutability": "view",
      "type": "function"
    },
    {
      "inputs": [],
      "name": "totalSupply",
      "outputs": [
        {
          "internalType": "uint256",
          "name": "",
          "type": "uint256"
        }
      ],
      "stateMutability": "view",
      "type": "function"
    },
    {
      "inputs": [
        {
          "internalType": "address",
          "name": "from",
          "type": "address"
        },
        {
          "internalType": "address",
          "name": "to",
          "type": "address"
        },
        {
          "internalType": "uint256",
          "name": "tokenId",
          "type": "uint256"
        }
      ],
      "name": "transferFrom",
      "outputs": [],
      "stateMutability": "nonpayable",
      "type": "function"
    },
    {
      "inputs": [
        {
          "internalType": "address",
          "name": "newOwner",
          "type": "address"
        }
      ],
      "name": "transferOwnership",
      "outputs": [],
      "stateMutability": "nonpayable",
      "type": "function"
    }
  ],
  "bytecode": "0x608060405234801561001057600080fd5b50614da6806100206000396000f3fe608060405234801561001057600080fd5b50600436106101cf5760003560e01c8063715018a611610104578063b5143715116100a2578063e985e9c511610071578063e985e9c514610530578063eacabe1414610560578063ef8aac5414610590578063f2fde38b146105ae576101cf565b8063b5143715146104aa578063b88d4fde146104c6578063c87b56dd146104e2578063cf7761ee14610512576101cf565b80638da5cb5b116100de5780638da5cb5b1461043457806395d89b4114610452578063a22cb46514610470578063a3a51bd51461048c576101cf565b8063715018a6146103f05780638129fc1c146103fa5780638462151c14610404576101cf565b80632a55205a1161017157806342842e0e1161014b57806342842e0e146103445780634f6ccce7146103605780636352211e1461039057806370a08231146103c0576101cf565b80632a55205a146102c65780632b80183f146102f85780632f745c5914610314576101cf565b8063081812fc116101ad578063081812fc14610240578063095ea7b31461027057806318160ddd1461028c57806323b872dd146102aa576101cf565b806301ffc9a7146101d457806306fdde0314610204578063075b890714610222575b600080fd5b6101ee60048036038101906101e991906139f2565b6105ca565b6040516101fb9190613fc1565b60405180910390f35b61020c610644565b6040516102199190613fdc565b60405180910390f35b61022a6106d6565b604051610237919061429e565b60405180910390f35b61025a60048036038101906102559190613a44565b6106e1565b6040516102679190613f01565b60405180910390f35b61028a600480360381019061028591906139b6565b610766565b005b61029461087e565b6040516102a1919061429e565b60405180910390f35b6102c460048036038101906102bf919061385c565b61088b565b005b6102e060048036038101906102db9190613a6d565b6108eb565b6040516102ef93929190613f68565b60405180910390f35b610312600480360381019061030d9190613a44565b610942565b005b61032e600480360381019061032991906139b6565b6109d9565b60405161033b919061429e565b60405180910390f35b61035e6004803603810190610359919061385c565b610a7e565b005b61037a60048036038101906103759190613a44565b610a9e565b604051610387919061429e565b60405180910390f35b6103aa60048036038101906103a59190613a44565b610b35565b6040516103b79190613f01565b60405180910390f35b6103da60048036038101906103d591906137f7565b610be7565b6040516103e7919061429e565b60405180910390f35b6103f8610c9f565b005b610402610d27565b005b61041e600480360381019061041991906137f7565b610eeb565b60405161042b9190613f9f565b60405180910390f35b61043c611068565b6040516104499190613f01565b60405180910390f35b61045a611092565b6040516104679190613fdc565b60405180910390f35b61048a60048036038101906104859190613926565b611124565b005b6104946112a5565b6040516104a19190613f01565b60405180910390f35b6104c460048036038101906104bf91906137f7565b6112d0565b005b6104e060048036038101906104db91906138ab565b6113ed565b005b6104fc60048036038101906104f79190613a44565b61144f565b6040516105099190613fdc565b60405180910390f35b61051a611461565b604051610527919061429e565b60405180910390f35b61054a60048036038101906105459190613820565b611468565b6040516105579190613fc1565b60405180910390f35b61057a60048036038101906105759190613962565b6114ce565b604051610587919061429e565b60405180910390f35b610598611669565b6040516105a5919061429e565b60405180910390f35b6105c860048036038101906105c391906137f7565b61167b565b005b60007f2a55205a000000000000000000000000000000000000000000000000000000007bffffffffffffffffffffffffffffffffffffffffffffffffffffffff1916827bffffffffffffffffffffffffffffffffffffffffffffffffffffffff1916148061063d575061063c82611773565b5b9050919050565b60606097805461065390614587565b80601f016020809104026020016040519081016040528092919081815260200182805461067f90614587565b80156106cc5780601f106106a1576101008083540402835291602001916106cc565b820191906000526020600020905b8154815290600101906020018083116106af57829003601f168201915b5050505050905090565b600061012f54905090565b60006106ec826117ed565b61072b576040517f08c379a0000000000000000000000000000000000000000000000000000000008152600401610722906141be565b60405180910390fd5b609b600083815260200190815260200160002060009054906101000a900473ffffffffffffffffffffffffffffffffffffffff169050919050565b600061077182610b35565b90508073ffffffffffffffffffffffffffffffffffffffff168373ffffffffffffffffffffffffffffffffffffffff1614156107e2576040517f08c379a00000000000000000000000000000000000000000000000000000000081526004016107d99061423e565b60405180910390fd5b8073ffffffffffffffffffffffffffffffffffffffff16610801611859565b73ffffffffffffffffffffffffffffffffffffffff161480610830575061082f8161082a611859565b611468565b5b61086f576040517f08c379a0000000000000000000000000000000000000000000000000000000008152600401610866906140de565b60405180910390fd5b6108798383611868565b505050565b600060cb80549050905090565b61089c610896611859565b82611921565b6108db576040517f08c379a00000000000000000000000000000000000000000000000000000000081526004016108d29061425e565b60405180910390fd5b6108e68383836119ff565b505050565b600080600080606461012f54866109029190614443565b61090c9190614412565b905061012e60009054906101000a900473ffffffffffffffffffffffffffffffffffffffff168187935093509350509250925092565b61094a611859565b73ffffffffffffffffffffffffffffffffffffffff16610968611068565b73ffffffffffffffffffffffffffffffffffffffff16146109be576040517f08c379a00000000000000000000000000000000000000000000000000000000081526004016109b5906141de565b60405180910390fd5b61012f548114156109ce57600080fd5b8061012f8190555050565b60006109e483610be7565b8210610a25576040517f08c379a0000000000000000000000000000000000000000000000000000000008152600401610a1c90613ffe565b60405180910390fd5b60c960008473ffffffffffffffffffffffffffffffffffffffff1673ffffffffffffffffffffffffffffffffffffffff168152602001908152602001600020600083815260200190815260200160002054905092915050565b610a99838383604051806020016040528060008152506113ed565b505050565b6000610aa861087e565b8210610ae9576040517f08c379a0000000000000000000000000000000000000000000000000000000008152600401610ae09061427e565b60405180910390fd5b60cb8281548110610b23577f4e487b7100000000000000000000000000000000000000000000000000000000600052603260045260246000fd5b90600052602060002001549050919050565b6000806099600084815260200190815260200160002060009054906101000a900473ffffffffffffffffffffffffffffffffffffffff169050600073ffffffffffffffffffffffffffffffffffffffff168173ffffffffffffffffffffffffffffffffffffffff161415610bde576040517f08c379a0000000000000000000000000000000000000000000000000000000008152600401610bd59061411e565b60405180910390fd5b80915050919050565b60008073ffffffffffffffffffffffffffffffffffffffff168273ffffffffffffffffffffffffffffffffffffffff161415610c58576040517f08c379a0000000000000000000000000000000000000000000000000000000008152600401610c4f906140fe565b60405180910390fd5b609a60008373ffffffffffffffffffffffffffffffffffffffff1673ffffffffffffffffffffffffffffffffffffffff168152602001908152602001600020549050919050565b610ca7611859565b73ffffffffffffffffffffffffffffffffffffffff16610cc5611068565b73ffffffffffffffffffffffffffffffffffffffff1614610d1b576040517f08c379a0000000000000000000000000000000000000000000000000000000008152600401610d12906141de565b60405180910390fd5b610d256000611a0f565b565b600060019054906101000a900460ff1680610d4d575060008054906101000a900460ff16155b610d8c576040517f08c379a0000000000000000000000000000000000000000000000000000000008152600401610d839061415e565b60405180910390fd5b60008060019054906101000a900460ff161590508015610ddc576001600060016101000a81548160ff02191690831515021790555060016000806101000a81548160ff0219169083151502179055505b610e506040518060400160405280600c81526020017f4d6f69612053747564696f7300000000000000000000000000000000000000008152506040518060400160405280600581526020017f4d4f495353000000000000000000000000000000000000000000000000000000815250611ad5565b610e58611bca565b610e60611cbb565b610e68611dac565b73a8d145dd3003817da1dc83f838ee5088b65acf2e61012e60006101000a81548173ffffffffffffffffffffffffffffffffffffffff021916908373ffffffffffffffffffffffffffffffffffffffff160217905550600761012f819055508015610ee85760008060016101000a81548160ff0219169083151502179055505b50565b60606000610ef883610be7565b905060008167ffffffffffffffff811115610f3c577f4e487b7100000000000000000000000000000000000000000000000000000000600052604160045260246000fd5b604051908082528060200260200182016040528015610f6a5781602001602082028036833780820191505090505b5090506000821415610fef57600067ffffffffffffffff811115610fb7577f4e487b7100000000000000000000000000000000000000000000000000000000600052604160045260246000fd5b604051908082528060200260200182016040528015610fe55781602001602082028036833780820191505090505b5092505050611063565b60005b8281101561105c5761100485826109d9565b82828151811061103d577f4e487b7100000000000000000000000000000000000000000000000000000000600052603260045260246000fd5b6020026020010181815250508080611054906145ea565b915050610ff2565b5080925050505b919050565b6000603360009054906101000a900473ffffffffffffffffffffffffffffffffffffffff16905090565b6060609880546110a190614587565b80601f01602080910402602001604051908101604052809291908181526020018280546110cd90614587565b801561111a5780601f106110ef5761010080835404028352916020019161111a565b820191906000526020600020905b8154815290600101906020018083116110fd57829003601f168201915b5050505050905090565b61112c611859565b73ffffffffffffffffffffffffffffffffffffffff168273ffffffffffffffffffffffffffffffffffffffff16141561119a576040517f08c379a00000000000000000000000000000000000000000000000000000000081526004016111919061409e565b60405180910390fd5b80609c60006111a7611859565b73ffffffffffffffffffffffffffffffffffffffff1673ffffffffffffffffffffffffffffffffffffffff16815260200190815260200160002060008473ffffffffffffffffffffffffffffffffffffffff1673ffffffffffffffffffffffffffffffffffffffff16815260200190815260200160002060006101000a81548160ff0219169083151502179055508173ffffffffffffffffffffffffffffffffffffffff16611254611859565b73ffffffffffffffffffffffffffffffffffffffff167f17307eab39ab6107e8899845ad3d59bd9653f200f220920489ca2b5937696c31836040516112999190613fc1565b60405180910390a35050565b600061012e60009054906101000a900473ffffffffffffffffffffffffffffffffffffffff16905090565b6112d8611859565b73ffffffffffffffffffffffffffffffffffffffff166112f6611068565b73ffffffffffffffffffffffffffffffffffffffff161461134c576040517f08c379a0000000000000000000000000000000000000000000000000000000008152600401611343906141de565b60405180910390fd5b61012e60009054906101000a900473ffffffffffffffffffffffffffffffffffffffff1673ffffffffffffffffffffffffffffffffffffffff168173ffffffffffffffffffffffffffffffffffffffff1614156113a857600080fd5b8061012e60006101000a81548173ffffffffffffffffffffffffffffffffffffffff021916908373ffffffffffffffffffffffffffffffffffffffff16021790555050565b6113fe6113f8611859565b83611921565b61143d576040517f08c379a00000000000000000000000000000000000000000000000000000000081526004016114349061425e565b60405180910390fd5b61144984848484611e95565b50505050565b606061145a82611ef1565b9050919050565b61012f5481565b60007358807bad0b376efc12f5ad86aac70e78ed67deae73ffffffffffffffffffffffffffffffffffffffff168273ffffffffffffffffffffffffffffffffffffffff1614156114bb57600190506114c8565b6114c58383612043565b90505b92915050565b60006114d8611859565b73ffffffffffffffffffffffffffffffffffffffff166114f6611068565b73ffffffffffffffffffffffffffffffffffffffff161461154c576040517f08c379a0000000000000000000000000000000000000000000000000000000008152600401611543906141de565b60405180910390fd5b600082511161155a57600080fd5b61156561012d6120d7565b600061157261012d6120ed565b905061157e84826120fb565b6115888184612119565b60405180604001604052808281526020018573ffffffffffffffffffffffffffffffffffffffff1681525061013060008381526020019081526020016000206000820151816000015560208201518160010160006101000a81548173ffffffffffffffffffffffffffffffffffffffff021916908373ffffffffffffffffffffffffffffffffffffffff1602179055509050508373ffffffffffffffffffffffffffffffffffffffff16817ff3cea5493d790af0133817606f7350a91d7f154ea52eaa79d179d4d231e5010260405160405180910390a38091505092915050565b600061167661012d6120ed565b905090565b611683611859565b73ffffffffffffffffffffffffffffffffffffffff166116a1611068565b73ffffffffffffffffffffffffffffffffffffffff16146116f7576040517f08c379a00000000000000000000000000000000000000000000000000000000081526004016116ee906141de565b60405180910390fd5b600073ffffffffffffffffffffffffffffffffffffffff168173ffffffffffffffffffffffffffffffffffffffff161415611767576040517f08c379a000000000000000000000000000000000000000000000000000000000815260040161175e9061403e565b60405180910390fd5b61177081611a0f565b50565b60007f780e9d63000000000000000000000000000000000000000000000000000000007bffffffffffffffffffffffffffffffffffffffffffffffffffffffff1916827bffffffffffffffffffffffffffffffffffffffffffffffffffffffff191614806117e657506117e58261218d565b5b9050919050565b60008073ffffffffffffffffffffffffffffffffffffffff166099600084815260200190815260200160002060009054906101000a900473ffffffffffffffffffffffffffffffffffffffff1673ffffffffffffffffffffffffffffffffffffffff1614159050919050565b600061186361226f565b905090565b81609b600083815260200190815260200160002060006101000a81548173ffffffffffffffffffffffffffffffffffffffff021916908373ffffffffffffffffffffffffffffffffffffffff160217905550808273ffffffffffffffffffffffffffffffffffffffff166118db83610b35565b73ffffffffffffffffffffffffffffffffffffffff167f8c5be1e5ebec7d5bd14f71427d1e84f3dd0314c0f7b2291e5b200ac8c7c3b92560405160405180910390a45050565b600061192c826117ed565b61196b576040517f08c379a0000000000000000000000000000000000000000000000000000000008152600401611962906140be565b60405180910390fd5b600061197683610b35565b90508073ffffffffffffffffffffffffffffffffffffffff168473ffffffffffffffffffffffffffffffffffffffff1614806119e557508373ffffffffffffffffffffffffffffffffffffffff166119cd846106e1565b73ffffffffffffffffffffffffffffffffffffffff16145b806119f657506119f58185611468565b5b91505092915050565b611a0a838383612320565b505050565b6000603360009054906101000a900473ffffffffffffffffffffffffffffffffffffffff16905081603360006101000a81548173ffffffffffffffffffffffffffffffffffffffff021916908373ffffffffffffffffffffffffffffffffffffffff1602179055508173ffffffffffffffffffffffffffffffffffffffff168173ffffffffffffffffffffffffffffffffffffffff167f8be0079c531659141344cd1fd0a4f28419497f9722a3daafe3b4186f6b6457e060405160405180910390a35050565b600060019054906101000a900460ff1680611afb575060008054906101000a900460ff16155b611b3a576040517f08c379a0000000000000000000000000000000000000000000000000000000008152600401611b319061415e565b60405180910390fd5b60008060019054906101000a900460ff161590508015611b8a576001600060016101000a81548160ff02191690831515021790555060016000806101000a81548160ff0219169083151502179055505b611b9261257c565b611b9a612655565b611ba4838361272e565b8015611bc55760008060016101000a81548160ff0219169083151502179055505b505050565b600060019054906101000a900460ff1680611bf0575060008054906101000a900460ff16155b611c2f576040517f08c379a0000000000000000000000000000000000000000000000000000000008152600401611c269061415e565b60405180910390fd5b60008060019054906101000a900460ff161590508015611c7f576001600060016101000a81548160ff02191690831515021790555060016000806101000a81548160ff0219169083151502179055505b611c8761257c565b611c8f612655565b611c97612837565b8015611cb85760008060016101000a81548160ff0219169083151502179055505b50565b600060019054906101000a900460ff1680611ce1575060008054906101000a900460ff16155b611d20576040517f08c379a0000000000000000000000000000000000000000000000000000000008152600401611d179061415e565b60405180910390fd5b60008060019054906101000a900460ff161590508015611d70576001600060016101000a81548160ff02191690831515021790555060016000806101000a81548160ff0219169083151502179055505b611d7861257c565b611d80612655565b611d88612910565b8015611da95760008060016101000a81548160ff0219169083151502179055505b50565b600060019054906101000a900460ff1680611dd2575060008054906101000a900460ff16155b611e11576040517f08c379a0000000000000000000000000000000000000000000000000000000008152600401611e089061415e565b60405180910390fd5b60008060019054906101000a900460ff161590508015611e61576001600060016101000a81548160ff02191690831515021790555060016000806101000a81548160ff0219169083151502179055505b611e6961257c565b611e716129e9565b8015611e925760008060016101000a81548160ff0219169083151502179055505b50565b611ea08484846119ff565b611eac84848484612ad2565b611eeb576040517f08c379a0000000000000000000000000000000000000000000000000000000008152600401611ee29061401e565b60405180910390fd5b50505050565b6060611efc826117ed565b611f3b576040517f08c379a0000000000000000000000000000000000000000000000000000000008152600401611f329061419e565b60405180910390fd5b600060fb60008481526020019081526020016000208054611f5b90614587565b80601f0160208091040260200160405190810160405280929190818152602001828054611f8790614587565b8015611fd45780601f10611fa957610100808354040283529160200191611fd4565b820191906000526020600020905b815481529060010190602001808311611fb757829003601f168201915b505050505090506000611fe5612c69565b9050600081511415611ffb57819250505061203e565b600082511115612030578082604051602001612018929190613edd565b6040516020818303038152906040529250505061203e565b61203984612c80565b925050505b919050565b6000609c60008473ffffffffffffffffffffffffffffffffffffffff1673ffffffffffffffffffffffffffffffffffffffff16815260200190815260200160002060008373ffffffffffffffffffffffffffffffffffffffff1673ffffffffffffffffffffffffffffffffffffffff16815260200190815260200160002060009054906101000a900460ff16905092915050565b6001816000016000828254019250508190555050565b600081600001549050919050565b612115828260405180602001604052806000815250612d27565b5050565b612122826117ed565b612161576040517f08c379a00000000000000000000000000000000000000000000000000000000081526004016121589061413e565b60405180910390fd5b8060fb6000848152602001908152602001600020908051906020019061218892919061361b565b505050565b60007f80ac58cd000000000000000000000000000000000000000000000000000000007bffffffffffffffffffffffffffffffffffffffffffffffffffffffff1916827bffffffffffffffffffffffffffffffffffffffffffffffffffffffff1916148061225857507f5b5e139f000000000000000000000000000000000000000000000000000000007bffffffffffffffffffffffffffffffffffffffffffffffffffffffff1916827bffffffffffffffffffffffffffffffffffffffffffffffffffffffff1916145b80612268575061226782612d82565b5b9050919050565b60003073ffffffffffffffffffffffffffffffffffffffff163373ffffffffffffffffffffffffffffffffffffffff16141561231957600080368080601f016020809104026020016040519081016040528093929190818152602001838380828437600081840152601f19601f820116905080830192505050505050509050600080369050905073ffffffffffffffffffffffffffffffffffffffff81830151169250505061231d565b3390505b90565b8273ffffffffffffffffffffffffffffffffffffffff1661234082610b35565b73ffffffffffffffffffffffffffffffffffffffff1614612396576040517f08c379a000000000000000000000000000000000000000000000000000000000815260040161238d906141fe565b60405180910390fd5b600073ffffffffffffffffffffffffffffffffffffffff168273ffffffffffffffffffffffffffffffffffffffff161415612406576040517f08c379a00000000000000000000000000000000000000000000000000000000081526004016123fd9061407e565b60405180910390fd5b612411838383612dec565b61241c600082611868565b6001609a60008573ffffffffffffffffffffffffffffffffffffffff1673ffffffffffffffffffffffffffffffffffffffff168152602001908152602001600020600082825461246c919061449d565b925050819055506001609a60008473ffffffffffffffffffffffffffffffffffffffff1673ffffffffffffffffffffffffffffffffffffffff16815260200190815260200160002060008282546124c391906143bc565b92505081905550816099600083815260200190815260200160002060006101000a81548173ffffffffffffffffffffffffffffffffffffffff021916908373ffffffffffffffffffffffffffffffffffffffff160217905550808273ffffffffffffffffffffffffffffffffffffffff168473ffffffffffffffffffffffffffffffffffffffff167fddf252ad1be2c89b69c2b068fc378daa952ba7f163c4a11628f55a4df523b3ef60405160405180910390a4505050565b600060019054906101000a900460ff16806125a2575060008054906101000a900460ff16155b6125e1576040517f08c379a00000000000000000000000000000000000000000000000000000000081526004016125d89061415e565b60405180910390fd5b60008060019054906101000a900460ff161590508015612631576001600060016101000a81548160ff02191690831515021790555060016000806101000a81548160ff0219169083151502179055505b80156126525760008060016101000a81548160ff0219169083151502179055505b50565b600060019054906101000a900460ff168061267b575060008054906101000a900460ff16155b6126ba576040517f08c379a00000000000000000000000000000000000000000000000000000000081526004016126b19061415e565b60405180910390fd5b60008060019054906101000a900460ff16159050801561270a576001600060016101000a81548160ff02191690831515021790555060016000806101000a81548160ff0219169083151502179055505b801561272b5760008060016101000a81548160ff0219169083151502179055505b50565b600060019054906101000a900460ff1680612754575060008054906101000a900460ff16155b612793576040517f08c379a000000000000000000000000000000000000000000000000000000000815260040161278a9061415e565b60405180910390fd5b60008060019054906101000a900460ff1615905080156127e3576001600060016101000a81548160ff02191690831515021790555060016000806101000a81548160ff0219169083151502179055505b82609790805190602001906127f992919061361b565b50816098908051906020019061281092919061361b565b5080156128325760008060016101000a81548160ff0219169083151502179055505b505050565b600060019054906101000a900460ff168061285d575060008054906101000a900460ff16155b61289c576040517f08c379a00000000000000000000000000000000000000000000000000000000081526004016128939061415e565b60405180910390fd5b60008060019054906101000a900460ff1615905080156128ec576001600060016101000a81548160ff02191690831515021790555060016000806101000a81548160ff0219169083151502179055505b801561290d5760008060016101000a81548160ff0219169083151502179055505b50565b600060019054906101000a900460ff1680612936575060008054906101000a900460ff16155b612975576040517f08c379a000000000000000000000000000000000000000000000000000000000815260040161296c9061415e565b60405180910390fd5b60008060019054906101000a900460ff1615905080156129c5576001600060016101000a81548160ff02191690831515021790555060016000806101000a81548160ff0219169083151502179055505b80156129e65760008060016101000a81548160ff0219169083151502179055505b50565b600060019054906101000a900460ff1680612a0f575060008054906101000a900460ff16155b612a4e576040517f08c379a0000000000000000000000000000000000000000000000000000000008152600401612a459061415e565b60405180910390fd5b60008060019054906101000a900460ff161590508015612a9e576001600060016101000a81548160ff02191690831515021790555060016000806101000a81548160ff0219169083151502179055505b612aae612aa9611859565b611a0f565b8015612acf5760008060016101000a81548160ff0219169083151502179055505b50565b6000612af38473ffffffffffffffffffffffffffffffffffffffff16612dfc565b15612c5c578373ffffffffffffffffffffffffffffffffffffffff1663150b7a02612b1c611859565b8786866040518563ffffffff1660e01b8152600401612b3e9493929190613f1c565b602060405180830381600087803b158015612b5857600080fd5b505af1925050508015612b8957506040513d601f19601f82011682018060405250810190612b869190613a1b565b60015b612c0c573d8060008114612bb9576040519150601f19603f3d011682016040523d82523d6000602084013e612bbe565b606091505b50600081511415612c04576040517f08c379a0000000000000000000000000000000000000000000000000000000008152600401612bfb9061401e565b60405180910390fd5b805181602001fd5b63150b7a0260e01b7bffffffffffffffffffffffffffffffffffffffffffffffffffffffff1916817bffffffffffffffffffffffffffffffffffffffffffffffffffffffff191614915050612c61565b600190505b949350505050565b606060405180602001604052806000815250905090565b6060612c8b826117ed565b612cca576040517f08c379a0000000000000000000000000000000000000000000000000000000008152600401612cc19061421e565b60405180910390fd5b6000612cd4612c69565b90506000815111612cf45760405180602001604052806000815250612d1f565b80612cfe84612e0f565b604051602001612d0f929190613edd565b6040516020818303038152906040525b915050919050565b612d318383612fbc565b612d3e6000848484612ad2565b612d7d576040517f08c379a0000000000000000000000000000000000000000000000000000000008152600401612d749061401e565b60405180910390fd5b505050565b60007f01ffc9a7000000000000000000000000000000000000000000000000000000007bffffffffffffffffffffffffffffffffffffffffffffffffffffffff1916827bffffffffffffffffffffffffffffffffffffffffffffffffffffffff1916149050919050565b612df783838361318a565b505050565b600080823b905060008111915050919050565b60606000821415612e57576040518060400160405280600181526020017f30000000000000000000000000000000000000000000000000000000000000008152509050612fb7565b600082905060005b60008214612e89578080612e72906145ea565b915050600a82612e829190614412565b9150612e5f565b60008167ffffffffffffffff811115612ecb577f4e487b7100000000000000000000000000000000000000000000000000000000600052604160045260246000fd5b6040519080825280601f01601f191660200182016040528015612efd5781602001600182028036833780820191505090505b5090505b60008514612fb057600182612f16919061449d565b9150600a85612f259190614633565b6030612f3191906143bc565b60f81b818381518110612f6d577f4e487b7100000000000000000000000000000000000000000000000000000000600052603260045260246000fd5b60200101907effffffffffffffffffffffffffffffffffffffffffffffffffffffffffffff1916908160001a905350600a85612fa99190614412565b9450612f01565b8093505050505b919050565b600073ffffffffffffffffffffffffffffffffffffffff168273ffffffffffffffffffffffffffffffffffffffff16141561302c576040517f08c379a00000000000000000000000000000000000000000000000000000000081526004016130239061417e565b60405180910390fd5b613035816117ed565b15613075576040517f08c379a000000000000000000000000000000000000000000000000000000000815260040161306c9061405e565b60405180910390fd5b61308160008383612dec565b6001609a60008473ffffffffffffffffffffffffffffffffffffffff1673ffffffffffffffffffffffffffffffffffffffff16815260200190815260200160002060008282546130d191906143bc565b92505081905550816099600083815260200190815260200160002060006101000a81548173ffffffffffffffffffffffffffffffffffffffff021916908373ffffffffffffffffffffffffffffffffffffffff160217905550808273ffffffffffffffffffffffffffffffffffffffff16600073ffffffffffffffffffffffffffffffffffffffff167fddf252ad1be2c89b69c2b068fc378daa952ba7f163c4a11628f55a4df523b3ef60405160405180910390a45050565b61319583838361329e565b600073ffffffffffffffffffffffffffffffffffffffff168373ffffffffffffffffffffffffffffffffffffffff1614156131d8576131d3816132a3565b613217565b8173ffffffffffffffffffffffffffffffffffffffff168373ffffffffffffffffffffffffffffffffffffffff16146132165761321583826132ec565b5b5b600073ffffffffffffffffffffffffffffffffffffffff168273ffffffffffffffffffffffffffffffffffffffff16141561325a5761325581613459565b613299565b8273ffffffffffffffffffffffffffffffffffffffff168273ffffffffffffffffffffffffffffffffffffffff161461329857613297828261359c565b5b5b505050565b505050565b60cb8054905060cc60008381526020019081526020016000208190555060cb81908060018154018082558091505060019003906000526020600020016000909190919091505550565b600060016132f984610be7565b613303919061449d565b9050600060ca60008481526020019081526020016000205490508181146133e857600060c960008673ffffffffffffffffffffffffffffffffffffffff1673ffffffffffffffffffffffffffffffffffffffff16815260200190815260200160002060008481526020019081526020016000205490508060c960008773ffffffffffffffffffffffffffffffffffffffff1673ffffffffffffffffffffffffffffffffffffffff1681526020019081526020016000206000848152602001908152602001600020819055508160ca600083815260200190815260200160002081905550505b60ca60008481526020019081526020016000206000905560c960008573ffffffffffffffffffffffffffffffffffffffff1673ffffffffffffffffffffffffffffffffffffffff16815260200190815260200160002060008381526020019081526020016000206000905550505050565b6000600160cb8054905061346d919061449d565b9050600060cc6000848152602001908152602001600020549050600060cb83815481106134c3577f4e487b7100000000000000000000000000000000000000000000000000000000600052603260045260246000fd5b906000526020600020015490508060cb838154811061350b577f4e487b7100000000000000000000000000000000000000000000000000000000600052603260045260246000fd5b90600052602060002001819055508160cc60008381526020019081526020016000208190555060cc60008581526020019081526020016000206000905560cb805480613580577f4e487b7100000000000000000000000000000000000000000000000000000000600052603160045260246000fd5b6001900381819060005260206000200160009055905550505050565b60006135a783610be7565b90508160c960008573ffffffffffffffffffffffffffffffffffffffff1673ffffffffffffffffffffffffffffffffffffffff1681526020019081526020016000206000838152602001908152602001600020819055508060ca600084815260200190815260200160002081905550505050565b82805461362790614587565b90600052602060002090601f0160209004810192826136495760008555613690565b82601f1061366257805160ff1916838001178555613690565b82800160010185558215613690579182015b8281111561368f578251825591602001919060010190613674565b5b50905061369d91906136a1565b5090565b5b808211156136ba5760008160009055506001016136a2565b5090565b60006136d16136cc846142de565b6142b9565b9050828152602081018484840111156136e957600080fd5b6136f4848285614545565b509392505050565b600061370f61370a8461430f565b6142b9565b90508281526020810184848401111561372757600080fd5b613732848285614545565b509392505050565b60008135905061374981614d14565b92915050565b60008135905061375e81614d2b565b92915050565b60008135905061377381614d42565b92915050565b60008151905061378881614d42565b92915050565b600082601f83011261379f57600080fd5b81356137af8482602086016136be565b91505092915050565b600082601f8301126137c957600080fd5b81356137d98482602086016136fc565b91505092915050565b6000813590506137f181614d59565b92915050565b60006020828403121561380957600080fd5b60006138178482850161373a565b91505092915050565b6000806040838503121561383357600080fd5b60006138418582860161373a565b92505060206138528582860161373a565b9150509250929050565b60008060006060848603121561387157600080fd5b600061387f8682870161373a565b93505060206138908682870161373a565b92505060406138a1868287016137e2565b9150509250925092565b600080600080608085870312156138c157600080fd5b60006138cf8782880161373a565b94505060206138e08782880161373a565b93505060406138f1878288016137e2565b925050606085013567ffffffffffffffff81111561390e57600080fd5b61391a8782880161378e565b91505092959194509250565b6000806040838503121561393957600080fd5b60006139478582860161373a565b92505060206139588582860161374f565b9150509250929050565b6000806040838503121561397557600080fd5b60006139838582860161373a565b925050602083013567ffffffffffffffff8111156139a057600080fd5b6139ac858286016137b8565b9150509250929050565b600080604083850312156139c957600080fd5b60006139d78582860161373a565b92505060206139e8858286016137e2565b9150509250929050565b600060208284031215613a0457600080fd5b6000613a1284828501613764565b91505092915050565b600060208284031215613a2d57600080fd5b6000613a3b84828501613779565b91505092915050565b600060208284031215613a5657600080fd5b6000613a64848285016137e2565b91505092915050565b60008060408385031215613a8057600080fd5b6000613a8e858286016137e2565b9250506020613a9f858286016137e2565b9150509250929050565b6000613ab58383613ebf565b60208301905092915050565b613aca816144d1565b82525050565b6000613adb82614350565b613ae5818561437e565b9350613af083614340565b8060005b83811015613b21578151613b088882613aa9565b9750613b1383614371565b925050600181019050613af4565b5085935050505092915050565b613b37816144e3565b82525050565b6000613b488261435b565b613b52818561438f565b9350613b62818560208601614554565b613b6b81614720565b840191505092915050565b6000613b8182614366565b613b8b81856143a0565b9350613b9b818560208601614554565b613ba481614720565b840191505092915050565b6000613bba82614366565b613bc481856143b1565b9350613bd4818560208601614554565b80840191505092915050565b6000613bed602b836143a0565b9150613bf882614731565b604082019050919050565b6000613c106032836143a0565b9150613c1b82614780565b604082019050919050565b6000613c336026836143a0565b9150613c3e826147cf565b604082019050919050565b6000613c56601c836143a0565b9150613c618261481e565b602082019050919050565b6000613c796024836143a0565b9150613c8482614847565b604082019050919050565b6000613c9c6019836143a0565b9150613ca782614896565b602082019050919050565b6000613cbf602c836143a0565b9150613cca826148bf565b604082019050919050565b6000613ce26038836143a0565b9150613ced8261490e565b604082019050919050565b6000613d05602a836143a0565b9150613d108261495d565b604082019050919050565b6000613d286029836143a0565b9150613d33826149ac565b604082019050919050565b6000613d4b602e836143a0565b9150613d56826149fb565b604082019050919050565b6000613d6e602e836143a0565b9150613d7982614a4a565b604082019050919050565b6000613d916020836143a0565b9150613d9c82614a99565b602082019050919050565b6000613db46031836143a0565b9150613dbf82614ac2565b604082019050919050565b6000613dd7602c836143a0565b9150613de282614b11565b604082019050919050565b6000613dfa6020836143a0565b9150613e0582614b60565b602082019050919050565b6000613e1d6029836143a0565b9150613e2882614b89565b604082019050919050565b6000613e40602f836143a0565b9150613e4b82614bd8565b604082019050919050565b6000613e636021836143a0565b9150613e6e82614c27565b604082019050919050565b6000613e866031836143a0565b9150613e9182614c76565b604082019050919050565b6000613ea9602c836143a0565b9150613eb482614cc5565b604082019050919050565b613ec88161453b565b82525050565b613ed78161453b565b82525050565b6000613ee98285613baf565b9150613ef58284613baf565b91508190509392505050565b6000602082019050613f166000830184613ac1565b92915050565b6000608082019050613f316000830187613ac1565b613f3e6020830186613ac1565b613f4b6040830185613ece565b8181036060830152613f5d8184613b3d565b905095945050505050565b6000606082019050613f7d6000830186613ac1565b613f8a6020830185613ece565b613f976040830184613ece565b949350505050565b60006020820190508181036000830152613fb98184613ad0565b905092915050565b6000602082019050613fd66000830184613b2e565b92915050565b60006020820190508181036000830152613ff68184613b76565b905092915050565b6000602082019050818103600083015261401781613be0565b9050919050565b6000602082019050818103600083015261403781613c03565b9050919050565b6000602082019050818103600083015261405781613c26565b9050919050565b6000602082019050818103600083015261407781613c49565b9050919050565b6000602082019050818103600083015261409781613c6c565b9050919050565b600060208201905081810360008301526140b781613c8f565b9050919050565b600060208201905081810360008301526140d781613cb2565b9050919050565b600060208201905081810360008301526140f781613cd5565b9050919050565b6000602082019050818103600083015261411781613cf8565b9050919050565b6000602082019050818103600083015261413781613d1b565b9050919050565b6000602082019050818103600083015261415781613d3e565b9050919050565b6000602082019050818103600083015261417781613d61565b9050919050565b6000602082019050818103600083015261419781613d84565b9050919050565b600060208201905081810360008301526141b781613da7565b9050919050565b600060208201905081810360008301526141d781613dca565b9050919050565b600060208201905081810360008301526141f781613ded565b9050919050565b6000602082019050818103600083015261421781613e10565b9050919050565b6000602082019050818103600083015261423781613e33565b9050919050565b6000602082019050818103600083015261425781613e56565b9050919050565b6000602082019050818103600083015261427781613e79565b9050919050565b6000602082019050818103600083015261429781613e9c565b9050919050565b60006020820190506142b36000830184613ece565b92915050565b60006142c36142d4565b90506142cf82826145b9565b919050565b6000604051905090565b600067ffffffffffffffff8211156142f9576142f86146f1565b5b61430282614720565b9050602081019050919050565b600067ffffffffffffffff82111561432a576143296146f1565b5b61433382614720565b9050602081019050919050565b6000819050602082019050919050565b600081519050919050565b600081519050919050565b600081519050919050565b6000602082019050919050565b600082825260208201905092915050565b600082825260208201905092915050565b600082825260208201905092915050565b600081905092915050565b60006143c78261453b565b91506143d28361453b565b9250827fffffffffffffffffffffffffffffffffffffffffffffffffffffffffffffffff0382111561440757614406614664565b5b828201905092915050565b600061441d8261453b565b91506144288361453b565b92508261443857614437614693565b5b828204905092915050565b600061444e8261453b565b91506144598361453b565b9250817fffffffffffffffffffffffffffffffffffffffffffffffffffffffffffffffff048311821515161561449257614491614664565b5b828202905092915050565b60006144a88261453b565b91506144b38361453b565b9250828210156144c6576144c5614664565b5b828203905092915050565b60006144dc8261451b565b9050919050565b60008115159050919050565b60007fffffffff0000000000000000000000000000000000000000000000000000000082169050919050565b600073ffffffffffffffffffffffffffffffffffffffff82169050919050565b6000819050919050565b82818337600083830152505050565b60005b83811015614572578082015181840152602081019050614557565b83811115614581576000848401525b50505050565b6000600282049050600182168061459f57607f821691505b602082108114156145b3576145b26146c2565b5b50919050565b6145c282614720565b810181811067ffffffffffffffff821117156145e1576145e06146f1565b5b80604052505050565b60006145f58261453b565b91507fffffffffffffffffffffffffffffffffffffffffffffffffffffffffffffffff82141561462857614627614664565b5b600182019050919050565b600061463e8261453b565b91506146498361453b565b92508261465957614658614693565b5b828206905092915050565b7f4e487b7100000000000000000000000000000000000000000000000000000000600052601160045260246000fd5b7f4e487b7100000000000000000000000000000000000000000000000000000000600052601260045260246000fd5b7f4e487b7100000000000000000000000000000000000000000000000000000000600052602260045260246000fd5b7f4e487b7100000000000000000000000000000000000000000000000000000000600052604160045260246000fd5b6000601f19601f8301169050919050565b7f455243373231456e756d657261626c653a206f776e657220696e646578206f7560008201527f74206f6620626f756e6473000000000000000000000000000000000000000000602082015250565b7f4552433732313a207472616e7366657220746f206e6f6e20455243373231526560008201527f63656976657220696d706c656d656e7465720000000000000000000000000000602082015250565b7f4f776e61626c653a206e6577206f776e657220697320746865207a65726f206160008201527f6464726573730000000000000000000000000000000000000000000000000000602082015250565b7f4552433732313a20746f6b656e20616c7265616479206d696e74656400000000600082015250565b7f4552433732313a207472616e7366657220746f20746865207a65726f2061646460008201527f7265737300000000000000000000000000000000000000000000000000000000602082015250565b7f4552433732313a20617070726f766520746f2063616c6c657200000000000000600082015250565b7f4552433732313a206f70657261746f7220717565727920666f72206e6f6e657860008201527f697374656e7420746f6b656e0000000000000000000000000000000000000000602082015250565b7f4552433732313a20617070726f76652063616c6c6572206973206e6f74206f7760008201527f6e6572206e6f7220617070726f76656420666f7220616c6c0000000000000000602082015250565b7f4552433732313a2062616c616e636520717565727920666f7220746865207a6560008201527f726f206164647265737300000000000000000000000000000000000000000000602082015250565b7f4552433732313a206f776e657220717565727920666f72206e6f6e657869737460008201527f656e7420746f6b656e0000000000000000000000000000000000000000000000602082015250565b7f45524337323155524953746f726167653a2055524920736574206f66206e6f6e60008201527f6578697374656e7420746f6b656e000000000000000000000000000000000000602082015250565b7f496e697469616c697a61626c653a20636f6e747261637420697320616c72656160008201527f647920696e697469616c697a6564000000000000000000000000000000000000602082015250565b7f4552433732313a206d696e7420746f20746865207a65726f2061646472657373600082015250565b7f45524337323155524953746f726167653a2055524920717565727920666f722060008201527f6e6f6e6578697374656e7420746f6b656e000000000000000000000000000000602082015250565b7f4552433732313a20617070726f76656420717565727920666f72206e6f6e657860008201527f697374656e7420746f6b656e0000000000000000000000000000000000000000602082015250565b7f4f776e61626c653a2063616c6c6572206973206e6f7420746865206f776e6572600082015250565b7f4552433732313a207472616e73666572206f6620746f6b656e2074686174206960008201527f73206e6f74206f776e0000000000000000000000000000000000000000000000602082015250565b7f4552433732314d657461646174613a2055524920717565727920666f72206e6f60008201527f6e6578697374656e7420746f6b656e0000000000000000000000000000000000602082015250565b7f4552433732313a20617070726f76616c20746f2063757272656e74206f776e6560008201527f7200000000000000000000000000000000000000000000000000000000000000602082015250565b7f4552433732313a207472616e736665722063616c6c6572206973206e6f74206f60008201527f776e6572206e6f7220617070726f766564000000000000000000000000000000602082015250565b7f455243373231456e756d657261626c653a20676c6f62616c20696e646578206f60008201527f7574206f6620626f756e64730000000000000000000000000000000000000000602082015250565b614d1d816144d1565b8114614d2857600080fd5b50565b614d34816144e3565b8114614d3f57600080fd5b50565b614d4b816144ef565b8114614d5657600080fd5b50565b614d628161453b565b8114614d6d57600080fd5b5056fea26469706673582212203968d6480ada54c4e337dbd38fb9cc8bfea61d12d69bc8c157f405e92188b8a864736f6c63430008030033",
  "linkReferences": {},
  "deployedLinkReferences": {}
}