{
  "_format": "hh-sol-artifact-1",
  "contractName": "ERC721_V1",
  "sourceName": "contracts/ERC721.sol",
  "abi": [
    {
      "anonymous": false,
      "inputs": [
        {
          "indexed": true,
          "internalType": "address",
          "name": "owner",
          "type": "address"
        },
        {
          "indexed": true,
          "internalType": "address",
          "name": "approved",
          "type": "address"
        },
        {
          "indexed": true,
          "internalType": "uint256",
          "name": "tokenId",
          "type": "uint256"
        }
      ],
      "name": "Approval",
      "type": "event"
    },
    {
      "anonymous": false,
      "inputs": [
        {
          "indexed": true,
          "internalType": "address",
          "name": "owner",
          "type": "address"
        },
        {
          "indexed": true,
          "internalType": "address",
          "name": "operator",
          "type": "address"
        },
        {
          "indexed": false,
          "internalType": "bool",
          "name": "approved",
          "type": "bool"
        }
      ],
      "name": "ApprovalForAll",
      "type": "event"
    },
    {
      "anonymous": false,
      "inputs": [
        {
          "indexed": true,
          "internalType": "uint256",
          "name": "tokenId",
          "type": "uint256"
        },
        {
          "indexed": true,
          "internalType": "address",
          "name": "creator",
          "type": "address"
        }
      ],
      "name": "Mint",
      "type": "event"
    },
    {
      "anonymous": false,
      "inputs": [
        {
          "indexed": true,
          "internalType": "address",
          "name": "previousOwner",
          "type": "address"
        },
        {
          "indexed": true,
          "internalType": "address",
          "name": "newOwner",
          "type": "address"
        }
      ],
      "name": "OwnershipTransferred",
      "type": "event"
    },
    {
      "anonymous": false,
      "inputs": [
        {
          "indexed": true,
          "internalType": "address",
          "name": "from",
          "type": "address"
        },
        {
          "indexed": true,
          "internalType": "address",
          "name": "to",
          "type": "address"
        },
        {
          "indexed": true,
          "internalType": "uint256",
          "name": "tokenId",
          "type": "uint256"
        }
      ],
      "name": "Transfer",
      "type": "event"
    },
    {
      "inputs": [],
      "name": "_royaltiesPercentage",
      "outputs": [
        {
          "internalType": "uint256",
          "name": "",
          "type": "uint256"
        }
      ],
      "stateMutability": "view",
      "type": "function"
    },
    {
      "inputs": [
        {
          "internalType": "address",
          "name": "",
          "type": "address"
        }
      ],
      "name": "addrTotalClaimed",
      "outputs": [
        {
          "internalType": "uint256",
          "name": "",
          "type": "uint256"
        }
      ],
      "stateMutability": "view",
      "type": "function"
    },
    {
      "inputs": [
        {
          "internalType": "address",
          "name": "to",
          "type": "address"
        },
        {
          "internalType": "uint256",
          "name": "tokenId",
          "type": "uint256"
        }
      ],
      "name": "approve",
      "outputs": [],
      "stateMutability": "nonpayable",
      "type": "function"
    },
    {
      "inputs": [
        {
          "internalType": "address",
          "name": "owner",
          "type": "address"
        }
      ],
      "name": "balanceOf",
      "outputs": [
        {
          "internalType": "uint256",
          "name": "",
          "type": "uint256"
        }
      ],
      "stateMutability": "view",
      "type": "function"
    },
    {
      "inputs": [
        {
          "internalType": "uint256",
          "name": "tokenId",
          "type": "uint256"
        }
      ],
      "name": "claim",
      "outputs": [],
      "stateMutability": "nonpayable",
      "type": "function"
    },
    {
      "inputs": [
        {
          "internalType": "uint256",
          "name": "tokenId",
          "type": "uint256"
        }
      ],
      "name": "claimStatus",
      "outputs": [
        {
          "internalType": "bool",
          "name": "",
          "type": "bool"
        }
      ],
      "stateMutability": "view",
      "type": "function"
    },
    {
      "inputs": [
        {
          "internalType": "uint256",
          "name": "",
          "type": "uint256"
        }
      ],
      "name": "claimedBy",
      "outputs": [
        {
          "internalType": "address",
          "name": "",
          "type": "address"
        }
      ],
      "stateMutability": "view",
      "type": "function"
    },
    {
      "inputs": [
        {
          "internalType": "address",
          "name": "addr",
          "type": "address"
        }
      ],
      "name": "getAddrTotalClaimed",
      "outputs": [
        {
          "internalType": "uint256",
          "name": "",
          "type": "uint256"
        }
      ],
      "stateMutability": "view",
      "type": "function"
    },
    {
      "inputs": [
        {
          "internalType": "uint256",
          "name": "tokenId",
          "type": "uint256"
        }
      ],
      "name": "getApproved",
      "outputs": [
        {
          "internalType": "address",
          "name": "",
          "type": "address"
        }
      ],
      "stateMutability": "view",
      "type": "function"
    },
    {
      "inputs": [
        {
          "internalType": "uint256",
          "name": "tokenId",
          "type": "uint256"
        }
      ],
      "name": "getClaimedBy",
      "outputs": [
        {
          "internalType": "address",
          "name": "",
          "type": "address"
        }
      ],
      "stateMutability": "view",
      "type": "function"
    },
    {
      "inputs": [],
      "name": "getRoyaltiesPercentage",
      "outputs": [
        {
          "internalType": "uint256",
          "name": "",
          "type": "uint256"
        }
      ],
      "stateMutability": "view",
      "type": "function"
    },
    {
      "inputs": [
        {
          "internalType": "uint256",
          "name": "_tokenId",
          "type": "uint256"
        }
      ],
      "name": "getTokenHolder",
      "outputs": [
        {
          "internalType": "address",
          "name": "",
          "type": "address"
        }
      ],
      "stateMutability": "view",
      "type": "function"
    },
    {
      "inputs": [],
      "name": "getTokenHolders",
      "outputs": [
        {
          "internalType": "address[]",
          "name": "result",
          "type": "address[]"
        }
      ],
      "stateMutability": "view",
      "type": "function"
    },
    {
      "inputs": [],
      "name": "getTotalItemsMinted",
      "outputs": [
        {
          "internalType": "uint256",
          "name": "",
          "type": "uint256"
        }
      ],
      "stateMutability": "view",
      "type": "function"
    },
    {
      "inputs": [],
      "name": "initialize",
      "outputs": [],
      "stateMutability": "nonpayable",
      "type": "function"
    },
    {
      "inputs": [
        {
          "internalType": "address",
          "name": "_owner",
          "type": "address"
        },
        {
          "internalType": "address",
          "name": "_operator",
          "type": "address"
        }
      ],
      "name": "isApprovedForAll",
      "outputs": [
        {
          "internalType": "bool",
          "name": "isOperator",
          "type": "bool"
        }
      ],
      "stateMutability": "view",
      "type": "function"
    },
    {
      "inputs": [
        {
          "internalType": "address",
          "name": "creator",
          "type": "address"
        },
        {
          "internalType": "string",
          "name": "_tokenURI",
          "type": "string"
        }
      ],
      "name": "mintNFT",
      "outputs": [
        {
          "internalType": "uint256",
          "name": "",
          "type": "uint256"
        }
      ],
      "stateMutability": "nonpayable",
      "type": "function"
    },
    {
      "inputs": [],
      "name": "name",
      "outputs": [
        {
          "internalType": "string",
          "name": "",
          "type": "string"
        }
      ],
      "stateMutability": "view",
      "type": "function"
    },
    {
      "inputs": [],
      "name": "owner",
      "outputs": [
        {
          "internalType": "address",
          "name": "",
          "type": "address"
        }
      ],
      "stateMutability": "view",
      "type": "function"
    },
    {
      "inputs": [
        {
          "internalType": "uint256",
          "name": "tokenId",
          "type": "uint256"
        }
      ],
      "name": "ownerOf",
      "outputs": [
        {
          "internalType": "address",
          "name": "",
          "type": "address"
        }
      ],
      "stateMutability": "view",
      "type": "function"
    },
    {
      "inputs": [],
      "name": "renounceOwnership",
      "outputs": [],
      "stateMutability": "nonpayable",
      "type": "function"
    },
    {
      "inputs": [],
      "name": "royaltiesReceiver",
      "outputs": [
        {
          "internalType": "address",
          "name": "",
          "type": "address"
        }
      ],
      "stateMutability": "view",
      "type": "function"
    },
    {
      "inputs": [
        {
          "internalType": "uint256",
          "name": "_nftId",
          "type": "uint256"
        },
        {
          "internalType": "uint256",
          "name": "_salePrice",
          "type": "uint256"
        }
      ],
      "name": "royaltyInfo",
      "outputs": [
        {
          "internalType": "address",
          "name": "receiver",
          "type": "address"
        },
        {
          "internalType": "uint256",
          "name": "royaltyAmount",
          "type": "uint256"
        },
        {
          "internalType": "uint256",
          "name": "tokenId",
          "type": "uint256"
        }
      ],
      "stateMutability": "view",
      "type": "function"
    },
    {
      "inputs": [
        {
          "internalType": "address",
          "name": "from",
          "type": "address"
        },
        {
          "internalType": "address",
          "name": "to",
          "type": "address"
        },
        {
          "internalType": "uint256",
          "name": "tokenId",
          "type": "uint256"
        }
      ],
      "name": "safeTransferFrom",
      "outputs": [],
      "stateMutability": "nonpayable",
      "type": "function"
    },
    {
      "inputs": [
        {
          "internalType": "address",
          "name": "from",
          "type": "address"
        },
        {
          "internalType": "address",
          "name": "to",
          "type": "address"
        },
        {
          "internalType": "uint256",
          "name": "tokenId",
          "type": "uint256"
        },
        {
          "internalType": "bytes",
          "name": "_data",
          "type": "bytes"
        }
      ],
      "name": "safeTransferFrom",
      "outputs": [],
      "stateMutability": "nonpayable",
      "type": "function"
    },
    {
      "inputs": [
        {
          "internalType": "address",
          "name": "operator",
          "type": "address"
        },
        {
          "internalType": "bool",
          "name": "approved",
          "type": "bool"
        }
      ],
      "name": "setApprovalForAll",
      "outputs": [],
      "stateMutability": "nonpayable",
      "type": "function"
    },
    {
      "inputs": [
        {
          "internalType": "uint256",
          "name": "newRoyalties",
          "type": "uint256"
        }
      ],
      "name": "setRoyalties",
      "outputs": [],
      "stateMutability": "nonpayable",
      "type": "function"
    },
    {
      "inputs": [
        {
          "internalType": "address",
          "name": "newRoyaltiesReceiver",
          "type": "address"
        }
      ],
      "name": "setRoyaltiesReceiver",
      "outputs": [],
      "stateMutability": "nonpayable",
      "type": "function"
    },
    {
      "inputs": [
        {
          "internalType": "bytes4",
          "name": "interfaceId",
          "type": "bytes4"
        }
      ],
      "name": "supportsInterface",
      "outputs": [
        {
          "internalType": "bool",
          "name": "",
          "type": "bool"
        }
      ],
      "stateMutability": "view",
      "type": "function"
    },
    {
      "inputs": [],
      "name": "symbol",
      "outputs": [
        {
          "internalType": "string",
          "name": "",
          "type": "string"
        }
      ],
      "stateMutability": "view",
      "type": "function"
    },
    {
      "inputs": [
        {
          "internalType": "uint256",
          "name": "index",
          "type": "uint256"
        }
      ],
      "name": "tokenByIndex",
      "outputs": [
        {
          "internalType": "uint256",
          "name": "",
          "type": "uint256"
        }
      ],
      "stateMutability": "view",
      "type": "function"
    },
    {
      "inputs": [
        {
          "internalType": "uint256",
          "name": "",
          "type": "uint256"
        }
      ],
      "name": "tokenClaimed",
      "outputs": [
        {
          "internalType": "bool",
          "name": "",
          "type": "bool"
        }
      ],
      "stateMutability": "view",
      "type": "function"
    },
    {
      "inputs": [
        {
          "internalType": "uint256",
          "name": "",
          "type": "uint256"
        }
      ],
      "name": "tokenHolder",
      "outputs": [
        {
          "internalType": "address",
          "name": "",
          "type": "address"
        }
      ],
      "stateMutability": "view",
      "type": "function"
    },
    {
      "inputs": [
        {
          "internalType": "address",
          "name": "owner",
          "type": "address"
        },
        {
          "internalType": "uint256",
          "name": "index",
          "type": "uint256"
        }
      ],
      "name": "tokenOfOwnerByIndex",
      "outputs": [
        {
          "internalType": "uint256",
          "name": "",
          "type": "uint256"
        }
      ],
      "stateMutability": "view",
      "type": "function"
    },
    {
      "inputs": [
        {
          "internalType": "uint256",
          "name": "tokenId",
          "type": "uint256"
        }
      ],
      "name": "tokenURI",
      "outputs": [
        {
          "internalType": "string",
          "name": "",
          "type": "string"
        }
      ],
      "stateMutability": "view",
      "type": "function"
    },
    {
      "inputs": [
        {
          "internalType": "address",
          "name": "_owner",
          "type": "address"
        }
      ],
      "name": "tokensOfOwner",
      "outputs": [
        {
          "internalType": "uint256[]",
          "name": "ownerTokens",
          "type": "uint256[]"
        }
      ],
      "stateMutability": "view",
      "type": "function"
    },
    {
      "inputs": [],
      "name": "totalSupply",
      "outputs": [
        {
          "internalType": "uint256",
          "name": "",
          "type": "uint256"
        }
      ],
      "stateMutability": "view",
      "type": "function"
    },
    {
      "inputs": [
        {
          "internalType": "address",
          "name": "from",
          "type": "address"
        },
        {
          "internalType": "address",
          "name": "to",
          "type": "address"
        },
        {
          "internalType": "uint256",
          "name": "tokenId",
          "type": "uint256"
        }
      ],
      "name": "transferFrom",
      "outputs": [],
      "stateMutability": "nonpayable",
      "type": "function"
    },
    {
      "inputs": [
        {
          "internalType": "address",
          "name": "newOwner",
          "type": "address"
        }
      ],
      "name": "transferOwnership",
      "outputs": [],
      "stateMutability": "nonpayable",
      "type": "function"
    },
    {
      "inputs": [
        {
          "internalType": "uint256",
          "name": "tokenId",
          "type": "uint256"
        },
        {
          "internalType": "string",
          "name": "_tokenURI",
          "type": "string"
        }
      ],
      "name": "updateNFT",
      "outputs": [
        {
          "internalType": "uint256",
          "name": "",
          "type": "uint256"
        }
      ],
      "stateMutability": "nonpayable",
      "type": "function"
    }
  ],
  "bytecode": "0x608060405234801561001057600080fd5b5061597280620000216000396000f3fe608060405234801561001057600080fd5b50600436106102485760003560e01c80638462151c1161013b578063b88d4fde116100b8578063cf7761ee1161007c578063cf7761ee14610775578063e985e9c514610793578063eacabe14146107c3578063ef8aac54146107f3578063f2fde38b1461081157610248565b8063b88d4fde14610699578063bf1e957a146106b5578063c318d8f8146106e5578063c87b56dd14610715578063ca55954c1461074557610248565b80639ca293ec116100ff5780639ca293ec146105e3578063a064befc14610613578063a22cb46514610643578063a3a51bd51461065f578063b51437151461067d57610248565b80638462151c14610529578063862a4bf214610559578063876b1566146105895780638da5cb5b146105a757806395d89b41146105c557610248565b806336ee1d8d116101c957806369c9e21f1161018d57806369c9e21f1461048557806370a08231146104b5578063715018a6146104e55780638129fc1c146104ef57806383b14818146104f957610248565b806336ee1d8d146103bd578063379607f5146103ed57806342842e0e146104095780634f6ccce7146104255780636352211e1461045557610248565b806318160ddd1161021057806318160ddd1461030557806323b872dd146103235780632a55205a1461033f5780632b80183f146103715780632f745c591461038d57610248565b806301ffc9a71461024d57806306fdde031461027d578063075b89071461029b578063081812fc146102b9578063095ea7b3146102e9575b600080fd5b610267600480360381019061026291906143f2565b61082d565b6040516102749190614b30565b60405180910390f35b6102856108a7565b6040516102929190614b4b565b60405180910390f35b6102a3610939565b6040516102b09190614e0d565b60405180910390f35b6102d360048036038101906102ce9190614444565b610944565b6040516102e091906149fc565b60405180910390f35b61030360048036038101906102fe91906143b6565b6109c9565b005b61030d610ae1565b60405161031a9190614e0d565b60405180910390f35b61033d6004803603810190610338919061425c565b610aee565b005b610359600480360381019061035491906144c5565b610b4e565b60405161036893929190614ab5565b60405180910390f35b61038b60048036038101906103869190614444565b610ba5565b005b6103a760048036038101906103a291906143b6565b610c3c565b6040516103b49190614e0d565b60405180910390f35b6103d760048036038101906103d29190614444565b610ce1565b6040516103e49190614b30565b60405180910390f35b61040760048036038101906104029190614444565b610d02565b005b610423600480360381019061041e919061425c565b610f22565b005b61043f600480360381019061043a9190614444565b610f42565b60405161044c9190614e0d565b60405180910390f35b61046f600480360381019061046a9190614444565b610fd9565b60405161047c91906149fc565b60405180910390f35b61049f600480360381019061049a91906141f7565b61108b565b6040516104ac9190614e0d565b60405180910390f35b6104cf60048036038101906104ca91906141f7565b6110d5565b6040516104dc9190614e0d565b60405180910390f35b6104ed61118d565b005b6104f7611215565b005b610513600480360381019061050e9190614444565b6113d9565b6040516105209190614b30565b60405180910390f35b610543600480360381019061053e91906141f7565b61141c565b6040516105509190614b0e565b60405180910390f35b610573600480360381019061056e9190614444565b611599565b60405161058091906149fc565b60405180910390f35b6105916115cd565b60405161059e9190614aec565b60405180910390f35b6105af611770565b6040516105bc91906149fc565b60405180910390f35b6105cd61179a565b6040516105da9190614b4b565b60405180910390f35b6105fd60048036038101906105f89190614444565b61182c565b60405161060a91906149fc565b60405180910390f35b61062d60048036038101906106289190614444565b611860565b60405161063a91906149fc565b60405180910390f35b61065d60048036038101906106589190614326565b61189e565b005b610667611a1f565b60405161067491906149fc565b60405180910390f35b610697600480360381019061069291906141f7565b611a4a565b005b6106b360048036038101906106ae91906142ab565b611b67565b005b6106cf60048036038101906106ca91906141f7565b611bc9565b6040516106dc9190614e0d565b60405180910390f35b6106ff60048036038101906106fa919061446d565b611be2565b60405161070c9190614e0d565b60405180910390f35b61072f600480360381019061072a9190614444565b611cc8565b60405161073c9190614b4b565b60405180910390f35b61075f600480360381019061075a9190614444565b611cda565b60405161076c91906149fc565b60405180910390f35b61077d611d18565b60405161078a9190614e0d565b60405180910390f35b6107ad60048036038101906107a89190614220565b611d1f565b6040516107ba9190614b30565b60405180910390f35b6107dd60048036038101906107d89190614362565b611d85565b6040516107ea9190614e0d565b60405180910390f35b6107fb611fa2565b6040516108089190614e0d565b60405180910390f35b61082b600480360381019061082691906141f7565b611fb4565b005b60007f2a55205a000000000000000000000000000000000000000000000000000000007bffffffffffffffffffffffffffffffffffffffffffffffffffffffff1916827bffffffffffffffffffffffffffffffffffffffffffffffffffffffff191614806108a0575061089f826120ac565b5b9050919050565b6060609780546108b690615153565b80601f01602080910402602001604051908101604052809291908181526020018280546108e290615153565b801561092f5780601f106109045761010080835404028352916020019161092f565b820191906000526020600020905b81548152906001019060200180831161091257829003601f168201915b5050505050905090565b600061012f54905090565b600061094f82612126565b61098e576040517f08c379a000000000000000000000000000000000000000000000000000000000815260040161098590614d2d565b60405180910390fd5b609b600083815260200190815260200160002060009054906101000a900473ffffffffffffffffffffffffffffffffffffffff169050919050565b60006109d482610fd9565b90508073ffffffffffffffffffffffffffffffffffffffff168373ffffffffffffffffffffffffffffffffffffffff161415610a45576040517f08c379a0000000000000000000000000000000000000000000000000000000008152600401610a3c90614dad565b60405180910390fd5b8073ffffffffffffffffffffffffffffffffffffffff16610a64612192565b73ffffffffffffffffffffffffffffffffffffffff161480610a935750610a9281610a8d612192565b611d1f565b5b610ad2576040517f08c379a0000000000000000000000000000000000000000000000000000000008152600401610ac990614c4d565b60405180910390fd5b610adc83836121a1565b505050565b600060cb80549050905090565b610aff610af9612192565b8261225a565b610b3e576040517f08c379a0000000000000000000000000000000000000000000000000000000008152600401610b3590614dcd565b60405180910390fd5b610b49838383612338565b505050565b600080600080606461012f5486610b659190614feb565b610b6f9190614fba565b905061012e60009054906101000a900473ffffffffffffffffffffffffffffffffffffffff168187935093509350509250925092565b610bad612192565b73ffffffffffffffffffffffffffffffffffffffff16610bcb611770565b73ffffffffffffffffffffffffffffffffffffffff1614610c21576040517f08c379a0000000000000000000000000000000000000000000000000000000008152600401610c1890614d4d565b60405180910390fd5b61012f54811415610c3157600080fd5b8061012f8190555050565b6000610c47836110d5565b8210610c88576040517f08c379a0000000000000000000000000000000000000000000000000000000008152600401610c7f90614b6d565b60405180910390fd5b60c960008473ffffffffffffffffffffffffffffffffffffffff1673ffffffffffffffffffffffffffffffffffffffff168152602001908152602001600020600083815260200190815260200160002054905092915050565b6101326020528060005260406000206000915054906101000a900460ff1681565b3373ffffffffffffffffffffffffffffffffffffffff16610d2282610fd9565b73ffffffffffffffffffffffffffffffffffffffff1614610d4257600080fd5b60001515610132600083815260200190815260200160002060009054906101000a900460ff16151514610d7457600080fd5b73cb659699948024f0364b88b89175f1f4d26f75ea73ffffffffffffffffffffffffffffffffffffffff16639a49090e3360966040518363ffffffff1660e01b8152600401610dc4929190614a63565b600060405180830381600087803b158015610dde57600080fd5b505af1158015610df2573d6000803e3d6000fd5b505050506001610132600083815260200190815260200160002060006101000a81548160ff02191690831515021790555033610131600083815260200190815260200160002060006101000a81548173ffffffffffffffffffffffffffffffffffffffff021916908373ffffffffffffffffffffffffffffffffffffffff16021790555033610133600083815260200190815260200160002060006101000a81548173ffffffffffffffffffffffffffffffffffffffff021916908373ffffffffffffffffffffffffffffffffffffffff16021790555061013460003373ffffffffffffffffffffffffffffffffffffffff1673ffffffffffffffffffffffffffffffffffffffff1681526020019081526020016000206000815480929190610f1a906151b6565b919050555050565b610f3d83838360405180602001604052806000815250611b67565b505050565b6000610f4c610ae1565b8210610f8d576040517f08c379a0000000000000000000000000000000000000000000000000000000008152600401610f8490614ded565b60405180910390fd5b60cb8281548110610fc7577f4e487b7100000000000000000000000000000000000000000000000000000000600052603260045260246000fd5b90600052602060002001549050919050565b6000806099600084815260200190815260200160002060009054906101000a900473ffffffffffffffffffffffffffffffffffffffff169050600073ffffffffffffffffffffffffffffffffffffffff168173ffffffffffffffffffffffffffffffffffffffff161415611082576040517f08c379a000000000000000000000000000000000000000000000000000000000815260040161107990614c8d565b60405180910390fd5b80915050919050565b600061013460008373ffffffffffffffffffffffffffffffffffffffff1673ffffffffffffffffffffffffffffffffffffffff168152602001908152602001600020549050919050565b60008073ffffffffffffffffffffffffffffffffffffffff168273ffffffffffffffffffffffffffffffffffffffff161415611146576040517f08c379a000000000000000000000000000000000000000000000000000000000815260040161113d90614c6d565b60405180910390fd5b609a60008373ffffffffffffffffffffffffffffffffffffffff1673ffffffffffffffffffffffffffffffffffffffff168152602001908152602001600020549050919050565b611195612192565b73ffffffffffffffffffffffffffffffffffffffff166111b3611770565b73ffffffffffffffffffffffffffffffffffffffff1614611209576040517f08c379a000000000000000000000000000000000000000000000000000000000815260040161120090614d4d565b60405180910390fd5b6112136000612352565b565b600060019054906101000a900460ff168061123b575060008054906101000a900460ff16155b61127a576040517f08c379a000000000000000000000000000000000000000000000000000000000815260040161127190614ccd565b60405180910390fd5b60008060019054906101000a900460ff1615905080156112ca576001600060016101000a81548160ff02191690831515021790555060016000806101000a81548160ff0219169083151502179055505b61133e6040518060400160405280600c81526020017f4d6f69612053747564696f7300000000000000000000000000000000000000008152506040518060400160405280600581526020017f4d4f495353000000000000000000000000000000000000000000000000000000815250612418565b61134661250d565b61134e6125fe565b6113566126ef565b73a8d145dd3003817da1dc83f838ee5088b65acf2e61012e60006101000a81548173ffffffffffffffffffffffffffffffffffffffff021916908373ffffffffffffffffffffffffffffffffffffffff160217905550600761012f8190555080156113d65760008060016101000a81548160ff0219169083151502179055505b50565b600060011515610132600084815260200190815260200160002060009054906101000a900460ff16151514156114125760019050611417565b600090505b919050565b60606000611429836110d5565b905060008167ffffffffffffffff81111561146d577f4e487b7100000000000000000000000000000000000000000000000000000000600052604160045260246000fd5b60405190808252806020026020018201604052801561149b5781602001602082028036833780820191505090505b509050600082141561152057600067ffffffffffffffff8111156114e8577f4e487b7100000000000000000000000000000000000000000000000000000000600052604160045260246000fd5b6040519080825280602002602001820160405280156115165781602001602082028036833780820191505090505b5092505050611594565b60005b8281101561158d576115358582610c3c565b82828151811061156e577f4e487b7100000000000000000000000000000000000000000000000000000000600052603260045260246000fd5b6020026020010181815250508080611585906151b6565b915050611523565b5080925050505b919050565b6101316020528060005260406000206000915054906101000a900473ffffffffffffffffffffffffffffffffffffffff1681565b606060006115dc61012d6127d8565b90508067ffffffffffffffff81111561161e577f4e487b7100000000000000000000000000000000000000000000000000000000600052604160045260246000fd5b60405190808252806020026020018201604052801561164c5781602001602082028036833780820191505090505b50915060008114156116d057600067ffffffffffffffff811115611699577f4e487b7100000000000000000000000000000000000000000000000000000000600052604160045260246000fd5b6040519080825280602002602001820160405280156116c75781602001602082028036833780820191505090505b5091505061176d565b60005b8181101561176a576116e481611cda565b83828151811061171d577f4e487b7100000000000000000000000000000000000000000000000000000000600052603260045260246000fd5b602002602001019073ffffffffffffffffffffffffffffffffffffffff16908173ffffffffffffffffffffffffffffffffffffffff16815250508080611762906151b6565b9150506116d3565b50505b90565b6000603360009054906101000a900473ffffffffffffffffffffffffffffffffffffffff16905090565b6060609880546117a990615153565b80601f01602080910402602001604051908101604052809291908181526020018280546117d590615153565b80156118225780601f106117f757610100808354040283529160200191611822565b820191906000526020600020905b81548152906001019060200180831161180557829003601f168201915b5050505050905090565b6101336020528060005260406000206000915054906101000a900473ffffffffffffffffffffffffffffffffffffffff1681565b6000610133600083815260200190815260200160002060009054906101000a900473ffffffffffffffffffffffffffffffffffffffff169050919050565b6118a6612192565b73ffffffffffffffffffffffffffffffffffffffff168273ffffffffffffffffffffffffffffffffffffffff161415611914576040517f08c379a000000000000000000000000000000000000000000000000000000000815260040161190b90614c0d565b60405180910390fd5b80609c6000611921612192565b73ffffffffffffffffffffffffffffffffffffffff1673ffffffffffffffffffffffffffffffffffffffff16815260200190815260200160002060008473ffffffffffffffffffffffffffffffffffffffff1673ffffffffffffffffffffffffffffffffffffffff16815260200190815260200160002060006101000a81548160ff0219169083151502179055508173ffffffffffffffffffffffffffffffffffffffff166119ce612192565b73ffffffffffffffffffffffffffffffffffffffff167f17307eab39ab6107e8899845ad3d59bd9653f200f220920489ca2b5937696c3183604051611a139190614b30565b60405180910390a35050565b600061012e60009054906101000a900473ffffffffffffffffffffffffffffffffffffffff16905090565b611a52612192565b73ffffffffffffffffffffffffffffffffffffffff16611a70611770565b73ffffffffffffffffffffffffffffffffffffffff1614611ac6576040517f08c379a0000000000000000000000000000000000000000000000000000000008152600401611abd90614d4d565b60405180910390fd5b61012e60009054906101000a900473ffffffffffffffffffffffffffffffffffffffff1673ffffffffffffffffffffffffffffffffffffffff168173ffffffffffffffffffffffffffffffffffffffff161415611b2257600080fd5b8061012e60006101000a81548173ffffffffffffffffffffffffffffffffffffffff021916908373ffffffffffffffffffffffffffffffffffffffff16021790555050565b611b78611b72612192565b8361225a565b611bb7576040517f08c379a0000000000000000000000000000000000000000000000000000000008152600401611bae90614dcd565b60405180910390fd5b611bc3848484846127e6565b50505050565b6101346020528060005260406000206000915090505481565b6000611bec612192565b73ffffffffffffffffffffffffffffffffffffffff16611c0a611770565b73ffffffffffffffffffffffffffffffffffffffff1614611c60576040517f08c379a0000000000000000000000000000000000000000000000000000000008152600401611c5790614d4d565b60405180910390fd5b60008383905011611c7057600080fd5b611cbe8484848080601f016020809104026020016040519081016040528093929190818152602001838380828437600081840152601f19601f82011690508083019250505050505050612802565b8390509392505050565b6060611cd382612876565b9050919050565b6000610131600083815260200190815260200160002060009054906101000a900473ffffffffffffffffffffffffffffffffffffffff169050919050565b61012f5481565b60007358807bad0b376efc12f5ad86aac70e78ed67deae73ffffffffffffffffffffffffffffffffffffffff168273ffffffffffffffffffffffffffffffffffffffff161415611d725760019050611d7f565b611d7c83836129c8565b90505b92915050565b6000611d8f612192565b73ffffffffffffffffffffffffffffffffffffffff16611dad611770565b73ffffffffffffffffffffffffffffffffffffffff1614611e03576040517f08c379a0000000000000000000000000000000000000000000000000000000008152600401611dfa90614d4d565b60405180910390fd5b6000825111611e1157600080fd5b611e1c61012d612a5c565b6000611e2961012d6127d8565b9050611e358482612a72565b611e3f8184612802565b60405180604001604052808281526020018573ffffffffffffffffffffffffffffffffffffffff1681525061013060008381526020019081526020016000206000820151816000015560208201518160010160006101000a81548173ffffffffffffffffffffffffffffffffffffffff021916908373ffffffffffffffffffffffffffffffffffffffff16021790555090505073cb659699948024f0364b88b89175f1f4d26f75ea73ffffffffffffffffffffffffffffffffffffffff16639a49090e8560076040518363ffffffff1660e01b8152600401611f22929190614a8c565b600060405180830381600087803b158015611f3c57600080fd5b505af1158015611f50573d6000803e3d6000fd5b505050508373ffffffffffffffffffffffffffffffffffffffff16817ff3cea5493d790af0133817606f7350a91d7f154ea52eaa79d179d4d231e5010260405160405180910390a38091505092915050565b6000611faf61012d6127d8565b905090565b611fbc612192565b73ffffffffffffffffffffffffffffffffffffffff16611fda611770565b73ffffffffffffffffffffffffffffffffffffffff1614612030576040517f08c379a000000000000000000000000000000000000000000000000000000000815260040161202790614d4d565b60405180910390fd5b600073ffffffffffffffffffffffffffffffffffffffff168173ffffffffffffffffffffffffffffffffffffffff1614156120a0576040517f08c379a000000000000000000000000000000000000000000000000000000000815260040161209790614bad565b60405180910390fd5b6120a981612352565b50565b60007f780e9d63000000000000000000000000000000000000000000000000000000007bffffffffffffffffffffffffffffffffffffffffffffffffffffffff1916827bffffffffffffffffffffffffffffffffffffffffffffffffffffffff1916148061211f575061211e82612a90565b5b9050919050565b60008073ffffffffffffffffffffffffffffffffffffffff166099600084815260200190815260200160002060009054906101000a900473ffffffffffffffffffffffffffffffffffffffff1673ffffffffffffffffffffffffffffffffffffffff1614159050919050565b600061219c612b72565b905090565b81609b600083815260200190815260200160002060006101000a81548173ffffffffffffffffffffffffffffffffffffffff021916908373ffffffffffffffffffffffffffffffffffffffff160217905550808273ffffffffffffffffffffffffffffffffffffffff1661221483610fd9565b73ffffffffffffffffffffffffffffffffffffffff167f8c5be1e5ebec7d5bd14f71427d1e84f3dd0314c0f7b2291e5b200ac8c7c3b92560405160405180910390a45050565b600061226582612126565b6122a4576040517f08c379a000000000000000000000000000000000000000000000000000000000815260040161229b90614c2d565b60405180910390fd5b60006122af83610fd9565b90508073ffffffffffffffffffffffffffffffffffffffff168473ffffffffffffffffffffffffffffffffffffffff16148061231e57508373ffffffffffffffffffffffffffffffffffffffff1661230684610944565b73ffffffffffffffffffffffffffffffffffffffff16145b8061232f575061232e8185611d1f565b5b91505092915050565b6123428282612c23565b61234d838383612c7a565b505050565b6000603360009054906101000a900473ffffffffffffffffffffffffffffffffffffffff16905081603360006101000a81548173ffffffffffffffffffffffffffffffffffffffff021916908373ffffffffffffffffffffffffffffffffffffffff1602179055508173ffffffffffffffffffffffffffffffffffffffff168173ffffffffffffffffffffffffffffffffffffffff167f8be0079c531659141344cd1fd0a4f28419497f9722a3daafe3b4186f6b6457e060405160405180910390a35050565b600060019054906101000a900460ff168061243e575060008054906101000a900460ff16155b61247d576040517f08c379a000000000000000000000000000000000000000000000000000000000815260040161247490614ccd565b60405180910390fd5b60008060019054906101000a900460ff1615905080156124cd576001600060016101000a81548160ff02191690831515021790555060016000806101000a81548160ff0219169083151502179055505b6124d5612ed6565b6124dd612faf565b6124e78383613088565b80156125085760008060016101000a81548160ff0219169083151502179055505b505050565b600060019054906101000a900460ff1680612533575060008054906101000a900460ff16155b612572576040517f08c379a000000000000000000000000000000000000000000000000000000000815260040161256990614ccd565b60405180910390fd5b60008060019054906101000a900460ff1615905080156125c2576001600060016101000a81548160ff02191690831515021790555060016000806101000a81548160ff0219169083151502179055505b6125ca612ed6565b6125d2612faf565b6125da613191565b80156125fb5760008060016101000a81548160ff0219169083151502179055505b50565b600060019054906101000a900460ff1680612624575060008054906101000a900460ff16155b612663576040517f08c379a000000000000000000000000000000000000000000000000000000000815260040161265a90614ccd565b60405180910390fd5b60008060019054906101000a900460ff1615905080156126b3576001600060016101000a81548160ff02191690831515021790555060016000806101000a81548160ff0219169083151502179055505b6126bb612ed6565b6126c3612faf565b6126cb61326a565b80156126ec5760008060016101000a81548160ff0219169083151502179055505b50565b600060019054906101000a900460ff1680612715575060008054906101000a900460ff16155b612754576040517f08c379a000000000000000000000000000000000000000000000000000000000815260040161274b90614ccd565b60405180910390fd5b60008060019054906101000a900460ff1615905080156127a4576001600060016101000a81548160ff02191690831515021790555060016000806101000a81548160ff0219169083151502179055505b6127ac612ed6565b6127b4613343565b80156127d55760008060016101000a81548160ff0219169083151502179055505b50565b600081600001549050919050565b6127f08383612c23565b6127fc8484848461342c565b50505050565b61280b82612126565b61284a576040517f08c379a000000000000000000000000000000000000000000000000000000000815260040161284190614cad565b60405180910390fd5b8060fb60008481526020019081526020016000209080519060200190612871929190613fd1565b505050565b606061288182612126565b6128c0576040517f08c379a00000000000000000000000000000000000000000000000000000000081526004016128b790614d0d565b60405180910390fd5b600060fb600084815260200190815260200160002080546128e090615153565b80601f016020809104026020016040519081016040528092919081815260200182805461290c90615153565b80156129595780601f1061292e57610100808354040283529160200191612959565b820191906000526020600020905b81548152906001019060200180831161293c57829003601f168201915b50505050509050600061296a613488565b90506000815114156129805781925050506129c3565b6000825111156129b557808260405160200161299d9291906149d8565b604051602081830303815290604052925050506129c3565b6129be8461349f565b925050505b919050565b6000609c60008473ffffffffffffffffffffffffffffffffffffffff1673ffffffffffffffffffffffffffffffffffffffff16815260200190815260200160002060008373ffffffffffffffffffffffffffffffffffffffff1673ffffffffffffffffffffffffffffffffffffffff16815260200190815260200160002060009054906101000a900460ff16905092915050565b6001816000016000828254019250508190555050565b612a8c828260405180602001604052806000815250613546565b5050565b60007f80ac58cd000000000000000000000000000000000000000000000000000000007bffffffffffffffffffffffffffffffffffffffffffffffffffffffff1916827bffffffffffffffffffffffffffffffffffffffffffffffffffffffff19161480612b5b57507f5b5e139f000000000000000000000000000000000000000000000000000000007bffffffffffffffffffffffffffffffffffffffffffffffffffffffff1916827bffffffffffffffffffffffffffffffffffffffffffffffffffffffff1916145b80612b6b5750612b6a826135a1565b5b9050919050565b60003073ffffffffffffffffffffffffffffffffffffffff163373ffffffffffffffffffffffffffffffffffffffff161415612c1c57600080368080601f016020809104026020016040519081016040528093929190818152602001838380828437600081840152601f19601f820116905080830192505050505050509050600080369050905073ffffffffffffffffffffffffffffffffffffffff818301511692505050612c20565b3390505b90565b81610131600083815260200190815260200160002060006101000a81548173ffffffffffffffffffffffffffffffffffffffff021916908373ffffffffffffffffffffffffffffffffffffffff1602179055505050565b8273ffffffffffffffffffffffffffffffffffffffff16612c9a82610fd9565b73ffffffffffffffffffffffffffffffffffffffff1614612cf0576040517f08c379a0000000000000000000000000000000000000000000000000000000008152600401612ce790614d6d565b60405180910390fd5b600073ffffffffffffffffffffffffffffffffffffffff168273ffffffffffffffffffffffffffffffffffffffff161415612d60576040517f08c379a0000000000000000000000000000000000000000000000000000000008152600401612d5790614bed565b60405180910390fd5b612d6b83838361360b565b612d766000826121a1565b6001609a60008573ffffffffffffffffffffffffffffffffffffffff1673ffffffffffffffffffffffffffffffffffffffff1681526020019081526020016000206000828254612dc69190615045565b925050819055506001609a60008473ffffffffffffffffffffffffffffffffffffffff1673ffffffffffffffffffffffffffffffffffffffff1681526020019081526020016000206000828254612e1d9190614f64565b92505081905550816099600083815260200190815260200160002060006101000a81548173ffffffffffffffffffffffffffffffffffffffff021916908373ffffffffffffffffffffffffffffffffffffffff160217905550808273ffffffffffffffffffffffffffffffffffffffff168473ffffffffffffffffffffffffffffffffffffffff167fddf252ad1be2c89b69c2b068fc378daa952ba7f163c4a11628f55a4df523b3ef60405160405180910390a4505050565b600060019054906101000a900460ff1680612efc575060008054906101000a900460ff16155b612f3b576040517f08c379a0000000000000000000000000000000000000000000000000000000008152600401612f3290614ccd565b60405180910390fd5b60008060019054906101000a900460ff161590508015612f8b576001600060016101000a81548160ff02191690831515021790555060016000806101000a81548160ff0219169083151502179055505b8015612fac5760008060016101000a81548160ff0219169083151502179055505b50565b600060019054906101000a900460ff1680612fd5575060008054906101000a900460ff16155b613014576040517f08c379a000000000000000000000000000000000000000000000000000000000815260040161300b90614ccd565b60405180910390fd5b60008060019054906101000a900460ff161590508015613064576001600060016101000a81548160ff02191690831515021790555060016000806101000a81548160ff0219169083151502179055505b80156130855760008060016101000a81548160ff0219169083151502179055505b50565b600060019054906101000a900460ff16806130ae575060008054906101000a900460ff16155b6130ed576040517f08c379a00000000000000000000000000000000000000000000000000000000081526004016130e490614ccd565b60405180910390fd5b60008060019054906101000a900460ff16159050801561313d576001600060016101000a81548160ff02191690831515021790555060016000806101000a81548160ff0219169083151502179055505b8260979080519060200190613153929190613fd1565b50816098908051906020019061316a929190613fd1565b50801561318c5760008060016101000a81548160ff0219169083151502179055505b505050565b600060019054906101000a900460ff16806131b7575060008054906101000a900460ff16155b6131f6576040517f08c379a00000000000000000000000000000000000000000000000000000000081526004016131ed90614ccd565b60405180910390fd5b60008060019054906101000a900460ff161590508015613246576001600060016101000a81548160ff02191690831515021790555060016000806101000a81548160ff0219169083151502179055505b80156132675760008060016101000a81548160ff0219169083151502179055505b50565b600060019054906101000a900460ff1680613290575060008054906101000a900460ff16155b6132cf576040517f08c379a00000000000000000000000000000000000000000000000000000000081526004016132c690614ccd565b60405180910390fd5b60008060019054906101000a900460ff16159050801561331f576001600060016101000a81548160ff02191690831515021790555060016000806101000a81548160ff0219169083151502179055505b80156133405760008060016101000a81548160ff0219169083151502179055505b50565b600060019054906101000a900460ff1680613369575060008054906101000a900460ff16155b6133a8576040517f08c379a000000000000000000000000000000000000000000000000000000000815260040161339f90614ccd565b60405180910390fd5b60008060019054906101000a900460ff1615905080156133f8576001600060016101000a81548160ff02191690831515021790555060016000806101000a81548160ff0219169083151502179055505b613408613403612192565b612352565b80156134295760008060016101000a81548160ff0219169083151502179055505b50565b613437848484612338565b6134438484848461361b565b613482576040517f08c379a000000000000000000000000000000000000000000000000000000000815260040161347990614b8d565b60405180910390fd5b50505050565b606060405180602001604052806000815250905090565b60606134aa82612126565b6134e9576040517f08c379a00000000000000000000000000000000000000000000000000000000081526004016134e090614d8d565b60405180910390fd5b60006134f3613488565b90506000815111613513576040518060200160405280600081525061353e565b8061351d846137b2565b60405160200161352e9291906149d8565b6040516020818303038152906040525b915050919050565b613550838361395f565b61355d600084848461361b565b61359c576040517f08c379a000000000000000000000000000000000000000000000000000000000815260040161359390614b8d565b60405180910390fd5b505050565b60007f01ffc9a7000000000000000000000000000000000000000000000000000000007bffffffffffffffffffffffffffffffffffffffffffffffffffffffff1916827bffffffffffffffffffffffffffffffffffffffffffffffffffffffff1916149050919050565b613616838383613b2d565b505050565b600061363c8473ffffffffffffffffffffffffffffffffffffffff16613c41565b156137a5578373ffffffffffffffffffffffffffffffffffffffff1663150b7a02613665612192565b8786866040518563ffffffff1660e01b81526004016136879493929190614a17565b602060405180830381600087803b1580156136a157600080fd5b505af19250505080156136d257506040513d601f19601f820116820180604052508101906136cf919061441b565b60015b613755573d8060008114613702576040519150601f19603f3d011682016040523d82523d6000602084013e613707565b606091505b5060008151141561374d576040517f08c379a000000000000000000000000000000000000000000000000000000000815260040161374490614b8d565b60405180910390fd5b805181602001fd5b63150b7a0260e01b7bffffffffffffffffffffffffffffffffffffffffffffffffffffffff1916817bffffffffffffffffffffffffffffffffffffffffffffffffffffffff1916149150506137aa565b600190505b949350505050565b606060008214156137fa576040518060400160405280600181526020017f3000000000000000000000000000000000000000000000000000000000000000815250905061395a565b600082905060005b6000821461382c578080613815906151b6565b915050600a826138259190614fba565b9150613802565b60008167ffffffffffffffff81111561386e577f4e487b7100000000000000000000000000000000000000000000000000000000600052604160045260246000fd5b6040519080825280601f01601f1916602001820160405280156138a05781602001600182028036833780820191505090505b5090505b60008514613953576001826138b99190615045565b9150600a856138c891906151ff565b60306138d49190614f64565b60f81b818381518110613910577f4e487b7100000000000000000000000000000000000000000000000000000000600052603260045260246000fd5b60200101907effffffffffffffffffffffffffffffffffffffffffffffffffffffffffffff1916908160001a905350600a8561394c9190614fba565b94506138a4565b8093505050505b919050565b600073ffffffffffffffffffffffffffffffffffffffff168273ffffffffffffffffffffffffffffffffffffffff1614156139cf576040517f08c379a00000000000000000000000000000000000000000000000000000000081526004016139c690614ced565b60405180910390fd5b6139d881612126565b15613a18576040517f08c379a0000000000000000000000000000000000000000000000000000000008152600401613a0f90614bcd565b60405180910390fd5b613a246000838361360b565b6001609a60008473ffffffffffffffffffffffffffffffffffffffff1673ffffffffffffffffffffffffffffffffffffffff1681526020019081526020016000206000828254613a749190614f64565b92505081905550816099600083815260200190815260200160002060006101000a81548173ffffffffffffffffffffffffffffffffffffffff021916908373ffffffffffffffffffffffffffffffffffffffff160217905550808273ffffffffffffffffffffffffffffffffffffffff16600073ffffffffffffffffffffffffffffffffffffffff167fddf252ad1be2c89b69c2b068fc378daa952ba7f163c4a11628f55a4df523b3ef60405160405180910390a45050565b613b38838383613c54565b600073ffffffffffffffffffffffffffffffffffffffff168373ffffffffffffffffffffffffffffffffffffffff161415613b7b57613b7681613c59565b613bba565b8173ffffffffffffffffffffffffffffffffffffffff168373ffffffffffffffffffffffffffffffffffffffff1614613bb957613bb88382613ca2565b5b5b600073ffffffffffffffffffffffffffffffffffffffff168273ffffffffffffffffffffffffffffffffffffffff161415613bfd57613bf881613e0f565b613c3c565b8273ffffffffffffffffffffffffffffffffffffffff168273ffffffffffffffffffffffffffffffffffffffff1614613c3b57613c3a8282613f52565b5b5b505050565b600080823b905060008111915050919050565b505050565b60cb8054905060cc60008381526020019081526020016000208190555060cb81908060018154018082558091505060019003906000526020600020016000909190919091505550565b60006001613caf846110d5565b613cb99190615045565b9050600060ca6000848152602001908152602001600020549050818114613d9e57600060c960008673ffffffffffffffffffffffffffffffffffffffff1673ffffffffffffffffffffffffffffffffffffffff16815260200190815260200160002060008481526020019081526020016000205490508060c960008773ffffffffffffffffffffffffffffffffffffffff1673ffffffffffffffffffffffffffffffffffffffff1681526020019081526020016000206000848152602001908152602001600020819055508160ca600083815260200190815260200160002081905550505b60ca60008481526020019081526020016000206000905560c960008573ffffffffffffffffffffffffffffffffffffffff1673ffffffffffffffffffffffffffffffffffffffff16815260200190815260200160002060008381526020019081526020016000206000905550505050565b6000600160cb80549050613e239190615045565b9050600060cc6000848152602001908152602001600020549050600060cb8381548110613e79577f4e487b7100000000000000000000000000000000000000000000000000000000600052603260045260246000fd5b906000526020600020015490508060cb8381548110613ec1577f4e487b7100000000000000000000000000000000000000000000000000000000600052603260045260246000fd5b90600052602060002001819055508160cc60008381526020019081526020016000208190555060cc60008581526020019081526020016000206000905560cb805480613f36577f4e487b7100000000000000000000000000000000000000000000000000000000600052603160045260246000fd5b6001900381819060005260206000200160009055905550505050565b6000613f5d836110d5565b90508160c960008573ffffffffffffffffffffffffffffffffffffffff1673ffffffffffffffffffffffffffffffffffffffff1681526020019081526020016000206000838152602001908152602001600020819055508060ca600084815260200190815260200160002081905550505050565b828054613fdd90615153565b90600052602060002090601f016020900481019282613fff5760008555614046565b82601f1061401857805160ff1916838001178555614046565b82800160010185558215614046579182015b8281111561404557825182559160200191906001019061402a565b5b5090506140539190614057565b5090565b5b80821115614070576000816000905550600101614058565b5090565b600061408761408284614e4d565b614e28565b90508281526020810184848401111561409f57600080fd5b6140aa848285615111565b509392505050565b60006140c56140c084614e7e565b614e28565b9050828152602081018484840111156140dd57600080fd5b6140e8848285615111565b509392505050565b6000813590506140ff816158e0565b92915050565b600081359050614114816158f7565b92915050565b6000813590506141298161590e565b92915050565b60008151905061413e8161590e565b92915050565b600082601f83011261415557600080fd5b8135614165848260208601614074565b91505092915050565b60008083601f84011261418057600080fd5b8235905067ffffffffffffffff81111561419957600080fd5b6020830191508360018202830111156141b157600080fd5b9250929050565b600082601f8301126141c957600080fd5b81356141d98482602086016140b2565b91505092915050565b6000813590506141f181615925565b92915050565b60006020828403121561420957600080fd5b6000614217848285016140f0565b91505092915050565b6000806040838503121561423357600080fd5b6000614241858286016140f0565b9250506020614252858286016140f0565b9150509250929050565b60008060006060848603121561427157600080fd5b600061427f868287016140f0565b9350506020614290868287016140f0565b92505060406142a1868287016141e2565b9150509250925092565b600080600080608085870312156142c157600080fd5b60006142cf878288016140f0565b94505060206142e0878288016140f0565b93505060406142f1878288016141e2565b925050606085013567ffffffffffffffff81111561430e57600080fd5b61431a87828801614144565b91505092959194509250565b6000806040838503121561433957600080fd5b6000614347858286016140f0565b925050602061435885828601614105565b9150509250929050565b6000806040838503121561437557600080fd5b6000614383858286016140f0565b925050602083013567ffffffffffffffff8111156143a057600080fd5b6143ac858286016141b8565b9150509250929050565b600080604083850312156143c957600080fd5b60006143d7858286016140f0565b92505060206143e8858286016141e2565b9150509250929050565b60006020828403121561440457600080fd5b60006144128482850161411a565b91505092915050565b60006020828403121561442d57600080fd5b600061443b8482850161412f565b91505092915050565b60006020828403121561445657600080fd5b6000614464848285016141e2565b91505092915050565b60008060006040848603121561448257600080fd5b6000614490868287016141e2565b935050602084013567ffffffffffffffff8111156144ad57600080fd5b6144b98682870161416e565b92509250509250925092565b600080604083850312156144d857600080fd5b60006144e6858286016141e2565b92505060206144f7858286016141e2565b9150509250929050565b600061450d8383614531565b60208301905092915050565b600061452583836149ba565b60208301905092915050565b61453a81615079565b82525050565b61454981615079565b82525050565b600061455a82614ecf565b6145648185614f15565b935061456f83614eaf565b8060005b838110156145a05781516145878882614501565b975061459283614efb565b925050600181019050614573565b5085935050505092915050565b60006145b882614eda565b6145c28185614f26565b93506145cd83614ebf565b8060005b838110156145fe5781516145e58882614519565b97506145f083614f08565b9250506001810190506145d1565b5085935050505092915050565b6146148161508b565b82525050565b600061462582614ee5565b61462f8185614f37565b935061463f818560208601615120565b614648816152ec565b840191505092915050565b61465c816150ed565b82525050565b61466b816150ff565b82525050565b600061467c82614ef0565b6146868185614f48565b9350614696818560208601615120565b61469f816152ec565b840191505092915050565b60006146b582614ef0565b6146bf8185614f59565b93506146cf818560208601615120565b80840191505092915050565b60006146e8602b83614f48565b91506146f3826152fd565b604082019050919050565b600061470b603283614f48565b91506147168261534c565b604082019050919050565b600061472e602683614f48565b91506147398261539b565b604082019050919050565b6000614751601c83614f48565b915061475c826153ea565b602082019050919050565b6000614774602483614f48565b915061477f82615413565b604082019050919050565b6000614797601983614f48565b91506147a282615462565b602082019050919050565b60006147ba602c83614f48565b91506147c58261548b565b604082019050919050565b60006147dd603883614f48565b91506147e8826154da565b604082019050919050565b6000614800602a83614f48565b915061480b82615529565b604082019050919050565b6000614823602983614f48565b915061482e82615578565b604082019050919050565b6000614846602e83614f48565b9150614851826155c7565b604082019050919050565b6000614869602e83614f48565b915061487482615616565b604082019050919050565b600061488c602083614f48565b915061489782615665565b602082019050919050565b60006148af603183614f48565b91506148ba8261568e565b604082019050919050565b60006148d2602c83614f48565b91506148dd826156dd565b604082019050919050565b60006148f5602083614f48565b91506149008261572c565b602082019050919050565b6000614918602983614f48565b915061492382615755565b604082019050919050565b600061493b602f83614f48565b9150614946826157a4565b604082019050919050565b600061495e602183614f48565b9150614969826157f3565b604082019050919050565b6000614981603183614f48565b915061498c82615842565b604082019050919050565b60006149a4602c83614f48565b91506149af82615891565b604082019050919050565b6149c3816150e3565b82525050565b6149d2816150e3565b82525050565b60006149e482856146aa565b91506149f082846146aa565b91508190509392505050565b6000602082019050614a116000830184614540565b92915050565b6000608082019050614a2c6000830187614540565b614a396020830186614540565b614a4660408301856149c9565b8181036060830152614a58818461461a565b905095945050505050565b6000604082019050614a786000830185614540565b614a856020830184614653565b9392505050565b6000604082019050614aa16000830185614540565b614aae6020830184614662565b9392505050565b6000606082019050614aca6000830186614540565b614ad760208301856149c9565b614ae460408301846149c9565b949350505050565b60006020820190508181036000830152614b06818461454f565b905092915050565b60006020820190508181036000830152614b2881846145ad565b905092915050565b6000602082019050614b45600083018461460b565b92915050565b60006020820190508181036000830152614b658184614671565b905092915050565b60006020820190508181036000830152614b86816146db565b9050919050565b60006020820190508181036000830152614ba6816146fe565b9050919050565b60006020820190508181036000830152614bc681614721565b9050919050565b60006020820190508181036000830152614be681614744565b9050919050565b60006020820190508181036000830152614c0681614767565b9050919050565b60006020820190508181036000830152614c268161478a565b9050919050565b60006020820190508181036000830152614c46816147ad565b9050919050565b60006020820190508181036000830152614c66816147d0565b9050919050565b60006020820190508181036000830152614c86816147f3565b9050919050565b60006020820190508181036000830152614ca681614816565b9050919050565b60006020820190508181036000830152614cc681614839565b9050919050565b60006020820190508181036000830152614ce68161485c565b9050919050565b60006020820190508181036000830152614d068161487f565b9050919050565b60006020820190508181036000830152614d26816148a2565b9050919050565b60006020820190508181036000830152614d46816148c5565b9050919050565b60006020820190508181036000830152614d66816148e8565b9050919050565b60006020820190508181036000830152614d868161490b565b9050919050565b60006020820190508181036000830152614da68161492e565b9050919050565b60006020820190508181036000830152614dc681614951565b9050919050565b60006020820190508181036000830152614de681614974565b9050919050565b60006020820190508181036000830152614e0681614997565b9050919050565b6000602082019050614e2260008301846149c9565b92915050565b6000614e32614e43565b9050614e3e8282615185565b919050565b6000604051905090565b600067ffffffffffffffff821115614e6857614e676152bd565b5b614e71826152ec565b9050602081019050919050565b600067ffffffffffffffff821115614e9957614e986152bd565b5b614ea2826152ec565b9050602081019050919050565b6000819050602082019050919050565b6000819050602082019050919050565b600081519050919050565b600081519050919050565b600081519050919050565b600081519050919050565b6000602082019050919050565b6000602082019050919050565b600082825260208201905092915050565b600082825260208201905092915050565b600082825260208201905092915050565b600082825260208201905092915050565b600081905092915050565b6000614f6f826150e3565b9150614f7a836150e3565b9250827fffffffffffffffffffffffffffffffffffffffffffffffffffffffffffffffff03821115614faf57614fae615230565b5b828201905092915050565b6000614fc5826150e3565b9150614fd0836150e3565b925082614fe057614fdf61525f565b5b828204905092915050565b6000614ff6826150e3565b9150615001836150e3565b9250817fffffffffffffffffffffffffffffffffffffffffffffffffffffffffffffffff048311821515161561503a57615039615230565b5b828202905092915050565b6000615050826150e3565b915061505b836150e3565b92508282101561506e5761506d615230565b5b828203905092915050565b6000615084826150c3565b9050919050565b60008115159050919050565b60007fffffffff0000000000000000000000000000000000000000000000000000000082169050919050565b600073ffffffffffffffffffffffffffffffffffffffff82169050919050565b6000819050919050565b60006150f8826150e3565b9050919050565b600061510a826150e3565b9050919050565b82818337600083830152505050565b60005b8381101561513e578082015181840152602081019050615123565b8381111561514d576000848401525b50505050565b6000600282049050600182168061516b57607f821691505b6020821081141561517f5761517e61528e565b5b50919050565b61518e826152ec565b810181811067ffffffffffffffff821117156151ad576151ac6152bd565b5b80604052505050565b60006151c1826150e3565b91507fffffffffffffffffffffffffffffffffffffffffffffffffffffffffffffffff8214156151f4576151f3615230565b5b600182019050919050565b600061520a826150e3565b9150615215836150e3565b9250826152255761522461525f565b5b828206905092915050565b7f4e487b7100000000000000000000000000000000000000000000000000000000600052601160045260246000fd5b7f4e487b7100000000000000000000000000000000000000000000000000000000600052601260045260246000fd5b7f4e487b7100000000000000000000000000000000000000000000000000000000600052602260045260246000fd5b7f4e487b7100000000000000000000000000000000000000000000000000000000600052604160045260246000fd5b6000601f19601f8301169050919050565b7f455243373231456e756d657261626c653a206f776e657220696e646578206f7560008201527f74206f6620626f756e6473000000000000000000000000000000000000000000602082015250565b7f4552433732313a207472616e7366657220746f206e6f6e20455243373231526560008201527f63656976657220696d706c656d656e7465720000000000000000000000000000602082015250565b7f4f776e61626c653a206e6577206f776e657220697320746865207a65726f206160008201527f6464726573730000000000000000000000000000000000000000000000000000602082015250565b7f4552433732313a20746f6b656e20616c7265616479206d696e74656400000000600082015250565b7f4552433732313a207472616e7366657220746f20746865207a65726f2061646460008201527f7265737300000000000000000000000000000000000000000000000000000000602082015250565b7f4552433732313a20617070726f766520746f2063616c6c657200000000000000600082015250565b7f4552433732313a206f70657261746f7220717565727920666f72206e6f6e657860008201527f697374656e7420746f6b656e0000000000000000000000000000000000000000602082015250565b7f4552433732313a20617070726f76652063616c6c6572206973206e6f74206f7760008201527f6e6572206e6f7220617070726f76656420666f7220616c6c0000000000000000602082015250565b7f4552433732313a2062616c616e636520717565727920666f7220746865207a6560008201527f726f206164647265737300000000000000000000000000000000000000000000602082015250565b7f4552433732313a206f776e657220717565727920666f72206e6f6e657869737460008201527f656e7420746f6b656e0000000000000000000000000000000000000000000000602082015250565b7f45524337323155524953746f726167653a2055524920736574206f66206e6f6e60008201527f6578697374656e7420746f6b656e000000000000000000000000000000000000602082015250565b7f496e697469616c697a61626c653a20636f6e747261637420697320616c72656160008201527f647920696e697469616c697a6564000000000000000000000000000000000000602082015250565b7f4552433732313a206d696e7420746f20746865207a65726f2061646472657373600082015250565b7f45524337323155524953746f726167653a2055524920717565727920666f722060008201527f6e6f6e6578697374656e7420746f6b656e000000000000000000000000000000602082015250565b7f4552433732313a20617070726f76656420717565727920666f72206e6f6e657860008201527f697374656e7420746f6b656e0000000000000000000000000000000000000000602082015250565b7f4f776e61626c653a2063616c6c6572206973206e6f7420746865206f776e6572600082015250565b7f4552433732313a207472616e73666572206f6620746f6b656e2074686174206960008201527f73206e6f74206f776e0000000000000000000000000000000000000000000000602082015250565b7f4552433732314d657461646174613a2055524920717565727920666f72206e6f60008201527f6e6578697374656e7420746f6b656e0000000000000000000000000000000000602082015250565b7f4552433732313a20617070726f76616c20746f2063757272656e74206f776e6560008201527f7200000000000000000000000000000000000000000000000000000000000000602082015250565b7f4552433732313a207472616e736665722063616c6c6572206973206e6f74206f60008201527f776e6572206e6f7220617070726f766564000000000000000000000000000000602082015250565b7f455243373231456e756d657261626c653a20676c6f62616c20696e646578206f60008201527f7574206f6620626f756e64730000000000000000000000000000000000000000602082015250565b6158e981615079565b81146158f457600080fd5b50565b6159008161508b565b811461590b57600080fd5b50565b61591781615097565b811461592257600080fd5b50565b61592e816150e3565b811461593957600080fd5b5056fea264697066735822122009cd9313355422e757e93ee2e8dbbfd61fcd5b77ea30a86b289c23389052055564736f6c63430008030033",
  "linkReferences": {},
  "deployedLinkReferences": {}
}