{
  "_format": "hh-sol-artifact-1",
  "contractName": "ERC721_V1",
  "sourceName": "contracts/ERC721.sol",
  "abi": [
    {
      "anonymous": false,
      "inputs": [
        {
          "indexed": true,
          "internalType": "address",
          "name": "owner",
          "type": "address"
        },
        {
          "indexed": true,
          "internalType": "address",
          "name": "approved",
          "type": "address"
        },
        {
          "indexed": true,
          "internalType": "uint256",
          "name": "tokenId",
          "type": "uint256"
        }
      ],
      "name": "Approval",
      "type": "event"
    },
    {
      "anonymous": false,
      "inputs": [
        {
          "indexed": true,
          "internalType": "address",
          "name": "owner",
          "type": "address"
        },
        {
          "indexed": true,
          "internalType": "address",
          "name": "operator",
          "type": "address"
        },
        {
          "indexed": false,
          "internalType": "bool",
          "name": "approved",
          "type": "bool"
        }
      ],
      "name": "ApprovalForAll",
      "type": "event"
    },
    {
      "anonymous": false,
      "inputs": [
        {
          "indexed": true,
          "internalType": "uint256",
          "name": "tokenId",
          "type": "uint256"
        },
        {
          "indexed": true,
          "internalType": "address",
          "name": "creator",
          "type": "address"
        }
      ],
      "name": "Mint",
      "type": "event"
    },
    {
      "anonymous": false,
      "inputs": [
        {
          "indexed": true,
          "internalType": "address",
          "name": "previousOwner",
          "type": "address"
        },
        {
          "indexed": true,
          "internalType": "address",
          "name": "newOwner",
          "type": "address"
        }
      ],
      "name": "OwnershipTransferred",
      "type": "event"
    },
    {
      "anonymous": false,
      "inputs": [
        {
          "indexed": true,
          "internalType": "address",
          "name": "from",
          "type": "address"
        },
        {
          "indexed": true,
          "internalType": "address",
          "name": "to",
          "type": "address"
        },
        {
          "indexed": true,
          "internalType": "uint256",
          "name": "tokenId",
          "type": "uint256"
        }
      ],
      "name": "Transfer",
      "type": "event"
    },
    {
      "inputs": [],
      "name": "_royaltiesPercentage",
      "outputs": [
        {
          "internalType": "uint256",
          "name": "",
          "type": "uint256"
        }
      ],
      "stateMutability": "view",
      "type": "function"
    },
    {
      "inputs": [
        {
          "internalType": "address",
          "name": "to",
          "type": "address"
        },
        {
          "internalType": "uint256",
          "name": "tokenId",
          "type": "uint256"
        }
      ],
      "name": "approve",
      "outputs": [],
      "stateMutability": "nonpayable",
      "type": "function"
    },
    {
      "inputs": [
        {
          "internalType": "address",
          "name": "owner",
          "type": "address"
        }
      ],
      "name": "balanceOf",
      "outputs": [
        {
          "internalType": "uint256",
          "name": "",
          "type": "uint256"
        }
      ],
      "stateMutability": "view",
      "type": "function"
    },
    {
      "inputs": [],
      "name": "fetchItemsMinted",
      "outputs": [
        {
          "components": [
            {
              "internalType": "uint256",
              "name": "tokenId",
              "type": "uint256"
            },
            {
              "internalType": "address",
              "name": "creator",
              "type": "address"
            }
          ],
          "internalType": "struct ERC721_V1.NFTItem[]",
          "name": "",
          "type": "tuple[]"
        }
      ],
      "stateMutability": "view",
      "type": "function"
    },
    {
      "inputs": [
        {
          "internalType": "uint256",
          "name": "tokenId",
          "type": "uint256"
        }
      ],
      "name": "getApproved",
      "outputs": [
        {
          "internalType": "address",
          "name": "",
          "type": "address"
        }
      ],
      "stateMutability": "view",
      "type": "function"
    },
    {
      "inputs": [],
      "name": "getTotalItemsMinted",
      "outputs": [
        {
          "internalType": "uint256",
          "name": "",
          "type": "uint256"
        }
      ],
      "stateMutability": "view",
      "type": "function"
    },
    {
      "inputs": [],
      "name": "initialize",
      "outputs": [],
      "stateMutability": "nonpayable",
      "type": "function"
    },
    {
      "inputs": [
        {
          "internalType": "address",
          "name": "owner",
          "type": "address"
        },
        {
          "internalType": "address",
          "name": "operator",
          "type": "address"
        }
      ],
      "name": "isApprovedForAll",
      "outputs": [
        {
          "internalType": "bool",
          "name": "",
          "type": "bool"
        }
      ],
      "stateMutability": "view",
      "type": "function"
    },
    {
      "inputs": [
        {
          "internalType": "address",
          "name": "creator",
          "type": "address"
        },
        {
          "internalType": "string",
          "name": "_tokenURI",
          "type": "string"
        }
      ],
      "name": "mintNFT",
      "outputs": [
        {
          "internalType": "uint256",
          "name": "",
          "type": "uint256"
        }
      ],
      "stateMutability": "nonpayable",
      "type": "function"
    },
    {
      "inputs": [],
      "name": "name",
      "outputs": [
        {
          "internalType": "string",
          "name": "",
          "type": "string"
        }
      ],
      "stateMutability": "view",
      "type": "function"
    },
    {
      "inputs": [],
      "name": "owner",
      "outputs": [
        {
          "internalType": "address",
          "name": "",
          "type": "address"
        }
      ],
      "stateMutability": "view",
      "type": "function"
    },
    {
      "inputs": [
        {
          "internalType": "uint256",
          "name": "tokenId",
          "type": "uint256"
        }
      ],
      "name": "ownerOf",
      "outputs": [
        {
          "internalType": "address",
          "name": "",
          "type": "address"
        }
      ],
      "stateMutability": "view",
      "type": "function"
    },
    {
      "inputs": [],
      "name": "renounceOwnership",
      "outputs": [],
      "stateMutability": "nonpayable",
      "type": "function"
    },
    {
      "inputs": [],
      "name": "royaltiesReceiver",
      "outputs": [
        {
          "internalType": "address",
          "name": "",
          "type": "address"
        }
      ],
      "stateMutability": "view",
      "type": "function"
    },
    {
      "inputs": [
        {
          "internalType": "uint256",
          "name": "_nftId",
          "type": "uint256"
        },
        {
          "internalType": "uint256",
          "name": "_salePrice",
          "type": "uint256"
        }
      ],
      "name": "royaltyInfo",
      "outputs": [
        {
          "internalType": "address",
          "name": "receiver",
          "type": "address"
        },
        {
          "internalType": "uint256",
          "name": "royaltyAmount",
          "type": "uint256"
        },
        {
          "internalType": "uint256",
          "name": "tokenId",
          "type": "uint256"
        }
      ],
      "stateMutability": "view",
      "type": "function"
    },
    {
      "inputs": [
        {
          "internalType": "address",
          "name": "from",
          "type": "address"
        },
        {
          "internalType": "address",
          "name": "to",
          "type": "address"
        },
        {
          "internalType": "uint256",
          "name": "tokenId",
          "type": "uint256"
        }
      ],
      "name": "safeTransferFrom",
      "outputs": [],
      "stateMutability": "nonpayable",
      "type": "function"
    },
    {
      "inputs": [
        {
          "internalType": "address",
          "name": "from",
          "type": "address"
        },
        {
          "internalType": "address",
          "name": "to",
          "type": "address"
        },
        {
          "internalType": "uint256",
          "name": "tokenId",
          "type": "uint256"
        },
        {
          "internalType": "bytes",
          "name": "_data",
          "type": "bytes"
        }
      ],
      "name": "safeTransferFrom",
      "outputs": [],
      "stateMutability": "nonpayable",
      "type": "function"
    },
    {
      "inputs": [
        {
          "internalType": "address",
          "name": "operator",
          "type": "address"
        },
        {
          "internalType": "bool",
          "name": "approved",
          "type": "bool"
        }
      ],
      "name": "setApprovalForAll",
      "outputs": [],
      "stateMutability": "nonpayable",
      "type": "function"
    },
    {
      "inputs": [
        {
          "internalType": "address",
          "name": "newRoyaltiesReceiver",
          "type": "address"
        }
      ],
      "name": "setRoyaltiesReceiver",
      "outputs": [],
      "stateMutability": "nonpayable",
      "type": "function"
    },
    {
      "inputs": [
        {
          "internalType": "bytes4",
          "name": "interfaceId",
          "type": "bytes4"
        }
      ],
      "name": "supportsInterface",
      "outputs": [
        {
          "internalType": "bool",
          "name": "",
          "type": "bool"
        }
      ],
      "stateMutability": "view",
      "type": "function"
    },
    {
      "inputs": [],
      "name": "symbol",
      "outputs": [
        {
          "internalType": "string",
          "name": "",
          "type": "string"
        }
      ],
      "stateMutability": "view",
      "type": "function"
    },
    {
      "inputs": [
        {
          "internalType": "uint256",
          "name": "index",
          "type": "uint256"
        }
      ],
      "name": "tokenByIndex",
      "outputs": [
        {
          "internalType": "uint256",
          "name": "",
          "type": "uint256"
        }
      ],
      "stateMutability": "view",
      "type": "function"
    },
    {
      "inputs": [
        {
          "internalType": "address",
          "name": "owner",
          "type": "address"
        },
        {
          "internalType": "uint256",
          "name": "index",
          "type": "uint256"
        }
      ],
      "name": "tokenOfOwnerByIndex",
      "outputs": [
        {
          "internalType": "uint256",
          "name": "",
          "type": "uint256"
        }
      ],
      "stateMutability": "view",
      "type": "function"
    },
    {
      "inputs": [
        {
          "internalType": "uint256",
          "name": "tokenId",
          "type": "uint256"
        }
      ],
      "name": "tokenURI",
      "outputs": [
        {
          "internalType": "string",
          "name": "",
          "type": "string"
        }
      ],
      "stateMutability": "view",
      "type": "function"
    },
    {
      "inputs": [
        {
          "internalType": "address",
          "name": "_owner",
          "type": "address"
        }
      ],
      "name": "tokensOfOwner",
      "outputs": [
        {
          "internalType": "uint256[]",
          "name": "ownerTokens",
          "type": "uint256[]"
        }
      ],
      "stateMutability": "view",
      "type": "function"
    },
    {
      "inputs": [],
      "name": "totalSupply",
      "outputs": [
        {
          "internalType": "uint256",
          "name": "",
          "type": "uint256"
        }
      ],
      "stateMutability": "view",
      "type": "function"
    },
    {
      "inputs": [
        {
          "internalType": "address",
          "name": "from",
          "type": "address"
        },
        {
          "internalType": "address",
          "name": "to",
          "type": "address"
        },
        {
          "internalType": "uint256",
          "name": "tokenId",
          "type": "uint256"
        }
      ],
      "name": "transferFrom",
      "outputs": [],
      "stateMutability": "nonpayable",
      "type": "function"
    },
    {
      "inputs": [
        {
          "internalType": "address",
          "name": "newOwner",
          "type": "address"
        }
      ],
      "name": "transferOwnership",
      "outputs": [],
      "stateMutability": "nonpayable",
      "type": "function"
    }
  ],
  "bytecode": "0x608060405234801561001057600080fd5b50614e1a806100206000396000f3fe608060405234801561001057600080fd5b50600436106101c45760003560e01c80638129fc1c116100f9578063b88d4fde11610097578063e985e9c511610071578063e985e9c514610509578063eacabe1414610539578063ef8aac5414610569578063f2fde38b14610587576101c4565b8063b88d4fde1461049f578063c87b56dd146104bb578063cf7761ee146104eb576101c4565b806395d89b41116100d357806395d89b411461042b578063a22cb46514610449578063a3a51bd514610465578063b514371514610483576101c4565b80638129fc1c146103d35780638462151c146103dd5780638da5cb5b1461040d576101c4565b80632a55205a116101665780634f6ccce7116101405780634f6ccce7146103395780636352211e1461036957806370a0823114610399578063715018a6146103c9576101c4565b80632a55205a146102bb5780632f745c59146102ed57806342842e0e1461031d576101c4565b8063081812fc116101a2578063081812fc14610235578063095ea7b31461026557806318160ddd1461028157806323b872dd1461029f576101c4565b806301ffc9a7146101c957806302e177c9146101f957806306fdde0314610217575b600080fd5b6101e360048036038101906101de9190613957565b6105a3565b6040516101f09190613ffc565b60405180910390f35b61020161061d565b60405161020e9190613fb8565b60405180910390f35b61021f6107c2565b60405161022c9190614017565b60405180910390f35b61024f600480360381019061024a91906139a9565b610854565b60405161025c9190613f1a565b60405180910390f35b61027f600480360381019061027a919061391b565b6108d9565b005b6102896109f1565b60405161029691906142d9565b60405180910390f35b6102b960048036038101906102b491906137c1565b6109fe565b005b6102d560048036038101906102d091906139d2565b610a5e565b6040516102e493929190613f81565b60405180910390f35b6103076004803603810190610302919061391b565b610ab5565b60405161031491906142d9565b60405180910390f35b610337600480360381019061033291906137c1565b610b5a565b005b610353600480360381019061034e91906139a9565b610b7a565b60405161036091906142d9565b60405180910390f35b610383600480360381019061037e91906139a9565b610c11565b6040516103909190613f1a565b60405180910390f35b6103b360048036038101906103ae919061375c565b610cc3565b6040516103c091906142d9565b60405180910390f35b6103d1610d7b565b005b6103db610e03565b005b6103f760048036038101906103f2919061375c565b610fc7565b6040516104049190613fda565b60405180910390f35b610415611144565b6040516104229190613f1a565b60405180910390f35b61043361116e565b6040516104409190614017565b60405180910390f35b610463600480360381019061045e919061388b565b611200565b005b61046d611381565b60405161047a9190613f1a565b60405180910390f35b61049d6004803603810190610498919061375c565b6113ac565b005b6104b960048036038101906104b49190613810565b6114c9565b005b6104d560048036038101906104d091906139a9565b61152b565b6040516104e29190614017565b60405180910390f35b6104f361153d565b60405161050091906142d9565b60405180910390f35b610523600480360381019061051e9190613785565b611544565b6040516105309190613ffc565b60405180910390f35b610553600480360381019061054e91906138c7565b6115d8565b60405161056091906142d9565b60405180910390f35b610571611773565b60405161057e91906142d9565b60405180910390f35b6105a1600480360381019061059c919061375c565b611785565b005b60007f2a55205a000000000000000000000000000000000000000000000000000000007bffffffffffffffffffffffffffffffffffffffffffffffffffffffff1916827bffffffffffffffffffffffffffffffffffffffffffffffffffffffff1916148061061657506106158261187d565b5b9050919050565b6060600061062c61012d6118f7565b905060008060008267ffffffffffffffff811115610673577f4e487b7100000000000000000000000000000000000000000000000000000000600052604160045260246000fd5b6040519080825280602002602001820160405280156106ac57816020015b610699613550565b8152602001906001900390816106915790505b50905060005b848110156107b75760006001826106c99190614430565b905060006101306000838152602001908152602001600020905080604051806040016040529081600082015481526020016001820160009054906101000a900473ffffffffffffffffffffffffffffffffffffffff1673ffffffffffffffffffffffffffffffffffffffff1673ffffffffffffffffffffffffffffffffffffffff1681525050848681518110610788577f4e487b7100000000000000000000000000000000000000000000000000000000600052603260045260246000fd5b60200260200101819052506001856107a09190614430565b9450505080806107af9061465e565b9150506106b2565b508094505050505090565b6060609780546107d1906145fb565b80601f01602080910402602001604051908101604052809291908181526020018280546107fd906145fb565b801561084a5780601f1061081f5761010080835404028352916020019161084a565b820191906000526020600020905b81548152906001019060200180831161082d57829003601f168201915b5050505050905090565b600061085f82611905565b61089e576040517f08c379a0000000000000000000000000000000000000000000000000000000008152600401610895906141f9565b60405180910390fd5b609b600083815260200190815260200160002060009054906101000a900473ffffffffffffffffffffffffffffffffffffffff169050919050565b60006108e482610c11565b90508073ffffffffffffffffffffffffffffffffffffffff168373ffffffffffffffffffffffffffffffffffffffff161415610955576040517f08c379a000000000000000000000000000000000000000000000000000000000815260040161094c90614279565b60405180910390fd5b8073ffffffffffffffffffffffffffffffffffffffff16610974611971565b73ffffffffffffffffffffffffffffffffffffffff1614806109a357506109a28161099d611971565b611544565b5b6109e2576040517f08c379a00000000000000000000000000000000000000000000000000000000081526004016109d990614119565b60405180910390fd5b6109ec8383611979565b505050565b600060cb80549050905090565b610a0f610a09611971565b82611a32565b610a4e576040517f08c379a0000000000000000000000000000000000000000000000000000000008152600401610a4590614299565b60405180910390fd5b610a59838383611b10565b505050565b600080600080606461012f5486610a7591906144b7565b610a7f9190614486565b905061012e60009054906101000a900473ffffffffffffffffffffffffffffffffffffffff168187935093509350509250925092565b6000610ac083610cc3565b8210610b01576040517f08c379a0000000000000000000000000000000000000000000000000000000008152600401610af890614039565b60405180910390fd5b60c960008473ffffffffffffffffffffffffffffffffffffffff1673ffffffffffffffffffffffffffffffffffffffff168152602001908152602001600020600083815260200190815260200160002054905092915050565b610b75838383604051806020016040528060008152506114c9565b505050565b6000610b846109f1565b8210610bc5576040517f08c379a0000000000000000000000000000000000000000000000000000000008152600401610bbc906142b9565b60405180910390fd5b60cb8281548110610bff577f4e487b7100000000000000000000000000000000000000000000000000000000600052603260045260246000fd5b90600052602060002001549050919050565b6000806099600084815260200190815260200160002060009054906101000a900473ffffffffffffffffffffffffffffffffffffffff169050600073ffffffffffffffffffffffffffffffffffffffff168173ffffffffffffffffffffffffffffffffffffffff161415610cba576040517f08c379a0000000000000000000000000000000000000000000000000000000008152600401610cb190614159565b60405180910390fd5b80915050919050565b60008073ffffffffffffffffffffffffffffffffffffffff168273ffffffffffffffffffffffffffffffffffffffff161415610d34576040517f08c379a0000000000000000000000000000000000000000000000000000000008152600401610d2b90614139565b60405180910390fd5b609a60008373ffffffffffffffffffffffffffffffffffffffff1673ffffffffffffffffffffffffffffffffffffffff168152602001908152602001600020549050919050565b610d83611971565b73ffffffffffffffffffffffffffffffffffffffff16610da1611144565b73ffffffffffffffffffffffffffffffffffffffff1614610df7576040517f08c379a0000000000000000000000000000000000000000000000000000000008152600401610dee90614219565b60405180910390fd5b610e016000611d6c565b565b600060019054906101000a900460ff1680610e29575060008054906101000a900460ff16155b610e68576040517f08c379a0000000000000000000000000000000000000000000000000000000008152600401610e5f90614199565b60405180910390fd5b60008060019054906101000a900460ff161590508015610eb8576001600060016101000a81548160ff02191690831515021790555060016000806101000a81548160ff0219169083151502179055505b610f2c6040518060400160405280600c81526020017f4d6f69612053747564696f7300000000000000000000000000000000000000008152506040518060400160405280600581526020017f4d4f495353000000000000000000000000000000000000000000000000000000815250611e32565b610f34611f27565b610f3c612018565b610f44612109565b73a8d145dd3003817da1dc83f838ee5088b65acf2e61012e60006101000a81548173ffffffffffffffffffffffffffffffffffffffff021916908373ffffffffffffffffffffffffffffffffffffffff160217905550601461012f819055508015610fc45760008060016101000a81548160ff0219169083151502179055505b50565b60606000610fd483610cc3565b905060008167ffffffffffffffff811115611018577f4e487b7100000000000000000000000000000000000000000000000000000000600052604160045260246000fd5b6040519080825280602002602001820160405280156110465781602001602082028036833780820191505090505b50905060008214156110cb57600067ffffffffffffffff811115611093577f4e487b7100000000000000000000000000000000000000000000000000000000600052604160045260246000fd5b6040519080825280602002602001820160405280156110c15781602001602082028036833780820191505090505b509250505061113f565b60005b82811015611138576110e08582610ab5565b828281518110611119577f4e487b7100000000000000000000000000000000000000000000000000000000600052603260045260246000fd5b60200260200101818152505080806111309061465e565b9150506110ce565b5080925050505b919050565b6000603360009054906101000a900473ffffffffffffffffffffffffffffffffffffffff16905090565b60606098805461117d906145fb565b80601f01602080910402602001604051908101604052809291908181526020018280546111a9906145fb565b80156111f65780601f106111cb576101008083540402835291602001916111f6565b820191906000526020600020905b8154815290600101906020018083116111d957829003601f168201915b5050505050905090565b611208611971565b73ffffffffffffffffffffffffffffffffffffffff168273ffffffffffffffffffffffffffffffffffffffff161415611276576040517f08c379a000000000000000000000000000000000000000000000000000000000815260040161126d906140d9565b60405180910390fd5b80609c6000611283611971565b73ffffffffffffffffffffffffffffffffffffffff1673ffffffffffffffffffffffffffffffffffffffff16815260200190815260200160002060008473ffffffffffffffffffffffffffffffffffffffff1673ffffffffffffffffffffffffffffffffffffffff16815260200190815260200160002060006101000a81548160ff0219169083151502179055508173ffffffffffffffffffffffffffffffffffffffff16611330611971565b73ffffffffffffffffffffffffffffffffffffffff167f17307eab39ab6107e8899845ad3d59bd9653f200f220920489ca2b5937696c31836040516113759190613ffc565b60405180910390a35050565b600061012e60009054906101000a900473ffffffffffffffffffffffffffffffffffffffff16905090565b6113b4611971565b73ffffffffffffffffffffffffffffffffffffffff166113d2611144565b73ffffffffffffffffffffffffffffffffffffffff1614611428576040517f08c379a000000000000000000000000000000000000000000000000000000000815260040161141f90614219565b60405180910390fd5b61012e60009054906101000a900473ffffffffffffffffffffffffffffffffffffffff1673ffffffffffffffffffffffffffffffffffffffff168173ffffffffffffffffffffffffffffffffffffffff16141561148457600080fd5b8061012e60006101000a81548173ffffffffffffffffffffffffffffffffffffffff021916908373ffffffffffffffffffffffffffffffffffffffff16021790555050565b6114da6114d4611971565b83611a32565b611519576040517f08c379a000000000000000000000000000000000000000000000000000000000815260040161151090614299565b60405180910390fd5b611525848484846121f2565b50505050565b60606115368261224e565b9050919050565b61012f5481565b6000609c60008473ffffffffffffffffffffffffffffffffffffffff1673ffffffffffffffffffffffffffffffffffffffff16815260200190815260200160002060008373ffffffffffffffffffffffffffffffffffffffff1673ffffffffffffffffffffffffffffffffffffffff16815260200190815260200160002060009054906101000a900460ff16905092915050565b60006115e2611971565b73ffffffffffffffffffffffffffffffffffffffff16611600611144565b73ffffffffffffffffffffffffffffffffffffffff1614611656576040517f08c379a000000000000000000000000000000000000000000000000000000000815260040161164d90614219565b60405180910390fd5b600082511161166457600080fd5b61166f61012d6123a0565b600061167c61012d6118f7565b905061168884826123b6565b6116928184612584565b60405180604001604052808281526020018573ffffffffffffffffffffffffffffffffffffffff1681525061013060008381526020019081526020016000206000820151816000015560208201518160010160006101000a81548173ffffffffffffffffffffffffffffffffffffffff021916908373ffffffffffffffffffffffffffffffffffffffff1602179055509050508373ffffffffffffffffffffffffffffffffffffffff16817ff3cea5493d790af0133817606f7350a91d7f154ea52eaa79d179d4d231e5010260405160405180910390a38091505092915050565b600061178061012d6118f7565b905090565b61178d611971565b73ffffffffffffffffffffffffffffffffffffffff166117ab611144565b73ffffffffffffffffffffffffffffffffffffffff1614611801576040517f08c379a00000000000000000000000000000000000000000000000000000000081526004016117f890614219565b60405180910390fd5b600073ffffffffffffffffffffffffffffffffffffffff168173ffffffffffffffffffffffffffffffffffffffff161415611871576040517f08c379a000000000000000000000000000000000000000000000000000000000815260040161186890614079565b60405180910390fd5b61187a81611d6c565b50565b60007f780e9d63000000000000000000000000000000000000000000000000000000007bffffffffffffffffffffffffffffffffffffffffffffffffffffffff1916827bffffffffffffffffffffffffffffffffffffffffffffffffffffffff191614806118f057506118ef826125f8565b5b9050919050565b600081600001549050919050565b60008073ffffffffffffffffffffffffffffffffffffffff166099600084815260200190815260200160002060009054906101000a900473ffffffffffffffffffffffffffffffffffffffff1673ffffffffffffffffffffffffffffffffffffffff1614159050919050565b600033905090565b81609b600083815260200190815260200160002060006101000a81548173ffffffffffffffffffffffffffffffffffffffff021916908373ffffffffffffffffffffffffffffffffffffffff160217905550808273ffffffffffffffffffffffffffffffffffffffff166119ec83610c11565b73ffffffffffffffffffffffffffffffffffffffff167f8c5be1e5ebec7d5bd14f71427d1e84f3dd0314c0f7b2291e5b200ac8c7c3b92560405160405180910390a45050565b6000611a3d82611905565b611a7c576040517f08c379a0000000000000000000000000000000000000000000000000000000008152600401611a73906140f9565b60405180910390fd5b6000611a8783610c11565b90508073ffffffffffffffffffffffffffffffffffffffff168473ffffffffffffffffffffffffffffffffffffffff161480611af657508373ffffffffffffffffffffffffffffffffffffffff16611ade84610854565b73ffffffffffffffffffffffffffffffffffffffff16145b80611b075750611b068185611544565b5b91505092915050565b8273ffffffffffffffffffffffffffffffffffffffff16611b3082610c11565b73ffffffffffffffffffffffffffffffffffffffff1614611b86576040517f08c379a0000000000000000000000000000000000000000000000000000000008152600401611b7d90614239565b60405180910390fd5b600073ffffffffffffffffffffffffffffffffffffffff168273ffffffffffffffffffffffffffffffffffffffff161415611bf6576040517f08c379a0000000000000000000000000000000000000000000000000000000008152600401611bed906140b9565b60405180910390fd5b611c018383836126da565b611c0c600082611979565b6001609a60008573ffffffffffffffffffffffffffffffffffffffff1673ffffffffffffffffffffffffffffffffffffffff1681526020019081526020016000206000828254611c5c9190614511565b925050819055506001609a60008473ffffffffffffffffffffffffffffffffffffffff1673ffffffffffffffffffffffffffffffffffffffff1681526020019081526020016000206000828254611cb39190614430565b92505081905550816099600083815260200190815260200160002060006101000a81548173ffffffffffffffffffffffffffffffffffffffff021916908373ffffffffffffffffffffffffffffffffffffffff160217905550808273ffffffffffffffffffffffffffffffffffffffff168473ffffffffffffffffffffffffffffffffffffffff167fddf252ad1be2c89b69c2b068fc378daa952ba7f163c4a11628f55a4df523b3ef60405160405180910390a4505050565b6000603360009054906101000a900473ffffffffffffffffffffffffffffffffffffffff16905081603360006101000a81548173ffffffffffffffffffffffffffffffffffffffff021916908373ffffffffffffffffffffffffffffffffffffffff1602179055508173ffffffffffffffffffffffffffffffffffffffff168173ffffffffffffffffffffffffffffffffffffffff167f8be0079c531659141344cd1fd0a4f28419497f9722a3daafe3b4186f6b6457e060405160405180910390a35050565b600060019054906101000a900460ff1680611e58575060008054906101000a900460ff16155b611e97576040517f08c379a0000000000000000000000000000000000000000000000000000000008152600401611e8e90614199565b60405180910390fd5b60008060019054906101000a900460ff161590508015611ee7576001600060016101000a81548160ff02191690831515021790555060016000806101000a81548160ff0219169083151502179055505b611eef6126ea565b611ef76127c3565b611f01838361289c565b8015611f225760008060016101000a81548160ff0219169083151502179055505b505050565b600060019054906101000a900460ff1680611f4d575060008054906101000a900460ff16155b611f8c576040517f08c379a0000000000000000000000000000000000000000000000000000000008152600401611f8390614199565b60405180910390fd5b60008060019054906101000a900460ff161590508015611fdc576001600060016101000a81548160ff02191690831515021790555060016000806101000a81548160ff0219169083151502179055505b611fe46126ea565b611fec6127c3565b611ff46129a5565b80156120155760008060016101000a81548160ff0219169083151502179055505b50565b600060019054906101000a900460ff168061203e575060008054906101000a900460ff16155b61207d576040517f08c379a000000000000000000000000000000000000000000000000000000000815260040161207490614199565b60405180910390fd5b60008060019054906101000a900460ff1615905080156120cd576001600060016101000a81548160ff02191690831515021790555060016000806101000a81548160ff0219169083151502179055505b6120d56126ea565b6120dd6127c3565b6120e5612a7e565b80156121065760008060016101000a81548160ff0219169083151502179055505b50565b600060019054906101000a900460ff168061212f575060008054906101000a900460ff16155b61216e576040517f08c379a000000000000000000000000000000000000000000000000000000000815260040161216590614199565b60405180910390fd5b60008060019054906101000a900460ff1615905080156121be576001600060016101000a81548160ff02191690831515021790555060016000806101000a81548160ff0219169083151502179055505b6121c66126ea565b6121ce612b57565b80156121ef5760008060016101000a81548160ff0219169083151502179055505b50565b6121fd848484611b10565b61220984848484612c40565b612248576040517f08c379a000000000000000000000000000000000000000000000000000000000815260040161223f90614059565b60405180910390fd5b50505050565b606061225982611905565b612298576040517f08c379a000000000000000000000000000000000000000000000000000000000815260040161228f906141d9565b60405180910390fd5b600060fb600084815260200190815260200160002080546122b8906145fb565b80601f01602080910402602001604051908101604052809291908181526020018280546122e4906145fb565b80156123315780601f1061230657610100808354040283529160200191612331565b820191906000526020600020905b81548152906001019060200180831161231457829003601f168201915b505050505090506000612342612dd7565b905060008151141561235857819250505061239b565b60008251111561238d578082604051602001612375929190613ef6565b6040516020818303038152906040529250505061239b565b61239684612dee565b925050505b919050565b6001816000016000828254019250508190555050565b600073ffffffffffffffffffffffffffffffffffffffff168273ffffffffffffffffffffffffffffffffffffffff161415612426576040517f08c379a000000000000000000000000000000000000000000000000000000000815260040161241d906141b9565b60405180910390fd5b61242f81611905565b1561246f576040517f08c379a000000000000000000000000000000000000000000000000000000000815260040161246690614099565b60405180910390fd5b61247b600083836126da565b6001609a60008473ffffffffffffffffffffffffffffffffffffffff1673ffffffffffffffffffffffffffffffffffffffff16815260200190815260200160002060008282546124cb9190614430565b92505081905550816099600083815260200190815260200160002060006101000a81548173ffffffffffffffffffffffffffffffffffffffff021916908373ffffffffffffffffffffffffffffffffffffffff160217905550808273ffffffffffffffffffffffffffffffffffffffff16600073ffffffffffffffffffffffffffffffffffffffff167fddf252ad1be2c89b69c2b068fc378daa952ba7f163c4a11628f55a4df523b3ef60405160405180910390a45050565b61258d82611905565b6125cc576040517f08c379a00000000000000000000000000000000000000000000000000000000081526004016125c390614179565b60405180910390fd5b8060fb600084815260200190815260200160002090805190602001906125f3929190613580565b505050565b60007f80ac58cd000000000000000000000000000000000000000000000000000000007bffffffffffffffffffffffffffffffffffffffffffffffffffffffff1916827bffffffffffffffffffffffffffffffffffffffffffffffffffffffff191614806126c357507f5b5e139f000000000000000000000000000000000000000000000000000000007bffffffffffffffffffffffffffffffffffffffffffffffffffffffff1916827bffffffffffffffffffffffffffffffffffffffffffffffffffffffff1916145b806126d357506126d282612e95565b5b9050919050565b6126e5838383612eff565b505050565b600060019054906101000a900460ff1680612710575060008054906101000a900460ff16155b61274f576040517f08c379a000000000000000000000000000000000000000000000000000000000815260040161274690614199565b60405180910390fd5b60008060019054906101000a900460ff16159050801561279f576001600060016101000a81548160ff02191690831515021790555060016000806101000a81548160ff0219169083151502179055505b80156127c05760008060016101000a81548160ff0219169083151502179055505b50565b600060019054906101000a900460ff16806127e9575060008054906101000a900460ff16155b612828576040517f08c379a000000000000000000000000000000000000000000000000000000000815260040161281f90614199565b60405180910390fd5b60008060019054906101000a900460ff161590508015612878576001600060016101000a81548160ff02191690831515021790555060016000806101000a81548160ff0219169083151502179055505b80156128995760008060016101000a81548160ff0219169083151502179055505b50565b600060019054906101000a900460ff16806128c2575060008054906101000a900460ff16155b612901576040517f08c379a00000000000000000000000000000000000000000000000000000000081526004016128f890614199565b60405180910390fd5b60008060019054906101000a900460ff161590508015612951576001600060016101000a81548160ff02191690831515021790555060016000806101000a81548160ff0219169083151502179055505b8260979080519060200190612967929190613580565b50816098908051906020019061297e929190613580565b5080156129a05760008060016101000a81548160ff0219169083151502179055505b505050565b600060019054906101000a900460ff16806129cb575060008054906101000a900460ff16155b612a0a576040517f08c379a0000000000000000000000000000000000000000000000000000000008152600401612a0190614199565b60405180910390fd5b60008060019054906101000a900460ff161590508015612a5a576001600060016101000a81548160ff02191690831515021790555060016000806101000a81548160ff0219169083151502179055505b8015612a7b5760008060016101000a81548160ff0219169083151502179055505b50565b600060019054906101000a900460ff1680612aa4575060008054906101000a900460ff16155b612ae3576040517f08c379a0000000000000000000000000000000000000000000000000000000008152600401612ada90614199565b60405180910390fd5b60008060019054906101000a900460ff161590508015612b33576001600060016101000a81548160ff02191690831515021790555060016000806101000a81548160ff0219169083151502179055505b8015612b545760008060016101000a81548160ff0219169083151502179055505b50565b600060019054906101000a900460ff1680612b7d575060008054906101000a900460ff16155b612bbc576040517f08c379a0000000000000000000000000000000000000000000000000000000008152600401612bb390614199565b60405180910390fd5b60008060019054906101000a900460ff161590508015612c0c576001600060016101000a81548160ff02191690831515021790555060016000806101000a81548160ff0219169083151502179055505b612c1c612c17611971565b611d6c565b8015612c3d5760008060016101000a81548160ff0219169083151502179055505b50565b6000612c618473ffffffffffffffffffffffffffffffffffffffff16613013565b15612dca578373ffffffffffffffffffffffffffffffffffffffff1663150b7a02612c8a611971565b8786866040518563ffffffff1660e01b8152600401612cac9493929190613f35565b602060405180830381600087803b158015612cc657600080fd5b505af1925050508015612cf757506040513d601f19601f82011682018060405250810190612cf49190613980565b60015b612d7a573d8060008114612d27576040519150601f19603f3d011682016040523d82523d6000602084013e612d2c565b606091505b50600081511415612d72576040517f08c379a0000000000000000000000000000000000000000000000000000000008152600401612d6990614059565b60405180910390fd5b805181602001fd5b63150b7a0260e01b7bffffffffffffffffffffffffffffffffffffffffffffffffffffffff1916817bffffffffffffffffffffffffffffffffffffffffffffffffffffffff191614915050612dcf565b600190505b949350505050565b606060405180602001604052806000815250905090565b6060612df982611905565b612e38576040517f08c379a0000000000000000000000000000000000000000000000000000000008152600401612e2f90614259565b60405180910390fd5b6000612e42612dd7565b90506000815111612e625760405180602001604052806000815250612e8d565b80612e6c84613026565b604051602001612e7d929190613ef6565b6040516020818303038152906040525b915050919050565b60007f01ffc9a7000000000000000000000000000000000000000000000000000000007bffffffffffffffffffffffffffffffffffffffffffffffffffffffff1916827bffffffffffffffffffffffffffffffffffffffffffffffffffffffff1916149050919050565b612f0a8383836131d3565b600073ffffffffffffffffffffffffffffffffffffffff168373ffffffffffffffffffffffffffffffffffffffff161415612f4d57612f48816131d8565b612f8c565b8173ffffffffffffffffffffffffffffffffffffffff168373ffffffffffffffffffffffffffffffffffffffff1614612f8b57612f8a8382613221565b5b5b600073ffffffffffffffffffffffffffffffffffffffff168273ffffffffffffffffffffffffffffffffffffffff161415612fcf57612fca8161338e565b61300e565b8273ffffffffffffffffffffffffffffffffffffffff168273ffffffffffffffffffffffffffffffffffffffff161461300d5761300c82826134d1565b5b5b505050565b600080823b905060008111915050919050565b6060600082141561306e576040518060400160405280600181526020017f300000000000000000000000000000000000000000000000000000000000000081525090506131ce565b600082905060005b600082146130a05780806130899061465e565b915050600a826130999190614486565b9150613076565b60008167ffffffffffffffff8111156130e2577f4e487b7100000000000000000000000000000000000000000000000000000000600052604160045260246000fd5b6040519080825280601f01601f1916602001820160405280156131145781602001600182028036833780820191505090505b5090505b600085146131c75760018261312d9190614511565b9150600a8561313c91906146a7565b60306131489190614430565b60f81b818381518110613184577f4e487b7100000000000000000000000000000000000000000000000000000000600052603260045260246000fd5b60200101907effffffffffffffffffffffffffffffffffffffffffffffffffffffffffffff1916908160001a905350600a856131c09190614486565b9450613118565b8093505050505b919050565b505050565b60cb8054905060cc60008381526020019081526020016000208190555060cb81908060018154018082558091505060019003906000526020600020016000909190919091505550565b6000600161322e84610cc3565b6132389190614511565b9050600060ca600084815260200190815260200160002054905081811461331d57600060c960008673ffffffffffffffffffffffffffffffffffffffff1673ffffffffffffffffffffffffffffffffffffffff16815260200190815260200160002060008481526020019081526020016000205490508060c960008773ffffffffffffffffffffffffffffffffffffffff1673ffffffffffffffffffffffffffffffffffffffff1681526020019081526020016000206000848152602001908152602001600020819055508160ca600083815260200190815260200160002081905550505b60ca60008481526020019081526020016000206000905560c960008573ffffffffffffffffffffffffffffffffffffffff1673ffffffffffffffffffffffffffffffffffffffff16815260200190815260200160002060008381526020019081526020016000206000905550505050565b6000600160cb805490506133a29190614511565b9050600060cc6000848152602001908152602001600020549050600060cb83815481106133f8577f4e487b7100000000000000000000000000000000000000000000000000000000600052603260045260246000fd5b906000526020600020015490508060cb8381548110613440577f4e487b7100000000000000000000000000000000000000000000000000000000600052603260045260246000fd5b90600052602060002001819055508160cc60008381526020019081526020016000208190555060cc60008581526020019081526020016000206000905560cb8054806134b5577f4e487b7100000000000000000000000000000000000000000000000000000000600052603160045260246000fd5b6001900381819060005260206000200160009055905550505050565b60006134dc83610cc3565b90508160c960008573ffffffffffffffffffffffffffffffffffffffff1673ffffffffffffffffffffffffffffffffffffffff1681526020019081526020016000206000838152602001908152602001600020819055508060ca600084815260200190815260200160002081905550505050565b604051806040016040528060008152602001600073ffffffffffffffffffffffffffffffffffffffff1681525090565b82805461358c906145fb565b90600052602060002090601f0160209004810192826135ae57600085556135f5565b82601f106135c757805160ff19168380011785556135f5565b828001600101855582156135f5579182015b828111156135f45782518255916020019190600101906135d9565b5b5090506136029190613606565b5090565b5b8082111561361f576000816000905550600101613607565b5090565b600061363661363184614319565b6142f4565b90508281526020810184848401111561364e57600080fd5b6136598482856145b9565b509392505050565b600061367461366f8461434a565b6142f4565b90508281526020810184848401111561368c57600080fd5b6136978482856145b9565b509392505050565b6000813590506136ae81614d88565b92915050565b6000813590506136c381614d9f565b92915050565b6000813590506136d881614db6565b92915050565b6000815190506136ed81614db6565b92915050565b600082601f83011261370457600080fd5b8135613714848260208601613623565b91505092915050565b600082601f83011261372e57600080fd5b813561373e848260208601613661565b91505092915050565b60008135905061375681614dcd565b92915050565b60006020828403121561376e57600080fd5b600061377c8482850161369f565b91505092915050565b6000806040838503121561379857600080fd5b60006137a68582860161369f565b92505060206137b78582860161369f565b9150509250929050565b6000806000606084860312156137d657600080fd5b60006137e48682870161369f565b93505060206137f58682870161369f565b925050604061380686828701613747565b9150509250925092565b6000806000806080858703121561382657600080fd5b60006138348782880161369f565b94505060206138458782880161369f565b935050604061385687828801613747565b925050606085013567ffffffffffffffff81111561387357600080fd5b61387f878288016136f3565b91505092959194509250565b6000806040838503121561389e57600080fd5b60006138ac8582860161369f565b92505060206138bd858286016136b4565b9150509250929050565b600080604083850312156138da57600080fd5b60006138e88582860161369f565b925050602083013567ffffffffffffffff81111561390557600080fd5b6139118582860161371d565b9150509250929050565b6000806040838503121561392e57600080fd5b600061393c8582860161369f565b925050602061394d85828601613747565b9150509250929050565b60006020828403121561396957600080fd5b6000613977848285016136c9565b91505092915050565b60006020828403121561399257600080fd5b60006139a0848285016136de565b91505092915050565b6000602082840312156139bb57600080fd5b60006139c984828501613747565b91505092915050565b600080604083850312156139e557600080fd5b60006139f385828601613747565b9250506020613a0485828601613747565b9150509250929050565b6000613a1a8383613ea9565b60408301905092915050565b6000613a328383613ed8565b60208301905092915050565b613a4781614545565b82525050565b613a5681614545565b82525050565b6000613a678261439b565b613a7181856143e1565b9350613a7c8361437b565b8060005b83811015613aad578151613a948882613a0e565b9750613a9f836143c7565b925050600181019050613a80565b5085935050505092915050565b6000613ac5826143a6565b613acf81856143f2565b9350613ada8361438b565b8060005b83811015613b0b578151613af28882613a26565b9750613afd836143d4565b925050600181019050613ade565b5085935050505092915050565b613b2181614557565b82525050565b6000613b32826143b1565b613b3c8185614403565b9350613b4c8185602086016145c8565b613b5581614794565b840191505092915050565b6000613b6b826143bc565b613b758185614414565b9350613b858185602086016145c8565b613b8e81614794565b840191505092915050565b6000613ba4826143bc565b613bae8185614425565b9350613bbe8185602086016145c8565b80840191505092915050565b6000613bd7602b83614414565b9150613be2826147a5565b604082019050919050565b6000613bfa603283614414565b9150613c05826147f4565b604082019050919050565b6000613c1d602683614414565b9150613c2882614843565b604082019050919050565b6000613c40601c83614414565b9150613c4b82614892565b602082019050919050565b6000613c63602483614414565b9150613c6e826148bb565b604082019050919050565b6000613c86601983614414565b9150613c918261490a565b602082019050919050565b6000613ca9602c83614414565b9150613cb482614933565b604082019050919050565b6000613ccc603883614414565b9150613cd782614982565b604082019050919050565b6000613cef602a83614414565b9150613cfa826149d1565b604082019050919050565b6000613d12602983614414565b9150613d1d82614a20565b604082019050919050565b6000613d35602e83614414565b9150613d4082614a6f565b604082019050919050565b6000613d58602e83614414565b9150613d6382614abe565b604082019050919050565b6000613d7b602083614414565b9150613d8682614b0d565b602082019050919050565b6000613d9e603183614414565b9150613da982614b36565b604082019050919050565b6000613dc1602c83614414565b9150613dcc82614b85565b604082019050919050565b6000613de4602083614414565b9150613def82614bd4565b602082019050919050565b6000613e07602983614414565b9150613e1282614bfd565b604082019050919050565b6000613e2a602f83614414565b9150613e3582614c4c565b604082019050919050565b6000613e4d602183614414565b9150613e5882614c9b565b604082019050919050565b6000613e70603183614414565b9150613e7b82614cea565b604082019050919050565b6000613e93602c83614414565b9150613e9e82614d39565b604082019050919050565b604082016000820151613ebf6000850182613ed8565b506020820151613ed26020850182613a3e565b50505050565b613ee1816145af565b82525050565b613ef0816145af565b82525050565b6000613f028285613b99565b9150613f0e8284613b99565b91508190509392505050565b6000602082019050613f2f6000830184613a4d565b92915050565b6000608082019050613f4a6000830187613a4d565b613f576020830186613a4d565b613f646040830185613ee7565b8181036060830152613f768184613b27565b905095945050505050565b6000606082019050613f966000830186613a4d565b613fa36020830185613ee7565b613fb06040830184613ee7565b949350505050565b60006020820190508181036000830152613fd28184613a5c565b905092915050565b60006020820190508181036000830152613ff48184613aba565b905092915050565b60006020820190506140116000830184613b18565b92915050565b600060208201905081810360008301526140318184613b60565b905092915050565b6000602082019050818103600083015261405281613bca565b9050919050565b6000602082019050818103600083015261407281613bed565b9050919050565b6000602082019050818103600083015261409281613c10565b9050919050565b600060208201905081810360008301526140b281613c33565b9050919050565b600060208201905081810360008301526140d281613c56565b9050919050565b600060208201905081810360008301526140f281613c79565b9050919050565b6000602082019050818103600083015261411281613c9c565b9050919050565b6000602082019050818103600083015261413281613cbf565b9050919050565b6000602082019050818103600083015261415281613ce2565b9050919050565b6000602082019050818103600083015261417281613d05565b9050919050565b6000602082019050818103600083015261419281613d28565b9050919050565b600060208201905081810360008301526141b281613d4b565b9050919050565b600060208201905081810360008301526141d281613d6e565b9050919050565b600060208201905081810360008301526141f281613d91565b9050919050565b6000602082019050818103600083015261421281613db4565b9050919050565b6000602082019050818103600083015261423281613dd7565b9050919050565b6000602082019050818103600083015261425281613dfa565b9050919050565b6000602082019050818103600083015261427281613e1d565b9050919050565b6000602082019050818103600083015261429281613e40565b9050919050565b600060208201905081810360008301526142b281613e63565b9050919050565b600060208201905081810360008301526142d281613e86565b9050919050565b60006020820190506142ee6000830184613ee7565b92915050565b60006142fe61430f565b905061430a828261462d565b919050565b6000604051905090565b600067ffffffffffffffff82111561433457614333614765565b5b61433d82614794565b9050602081019050919050565b600067ffffffffffffffff82111561436557614364614765565b5b61436e82614794565b9050602081019050919050565b6000819050602082019050919050565b6000819050602082019050919050565b600081519050919050565b600081519050919050565b600081519050919050565b600081519050919050565b6000602082019050919050565b6000602082019050919050565b600082825260208201905092915050565b600082825260208201905092915050565b600082825260208201905092915050565b600082825260208201905092915050565b600081905092915050565b600061443b826145af565b9150614446836145af565b9250827fffffffffffffffffffffffffffffffffffffffffffffffffffffffffffffffff0382111561447b5761447a6146d8565b5b828201905092915050565b6000614491826145af565b915061449c836145af565b9250826144ac576144ab614707565b5b828204905092915050565b60006144c2826145af565b91506144cd836145af565b9250817fffffffffffffffffffffffffffffffffffffffffffffffffffffffffffffffff0483118215151615614506576145056146d8565b5b828202905092915050565b600061451c826145af565b9150614527836145af565b92508282101561453a576145396146d8565b5b828203905092915050565b60006145508261458f565b9050919050565b60008115159050919050565b60007fffffffff0000000000000000000000000000000000000000000000000000000082169050919050565b600073ffffffffffffffffffffffffffffffffffffffff82169050919050565b6000819050919050565b82818337600083830152505050565b60005b838110156145e65780820151818401526020810190506145cb565b838111156145f5576000848401525b50505050565b6000600282049050600182168061461357607f821691505b6020821081141561462757614626614736565b5b50919050565b61463682614794565b810181811067ffffffffffffffff8211171561465557614654614765565b5b80604052505050565b6000614669826145af565b91507fffffffffffffffffffffffffffffffffffffffffffffffffffffffffffffffff82141561469c5761469b6146d8565b5b600182019050919050565b60006146b2826145af565b91506146bd836145af565b9250826146cd576146cc614707565b5b828206905092915050565b7f4e487b7100000000000000000000000000000000000000000000000000000000600052601160045260246000fd5b7f4e487b7100000000000000000000000000000000000000000000000000000000600052601260045260246000fd5b7f4e487b7100000000000000000000000000000000000000000000000000000000600052602260045260246000fd5b7f4e487b7100000000000000000000000000000000000000000000000000000000600052604160045260246000fd5b6000601f19601f8301169050919050565b7f455243373231456e756d657261626c653a206f776e657220696e646578206f7560008201527f74206f6620626f756e6473000000000000000000000000000000000000000000602082015250565b7f4552433732313a207472616e7366657220746f206e6f6e20455243373231526560008201527f63656976657220696d706c656d656e7465720000000000000000000000000000602082015250565b7f4f776e61626c653a206e6577206f776e657220697320746865207a65726f206160008201527f6464726573730000000000000000000000000000000000000000000000000000602082015250565b7f4552433732313a20746f6b656e20616c7265616479206d696e74656400000000600082015250565b7f4552433732313a207472616e7366657220746f20746865207a65726f2061646460008201527f7265737300000000000000000000000000000000000000000000000000000000602082015250565b7f4552433732313a20617070726f766520746f2063616c6c657200000000000000600082015250565b7f4552433732313a206f70657261746f7220717565727920666f72206e6f6e657860008201527f697374656e7420746f6b656e0000000000000000000000000000000000000000602082015250565b7f4552433732313a20617070726f76652063616c6c6572206973206e6f74206f7760008201527f6e6572206e6f7220617070726f76656420666f7220616c6c0000000000000000602082015250565b7f4552433732313a2062616c616e636520717565727920666f7220746865207a6560008201527f726f206164647265737300000000000000000000000000000000000000000000602082015250565b7f4552433732313a206f776e657220717565727920666f72206e6f6e657869737460008201527f656e7420746f6b656e0000000000000000000000000000000000000000000000602082015250565b7f45524337323155524953746f726167653a2055524920736574206f66206e6f6e60008201527f6578697374656e7420746f6b656e000000000000000000000000000000000000602082015250565b7f496e697469616c697a61626c653a20636f6e747261637420697320616c72656160008201527f647920696e697469616c697a6564000000000000000000000000000000000000602082015250565b7f4552433732313a206d696e7420746f20746865207a65726f2061646472657373600082015250565b7f45524337323155524953746f726167653a2055524920717565727920666f722060008201527f6e6f6e6578697374656e7420746f6b656e000000000000000000000000000000602082015250565b7f4552433732313a20617070726f76656420717565727920666f72206e6f6e657860008201527f697374656e7420746f6b656e0000000000000000000000000000000000000000602082015250565b7f4f776e61626c653a2063616c6c6572206973206e6f7420746865206f776e6572600082015250565b7f4552433732313a207472616e73666572206f6620746f6b656e2074686174206960008201527f73206e6f74206f776e0000000000000000000000000000000000000000000000602082015250565b7f4552433732314d657461646174613a2055524920717565727920666f72206e6f60008201527f6e6578697374656e7420746f6b656e0000000000000000000000000000000000602082015250565b7f4552433732313a20617070726f76616c20746f2063757272656e74206f776e6560008201527f7200000000000000000000000000000000000000000000000000000000000000602082015250565b7f4552433732313a207472616e736665722063616c6c6572206973206e6f74206f60008201527f776e6572206e6f7220617070726f766564000000000000000000000000000000602082015250565b7f455243373231456e756d657261626c653a20676c6f62616c20696e646578206f60008201527f7574206f6620626f756e64730000000000000000000000000000000000000000602082015250565b614d9181614545565b8114614d9c57600080fd5b50565b614da881614557565b8114614db357600080fd5b50565b614dbf81614563565b8114614dca57600080fd5b50565b614dd6816145af565b8114614de157600080fd5b5056fea2646970667358221220582cf0933bdfeb12d1612643a42fec5f477086ba77fc78b30107ea2579026b5364736f6c63430008030033",
  "linkReferences": {},
  "deployedLinkReferences": {}
}