{
  "_format": "hh-sol-artifact-1",
  "contractName": "ERC721_V1",
  "sourceName": "contracts/ERC721.sol",
  "abi": [
    {
      "anonymous": false,
      "inputs": [
        {
          "indexed": true,
          "internalType": "address",
          "name": "owner",
          "type": "address"
        },
        {
          "indexed": true,
          "internalType": "address",
          "name": "approved",
          "type": "address"
        },
        {
          "indexed": true,
          "internalType": "uint256",
          "name": "tokenId",
          "type": "uint256"
        }
      ],
      "name": "Approval",
      "type": "event"
    },
    {
      "anonymous": false,
      "inputs": [
        {
          "indexed": true,
          "internalType": "address",
          "name": "owner",
          "type": "address"
        },
        {
          "indexed": true,
          "internalType": "address",
          "name": "operator",
          "type": "address"
        },
        {
          "indexed": false,
          "internalType": "bool",
          "name": "approved",
          "type": "bool"
        }
      ],
      "name": "ApprovalForAll",
      "type": "event"
    },
    {
      "anonymous": false,
      "inputs": [
        {
          "indexed": true,
          "internalType": "uint256",
          "name": "tokenId",
          "type": "uint256"
        },
        {
          "indexed": true,
          "internalType": "address",
          "name": "creator",
          "type": "address"
        }
      ],
      "name": "Mint",
      "type": "event"
    },
    {
      "anonymous": false,
      "inputs": [
        {
          "indexed": true,
          "internalType": "address",
          "name": "previousOwner",
          "type": "address"
        },
        {
          "indexed": true,
          "internalType": "address",
          "name": "newOwner",
          "type": "address"
        }
      ],
      "name": "OwnershipTransferred",
      "type": "event"
    },
    {
      "anonymous": false,
      "inputs": [
        {
          "indexed": true,
          "internalType": "address",
          "name": "from",
          "type": "address"
        },
        {
          "indexed": true,
          "internalType": "address",
          "name": "to",
          "type": "address"
        },
        {
          "indexed": true,
          "internalType": "uint256",
          "name": "tokenId",
          "type": "uint256"
        }
      ],
      "name": "Transfer",
      "type": "event"
    },
    {
      "inputs": [],
      "name": "_royaltiesPercentage",
      "outputs": [
        {
          "internalType": "uint256",
          "name": "",
          "type": "uint256"
        }
      ],
      "stateMutability": "view",
      "type": "function"
    },
    {
      "inputs": [
        {
          "internalType": "address",
          "name": "to",
          "type": "address"
        },
        {
          "internalType": "uint256",
          "name": "tokenId",
          "type": "uint256"
        }
      ],
      "name": "approve",
      "outputs": [],
      "stateMutability": "nonpayable",
      "type": "function"
    },
    {
      "inputs": [
        {
          "internalType": "address",
          "name": "owner",
          "type": "address"
        }
      ],
      "name": "balanceOf",
      "outputs": [
        {
          "internalType": "uint256",
          "name": "",
          "type": "uint256"
        }
      ],
      "stateMutability": "view",
      "type": "function"
    },
    {
      "inputs": [
        {
          "internalType": "uint256",
          "name": "tokenId",
          "type": "uint256"
        }
      ],
      "name": "getApproved",
      "outputs": [
        {
          "internalType": "address",
          "name": "",
          "type": "address"
        }
      ],
      "stateMutability": "view",
      "type": "function"
    },
    {
      "inputs": [],
      "name": "getRoyaltiesPercentage",
      "outputs": [
        {
          "internalType": "uint256",
          "name": "",
          "type": "uint256"
        }
      ],
      "stateMutability": "view",
      "type": "function"
    },
    {
      "inputs": [
        {
          "internalType": "uint256",
          "name": "_tokenId",
          "type": "uint256"
        }
      ],
      "name": "getTokenHolder",
      "outputs": [
        {
          "internalType": "address",
          "name": "",
          "type": "address"
        }
      ],
      "stateMutability": "view",
      "type": "function"
    },
    {
      "inputs": [],
      "name": "getTokenHolders",
      "outputs": [
        {
          "internalType": "address[]",
          "name": "result",
          "type": "address[]"
        }
      ],
      "stateMutability": "view",
      "type": "function"
    },
    {
      "inputs": [],
      "name": "getTotalItemsMinted",
      "outputs": [
        {
          "internalType": "uint256",
          "name": "",
          "type": "uint256"
        }
      ],
      "stateMutability": "view",
      "type": "function"
    },
    {
      "inputs": [],
      "name": "initialize",
      "outputs": [],
      "stateMutability": "nonpayable",
      "type": "function"
    },
    {
      "inputs": [
        {
          "internalType": "address",
          "name": "_owner",
          "type": "address"
        },
        {
          "internalType": "address",
          "name": "_operator",
          "type": "address"
        }
      ],
      "name": "isApprovedForAll",
      "outputs": [
        {
          "internalType": "bool",
          "name": "isOperator",
          "type": "bool"
        }
      ],
      "stateMutability": "view",
      "type": "function"
    },
    {
      "inputs": [
        {
          "internalType": "address",
          "name": "creator",
          "type": "address"
        },
        {
          "internalType": "string",
          "name": "_tokenURI",
          "type": "string"
        }
      ],
      "name": "mintNFT",
      "outputs": [
        {
          "internalType": "uint256",
          "name": "",
          "type": "uint256"
        }
      ],
      "stateMutability": "nonpayable",
      "type": "function"
    },
    {
      "inputs": [],
      "name": "name",
      "outputs": [
        {
          "internalType": "string",
          "name": "",
          "type": "string"
        }
      ],
      "stateMutability": "view",
      "type": "function"
    },
    {
      "inputs": [],
      "name": "owner",
      "outputs": [
        {
          "internalType": "address",
          "name": "",
          "type": "address"
        }
      ],
      "stateMutability": "view",
      "type": "function"
    },
    {
      "inputs": [
        {
          "internalType": "uint256",
          "name": "tokenId",
          "type": "uint256"
        }
      ],
      "name": "ownerOf",
      "outputs": [
        {
          "internalType": "address",
          "name": "",
          "type": "address"
        }
      ],
      "stateMutability": "view",
      "type": "function"
    },
    {
      "inputs": [],
      "name": "renounceOwnership",
      "outputs": [],
      "stateMutability": "nonpayable",
      "type": "function"
    },
    {
      "inputs": [],
      "name": "royaltiesReceiver",
      "outputs": [
        {
          "internalType": "address",
          "name": "",
          "type": "address"
        }
      ],
      "stateMutability": "view",
      "type": "function"
    },
    {
      "inputs": [
        {
          "internalType": "uint256",
          "name": "_nftId",
          "type": "uint256"
        },
        {
          "internalType": "uint256",
          "name": "_salePrice",
          "type": "uint256"
        }
      ],
      "name": "royaltyInfo",
      "outputs": [
        {
          "internalType": "address",
          "name": "receiver",
          "type": "address"
        },
        {
          "internalType": "uint256",
          "name": "royaltyAmount",
          "type": "uint256"
        },
        {
          "internalType": "uint256",
          "name": "tokenId",
          "type": "uint256"
        }
      ],
      "stateMutability": "view",
      "type": "function"
    },
    {
      "inputs": [
        {
          "internalType": "address",
          "name": "from",
          "type": "address"
        },
        {
          "internalType": "address",
          "name": "to",
          "type": "address"
        },
        {
          "internalType": "uint256",
          "name": "tokenId",
          "type": "uint256"
        }
      ],
      "name": "safeTransferFrom",
      "outputs": [],
      "stateMutability": "nonpayable",
      "type": "function"
    },
    {
      "inputs": [
        {
          "internalType": "address",
          "name": "from",
          "type": "address"
        },
        {
          "internalType": "address",
          "name": "to",
          "type": "address"
        },
        {
          "internalType": "uint256",
          "name": "tokenId",
          "type": "uint256"
        },
        {
          "internalType": "bytes",
          "name": "_data",
          "type": "bytes"
        }
      ],
      "name": "safeTransferFrom",
      "outputs": [],
      "stateMutability": "nonpayable",
      "type": "function"
    },
    {
      "inputs": [
        {
          "internalType": "address",
          "name": "operator",
          "type": "address"
        },
        {
          "internalType": "bool",
          "name": "approved",
          "type": "bool"
        }
      ],
      "name": "setApprovalForAll",
      "outputs": [],
      "stateMutability": "nonpayable",
      "type": "function"
    },
    {
      "inputs": [
        {
          "internalType": "uint256",
          "name": "newRoyalties",
          "type": "uint256"
        }
      ],
      "name": "setRoyalties",
      "outputs": [],
      "stateMutability": "nonpayable",
      "type": "function"
    },
    {
      "inputs": [
        {
          "internalType": "address",
          "name": "newRoyaltiesReceiver",
          "type": "address"
        }
      ],
      "name": "setRoyaltiesReceiver",
      "outputs": [],
      "stateMutability": "nonpayable",
      "type": "function"
    },
    {
      "inputs": [
        {
          "internalType": "bytes4",
          "name": "interfaceId",
          "type": "bytes4"
        }
      ],
      "name": "supportsInterface",
      "outputs": [
        {
          "internalType": "bool",
          "name": "",
          "type": "bool"
        }
      ],
      "stateMutability": "view",
      "type": "function"
    },
    {
      "inputs": [],
      "name": "symbol",
      "outputs": [
        {
          "internalType": "string",
          "name": "",
          "type": "string"
        }
      ],
      "stateMutability": "view",
      "type": "function"
    },
    {
      "inputs": [
        {
          "internalType": "uint256",
          "name": "index",
          "type": "uint256"
        }
      ],
      "name": "tokenByIndex",
      "outputs": [
        {
          "internalType": "uint256",
          "name": "",
          "type": "uint256"
        }
      ],
      "stateMutability": "view",
      "type": "function"
    },
    {
      "inputs": [
        {
          "internalType": "uint256",
          "name": "",
          "type": "uint256"
        }
      ],
      "name": "tokenHolder",
      "outputs": [
        {
          "internalType": "address",
          "name": "",
          "type": "address"
        }
      ],
      "stateMutability": "view",
      "type": "function"
    },
    {
      "inputs": [
        {
          "internalType": "address",
          "name": "owner",
          "type": "address"
        },
        {
          "internalType": "uint256",
          "name": "index",
          "type": "uint256"
        }
      ],
      "name": "tokenOfOwnerByIndex",
      "outputs": [
        {
          "internalType": "uint256",
          "name": "",
          "type": "uint256"
        }
      ],
      "stateMutability": "view",
      "type": "function"
    },
    {
      "inputs": [
        {
          "internalType": "uint256",
          "name": "tokenId",
          "type": "uint256"
        }
      ],
      "name": "tokenURI",
      "outputs": [
        {
          "internalType": "string",
          "name": "",
          "type": "string"
        }
      ],
      "stateMutability": "view",
      "type": "function"
    },
    {
      "inputs": [
        {
          "internalType": "address",
          "name": "_owner",
          "type": "address"
        }
      ],
      "name": "tokensOfOwner",
      "outputs": [
        {
          "internalType": "uint256[]",
          "name": "ownerTokens",
          "type": "uint256[]"
        }
      ],
      "stateMutability": "view",
      "type": "function"
    },
    {
      "inputs": [],
      "name": "totalSupply",
      "outputs": [
        {
          "internalType": "uint256",
          "name": "",
          "type": "uint256"
        }
      ],
      "stateMutability": "view",
      "type": "function"
    },
    {
      "inputs": [
        {
          "internalType": "address",
          "name": "from",
          "type": "address"
        },
        {
          "internalType": "address",
          "name": "to",
          "type": "address"
        },
        {
          "internalType": "uint256",
          "name": "tokenId",
          "type": "uint256"
        }
      ],
      "name": "transferFrom",
      "outputs": [],
      "stateMutability": "nonpayable",
      "type": "function"
    },
    {
      "inputs": [
        {
          "internalType": "address",
          "name": "newOwner",
          "type": "address"
        }
      ],
      "name": "transferOwnership",
      "outputs": [],
      "stateMutability": "nonpayable",
      "type": "function"
    }
  ],
  "bytecode": "0x608060405234801561001057600080fd5b5061519b806100206000396000f3fe608060405234801561001057600080fd5b50600436106101f05760003560e01c80638462151c1161010f578063b88d4fde116100a2578063e985e9c511610071578063e985e9c5146105cf578063eacabe14146105ff578063ef8aac541461062f578063f2fde38b1461064d576101f0565b8063b88d4fde14610535578063c87b56dd14610551578063ca55954c14610581578063cf7761ee146105b1576101f0565b806395d89b41116100de57806395d89b41146104c1578063a22cb465146104df578063a3a51bd5146104fb578063b514371514610519576101f0565b80638462151c14610425578063862a4bf214610455578063876b1566146104855780638da5cb5b146104a3576101f0565b80632b80183f116101875780636352211e116101565780636352211e146103b157806370a08231146103e1578063715018a6146104115780638129fc1c1461041b576101f0565b80632b80183f146103195780632f745c591461033557806342842e0e146103655780634f6ccce714610381576101f0565b8063095ea7b3116101c3578063095ea7b31461029157806318160ddd146102ad57806323b872dd146102cb5780632a55205a146102e7576101f0565b806301ffc9a7146101f557806306fdde0314610225578063075b890714610243578063081812fc14610261575b600080fd5b61020f600480360381019061020a9190613d07565b610669565b60405161021c919061437d565b60405180910390f35b61022d6106e3565b60405161023a9190614398565b60405180910390f35b61024b610775565b604051610258919061465a565b60405180910390f35b61027b60048036038101906102769190613d59565b610780565b604051610288919061429b565b60405180910390f35b6102ab60048036038101906102a69190613ccb565b610805565b005b6102b561091d565b6040516102c2919061465a565b60405180910390f35b6102e560048036038101906102e09190613b71565b61092a565b005b61030160048036038101906102fc9190613d82565b61098a565b60405161031093929190614302565b60405180910390f35b610333600480360381019061032e9190613d59565b6109e1565b005b61034f600480360381019061034a9190613ccb565b610a78565b60405161035c919061465a565b60405180910390f35b61037f600480360381019061037a9190613b71565b610b1d565b005b61039b60048036038101906103969190613d59565b610b3d565b6040516103a8919061465a565b60405180910390f35b6103cb60048036038101906103c69190613d59565b610bd4565b6040516103d8919061429b565b60405180910390f35b6103fb60048036038101906103f69190613b0c565b610c86565b604051610408919061465a565b60405180910390f35b610419610d3e565b005b610423610dc6565b005b61043f600480360381019061043a9190613b0c565b610f8a565b60405161044c919061435b565b60405180910390f35b61046f600480360381019061046a9190613d59565b611107565b60405161047c919061429b565b60405180910390f35b61048d61113b565b60405161049a9190614339565b60405180910390f35b6104ab6112de565b6040516104b8919061429b565b60405180910390f35b6104c9611308565b6040516104d69190614398565b60405180910390f35b6104f960048036038101906104f49190613c3b565b61139a565b005b61050361151b565b604051610510919061429b565b60405180910390f35b610533600480360381019061052e9190613b0c565b611546565b005b61054f600480360381019061054a9190613bc0565b611663565b005b61056b60048036038101906105669190613d59565b6116c5565b6040516105789190614398565b60405180910390f35b61059b60048036038101906105969190613d59565b6116d7565b6040516105a8919061429b565b60405180910390f35b6105b9611715565b6040516105c6919061465a565b60405180910390f35b6105e960048036038101906105e49190613b35565b61171c565b6040516105f6919061437d565b60405180910390f35b61061960048036038101906106149190613c77565b611782565b604051610626919061465a565b60405180910390f35b61063761191d565b604051610644919061465a565b60405180910390f35b61066760048036038101906106629190613b0c565b61192f565b005b60007f2a55205a000000000000000000000000000000000000000000000000000000007bffffffffffffffffffffffffffffffffffffffffffffffffffffffff1916827bffffffffffffffffffffffffffffffffffffffffffffffffffffffff191614806106dc57506106db82611a27565b5b9050919050565b6060609780546106f29061497c565b80601f016020809104026020016040519081016040528092919081815260200182805461071e9061497c565b801561076b5780601f106107405761010080835404028352916020019161076b565b820191906000526020600020905b81548152906001019060200180831161074e57829003601f168201915b5050505050905090565b600061012f54905090565b600061078b82611aa1565b6107ca576040517f08c379a00000000000000000000000000000000000000000000000000000000081526004016107c19061457a565b60405180910390fd5b609b600083815260200190815260200160002060009054906101000a900473ffffffffffffffffffffffffffffffffffffffff169050919050565b600061081082610bd4565b90508073ffffffffffffffffffffffffffffffffffffffff168373ffffffffffffffffffffffffffffffffffffffff161415610881576040517f08c379a0000000000000000000000000000000000000000000000000000000008152600401610878906145fa565b60405180910390fd5b8073ffffffffffffffffffffffffffffffffffffffff166108a0611b0d565b73ffffffffffffffffffffffffffffffffffffffff1614806108cf57506108ce816108c9611b0d565b61171c565b5b61090e576040517f08c379a00000000000000000000000000000000000000000000000000000000081526004016109059061449a565b60405180910390fd5b6109188383611b1c565b505050565b600060cb80549050905090565b61093b610935611b0d565b82611bd5565b61097a576040517f08c379a00000000000000000000000000000000000000000000000000000000081526004016109719061461a565b60405180910390fd5b610985838383611cb3565b505050565b600080600080606461012f54866109a19190614838565b6109ab9190614807565b905061012e60009054906101000a900473ffffffffffffffffffffffffffffffffffffffff168187935093509350509250925092565b6109e9611b0d565b73ffffffffffffffffffffffffffffffffffffffff16610a076112de565b73ffffffffffffffffffffffffffffffffffffffff1614610a5d576040517f08c379a0000000000000000000000000000000000000000000000000000000008152600401610a549061459a565b60405180910390fd5b61012f54811415610a6d57600080fd5b8061012f8190555050565b6000610a8383610c86565b8210610ac4576040517f08c379a0000000000000000000000000000000000000000000000000000000008152600401610abb906143ba565b60405180910390fd5b60c960008473ffffffffffffffffffffffffffffffffffffffff1673ffffffffffffffffffffffffffffffffffffffff168152602001908152602001600020600083815260200190815260200160002054905092915050565b610b3883838360405180602001604052806000815250611663565b505050565b6000610b4761091d565b8210610b88576040517f08c379a0000000000000000000000000000000000000000000000000000000008152600401610b7f9061463a565b60405180910390fd5b60cb8281548110610bc2577f4e487b7100000000000000000000000000000000000000000000000000000000600052603260045260246000fd5b90600052602060002001549050919050565b6000806099600084815260200190815260200160002060009054906101000a900473ffffffffffffffffffffffffffffffffffffffff169050600073ffffffffffffffffffffffffffffffffffffffff168173ffffffffffffffffffffffffffffffffffffffff161415610c7d576040517f08c379a0000000000000000000000000000000000000000000000000000000008152600401610c74906144da565b60405180910390fd5b80915050919050565b60008073ffffffffffffffffffffffffffffffffffffffff168273ffffffffffffffffffffffffffffffffffffffff161415610cf7576040517f08c379a0000000000000000000000000000000000000000000000000000000008152600401610cee906144ba565b60405180910390fd5b609a60008373ffffffffffffffffffffffffffffffffffffffff1673ffffffffffffffffffffffffffffffffffffffff168152602001908152602001600020549050919050565b610d46611b0d565b73ffffffffffffffffffffffffffffffffffffffff16610d646112de565b73ffffffffffffffffffffffffffffffffffffffff1614610dba576040517f08c379a0000000000000000000000000000000000000000000000000000000008152600401610db19061459a565b60405180910390fd5b610dc46000611ccd565b565b600060019054906101000a900460ff1680610dec575060008054906101000a900460ff16155b610e2b576040517f08c379a0000000000000000000000000000000000000000000000000000000008152600401610e229061451a565b60405180910390fd5b60008060019054906101000a900460ff161590508015610e7b576001600060016101000a81548160ff02191690831515021790555060016000806101000a81548160ff0219169083151502179055505b610eef6040518060400160405280600c81526020017f4d6f69612053747564696f7300000000000000000000000000000000000000008152506040518060400160405280600581526020017f4d4f495353000000000000000000000000000000000000000000000000000000815250611d93565b610ef7611e88565b610eff611f79565b610f0761206a565b73a8d145dd3003817da1dc83f838ee5088b65acf2e61012e60006101000a81548173ffffffffffffffffffffffffffffffffffffffff021916908373ffffffffffffffffffffffffffffffffffffffff160217905550600761012f819055508015610f875760008060016101000a81548160ff0219169083151502179055505b50565b60606000610f9783610c86565b905060008167ffffffffffffffff811115610fdb577f4e487b7100000000000000000000000000000000000000000000000000000000600052604160045260246000fd5b6040519080825280602002602001820160405280156110095781602001602082028036833780820191505090505b509050600082141561108e57600067ffffffffffffffff811115611056577f4e487b7100000000000000000000000000000000000000000000000000000000600052604160045260246000fd5b6040519080825280602002602001820160405280156110845781602001602082028036833780820191505090505b5092505050611102565b60005b828110156110fb576110a38582610a78565b8282815181106110dc577f4e487b7100000000000000000000000000000000000000000000000000000000600052603260045260246000fd5b60200260200101818152505080806110f3906149df565b915050611091565b5080925050505b919050565b6101316020528060005260406000206000915054906101000a900473ffffffffffffffffffffffffffffffffffffffff1681565b6060600061114a61012d612153565b90508067ffffffffffffffff81111561118c577f4e487b7100000000000000000000000000000000000000000000000000000000600052604160045260246000fd5b6040519080825280602002602001820160405280156111ba5781602001602082028036833780820191505090505b509150600081141561123e57600067ffffffffffffffff811115611207577f4e487b7100000000000000000000000000000000000000000000000000000000600052604160045260246000fd5b6040519080825280602002602001820160405280156112355781602001602082028036833780820191505090505b509150506112db565b60005b818110156112d857611252816116d7565b83828151811061128b577f4e487b7100000000000000000000000000000000000000000000000000000000600052603260045260246000fd5b602002602001019073ffffffffffffffffffffffffffffffffffffffff16908173ffffffffffffffffffffffffffffffffffffffff168152505080806112d0906149df565b915050611241565b50505b90565b6000603360009054906101000a900473ffffffffffffffffffffffffffffffffffffffff16905090565b6060609880546113179061497c565b80601f01602080910402602001604051908101604052809291908181526020018280546113439061497c565b80156113905780601f1061136557610100808354040283529160200191611390565b820191906000526020600020905b81548152906001019060200180831161137357829003601f168201915b5050505050905090565b6113a2611b0d565b73ffffffffffffffffffffffffffffffffffffffff168273ffffffffffffffffffffffffffffffffffffffff161415611410576040517f08c379a00000000000000000000000000000000000000000000000000000000081526004016114079061445a565b60405180910390fd5b80609c600061141d611b0d565b73ffffffffffffffffffffffffffffffffffffffff1673ffffffffffffffffffffffffffffffffffffffff16815260200190815260200160002060008473ffffffffffffffffffffffffffffffffffffffff1673ffffffffffffffffffffffffffffffffffffffff16815260200190815260200160002060006101000a81548160ff0219169083151502179055508173ffffffffffffffffffffffffffffffffffffffff166114ca611b0d565b73ffffffffffffffffffffffffffffffffffffffff167f17307eab39ab6107e8899845ad3d59bd9653f200f220920489ca2b5937696c318360405161150f919061437d565b60405180910390a35050565b600061012e60009054906101000a900473ffffffffffffffffffffffffffffffffffffffff16905090565b61154e611b0d565b73ffffffffffffffffffffffffffffffffffffffff1661156c6112de565b73ffffffffffffffffffffffffffffffffffffffff16146115c2576040517f08c379a00000000000000000000000000000000000000000000000000000000081526004016115b99061459a565b60405180910390fd5b61012e60009054906101000a900473ffffffffffffffffffffffffffffffffffffffff1673ffffffffffffffffffffffffffffffffffffffff168173ffffffffffffffffffffffffffffffffffffffff16141561161e57600080fd5b8061012e60006101000a81548173ffffffffffffffffffffffffffffffffffffffff021916908373ffffffffffffffffffffffffffffffffffffffff16021790555050565b61167461166e611b0d565b83611bd5565b6116b3576040517f08c379a00000000000000000000000000000000000000000000000000000000081526004016116aa9061461a565b60405180910390fd5b6116bf84848484612161565b50505050565b60606116d0826121bd565b9050919050565b6000610131600083815260200190815260200160002060009054906101000a900473ffffffffffffffffffffffffffffffffffffffff169050919050565b61012f5481565b60007358807bad0b376efc12f5ad86aac70e78ed67deae73ffffffffffffffffffffffffffffffffffffffff168273ffffffffffffffffffffffffffffffffffffffff16141561176f576001905061177c565b611779838361230f565b90505b92915050565b600061178c611b0d565b73ffffffffffffffffffffffffffffffffffffffff166117aa6112de565b73ffffffffffffffffffffffffffffffffffffffff1614611800576040517f08c379a00000000000000000000000000000000000000000000000000000000081526004016117f79061459a565b60405180910390fd5b600082511161180e57600080fd5b61181961012d6123a3565b600061182661012d612153565b905061183284826123b9565b61183c81846123d7565b60405180604001604052808281526020018573ffffffffffffffffffffffffffffffffffffffff1681525061013060008381526020019081526020016000206000820151816000015560208201518160010160006101000a81548173ffffffffffffffffffffffffffffffffffffffff021916908373ffffffffffffffffffffffffffffffffffffffff1602179055509050508373ffffffffffffffffffffffffffffffffffffffff16817ff3cea5493d790af0133817606f7350a91d7f154ea52eaa79d179d4d231e5010260405160405180910390a38091505092915050565b600061192a61012d612153565b905090565b611937611b0d565b73ffffffffffffffffffffffffffffffffffffffff166119556112de565b73ffffffffffffffffffffffffffffffffffffffff16146119ab576040517f08c379a00000000000000000000000000000000000000000000000000000000081526004016119a29061459a565b60405180910390fd5b600073ffffffffffffffffffffffffffffffffffffffff168173ffffffffffffffffffffffffffffffffffffffff161415611a1b576040517f08c379a0000000000000000000000000000000000000000000000000000000008152600401611a12906143fa565b60405180910390fd5b611a2481611ccd565b50565b60007f780e9d63000000000000000000000000000000000000000000000000000000007bffffffffffffffffffffffffffffffffffffffffffffffffffffffff1916827bffffffffffffffffffffffffffffffffffffffffffffffffffffffff19161480611a9a5750611a998261244b565b5b9050919050565b60008073ffffffffffffffffffffffffffffffffffffffff166099600084815260200190815260200160002060009054906101000a900473ffffffffffffffffffffffffffffffffffffffff1673ffffffffffffffffffffffffffffffffffffffff1614159050919050565b6000611b1761252d565b905090565b81609b600083815260200190815260200160002060006101000a81548173ffffffffffffffffffffffffffffffffffffffff021916908373ffffffffffffffffffffffffffffffffffffffff160217905550808273ffffffffffffffffffffffffffffffffffffffff16611b8f83610bd4565b73ffffffffffffffffffffffffffffffffffffffff167f8c5be1e5ebec7d5bd14f71427d1e84f3dd0314c0f7b2291e5b200ac8c7c3b92560405160405180910390a45050565b6000611be082611aa1565b611c1f576040517f08c379a0000000000000000000000000000000000000000000000000000000008152600401611c169061447a565b60405180910390fd5b6000611c2a83610bd4565b90508073ffffffffffffffffffffffffffffffffffffffff168473ffffffffffffffffffffffffffffffffffffffff161480611c9957508373ffffffffffffffffffffffffffffffffffffffff16611c8184610780565b73ffffffffffffffffffffffffffffffffffffffff16145b80611caa5750611ca9818561171c565b5b91505092915050565b611cbd82826125de565b611cc8838383612635565b505050565b6000603360009054906101000a900473ffffffffffffffffffffffffffffffffffffffff16905081603360006101000a81548173ffffffffffffffffffffffffffffffffffffffff021916908373ffffffffffffffffffffffffffffffffffffffff1602179055508173ffffffffffffffffffffffffffffffffffffffff168173ffffffffffffffffffffffffffffffffffffffff167f8be0079c531659141344cd1fd0a4f28419497f9722a3daafe3b4186f6b6457e060405160405180910390a35050565b600060019054906101000a900460ff1680611db9575060008054906101000a900460ff16155b611df8576040517f08c379a0000000000000000000000000000000000000000000000000000000008152600401611def9061451a565b60405180910390fd5b60008060019054906101000a900460ff161590508015611e48576001600060016101000a81548160ff02191690831515021790555060016000806101000a81548160ff0219169083151502179055505b611e50612891565b611e5861296a565b611e628383612a43565b8015611e835760008060016101000a81548160ff0219169083151502179055505b505050565b600060019054906101000a900460ff1680611eae575060008054906101000a900460ff16155b611eed576040517f08c379a0000000000000000000000000000000000000000000000000000000008152600401611ee49061451a565b60405180910390fd5b60008060019054906101000a900460ff161590508015611f3d576001600060016101000a81548160ff02191690831515021790555060016000806101000a81548160ff0219169083151502179055505b611f45612891565b611f4d61296a565b611f55612b4c565b8015611f765760008060016101000a81548160ff0219169083151502179055505b50565b600060019054906101000a900460ff1680611f9f575060008054906101000a900460ff16155b611fde576040517f08c379a0000000000000000000000000000000000000000000000000000000008152600401611fd59061451a565b60405180910390fd5b60008060019054906101000a900460ff16159050801561202e576001600060016101000a81548160ff02191690831515021790555060016000806101000a81548160ff0219169083151502179055505b612036612891565b61203e61296a565b612046612c25565b80156120675760008060016101000a81548160ff0219169083151502179055505b50565b600060019054906101000a900460ff1680612090575060008054906101000a900460ff16155b6120cf576040517f08c379a00000000000000000000000000000000000000000000000000000000081526004016120c69061451a565b60405180910390fd5b60008060019054906101000a900460ff16159050801561211f576001600060016101000a81548160ff02191690831515021790555060016000806101000a81548160ff0219169083151502179055505b612127612891565b61212f612cfe565b80156121505760008060016101000a81548160ff0219169083151502179055505b50565b600081600001549050919050565b61216c848484611cb3565b61217884848484612de7565b6121b7576040517f08c379a00000000000000000000000000000000000000000000000000000000081526004016121ae906143da565b60405180910390fd5b50505050565b60606121c882611aa1565b612207576040517f08c379a00000000000000000000000000000000000000000000000000000000081526004016121fe9061455a565b60405180910390fd5b600060fb600084815260200190815260200160002080546122279061497c565b80601f01602080910402602001604051908101604052809291908181526020018280546122539061497c565b80156122a05780601f10612275576101008083540402835291602001916122a0565b820191906000526020600020905b81548152906001019060200180831161228357829003601f168201915b5050505050905060006122b1612f7e565b90506000815114156122c757819250505061230a565b6000825111156122fc5780826040516020016122e4929190614277565b6040516020818303038152906040529250505061230a565b61230584612f95565b925050505b919050565b6000609c60008473ffffffffffffffffffffffffffffffffffffffff1673ffffffffffffffffffffffffffffffffffffffff16815260200190815260200160002060008373ffffffffffffffffffffffffffffffffffffffff1673ffffffffffffffffffffffffffffffffffffffff16815260200190815260200160002060009054906101000a900460ff16905092915050565b6001816000016000828254019250508190555050565b6123d382826040518060200160405280600081525061303c565b5050565b6123e082611aa1565b61241f576040517f08c379a0000000000000000000000000000000000000000000000000000000008152600401612416906144fa565b60405180910390fd5b8060fb60008481526020019081526020016000209080519060200190612446929190613930565b505050565b60007f80ac58cd000000000000000000000000000000000000000000000000000000007bffffffffffffffffffffffffffffffffffffffffffffffffffffffff1916827bffffffffffffffffffffffffffffffffffffffffffffffffffffffff1916148061251657507f5b5e139f000000000000000000000000000000000000000000000000000000007bffffffffffffffffffffffffffffffffffffffffffffffffffffffff1916827bffffffffffffffffffffffffffffffffffffffffffffffffffffffff1916145b80612526575061252582613097565b5b9050919050565b60003073ffffffffffffffffffffffffffffffffffffffff163373ffffffffffffffffffffffffffffffffffffffff1614156125d757600080368080601f016020809104026020016040519081016040528093929190818152602001838380828437600081840152601f19601f820116905080830192505050505050509050600080369050905073ffffffffffffffffffffffffffffffffffffffff8183015116925050506125db565b3390505b90565b81610131600083815260200190815260200160002060006101000a81548173ffffffffffffffffffffffffffffffffffffffff021916908373ffffffffffffffffffffffffffffffffffffffff1602179055505050565b8273ffffffffffffffffffffffffffffffffffffffff1661265582610bd4565b73ffffffffffffffffffffffffffffffffffffffff16146126ab576040517f08c379a00000000000000000000000000000000000000000000000000000000081526004016126a2906145ba565b60405180910390fd5b600073ffffffffffffffffffffffffffffffffffffffff168273ffffffffffffffffffffffffffffffffffffffff16141561271b576040517f08c379a00000000000000000000000000000000000000000000000000000000081526004016127129061443a565b60405180910390fd5b612726838383613101565b612731600082611b1c565b6001609a60008573ffffffffffffffffffffffffffffffffffffffff1673ffffffffffffffffffffffffffffffffffffffff16815260200190815260200160002060008282546127819190614892565b925050819055506001609a60008473ffffffffffffffffffffffffffffffffffffffff1673ffffffffffffffffffffffffffffffffffffffff16815260200190815260200160002060008282546127d891906147b1565b92505081905550816099600083815260200190815260200160002060006101000a81548173ffffffffffffffffffffffffffffffffffffffff021916908373ffffffffffffffffffffffffffffffffffffffff160217905550808273ffffffffffffffffffffffffffffffffffffffff168473ffffffffffffffffffffffffffffffffffffffff167fddf252ad1be2c89b69c2b068fc378daa952ba7f163c4a11628f55a4df523b3ef60405160405180910390a4505050565b600060019054906101000a900460ff16806128b7575060008054906101000a900460ff16155b6128f6576040517f08c379a00000000000000000000000000000000000000000000000000000000081526004016128ed9061451a565b60405180910390fd5b60008060019054906101000a900460ff161590508015612946576001600060016101000a81548160ff02191690831515021790555060016000806101000a81548160ff0219169083151502179055505b80156129675760008060016101000a81548160ff0219169083151502179055505b50565b600060019054906101000a900460ff1680612990575060008054906101000a900460ff16155b6129cf576040517f08c379a00000000000000000000000000000000000000000000000000000000081526004016129c69061451a565b60405180910390fd5b60008060019054906101000a900460ff161590508015612a1f576001600060016101000a81548160ff02191690831515021790555060016000806101000a81548160ff0219169083151502179055505b8015612a405760008060016101000a81548160ff0219169083151502179055505b50565b600060019054906101000a900460ff1680612a69575060008054906101000a900460ff16155b612aa8576040517f08c379a0000000000000000000000000000000000000000000000000000000008152600401612a9f9061451a565b60405180910390fd5b60008060019054906101000a900460ff161590508015612af8576001600060016101000a81548160ff02191690831515021790555060016000806101000a81548160ff0219169083151502179055505b8260979080519060200190612b0e929190613930565b508160989080519060200190612b25929190613930565b508015612b475760008060016101000a81548160ff0219169083151502179055505b505050565b600060019054906101000a900460ff1680612b72575060008054906101000a900460ff16155b612bb1576040517f08c379a0000000000000000000000000000000000000000000000000000000008152600401612ba89061451a565b60405180910390fd5b60008060019054906101000a900460ff161590508015612c01576001600060016101000a81548160ff02191690831515021790555060016000806101000a81548160ff0219169083151502179055505b8015612c225760008060016101000a81548160ff0219169083151502179055505b50565b600060019054906101000a900460ff1680612c4b575060008054906101000a900460ff16155b612c8a576040517f08c379a0000000000000000000000000000000000000000000000000000000008152600401612c819061451a565b60405180910390fd5b60008060019054906101000a900460ff161590508015612cda576001600060016101000a81548160ff02191690831515021790555060016000806101000a81548160ff0219169083151502179055505b8015612cfb5760008060016101000a81548160ff0219169083151502179055505b50565b600060019054906101000a900460ff1680612d24575060008054906101000a900460ff16155b612d63576040517f08c379a0000000000000000000000000000000000000000000000000000000008152600401612d5a9061451a565b60405180910390fd5b60008060019054906101000a900460ff161590508015612db3576001600060016101000a81548160ff02191690831515021790555060016000806101000a81548160ff0219169083151502179055505b612dc3612dbe611b0d565b611ccd565b8015612de45760008060016101000a81548160ff0219169083151502179055505b50565b6000612e088473ffffffffffffffffffffffffffffffffffffffff16613111565b15612f71578373ffffffffffffffffffffffffffffffffffffffff1663150b7a02612e31611b0d565b8786866040518563ffffffff1660e01b8152600401612e5394939291906142b6565b602060405180830381600087803b158015612e6d57600080fd5b505af1925050508015612e9e57506040513d601f19601f82011682018060405250810190612e9b9190613d30565b60015b612f21573d8060008114612ece576040519150601f19603f3d011682016040523d82523d6000602084013e612ed3565b606091505b50600081511415612f19576040517f08c379a0000000000000000000000000000000000000000000000000000000008152600401612f10906143da565b60405180910390fd5b805181602001fd5b63150b7a0260e01b7bffffffffffffffffffffffffffffffffffffffffffffffffffffffff1916817bffffffffffffffffffffffffffffffffffffffffffffffffffffffff191614915050612f76565b600190505b949350505050565b606060405180602001604052806000815250905090565b6060612fa082611aa1565b612fdf576040517f08c379a0000000000000000000000000000000000000000000000000000000008152600401612fd6906145da565b60405180910390fd5b6000612fe9612f7e565b905060008151116130095760405180602001604052806000815250613034565b8061301384613124565b604051602001613024929190614277565b6040516020818303038152906040525b915050919050565b61304683836132d1565b6130536000848484612de7565b613092576040517f08c379a0000000000000000000000000000000000000000000000000000000008152600401613089906143da565b60405180910390fd5b505050565b60007f01ffc9a7000000000000000000000000000000000000000000000000000000007bffffffffffffffffffffffffffffffffffffffffffffffffffffffff1916827bffffffffffffffffffffffffffffffffffffffffffffffffffffffff1916149050919050565b61310c83838361349f565b505050565b600080823b905060008111915050919050565b6060600082141561316c576040518060400160405280600181526020017f300000000000000000000000000000000000000000000000000000000000000081525090506132cc565b600082905060005b6000821461319e578080613187906149df565b915050600a826131979190614807565b9150613174565b60008167ffffffffffffffff8111156131e0577f4e487b7100000000000000000000000000000000000000000000000000000000600052604160045260246000fd5b6040519080825280601f01601f1916602001820160405280156132125781602001600182028036833780820191505090505b5090505b600085146132c55760018261322b9190614892565b9150600a8561323a9190614a28565b603061324691906147b1565b60f81b818381518110613282577f4e487b7100000000000000000000000000000000000000000000000000000000600052603260045260246000fd5b60200101907effffffffffffffffffffffffffffffffffffffffffffffffffffffffffffff1916908160001a905350600a856132be9190614807565b9450613216565b8093505050505b919050565b600073ffffffffffffffffffffffffffffffffffffffff168273ffffffffffffffffffffffffffffffffffffffff161415613341576040517f08c379a00000000000000000000000000000000000000000000000000000000081526004016133389061453a565b60405180910390fd5b61334a81611aa1565b1561338a576040517f08c379a00000000000000000000000000000000000000000000000000000000081526004016133819061441a565b60405180910390fd5b61339660008383613101565b6001609a60008473ffffffffffffffffffffffffffffffffffffffff1673ffffffffffffffffffffffffffffffffffffffff16815260200190815260200160002060008282546133e691906147b1565b92505081905550816099600083815260200190815260200160002060006101000a81548173ffffffffffffffffffffffffffffffffffffffff021916908373ffffffffffffffffffffffffffffffffffffffff160217905550808273ffffffffffffffffffffffffffffffffffffffff16600073ffffffffffffffffffffffffffffffffffffffff167fddf252ad1be2c89b69c2b068fc378daa952ba7f163c4a11628f55a4df523b3ef60405160405180910390a45050565b6134aa8383836135b3565b600073ffffffffffffffffffffffffffffffffffffffff168373ffffffffffffffffffffffffffffffffffffffff1614156134ed576134e8816135b8565b61352c565b8173ffffffffffffffffffffffffffffffffffffffff168373ffffffffffffffffffffffffffffffffffffffff161461352b5761352a8382613601565b5b5b600073ffffffffffffffffffffffffffffffffffffffff168273ffffffffffffffffffffffffffffffffffffffff16141561356f5761356a8161376e565b6135ae565b8273ffffffffffffffffffffffffffffffffffffffff168273ffffffffffffffffffffffffffffffffffffffff16146135ad576135ac82826138b1565b5b5b505050565b505050565b60cb8054905060cc60008381526020019081526020016000208190555060cb81908060018154018082558091505060019003906000526020600020016000909190919091505550565b6000600161360e84610c86565b6136189190614892565b9050600060ca60008481526020019081526020016000205490508181146136fd57600060c960008673ffffffffffffffffffffffffffffffffffffffff1673ffffffffffffffffffffffffffffffffffffffff16815260200190815260200160002060008481526020019081526020016000205490508060c960008773ffffffffffffffffffffffffffffffffffffffff1673ffffffffffffffffffffffffffffffffffffffff1681526020019081526020016000206000848152602001908152602001600020819055508160ca600083815260200190815260200160002081905550505b60ca60008481526020019081526020016000206000905560c960008573ffffffffffffffffffffffffffffffffffffffff1673ffffffffffffffffffffffffffffffffffffffff16815260200190815260200160002060008381526020019081526020016000206000905550505050565b6000600160cb805490506137829190614892565b9050600060cc6000848152602001908152602001600020549050600060cb83815481106137d8577f4e487b7100000000000000000000000000000000000000000000000000000000600052603260045260246000fd5b906000526020600020015490508060cb8381548110613820577f4e487b7100000000000000000000000000000000000000000000000000000000600052603260045260246000fd5b90600052602060002001819055508160cc60008381526020019081526020016000208190555060cc60008581526020019081526020016000206000905560cb805480613895577f4e487b7100000000000000000000000000000000000000000000000000000000600052603160045260246000fd5b6001900381819060005260206000200160009055905550505050565b60006138bc83610c86565b90508160c960008573ffffffffffffffffffffffffffffffffffffffff1673ffffffffffffffffffffffffffffffffffffffff1681526020019081526020016000206000838152602001908152602001600020819055508060ca600084815260200190815260200160002081905550505050565b82805461393c9061497c565b90600052602060002090601f01602090048101928261395e57600085556139a5565b82601f1061397757805160ff19168380011785556139a5565b828001600101855582156139a5579182015b828111156139a4578251825591602001919060010190613989565b5b5090506139b291906139b6565b5090565b5b808211156139cf5760008160009055506001016139b7565b5090565b60006139e66139e18461469a565b614675565b9050828152602081018484840111156139fe57600080fd5b613a0984828561493a565b509392505050565b6000613a24613a1f846146cb565b614675565b905082815260208101848484011115613a3c57600080fd5b613a4784828561493a565b509392505050565b600081359050613a5e81615109565b92915050565b600081359050613a7381615120565b92915050565b600081359050613a8881615137565b92915050565b600081519050613a9d81615137565b92915050565b600082601f830112613ab457600080fd5b8135613ac48482602086016139d3565b91505092915050565b600082601f830112613ade57600080fd5b8135613aee848260208601613a11565b91505092915050565b600081359050613b068161514e565b92915050565b600060208284031215613b1e57600080fd5b6000613b2c84828501613a4f565b91505092915050565b60008060408385031215613b4857600080fd5b6000613b5685828601613a4f565b9250506020613b6785828601613a4f565b9150509250929050565b600080600060608486031215613b8657600080fd5b6000613b9486828701613a4f565b9350506020613ba586828701613a4f565b9250506040613bb686828701613af7565b9150509250925092565b60008060008060808587031215613bd657600080fd5b6000613be487828801613a4f565b9450506020613bf587828801613a4f565b9350506040613c0687828801613af7565b925050606085013567ffffffffffffffff811115613c2357600080fd5b613c2f87828801613aa3565b91505092959194509250565b60008060408385031215613c4e57600080fd5b6000613c5c85828601613a4f565b9250506020613c6d85828601613a64565b9150509250929050565b60008060408385031215613c8a57600080fd5b6000613c9885828601613a4f565b925050602083013567ffffffffffffffff811115613cb557600080fd5b613cc185828601613acd565b9150509250929050565b60008060408385031215613cde57600080fd5b6000613cec85828601613a4f565b9250506020613cfd85828601613af7565b9150509250929050565b600060208284031215613d1957600080fd5b6000613d2784828501613a79565b91505092915050565b600060208284031215613d4257600080fd5b6000613d5084828501613a8e565b91505092915050565b600060208284031215613d6b57600080fd5b6000613d7984828501613af7565b91505092915050565b60008060408385031215613d9557600080fd5b6000613da385828601613af7565b9250506020613db485828601613af7565b9150509250929050565b6000613dca8383613dee565b60208301905092915050565b6000613de28383614259565b60208301905092915050565b613df7816148c6565b82525050565b613e06816148c6565b82525050565b6000613e178261471c565b613e218185614762565b9350613e2c836146fc565b8060005b83811015613e5d578151613e448882613dbe565b9750613e4f83614748565b925050600181019050613e30565b5085935050505092915050565b6000613e7582614727565b613e7f8185614773565b9350613e8a8361470c565b8060005b83811015613ebb578151613ea28882613dd6565b9750613ead83614755565b925050600181019050613e8e565b5085935050505092915050565b613ed1816148d8565b82525050565b6000613ee282614732565b613eec8185614784565b9350613efc818560208601614949565b613f0581614b15565b840191505092915050565b6000613f1b8261473d565b613f258185614795565b9350613f35818560208601614949565b613f3e81614b15565b840191505092915050565b6000613f548261473d565b613f5e81856147a6565b9350613f6e818560208601614949565b80840191505092915050565b6000613f87602b83614795565b9150613f9282614b26565b604082019050919050565b6000613faa603283614795565b9150613fb582614b75565b604082019050919050565b6000613fcd602683614795565b9150613fd882614bc4565b604082019050919050565b6000613ff0601c83614795565b9150613ffb82614c13565b602082019050919050565b6000614013602483614795565b915061401e82614c3c565b604082019050919050565b6000614036601983614795565b915061404182614c8b565b602082019050919050565b6000614059602c83614795565b915061406482614cb4565b604082019050919050565b600061407c603883614795565b915061408782614d03565b604082019050919050565b600061409f602a83614795565b91506140aa82614d52565b604082019050919050565b60006140c2602983614795565b91506140cd82614da1565b604082019050919050565b60006140e5602e83614795565b91506140f082614df0565b604082019050919050565b6000614108602e83614795565b915061411382614e3f565b604082019050919050565b600061412b602083614795565b915061413682614e8e565b602082019050919050565b600061414e603183614795565b915061415982614eb7565b604082019050919050565b6000614171602c83614795565b915061417c82614f06565b604082019050919050565b6000614194602083614795565b915061419f82614f55565b602082019050919050565b60006141b7602983614795565b91506141c282614f7e565b604082019050919050565b60006141da602f83614795565b91506141e582614fcd565b604082019050919050565b60006141fd602183614795565b91506142088261501c565b604082019050919050565b6000614220603183614795565b915061422b8261506b565b604082019050919050565b6000614243602c83614795565b915061424e826150ba565b604082019050919050565b61426281614930565b82525050565b61427181614930565b82525050565b60006142838285613f49565b915061428f8284613f49565b91508190509392505050565b60006020820190506142b06000830184613dfd565b92915050565b60006080820190506142cb6000830187613dfd565b6142d86020830186613dfd565b6142e56040830185614268565b81810360608301526142f78184613ed7565b905095945050505050565b60006060820190506143176000830186613dfd565b6143246020830185614268565b6143316040830184614268565b949350505050565b600060208201905081810360008301526143538184613e0c565b905092915050565b600060208201905081810360008301526143758184613e6a565b905092915050565b60006020820190506143926000830184613ec8565b92915050565b600060208201905081810360008301526143b28184613f10565b905092915050565b600060208201905081810360008301526143d381613f7a565b9050919050565b600060208201905081810360008301526143f381613f9d565b9050919050565b6000602082019050818103600083015261441381613fc0565b9050919050565b6000602082019050818103600083015261443381613fe3565b9050919050565b6000602082019050818103600083015261445381614006565b9050919050565b6000602082019050818103600083015261447381614029565b9050919050565b600060208201905081810360008301526144938161404c565b9050919050565b600060208201905081810360008301526144b38161406f565b9050919050565b600060208201905081810360008301526144d381614092565b9050919050565b600060208201905081810360008301526144f3816140b5565b9050919050565b60006020820190508181036000830152614513816140d8565b9050919050565b60006020820190508181036000830152614533816140fb565b9050919050565b600060208201905081810360008301526145538161411e565b9050919050565b6000602082019050818103600083015261457381614141565b9050919050565b6000602082019050818103600083015261459381614164565b9050919050565b600060208201905081810360008301526145b381614187565b9050919050565b600060208201905081810360008301526145d3816141aa565b9050919050565b600060208201905081810360008301526145f3816141cd565b9050919050565b60006020820190508181036000830152614613816141f0565b9050919050565b6000602082019050818103600083015261463381614213565b9050919050565b6000602082019050818103600083015261465381614236565b9050919050565b600060208201905061466f6000830184614268565b92915050565b600061467f614690565b905061468b82826149ae565b919050565b6000604051905090565b600067ffffffffffffffff8211156146b5576146b4614ae6565b5b6146be82614b15565b9050602081019050919050565b600067ffffffffffffffff8211156146e6576146e5614ae6565b5b6146ef82614b15565b9050602081019050919050565b6000819050602082019050919050565b6000819050602082019050919050565b600081519050919050565b600081519050919050565b600081519050919050565b600081519050919050565b6000602082019050919050565b6000602082019050919050565b600082825260208201905092915050565b600082825260208201905092915050565b600082825260208201905092915050565b600082825260208201905092915050565b600081905092915050565b60006147bc82614930565b91506147c783614930565b9250827fffffffffffffffffffffffffffffffffffffffffffffffffffffffffffffffff038211156147fc576147fb614a59565b5b828201905092915050565b600061481282614930565b915061481d83614930565b92508261482d5761482c614a88565b5b828204905092915050565b600061484382614930565b915061484e83614930565b9250817fffffffffffffffffffffffffffffffffffffffffffffffffffffffffffffffff048311821515161561488757614886614a59565b5b828202905092915050565b600061489d82614930565b91506148a883614930565b9250828210156148bb576148ba614a59565b5b828203905092915050565b60006148d182614910565b9050919050565b60008115159050919050565b60007fffffffff0000000000000000000000000000000000000000000000000000000082169050919050565b600073ffffffffffffffffffffffffffffffffffffffff82169050919050565b6000819050919050565b82818337600083830152505050565b60005b8381101561496757808201518184015260208101905061494c565b83811115614976576000848401525b50505050565b6000600282049050600182168061499457607f821691505b602082108114156149a8576149a7614ab7565b5b50919050565b6149b782614b15565b810181811067ffffffffffffffff821117156149d6576149d5614ae6565b5b80604052505050565b60006149ea82614930565b91507fffffffffffffffffffffffffffffffffffffffffffffffffffffffffffffffff821415614a1d57614a1c614a59565b5b600182019050919050565b6000614a3382614930565b9150614a3e83614930565b925082614a4e57614a4d614a88565b5b828206905092915050565b7f4e487b7100000000000000000000000000000000000000000000000000000000600052601160045260246000fd5b7f4e487b7100000000000000000000000000000000000000000000000000000000600052601260045260246000fd5b7f4e487b7100000000000000000000000000000000000000000000000000000000600052602260045260246000fd5b7f4e487b7100000000000000000000000000000000000000000000000000000000600052604160045260246000fd5b6000601f19601f8301169050919050565b7f455243373231456e756d657261626c653a206f776e657220696e646578206f7560008201527f74206f6620626f756e6473000000000000000000000000000000000000000000602082015250565b7f4552433732313a207472616e7366657220746f206e6f6e20455243373231526560008201527f63656976657220696d706c656d656e7465720000000000000000000000000000602082015250565b7f4f776e61626c653a206e6577206f776e657220697320746865207a65726f206160008201527f6464726573730000000000000000000000000000000000000000000000000000602082015250565b7f4552433732313a20746f6b656e20616c7265616479206d696e74656400000000600082015250565b7f4552433732313a207472616e7366657220746f20746865207a65726f2061646460008201527f7265737300000000000000000000000000000000000000000000000000000000602082015250565b7f4552433732313a20617070726f766520746f2063616c6c657200000000000000600082015250565b7f4552433732313a206f70657261746f7220717565727920666f72206e6f6e657860008201527f697374656e7420746f6b656e0000000000000000000000000000000000000000602082015250565b7f4552433732313a20617070726f76652063616c6c6572206973206e6f74206f7760008201527f6e6572206e6f7220617070726f76656420666f7220616c6c0000000000000000602082015250565b7f4552433732313a2062616c616e636520717565727920666f7220746865207a6560008201527f726f206164647265737300000000000000000000000000000000000000000000602082015250565b7f4552433732313a206f776e657220717565727920666f72206e6f6e657869737460008201527f656e7420746f6b656e0000000000000000000000000000000000000000000000602082015250565b7f45524337323155524953746f726167653a2055524920736574206f66206e6f6e60008201527f6578697374656e7420746f6b656e000000000000000000000000000000000000602082015250565b7f496e697469616c697a61626c653a20636f6e747261637420697320616c72656160008201527f647920696e697469616c697a6564000000000000000000000000000000000000602082015250565b7f4552433732313a206d696e7420746f20746865207a65726f2061646472657373600082015250565b7f45524337323155524953746f726167653a2055524920717565727920666f722060008201527f6e6f6e6578697374656e7420746f6b656e000000000000000000000000000000602082015250565b7f4552433732313a20617070726f76656420717565727920666f72206e6f6e657860008201527f697374656e7420746f6b656e0000000000000000000000000000000000000000602082015250565b7f4f776e61626c653a2063616c6c6572206973206e6f7420746865206f776e6572600082015250565b7f4552433732313a207472616e73666572206f6620746f6b656e2074686174206960008201527f73206e6f74206f776e0000000000000000000000000000000000000000000000602082015250565b7f4552433732314d657461646174613a2055524920717565727920666f72206e6f60008201527f6e6578697374656e7420746f6b656e0000000000000000000000000000000000602082015250565b7f4552433732313a20617070726f76616c20746f2063757272656e74206f776e6560008201527f7200000000000000000000000000000000000000000000000000000000000000602082015250565b7f4552433732313a207472616e736665722063616c6c6572206973206e6f74206f60008201527f776e6572206e6f7220617070726f766564000000000000000000000000000000602082015250565b7f455243373231456e756d657261626c653a20676c6f62616c20696e646578206f60008201527f7574206f6620626f756e64730000000000000000000000000000000000000000602082015250565b615112816148c6565b811461511d57600080fd5b50565b615129816148d8565b811461513457600080fd5b50565b615140816148e4565b811461514b57600080fd5b50565b61515781614930565b811461516257600080fd5b5056fea2646970667358221220ffa99ab8ae830303865ae630354816132b838191d9c9b3d4e07a8c77189868fd64736f6c63430008030033",
  "linkReferences": {},
  "deployedLinkReferences": {}
}