{
  "_format": "hh-sol-artifact-1",
  "contractName": "Storage",
  "sourceName": "contracts/Storage.sol",
  "abi": [
    {
      "inputs": [],
      "name": "__Storage_initialize",
      "outputs": [],
      "stateMutability": "nonpayable",
      "type": "function"
    },
    {
      "inputs": [
        {
          "internalType": "uint256",
          "name": "",
          "type": "uint256"
        }
      ],
      "name": "_exists",
      "outputs": [
        {
          "internalType": "bool",
          "name": "",
          "type": "bool"
        }
      ],
      "stateMutability": "view",
      "type": "function"
    },
    {
      "inputs": [],
      "name": "_name",
      "outputs": [
        {
          "internalType": "string",
          "name": "",
          "type": "string"
        }
      ],
      "stateMutability": "view",
      "type": "function"
    },
    {
      "inputs": [],
      "name": "_royaltiesPercentage",
      "outputs": [
        {
          "internalType": "uint256",
          "name": "",
          "type": "uint256"
        }
      ],
      "stateMutability": "view",
      "type": "function"
    },
    {
      "inputs": [],
      "name": "_royaltiesReceiver",
      "outputs": [
        {
          "internalType": "address",
          "name": "",
          "type": "address"
        }
      ],
      "stateMutability": "view",
      "type": "function"
    },
    {
      "inputs": [],
      "name": "_symbol",
      "outputs": [
        {
          "internalType": "string",
          "name": "",
          "type": "string"
        }
      ],
      "stateMutability": "view",
      "type": "function"
    },
    {
      "inputs": [
        {
          "internalType": "address",
          "name": "",
          "type": "address"
        }
      ],
      "name": "blackListed",
      "outputs": [
        {
          "internalType": "bool",
          "name": "",
          "type": "bool"
        }
      ],
      "stateMutability": "view",
      "type": "function"
    },
    {
      "inputs": [],
      "name": "publicMinting",
      "outputs": [
        {
          "internalType": "bool",
          "name": "",
          "type": "bool"
        }
      ],
      "stateMutability": "view",
      "type": "function"
    },
    {
      "inputs": [
        {
          "internalType": "uint256",
          "name": "",
          "type": "uint256"
        }
      ],
      "name": "tokenMinter",
      "outputs": [
        {
          "internalType": "address",
          "name": "",
          "type": "address"
        }
      ],
      "stateMutability": "view",
      "type": "function"
    },
    {
      "inputs": [
        {
          "internalType": "address",
          "name": "",
          "type": "address"
        }
      ],
      "name": "whiteListed",
      "outputs": [
        {
          "internalType": "bool",
          "name": "",
          "type": "bool"
        }
      ],
      "stateMutability": "view",
      "type": "function"
    }
  ],
  "bytecode": "0x608060405234801561001057600080fd5b50610812806100206000396000f3fe608060405234801561001057600080fd5b506004361061009e5760003560e01c8063bbde5b2511610066578063bbde5b2514610137578063cf7761ee14610167578063d28d885214610185578063f8e76cc0146101a3578063fa0fca84146101d35761009e565b806346d6e6cb146100a357806353ac010a146100ad5780637c57d947146100cb57806391a83711146100fb578063b09f126614610119575b600080fd5b6100ab610203565b005b6100b56102dc565b6040516100c2919061062d565b60405180910390f35b6100e560048036038101906100e0919061051d565b6102ef565b6040516100f29190610612565b60405180910390f35b610103610322565b6040516101109190610612565b60405180910390f35b610121610348565b60405161012e9190610648565b60405180910390f35b610151600480360381019061014c91906104f4565b6103d6565b60405161015e919061062d565b60405180910390f35b61016f6103f6565b60405161017c919061068a565b60405180910390f35b61018d6103fc565b60405161019a9190610648565b60405180910390f35b6101bd60048036038101906101b8919061051d565b61048a565b6040516101ca919061062d565b60405180910390f35b6101ed60048036038101906101e891906104f4565b6104aa565b6040516101fa919061062d565b60405180910390f35b600060019054906101000a900460ff1680610229575060008054906101000a900460ff16155b610268576040517f08c379a000000000000000000000000000000000000000000000000000000000815260040161025f9061066a565b60405180910390fd5b60008060019054906101000a900460ff1615905080156102b8576001600060016101000a81548160ff02191690831515021790555060016000806101000a81548160ff0219169083151502179055505b80156102d95760008060016101000a81548160ff0219169083151502179055505b50565b600560009054906101000a900460ff1681565b60096020528060005260406000206000915054906101000a900473ffffffffffffffffffffffffffffffffffffffff1681565b600360009054906101000a900473ffffffffffffffffffffffffffffffffffffffff1681565b600280546103559061073c565b80601f01602080910402602001604051908101604052809291908181526020018280546103819061073c565b80156103ce5780601f106103a3576101008083540402835291602001916103ce565b820191906000526020600020905b8154815290600101906020018083116103b157829003601f168201915b505050505081565b60086020528060005260406000206000915054906101000a900460ff1681565b60045481565b600180546104099061073c565b80601f01602080910402602001604051908101604052809291908181526020018280546104359061073c565b80156104825780601f1061045757610100808354040283529160200191610482565b820191906000526020600020905b81548152906001019060200180831161046557829003601f168201915b505050505081565b60066020528060005260406000206000915054906101000a900460ff1681565b60076020528060005260406000206000915054906101000a900460ff1681565b6000813590506104d9816107ae565b92915050565b6000813590506104ee816107c5565b92915050565b60006020828403121561050657600080fd5b6000610514848285016104ca565b91505092915050565b60006020828403121561052f57600080fd5b600061053d848285016104df565b91505092915050565b61054f816106c1565b82525050565b61055e816106d3565b82525050565b600061056f826106a5565b61057981856106b0565b9350610589818560208601610709565b6105928161079d565b840191505092915050565b60006105aa602e836106b0565b91507f496e697469616c697a61626c653a20636f6e747261637420697320616c72656160008301527f647920696e697469616c697a65640000000000000000000000000000000000006020830152604082019050919050565b61060c816106ff565b82525050565b60006020820190506106276000830184610546565b92915050565b60006020820190506106426000830184610555565b92915050565b600060208201905081810360008301526106628184610564565b905092915050565b600060208201905081810360008301526106838161059d565b9050919050565b600060208201905061069f6000830184610603565b92915050565b600081519050919050565b600082825260208201905092915050565b60006106cc826106df565b9050919050565b60008115159050919050565b600073ffffffffffffffffffffffffffffffffffffffff82169050919050565b6000819050919050565b60005b8381101561072757808201518184015260208101905061070c565b83811115610736576000848401525b50505050565b6000600282049050600182168061075457607f821691505b602082108114156107685761076761076e565b5b50919050565b7f4e487b7100000000000000000000000000000000000000000000000000000000600052602260045260246000fd5b6000601f19601f8301169050919050565b6107b7816106c1565b81146107c257600080fd5b50565b6107ce816106ff565b81146107d957600080fd5b5056fea26469706673582212200eac18d6ff61487b6a030c138fb47c942055795583b1561f48552772e9f72c5664736f6c63430008000033",
  "linkReferences": {},
  "deployedLinkReferences": {}
}