{
  "_format": "hh-sol-artifact-1",
  "contractName": "Storage",
  "sourceName": "contracts/Storage.sol",
  "abi": [
    {
      "inputs": [
        {
          "internalType": "uint256",
          "name": "",
          "type": "uint256"
        }
      ],
      "name": "_exists",
      "outputs": [
        {
          "internalType": "bool",
          "name": "",
          "type": "bool"
        }
      ],
      "stateMutability": "view",
      "type": "function"
    },
    {
      "inputs": [],
      "name": "_name",
      "outputs": [
        {
          "internalType": "string",
          "name": "",
          "type": "string"
        }
      ],
      "stateMutability": "view",
      "type": "function"
    },
    {
      "inputs": [],
      "name": "_royaltiesPercentage",
      "outputs": [
        {
          "internalType": "uint256",
          "name": "",
          "type": "uint256"
        }
      ],
      "stateMutability": "view",
      "type": "function"
    },
    {
      "inputs": [],
      "name": "_royaltiesReceiver",
      "outputs": [
        {
          "internalType": "address",
          "name": "",
          "type": "address"
        }
      ],
      "stateMutability": "view",
      "type": "function"
    },
    {
      "inputs": [],
      "name": "_symbol",
      "outputs": [
        {
          "internalType": "string",
          "name": "",
          "type": "string"
        }
      ],
      "stateMutability": "view",
      "type": "function"
    },
    {
      "inputs": [
        {
          "internalType": "address",
          "name": "",
          "type": "address"
        }
      ],
      "name": "blackListed",
      "outputs": [
        {
          "internalType": "bool",
          "name": "",
          "type": "bool"
        }
      ],
      "stateMutability": "view",
      "type": "function"
    },
    {
      "inputs": [],
      "name": "publicMinting",
      "outputs": [
        {
          "internalType": "bool",
          "name": "",
          "type": "bool"
        }
      ],
      "stateMutability": "view",
      "type": "function"
    },
    {
      "inputs": [
        {
          "internalType": "uint256",
          "name": "",
          "type": "uint256"
        }
      ],
      "name": "tokenMinter",
      "outputs": [
        {
          "internalType": "address",
          "name": "",
          "type": "address"
        }
      ],
      "stateMutability": "view",
      "type": "function"
    },
    {
      "inputs": [
        {
          "internalType": "address",
          "name": "",
          "type": "address"
        }
      ],
      "name": "whiteListed",
      "outputs": [
        {
          "internalType": "bool",
          "name": "",
          "type": "bool"
        }
      ],
      "stateMutability": "view",
      "type": "function"
    }
  ],
  "bytecode": "0x608060405234801561001057600080fd5b5061069e806100206000396000f3fe608060405234801561001057600080fd5b50600436106100935760003560e01c8063bbde5b2511610066578063bbde5b2514610122578063cf7761ee14610152578063d28d885214610170578063f8e76cc01461018e578063fa0fca84146101be57610093565b806353ac010a146100985780637c57d947146100b657806391a83711146100e6578063b09f126614610104575b600080fd5b6100a06101ee565b6040516100ad91906104d9565b60405180910390f35b6100d060048036038101906100cb919061042f565b610201565b6040516100dd91906104be565b60405180910390f35b6100ee610234565b6040516100fb91906104be565b60405180910390f35b61010c61025a565b60405161011991906104f4565b60405180910390f35b61013c60048036038101906101379190610406565b6102e8565b60405161014991906104d9565b60405180910390f35b61015a610308565b6040516101679190610516565b60405180910390f35b61017861030e565b60405161018591906104f4565b60405180910390f35b6101a860048036038101906101a3919061042f565b61039c565b6040516101b591906104d9565b60405180910390f35b6101d860048036038101906101d39190610406565b6103bc565b6040516101e591906104d9565b60405180910390f35b600560009054906101000a900460ff1681565b60096020528060005260406000206000915054906101000a900473ffffffffffffffffffffffffffffffffffffffff1681565b600360009054906101000a900473ffffffffffffffffffffffffffffffffffffffff1681565b60028054610267906105c8565b80601f0160208091040260200160405190810160405280929190818152602001828054610293906105c8565b80156102e05780601f106102b5576101008083540402835291602001916102e0565b820191906000526020600020905b8154815290600101906020018083116102c357829003601f168201915b505050505081565b60086020528060005260406000206000915054906101000a900460ff1681565b60045481565b6001805461031b906105c8565b80601f0160208091040260200160405190810160405280929190818152602001828054610347906105c8565b80156103945780601f1061036957610100808354040283529160200191610394565b820191906000526020600020905b81548152906001019060200180831161037757829003601f168201915b505050505081565b60066020528060005260406000206000915054906101000a900460ff1681565b60076020528060005260406000206000915054906101000a900460ff1681565b6000813590506103eb8161063a565b92915050565b60008135905061040081610651565b92915050565b60006020828403121561041857600080fd5b6000610426848285016103dc565b91505092915050565b60006020828403121561044157600080fd5b600061044f848285016103f1565b91505092915050565b6104618161054d565b82525050565b6104708161055f565b82525050565b600061048182610531565b61048b818561053c565b935061049b818560208601610595565b6104a481610629565b840191505092915050565b6104b88161058b565b82525050565b60006020820190506104d36000830184610458565b92915050565b60006020820190506104ee6000830184610467565b92915050565b6000602082019050818103600083015261050e8184610476565b905092915050565b600060208201905061052b60008301846104af565b92915050565b600081519050919050565b600082825260208201905092915050565b60006105588261056b565b9050919050565b60008115159050919050565b600073ffffffffffffffffffffffffffffffffffffffff82169050919050565b6000819050919050565b60005b838110156105b3578082015181840152602081019050610598565b838111156105c2576000848401525b50505050565b600060028204905060018216806105e057607f821691505b602082108114156105f4576105f36105fa565b5b50919050565b7f4e487b7100000000000000000000000000000000000000000000000000000000600052602260045260246000fd5b6000601f19601f8301169050919050565b6106438161054d565b811461064e57600080fd5b50565b61065a8161058b565b811461066557600080fd5b5056fea2646970667358221220817142ef5bd829425281a13aa4c6ae27dfaad17401f236b98876a9cd8f8a40c364736f6c63430008000033",
  "linkReferences": {},
  "deployedLinkReferences": {}
}