{
  "_format": "hh-sol-artifact-1",
  "contractName": "LobbyToken",
  "sourceName": "contracts/ERC20.sol",
  "abi": [
    {
      "anonymous": false,
      "inputs": [
        {
          "indexed": true,
          "internalType": "address",
          "name": "owner",
          "type": "address"
        },
        {
          "indexed": true,
          "internalType": "address",
          "name": "spender",
          "type": "address"
        },
        {
          "indexed": false,
          "internalType": "uint256",
          "name": "value",
          "type": "uint256"
        }
      ],
      "name": "Approval",
      "type": "event"
    },
    {
      "anonymous": false,
      "inputs": [
        {
          "indexed": true,
          "internalType": "bytes32",
          "name": "role",
          "type": "bytes32"
        },
        {
          "indexed": true,
          "internalType": "bytes32",
          "name": "previousAdminRole",
          "type": "bytes32"
        },
        {
          "indexed": true,
          "internalType": "bytes32",
          "name": "newAdminRole",
          "type": "bytes32"
        }
      ],
      "name": "RoleAdminChanged",
      "type": "event"
    },
    {
      "anonymous": false,
      "inputs": [
        {
          "indexed": true,
          "internalType": "bytes32",
          "name": "role",
          "type": "bytes32"
        },
        {
          "indexed": true,
          "internalType": "address",
          "name": "account",
          "type": "address"
        },
        {
          "indexed": true,
          "internalType": "address",
          "name": "sender",
          "type": "address"
        }
      ],
      "name": "RoleGranted",
      "type": "event"
    },
    {
      "anonymous": false,
      "inputs": [
        {
          "indexed": true,
          "internalType": "bytes32",
          "name": "role",
          "type": "bytes32"
        },
        {
          "indexed": true,
          "internalType": "address",
          "name": "account",
          "type": "address"
        },
        {
          "indexed": true,
          "internalType": "address",
          "name": "sender",
          "type": "address"
        }
      ],
      "name": "RoleRevoked",
      "type": "event"
    },
    {
      "anonymous": false,
      "inputs": [
        {
          "indexed": true,
          "internalType": "address",
          "name": "from",
          "type": "address"
        },
        {
          "indexed": true,
          "internalType": "address",
          "name": "to",
          "type": "address"
        },
        {
          "indexed": false,
          "internalType": "uint256",
          "name": "value",
          "type": "uint256"
        }
      ],
      "name": "Transfer",
      "type": "event"
    },
    {
      "inputs": [],
      "name": "DEFAULT_ADMIN_ROLE",
      "outputs": [
        {
          "internalType": "bytes32",
          "name": "",
          "type": "bytes32"
        }
      ],
      "stateMutability": "view",
      "type": "function"
    },
    {
      "inputs": [],
      "name": "MINTER_ROLE",
      "outputs": [
        {
          "internalType": "bytes32",
          "name": "",
          "type": "bytes32"
        }
      ],
      "stateMutability": "view",
      "type": "function"
    },
    {
      "inputs": [
        {
          "internalType": "address",
          "name": "owner",
          "type": "address"
        },
        {
          "internalType": "address",
          "name": "spender",
          "type": "address"
        }
      ],
      "name": "allowance",
      "outputs": [
        {
          "internalType": "uint256",
          "name": "",
          "type": "uint256"
        }
      ],
      "stateMutability": "view",
      "type": "function"
    },
    {
      "inputs": [
        {
          "internalType": "address",
          "name": "spender",
          "type": "address"
        },
        {
          "internalType": "uint256",
          "name": "amount",
          "type": "uint256"
        }
      ],
      "name": "approve",
      "outputs": [
        {
          "internalType": "bool",
          "name": "",
          "type": "bool"
        }
      ],
      "stateMutability": "nonpayable",
      "type": "function"
    },
    {
      "inputs": [
        {
          "internalType": "address",
          "name": "account",
          "type": "address"
        }
      ],
      "name": "balanceOf",
      "outputs": [
        {
          "internalType": "uint256",
          "name": "",
          "type": "uint256"
        }
      ],
      "stateMutability": "view",
      "type": "function"
    },
    {
      "inputs": [],
      "name": "decimals",
      "outputs": [
        {
          "internalType": "uint8",
          "name": "",
          "type": "uint8"
        }
      ],
      "stateMutability": "view",
      "type": "function"
    },
    {
      "inputs": [
        {
          "internalType": "address",
          "name": "spender",
          "type": "address"
        },
        {
          "internalType": "uint256",
          "name": "subtractedValue",
          "type": "uint256"
        }
      ],
      "name": "decreaseAllowance",
      "outputs": [
        {
          "internalType": "bool",
          "name": "",
          "type": "bool"
        }
      ],
      "stateMutability": "nonpayable",
      "type": "function"
    },
    {
      "inputs": [
        {
          "internalType": "bytes32",
          "name": "role",
          "type": "bytes32"
        }
      ],
      "name": "getRoleAdmin",
      "outputs": [
        {
          "internalType": "bytes32",
          "name": "",
          "type": "bytes32"
        }
      ],
      "stateMutability": "view",
      "type": "function"
    },
    {
      "inputs": [
        {
          "internalType": "address",
          "name": "account",
          "type": "address"
        }
      ],
      "name": "giveMinterRole",
      "outputs": [],
      "stateMutability": "nonpayable",
      "type": "function"
    },
    {
      "inputs": [
        {
          "internalType": "bytes32",
          "name": "role",
          "type": "bytes32"
        },
        {
          "internalType": "address",
          "name": "account",
          "type": "address"
        }
      ],
      "name": "grantRole",
      "outputs": [],
      "stateMutability": "nonpayable",
      "type": "function"
    },
    {
      "inputs": [
        {
          "internalType": "bytes32",
          "name": "role",
          "type": "bytes32"
        },
        {
          "internalType": "address",
          "name": "account",
          "type": "address"
        }
      ],
      "name": "hasRole",
      "outputs": [
        {
          "internalType": "bool",
          "name": "",
          "type": "bool"
        }
      ],
      "stateMutability": "view",
      "type": "function"
    },
    {
      "inputs": [
        {
          "internalType": "address",
          "name": "spender",
          "type": "address"
        },
        {
          "internalType": "uint256",
          "name": "addedValue",
          "type": "uint256"
        }
      ],
      "name": "increaseAllowance",
      "outputs": [
        {
          "internalType": "bool",
          "name": "",
          "type": "bool"
        }
      ],
      "stateMutability": "nonpayable",
      "type": "function"
    },
    {
      "inputs": [],
      "name": "initialize",
      "outputs": [],
      "stateMutability": "nonpayable",
      "type": "function"
    },
    {
      "inputs": [
        {
          "internalType": "address",
          "name": "to",
          "type": "address"
        },
        {
          "internalType": "uint256",
          "name": "amount",
          "type": "uint256"
        }
      ],
      "name": "mintReward",
      "outputs": [],
      "stateMutability": "nonpayable",
      "type": "function"
    },
    {
      "inputs": [],
      "name": "name",
      "outputs": [
        {
          "internalType": "string",
          "name": "",
          "type": "string"
        }
      ],
      "stateMutability": "view",
      "type": "function"
    },
    {
      "inputs": [
        {
          "internalType": "bytes32",
          "name": "role",
          "type": "bytes32"
        },
        {
          "internalType": "address",
          "name": "account",
          "type": "address"
        }
      ],
      "name": "renounceRole",
      "outputs": [],
      "stateMutability": "nonpayable",
      "type": "function"
    },
    {
      "inputs": [
        {
          "internalType": "bytes32",
          "name": "role",
          "type": "bytes32"
        },
        {
          "internalType": "address",
          "name": "account",
          "type": "address"
        }
      ],
      "name": "revokeRole",
      "outputs": [],
      "stateMutability": "nonpayable",
      "type": "function"
    },
    {
      "inputs": [
        {
          "internalType": "bytes4",
          "name": "interfaceId",
          "type": "bytes4"
        }
      ],
      "name": "supportsInterface",
      "outputs": [
        {
          "internalType": "bool",
          "name": "",
          "type": "bool"
        }
      ],
      "stateMutability": "view",
      "type": "function"
    },
    {
      "inputs": [],
      "name": "symbol",
      "outputs": [
        {
          "internalType": "string",
          "name": "",
          "type": "string"
        }
      ],
      "stateMutability": "view",
      "type": "function"
    },
    {
      "inputs": [],
      "name": "totalSupply",
      "outputs": [
        {
          "internalType": "uint256",
          "name": "",
          "type": "uint256"
        }
      ],
      "stateMutability": "view",
      "type": "function"
    },
    {
      "inputs": [
        {
          "internalType": "address",
          "name": "recipient",
          "type": "address"
        },
        {
          "internalType": "uint256",
          "name": "amount",
          "type": "uint256"
        }
      ],
      "name": "transfer",
      "outputs": [
        {
          "internalType": "bool",
          "name": "",
          "type": "bool"
        }
      ],
      "stateMutability": "nonpayable",
      "type": "function"
    },
    {
      "inputs": [
        {
          "internalType": "address",
          "name": "sender",
          "type": "address"
        },
        {
          "internalType": "address",
          "name": "recipient",
          "type": "address"
        },
        {
          "internalType": "uint256",
          "name": "amount",
          "type": "uint256"
        }
      ],
      "name": "transferFrom",
      "outputs": [
        {
          "internalType": "bool",
          "name": "",
          "type": "bool"
        }
      ],
      "stateMutability": "nonpayable",
      "type": "function"
    }
  ],
  "bytecode": "0x608060405234801561001057600080fd5b50612c64806100206000396000f3fe608060405234801561001057600080fd5b50600436106101425760003560e01c80638129fc1c116100b8578063a457c2d71161007c578063a457c2d71461038b578063a9059cbb146103bb578063d5391393146103eb578063d547741f14610409578063dd62ed3e14610425578063fa1777eb1461045557610142565b80638129fc1c146102f957806391d148541461030357806395d89b41146103335780639a49090e14610351578063a217fddf1461036d57610142565b8063248a9ca31161010a578063248a9ca3146102135780632f2ff15d14610243578063313ce5671461025f57806336568abe1461027d578063395093511461029957806370a08231146102c957610142565b806301ffc9a71461014757806306fdde0314610177578063095ea7b31461019557806318160ddd146101c557806323b872dd146101e3575b600080fd5b610161600480360381019061015c9190612149565b610471565b60405161016e9190612419565b60405180910390f35b61017f6104eb565b60405161018c919061244f565b60405180910390f35b6101af60048036038101906101aa91906120a8565b61057d565b6040516101bc9190612419565b60405180910390f35b6101cd61059b565b6040516101da91906125d1565b60405180910390f35b6101fd60048036038101906101f89190612059565b6105a5565b60405161020a9190612419565b60405180910390f35b61022d600480360381019061022891906120e4565b61069d565b60405161023a9190612434565b60405180910390f35b61025d6004803603810190610258919061210d565b6106bd565b005b6102676106e6565b60405161027491906125ec565b60405180910390f35b6102976004803603810190610292919061210d565b6106ef565b005b6102b360048036038101906102ae91906120a8565b610772565b6040516102c09190612419565b60405180910390f35b6102e360048036038101906102de9190611ff4565b61081e565b6040516102f091906125d1565b60405180910390f35b610301610867565b005b61031d6004803603810190610318919061210d565b610a82565b60405161032a9190612419565b60405180910390f35b61033b610aed565b604051610348919061244f565b60405180910390f35b61036b600480360381019061036691906120a8565b610b7f565b005b610375610bc0565b6040516103829190612434565b60405180910390f35b6103a560048036038101906103a091906120a8565b610bc7565b6040516103b29190612419565b60405180910390f35b6103d560048036038101906103d091906120a8565b610cb2565b6040516103e29190612419565b60405180910390f35b6103f3610cd0565b6040516104009190612434565b60405180910390f35b610423600480360381019061041e919061210d565b610cf4565b005b61043f600480360381019061043a919061201d565b610d1d565b60405161044c91906125d1565b60405180910390f35b61046f600480360381019061046a9190611ff4565b610da4565b005b60007f7965db0b000000000000000000000000000000000000000000000000000000007bffffffffffffffffffffffffffffffffffffffffffffffffffffffff1916827bffffffffffffffffffffffffffffffffffffffffffffffffffffffff191614806104e457506104e382610de7565b5b9050919050565b6060603680546104fa906127c6565b80601f0160208091040260200160405190810160405280929190818152602001828054610526906127c6565b80156105735780601f1061054857610100808354040283529160200191610573565b820191906000526020600020905b81548152906001019060200180831161055657829003601f168201915b5050505050905090565b600061059161058a610e51565b8484610e59565b6001905092915050565b6000603554905090565b60006105b2848484610e69565b6000603460008673ffffffffffffffffffffffffffffffffffffffff1673ffffffffffffffffffffffffffffffffffffffff16815260200190815260200160002060006105fd610e51565b73ffffffffffffffffffffffffffffffffffffffff1673ffffffffffffffffffffffffffffffffffffffff1681526020019081526020016000205490508281101561067d576040517f08c379a000000000000000000000000000000000000000000000000000000000815260040161067490612511565b60405180910390fd5b61069185610689610e51565b858403610e59565b60019150509392505050565b600060976000838152602001908152602001600020600101549050919050565b6106c68261069d565b6106d7816106d2610e51565b6110ed565b6106e1838361118a565b505050565b60006012905090565b6106f7610e51565b73ffffffffffffffffffffffffffffffffffffffff168173ffffffffffffffffffffffffffffffffffffffff1614610764576040517f08c379a000000000000000000000000000000000000000000000000000000000815260040161075b90612591565b60405180910390fd5b61076e828261126b565b5050565b600061081461077f610e51565b84846034600061078d610e51565b73ffffffffffffffffffffffffffffffffffffffff1673ffffffffffffffffffffffffffffffffffffffff16815260200190815260200160002060008873ffffffffffffffffffffffffffffffffffffffff1673ffffffffffffffffffffffffffffffffffffffff1681526020019081526020016000205461080f919061262e565b610e59565b6001905092915050565b6000603360008373ffffffffffffffffffffffffffffffffffffffff1673ffffffffffffffffffffffffffffffffffffffff168152602001908152602001600020549050919050565b600060019054906101000a900460ff168061088d575060008054906101000a900460ff16155b6108cc576040517f08c379a00000000000000000000000000000000000000000000000000000000081526004016108c3906124f1565b60405180910390fd5b60008060019054906101000a900460ff16159050801561091c576001600060016101000a81548160ff02191690831515021790555060016000806101000a81548160ff0219169083151502179055505b6109906040518060400160405280600c81526020017f4c6f756e676520546f6b656e00000000000000000000000000000000000000008152506040518060400160405280600481526020017f4c544b530000000000000000000000000000000000000000000000000000000081525061134d565b61099861143a565b6109b96000801b73a8d145dd3003817da1dc83f838ee5088b65acf2e61152b565b6109f77f9f2df0fed2c77648de5860a4cc508cd0818c85b8b8a1ab4ceeef8d981c8956a673a8d145dd3003817da1dc83f838ee5088b65acf2e61152b565b610a357f9f2df0fed2c77648de5860a4cc508cd0818c85b8b8a1ab4ceeef8d981c8956a673fd01210d714aa7ec8e68311ed50882720c0e869861152b565b610a5e73a8d145dd3003817da1dc83f838ee5088b65acf2e6a115eec47f6cf7e35000000611539565b8015610a7f5760008060016101000a81548160ff0219169083151502179055505b50565b60006097600084815260200190815260200160002060000160008373ffffffffffffffffffffffffffffffffffffffff1673ffffffffffffffffffffffffffffffffffffffff16815260200190815260200160002060009054906101000a900460ff16905092915050565b606060378054610afc906127c6565b80601f0160208091040260200160405190810160405280929190818152602001828054610b28906127c6565b8015610b755780601f10610b4a57610100808354040283529160200191610b75565b820191906000526020600020905b815481529060010190602001808311610b5857829003601f168201915b5050505050905090565b7f9f2df0fed2c77648de5860a4cc508cd0818c85b8b8a1ab4ceeef8d981c8956a6610bb181610bac610e51565b6110ed565b610bbb8383611539565b505050565b6000801b81565b60008060346000610bd6610e51565b73ffffffffffffffffffffffffffffffffffffffff1673ffffffffffffffffffffffffffffffffffffffff16815260200190815260200160002060008573ffffffffffffffffffffffffffffffffffffffff1673ffffffffffffffffffffffffffffffffffffffff16815260200190815260200160002054905082811015610c93576040517f08c379a0000000000000000000000000000000000000000000000000000000008152600401610c8a90612571565b60405180910390fd5b610ca7610c9e610e51565b85858403610e59565b600191505092915050565b6000610cc6610cbf610e51565b8484610e69565b6001905092915050565b7f9f2df0fed2c77648de5860a4cc508cd0818c85b8b8a1ab4ceeef8d981c8956a681565b610cfd8261069d565b610d0e81610d09610e51565b6110ed565b610d18838361126b565b505050565b6000603460008473ffffffffffffffffffffffffffffffffffffffff1673ffffffffffffffffffffffffffffffffffffffff16815260200190815260200160002060008373ffffffffffffffffffffffffffffffffffffffff1673ffffffffffffffffffffffffffffffffffffffff16815260200190815260200160002054905092915050565b6000801b610db981610db4610e51565b6110ed565b610de37f9f2df0fed2c77648de5860a4cc508cd0818c85b8b8a1ab4ceeef8d981c8956a68361152b565b5050565b60007f01ffc9a7000000000000000000000000000000000000000000000000000000007bffffffffffffffffffffffffffffffffffffffffffffffffffffffff1916827bffffffffffffffffffffffffffffffffffffffffffffffffffffffff1916149050919050565b600033905090565b610e6483838361169a565b505050565b600073ffffffffffffffffffffffffffffffffffffffff168373ffffffffffffffffffffffffffffffffffffffff161415610ed9576040517f08c379a0000000000000000000000000000000000000000000000000000000008152600401610ed090612531565b60405180910390fd5b600073ffffffffffffffffffffffffffffffffffffffff168273ffffffffffffffffffffffffffffffffffffffff161415610f49576040517f08c379a0000000000000000000000000000000000000000000000000000000008152600401610f4090612491565b60405180910390fd5b610f54838383611865565b6000603360008573ffffffffffffffffffffffffffffffffffffffff1673ffffffffffffffffffffffffffffffffffffffff16815260200190815260200160002054905081811015610fdb576040517f08c379a0000000000000000000000000000000000000000000000000000000008152600401610fd2906124d1565b60405180910390fd5b818103603360008673ffffffffffffffffffffffffffffffffffffffff1673ffffffffffffffffffffffffffffffffffffffff1681526020019081526020016000208190555081603360008573ffffffffffffffffffffffffffffffffffffffff1673ffffffffffffffffffffffffffffffffffffffff1681526020019081526020016000206000828254611070919061262e565b925050819055508273ffffffffffffffffffffffffffffffffffffffff168473ffffffffffffffffffffffffffffffffffffffff167fddf252ad1be2c89b69c2b068fc378daa952ba7f163c4a11628f55a4df523b3ef846040516110d491906125d1565b60405180910390a36110e784848461186a565b50505050565b6110f78282610a82565b6111865761111c8173ffffffffffffffffffffffffffffffffffffffff16601461186f565b61112a8360001c602061186f565b60405160200161113b9291906123df565b6040516020818303038152906040526040517f08c379a000000000000000000000000000000000000000000000000000000000815260040161117d919061244f565b60405180910390fd5b5050565b6111948282610a82565b6112675760016097600084815260200190815260200160002060000160008373ffffffffffffffffffffffffffffffffffffffff1673ffffffffffffffffffffffffffffffffffffffff16815260200190815260200160002060006101000a81548160ff02191690831515021790555061120c610e51565b73ffffffffffffffffffffffffffffffffffffffff168173ffffffffffffffffffffffffffffffffffffffff16837f2f8788117e7eff1d82e926ec794901d17c78024a50270940304540a733656f0d60405160405180910390a45b5050565b6112758282610a82565b156113495760006097600084815260200190815260200160002060000160008373ffffffffffffffffffffffffffffffffffffffff1673ffffffffffffffffffffffffffffffffffffffff16815260200190815260200160002060006101000a81548160ff0219169083151502179055506112ee610e51565b73ffffffffffffffffffffffffffffffffffffffff168173ffffffffffffffffffffffffffffffffffffffff16837ff6391f5c32d9c69d2a47ea670b442974b53935d1edc7fd64eb21e047a839171b60405160405180910390a45b5050565b600060019054906101000a900460ff1680611373575060008054906101000a900460ff16155b6113b2576040517f08c379a00000000000000000000000000000000000000000000000000000000081526004016113a9906124f1565b60405180910390fd5b60008060019054906101000a900460ff161590508015611402576001600060016101000a81548160ff02191690831515021790555060016000806101000a81548160ff0219169083151502179055505b61140a611b69565b6114148383611c42565b80156114355760008060016101000a81548160ff0219169083151502179055505b505050565b600060019054906101000a900460ff1680611460575060008054906101000a900460ff16155b61149f576040517f08c379a0000000000000000000000000000000000000000000000000000000008152600401611496906124f1565b60405180910390fd5b60008060019054906101000a900460ff1615905080156114ef576001600060016101000a81548160ff02191690831515021790555060016000806101000a81548160ff0219169083151502179055505b6114f7611b69565b6114ff611d4b565b611507611e24565b80156115285760008060016101000a81548160ff0219169083151502179055505b50565b611535828261118a565b5050565b600073ffffffffffffffffffffffffffffffffffffffff168273ffffffffffffffffffffffffffffffffffffffff1614156115a9576040517f08c379a00000000000000000000000000000000000000000000000000000000081526004016115a0906125b1565b60405180910390fd5b6115b560008383611865565b80603560008282546115c7919061262e565b9250508190555080603360008473ffffffffffffffffffffffffffffffffffffffff1673ffffffffffffffffffffffffffffffffffffffff168152602001908152602001600020600082825461161d919061262e565b925050819055508173ffffffffffffffffffffffffffffffffffffffff16600073ffffffffffffffffffffffffffffffffffffffff167fddf252ad1be2c89b69c2b068fc378daa952ba7f163c4a11628f55a4df523b3ef8360405161168291906125d1565b60405180910390a36116966000838361186a565b5050565b600073ffffffffffffffffffffffffffffffffffffffff168373ffffffffffffffffffffffffffffffffffffffff16141561170a576040517f08c379a000000000000000000000000000000000000000000000000000000000815260040161170190612551565b60405180910390fd5b600073ffffffffffffffffffffffffffffffffffffffff168273ffffffffffffffffffffffffffffffffffffffff16141561177a576040517f08c379a0000000000000000000000000000000000000000000000000000000008152600401611771906124b1565b60405180910390fd5b80603460008573ffffffffffffffffffffffffffffffffffffffff1673ffffffffffffffffffffffffffffffffffffffff16815260200190815260200160002060008473ffffffffffffffffffffffffffffffffffffffff1673ffffffffffffffffffffffffffffffffffffffff168152602001908152602001600020819055508173ffffffffffffffffffffffffffffffffffffffff168373ffffffffffffffffffffffffffffffffffffffff167f8c5be1e5ebec7d5bd14f71427d1e84f3dd0314c0f7b2291e5b200ac8c7c3b9258360405161185891906125d1565b60405180910390a3505050565b505050565b505050565b6060600060028360026118829190612684565b61188c919061262e565b67ffffffffffffffff8111156118cb577f4e487b7100000000000000000000000000000000000000000000000000000000600052604160045260246000fd5b6040519080825280601f01601f1916602001820160405280156118fd5781602001600182028036833780820191505090505b5090507f30000000000000000000000000000000000000000000000000000000000000008160008151811061195b577f4e487b7100000000000000000000000000000000000000000000000000000000600052603260045260246000fd5b60200101907effffffffffffffffffffffffffffffffffffffffffffffffffffffffffffff1916908160001a9053507f7800000000000000000000000000000000000000000000000000000000000000816001815181106119e5577f4e487b7100000000000000000000000000000000000000000000000000000000600052603260045260246000fd5b60200101907effffffffffffffffffffffffffffffffffffffffffffffffffffffffffffff1916908160001a90535060006001846002611a259190612684565b611a2f919061262e565b90505b6001811115611b1b577f3031323334353637383961626364656600000000000000000000000000000000600f861660108110611a97577f4e487b7100000000000000000000000000000000000000000000000000000000600052603260045260246000fd5b1a60f81b828281518110611ad4577f4e487b7100000000000000000000000000000000000000000000000000000000600052603260045260246000fd5b60200101907effffffffffffffffffffffffffffffffffffffffffffffffffffffffffffff1916908160001a905350600485901c945080611b149061279c565b9050611a32565b5060008414611b5f576040517f08c379a0000000000000000000000000000000000000000000000000000000008152600401611b5690612471565b60405180910390fd5b8091505092915050565b600060019054906101000a900460ff1680611b8f575060008054906101000a900460ff16155b611bce576040517f08c379a0000000000000000000000000000000000000000000000000000000008152600401611bc5906124f1565b60405180910390fd5b60008060019054906101000a900460ff161590508015611c1e576001600060016101000a81548160ff02191690831515021790555060016000806101000a81548160ff0219169083151502179055505b8015611c3f5760008060016101000a81548160ff0219169083151502179055505b50565b600060019054906101000a900460ff1680611c68575060008054906101000a900460ff16155b611ca7576040517f08c379a0000000000000000000000000000000000000000000000000000000008152600401611c9e906124f1565b60405180910390fd5b60008060019054906101000a900460ff161590508015611cf7576001600060016101000a81548160ff02191690831515021790555060016000806101000a81548160ff0219169083151502179055505b8260369080519060200190611d0d929190611efd565b508160379080519060200190611d24929190611efd565b508015611d465760008060016101000a81548160ff0219169083151502179055505b505050565b600060019054906101000a900460ff1680611d71575060008054906101000a900460ff16155b611db0576040517f08c379a0000000000000000000000000000000000000000000000000000000008152600401611da7906124f1565b60405180910390fd5b60008060019054906101000a900460ff161590508015611e00576001600060016101000a81548160ff02191690831515021790555060016000806101000a81548160ff0219169083151502179055505b8015611e215760008060016101000a81548160ff0219169083151502179055505b50565b600060019054906101000a900460ff1680611e4a575060008054906101000a900460ff16155b611e89576040517f08c379a0000000000000000000000000000000000000000000000000000000008152600401611e80906124f1565b60405180910390fd5b60008060019054906101000a900460ff161590508015611ed9576001600060016101000a81548160ff02191690831515021790555060016000806101000a81548160ff0219169083151502179055505b8015611efa5760008060016101000a81548160ff0219169083151502179055505b50565b828054611f09906127c6565b90600052602060002090601f016020900481019282611f2b5760008555611f72565b82601f10611f4457805160ff1916838001178555611f72565b82800160010185558215611f72579182015b82811115611f71578251825591602001919060010190611f56565b5b509050611f7f9190611f83565b5090565b5b80821115611f9c576000816000905550600101611f84565b5090565b600081359050611faf81612bd2565b92915050565b600081359050611fc481612be9565b92915050565b600081359050611fd981612c00565b92915050565b600081359050611fee81612c17565b92915050565b60006020828403121561200657600080fd5b600061201484828501611fa0565b91505092915050565b6000806040838503121561203057600080fd5b600061203e85828601611fa0565b925050602061204f85828601611fa0565b9150509250929050565b60008060006060848603121561206e57600080fd5b600061207c86828701611fa0565b935050602061208d86828701611fa0565b925050604061209e86828701611fdf565b9150509250925092565b600080604083850312156120bb57600080fd5b60006120c985828601611fa0565b92505060206120da85828601611fdf565b9150509250929050565b6000602082840312156120f657600080fd5b600061210484828501611fb5565b91505092915050565b6000806040838503121561212057600080fd5b600061212e85828601611fb5565b925050602061213f85828601611fa0565b9150509250929050565b60006020828403121561215b57600080fd5b600061216984828501611fca565b91505092915050565b61217b816126f0565b82525050565b61218a816126fc565b82525050565b600061219b82612607565b6121a58185612612565b93506121b5818560208601612769565b6121be81612856565b840191505092915050565b60006121d482612607565b6121de8185612623565b93506121ee818560208601612769565b80840191505092915050565b6000612207602083612612565b915061221282612867565b602082019050919050565b600061222a602383612612565b915061223582612890565b604082019050919050565b600061224d602283612612565b9150612258826128df565b604082019050919050565b6000612270602683612612565b915061227b8261292e565b604082019050919050565b6000612293602e83612612565b915061229e8261297d565b604082019050919050565b60006122b6602883612612565b91506122c1826129cc565b604082019050919050565b60006122d9602583612612565b91506122e482612a1b565b604082019050919050565b60006122fc602483612612565b915061230782612a6a565b604082019050919050565b600061231f601783612623565b915061232a82612ab9565b601782019050919050565b6000612342602583612612565b915061234d82612ae2565b604082019050919050565b6000612365601183612623565b915061237082612b31565b601182019050919050565b6000612388602f83612612565b915061239382612b5a565b604082019050919050565b60006123ab601f83612612565b91506123b682612ba9565b602082019050919050565b6123ca81612752565b82525050565b6123d98161275c565b82525050565b60006123ea82612312565b91506123f682856121c9565b915061240182612358565b915061240d82846121c9565b91508190509392505050565b600060208201905061242e6000830184612172565b92915050565b60006020820190506124496000830184612181565b92915050565b600060208201905081810360008301526124698184612190565b905092915050565b6000602082019050818103600083015261248a816121fa565b9050919050565b600060208201905081810360008301526124aa8161221d565b9050919050565b600060208201905081810360008301526124ca81612240565b9050919050565b600060208201905081810360008301526124ea81612263565b9050919050565b6000602082019050818103600083015261250a81612286565b9050919050565b6000602082019050818103600083015261252a816122a9565b9050919050565b6000602082019050818103600083015261254a816122cc565b9050919050565b6000602082019050818103600083015261256a816122ef565b9050919050565b6000602082019050818103600083015261258a81612335565b9050919050565b600060208201905081810360008301526125aa8161237b565b9050919050565b600060208201905081810360008301526125ca8161239e565b9050919050565b60006020820190506125e660008301846123c1565b92915050565b600060208201905061260160008301846123d0565b92915050565b600081519050919050565b600082825260208201905092915050565b600081905092915050565b600061263982612752565b915061264483612752565b9250827fffffffffffffffffffffffffffffffffffffffffffffffffffffffffffffffff03821115612679576126786127f8565b5b828201905092915050565b600061268f82612752565b915061269a83612752565b9250817fffffffffffffffffffffffffffffffffffffffffffffffffffffffffffffffff04831182151516156126d3576126d26127f8565b5b828202905092915050565b60006126e982612732565b9050919050565b60008115159050919050565b6000819050919050565b60007fffffffff0000000000000000000000000000000000000000000000000000000082169050919050565b600073ffffffffffffffffffffffffffffffffffffffff82169050919050565b6000819050919050565b600060ff82169050919050565b60005b8381101561278757808201518184015260208101905061276c565b83811115612796576000848401525b50505050565b60006127a782612752565b915060008214156127bb576127ba6127f8565b5b600182039050919050565b600060028204905060018216806127de57607f821691505b602082108114156127f2576127f1612827565b5b50919050565b7f4e487b7100000000000000000000000000000000000000000000000000000000600052601160045260246000fd5b7f4e487b7100000000000000000000000000000000000000000000000000000000600052602260045260246000fd5b6000601f19601f8301169050919050565b7f537472696e67733a20686578206c656e67746820696e73756666696369656e74600082015250565b7f45524332303a207472616e7366657220746f20746865207a65726f206164647260008201527f6573730000000000000000000000000000000000000000000000000000000000602082015250565b7f45524332303a20617070726f766520746f20746865207a65726f20616464726560008201527f7373000000000000000000000000000000000000000000000000000000000000602082015250565b7f45524332303a207472616e7366657220616d6f756e742065786365656473206260008201527f616c616e63650000000000000000000000000000000000000000000000000000602082015250565b7f496e697469616c697a61626c653a20636f6e747261637420697320616c72656160008201527f647920696e697469616c697a6564000000000000000000000000000000000000602082015250565b7f45524332303a207472616e7366657220616d6f756e742065786365656473206160008201527f6c6c6f77616e6365000000000000000000000000000000000000000000000000602082015250565b7f45524332303a207472616e736665722066726f6d20746865207a65726f20616460008201527f6472657373000000000000000000000000000000000000000000000000000000602082015250565b7f45524332303a20617070726f76652066726f6d20746865207a65726f2061646460008201527f7265737300000000000000000000000000000000000000000000000000000000602082015250565b7f416363657373436f6e74726f6c3a206163636f756e7420000000000000000000600082015250565b7f45524332303a2064656372656173656420616c6c6f77616e63652062656c6f7760008201527f207a65726f000000000000000000000000000000000000000000000000000000602082015250565b7f206973206d697373696e6720726f6c6520000000000000000000000000000000600082015250565b7f416363657373436f6e74726f6c3a2063616e206f6e6c792072656e6f756e636560008201527f20726f6c657320666f722073656c660000000000000000000000000000000000602082015250565b7f45524332303a206d696e7420746f20746865207a65726f206164647265737300600082015250565b612bdb816126de565b8114612be657600080fd5b50565b612bf2816126fc565b8114612bfd57600080fd5b50565b612c0981612706565b8114612c1457600080fd5b50565b612c2081612752565b8114612c2b57600080fd5b5056fea2646970667358221220a563f3b53d6da35a12800cf2f8e67eefccd378e7c90809958146e3b3712687c264736f6c63430008030033",
  "linkReferences": {},
  "deployedLinkReferences": {}
}