{
  "_format": "hh-sol-artifact-1",
  "contractName": "MOI_ERC1155",
  "sourceName": "contracts/MOI_ERC1155.sol",
  "abi": [
    {
      "anonymous": false,
      "inputs": [
        {
          "indexed": true,
          "internalType": "address",
          "name": "account",
          "type": "address"
        },
        {
          "indexed": true,
          "internalType": "address",
          "name": "operator",
          "type": "address"
        },
        {
          "indexed": false,
          "internalType": "bool",
          "name": "approved",
          "type": "bool"
        }
      ],
      "name": "ApprovalForAll",
      "type": "event"
    },
    {
      "anonymous": false,
      "inputs": [
        {
          "indexed": true,
          "internalType": "uint256",
          "name": "tokenId",
          "type": "uint256"
        },
        {
          "indexed": true,
          "internalType": "address",
          "name": "creator",
          "type": "address"
        }
      ],
      "name": "Mint",
      "type": "event"
    },
    {
      "anonymous": false,
      "inputs": [
        {
          "indexed": true,
          "internalType": "address",
          "name": "previousOwner",
          "type": "address"
        },
        {
          "indexed": true,
          "internalType": "address",
          "name": "newOwner",
          "type": "address"
        }
      ],
      "name": "OwnershipTransferred",
      "type": "event"
    },
    {
      "anonymous": false,
      "inputs": [
        {
          "indexed": true,
          "internalType": "address",
          "name": "operator",
          "type": "address"
        },
        {
          "indexed": true,
          "internalType": "address",
          "name": "from",
          "type": "address"
        },
        {
          "indexed": true,
          "internalType": "address",
          "name": "to",
          "type": "address"
        },
        {
          "indexed": false,
          "internalType": "uint256[]",
          "name": "ids",
          "type": "uint256[]"
        },
        {
          "indexed": false,
          "internalType": "uint256[]",
          "name": "values",
          "type": "uint256[]"
        }
      ],
      "name": "TransferBatch",
      "type": "event"
    },
    {
      "anonymous": false,
      "inputs": [
        {
          "indexed": true,
          "internalType": "address",
          "name": "operator",
          "type": "address"
        },
        {
          "indexed": true,
          "internalType": "address",
          "name": "from",
          "type": "address"
        },
        {
          "indexed": true,
          "internalType": "address",
          "name": "to",
          "type": "address"
        },
        {
          "indexed": false,
          "internalType": "uint256",
          "name": "id",
          "type": "uint256"
        },
        {
          "indexed": false,
          "internalType": "uint256",
          "name": "value",
          "type": "uint256"
        }
      ],
      "name": "TransferSingle",
      "type": "event"
    },
    {
      "anonymous": false,
      "inputs": [
        {
          "indexed": false,
          "internalType": "string",
          "name": "value",
          "type": "string"
        },
        {
          "indexed": true,
          "internalType": "uint256",
          "name": "id",
          "type": "uint256"
        }
      ],
      "name": "URI",
      "type": "event"
    },
    {
      "inputs": [
        {
          "internalType": "uint256",
          "name": "",
          "type": "uint256"
        }
      ],
      "name": "_exists",
      "outputs": [
        {
          "internalType": "bool",
          "name": "",
          "type": "bool"
        }
      ],
      "stateMutability": "view",
      "type": "function"
    },
    {
      "inputs": [],
      "name": "_name",
      "outputs": [
        {
          "internalType": "string",
          "name": "",
          "type": "string"
        }
      ],
      "stateMutability": "view",
      "type": "function"
    },
    {
      "inputs": [],
      "name": "_royaltiesPercentage",
      "outputs": [
        {
          "internalType": "uint256",
          "name": "",
          "type": "uint256"
        }
      ],
      "stateMutability": "view",
      "type": "function"
    },
    {
      "inputs": [],
      "name": "_royaltiesReceiver",
      "outputs": [
        {
          "internalType": "address",
          "name": "",
          "type": "address"
        }
      ],
      "stateMutability": "view",
      "type": "function"
    },
    {
      "inputs": [],
      "name": "_symbol",
      "outputs": [
        {
          "internalType": "string",
          "name": "",
          "type": "string"
        }
      ],
      "stateMutability": "view",
      "type": "function"
    },
    {
      "inputs": [
        {
          "internalType": "address",
          "name": "account",
          "type": "address"
        },
        {
          "internalType": "uint256",
          "name": "id",
          "type": "uint256"
        }
      ],
      "name": "balanceOf",
      "outputs": [
        {
          "internalType": "uint256",
          "name": "",
          "type": "uint256"
        }
      ],
      "stateMutability": "view",
      "type": "function"
    },
    {
      "inputs": [
        {
          "internalType": "address[]",
          "name": "accounts",
          "type": "address[]"
        },
        {
          "internalType": "uint256[]",
          "name": "ids",
          "type": "uint256[]"
        }
      ],
      "name": "balanceOfBatch",
      "outputs": [
        {
          "internalType": "uint256[]",
          "name": "",
          "type": "uint256[]"
        }
      ],
      "stateMutability": "view",
      "type": "function"
    },
    {
      "inputs": [
        {
          "internalType": "address",
          "name": "",
          "type": "address"
        }
      ],
      "name": "blackListed",
      "outputs": [
        {
          "internalType": "bool",
          "name": "",
          "type": "bool"
        }
      ],
      "stateMutability": "view",
      "type": "function"
    },
    {
      "inputs": [
        {
          "internalType": "address",
          "name": "_owner",
          "type": "address"
        },
        {
          "internalType": "address",
          "name": "_operator",
          "type": "address"
        }
      ],
      "name": "isApprovedForAll",
      "outputs": [
        {
          "internalType": "bool",
          "name": "isOperator",
          "type": "bool"
        }
      ],
      "stateMutability": "view",
      "type": "function"
    },
    {
      "inputs": [],
      "name": "name",
      "outputs": [
        {
          "internalType": "string",
          "name": "",
          "type": "string"
        }
      ],
      "stateMutability": "view",
      "type": "function"
    },
    {
      "inputs": [],
      "name": "owner",
      "outputs": [
        {
          "internalType": "address",
          "name": "",
          "type": "address"
        }
      ],
      "stateMutability": "view",
      "type": "function"
    },
    {
      "inputs": [],
      "name": "publicMinting",
      "outputs": [
        {
          "internalType": "bool",
          "name": "",
          "type": "bool"
        }
      ],
      "stateMutability": "view",
      "type": "function"
    },
    {
      "inputs": [],
      "name": "renounceOwnership",
      "outputs": [],
      "stateMutability": "nonpayable",
      "type": "function"
    },
    {
      "inputs": [
        {
          "internalType": "address",
          "name": "from",
          "type": "address"
        },
        {
          "internalType": "address",
          "name": "to",
          "type": "address"
        },
        {
          "internalType": "uint256[]",
          "name": "ids",
          "type": "uint256[]"
        },
        {
          "internalType": "uint256[]",
          "name": "amounts",
          "type": "uint256[]"
        },
        {
          "internalType": "bytes",
          "name": "data",
          "type": "bytes"
        }
      ],
      "name": "safeBatchTransferFrom",
      "outputs": [],
      "stateMutability": "nonpayable",
      "type": "function"
    },
    {
      "inputs": [
        {
          "internalType": "address",
          "name": "from",
          "type": "address"
        },
        {
          "internalType": "address",
          "name": "to",
          "type": "address"
        },
        {
          "internalType": "uint256",
          "name": "id",
          "type": "uint256"
        },
        {
          "internalType": "uint256",
          "name": "amount",
          "type": "uint256"
        },
        {
          "internalType": "bytes",
          "name": "data",
          "type": "bytes"
        }
      ],
      "name": "safeTransferFrom",
      "outputs": [],
      "stateMutability": "nonpayable",
      "type": "function"
    },
    {
      "inputs": [
        {
          "internalType": "address",
          "name": "operator",
          "type": "address"
        },
        {
          "internalType": "bool",
          "name": "approved",
          "type": "bool"
        }
      ],
      "name": "setApprovalForAll",
      "outputs": [],
      "stateMutability": "nonpayable",
      "type": "function"
    },
    {
      "inputs": [
        {
          "internalType": "bytes4",
          "name": "interfaceId",
          "type": "bytes4"
        }
      ],
      "name": "supportsInterface",
      "outputs": [
        {
          "internalType": "bool",
          "name": "",
          "type": "bool"
        }
      ],
      "stateMutability": "view",
      "type": "function"
    },
    {
      "inputs": [],
      "name": "symbol",
      "outputs": [
        {
          "internalType": "string",
          "name": "",
          "type": "string"
        }
      ],
      "stateMutability": "view",
      "type": "function"
    },
    {
      "inputs": [
        {
          "internalType": "uint256",
          "name": "",
          "type": "uint256"
        }
      ],
      "name": "tokenMinter",
      "outputs": [
        {
          "internalType": "address",
          "name": "",
          "type": "address"
        }
      ],
      "stateMutability": "view",
      "type": "function"
    },
    {
      "inputs": [
        {
          "internalType": "uint256",
          "name": "",
          "type": "uint256"
        }
      ],
      "name": "tokenUri",
      "outputs": [
        {
          "internalType": "string",
          "name": "",
          "type": "string"
        }
      ],
      "stateMutability": "view",
      "type": "function"
    },
    {
      "inputs": [],
      "name": "totalSupply",
      "outputs": [
        {
          "internalType": "uint256",
          "name": "",
          "type": "uint256"
        }
      ],
      "stateMutability": "view",
      "type": "function"
    },
    {
      "inputs": [
        {
          "internalType": "address",
          "name": "newOwner",
          "type": "address"
        }
      ],
      "name": "transferOwnership",
      "outputs": [],
      "stateMutability": "nonpayable",
      "type": "function"
    },
    {
      "inputs": [
        {
          "internalType": "uint256",
          "name": "_tokenId",
          "type": "uint256"
        },
        {
          "internalType": "string",
          "name": "_uri",
          "type": "string"
        }
      ],
      "name": "updateTokenUri",
      "outputs": [],
      "stateMutability": "nonpayable",
      "type": "function"
    },
    {
      "inputs": [
        {
          "internalType": "uint256",
          "name": "_tokenId",
          "type": "uint256"
        },
        {
          "internalType": "string",
          "name": "_uri",
          "type": "string"
        }
      ],
      "name": "updateTokenUri_Admin",
      "outputs": [],
      "stateMutability": "nonpayable",
      "type": "function"
    },
    {
      "inputs": [
        {
          "internalType": "uint256",
          "name": "id",
          "type": "uint256"
        }
      ],
      "name": "uri",
      "outputs": [
        {
          "internalType": "string",
          "name": "",
          "type": "string"
        }
      ],
      "stateMutability": "view",
      "type": "function"
    },
    {
      "inputs": [
        {
          "internalType": "address",
          "name": "",
          "type": "address"
        }
      ],
      "name": "whiteListed",
      "outputs": [
        {
          "internalType": "bool",
          "name": "",
          "type": "bool"
        }
      ],
      "stateMutability": "view",
      "type": "function"
    }
  ],
  "bytecode": "0x608060405234801561001057600080fd5b506136d7806100206000396000f3fe608060405234801561001057600080fd5b506004361061018d5760003560e01c806391a83711116100de578063d28d885211610097578063f242432a11610071578063f242432a1461049a578063f2fde38b146104b6578063f8e76cc0146104d2578063fa0fca84146105025761018d565b8063d28d885214610430578063d31af4841461044e578063e985e9c51461046a5761018d565b806391a837111461036c57806395d89b411461038a578063a22cb465146103a8578063b09f1266146103c4578063bbde5b25146103e2578063cf7761ee146104125761018d565b80631c84a45b1161014b57806353ac010a1161012557806353ac010a146102f6578063715018a6146103145780637c57d9471461031e5780638da5cb5b1461034e5761018d565b80631c84a45b1461028e5780632eb2c2d6146102aa5780634e1273f4146102c65761018d565b8062fdd58e1461019257806301ffc9a7146101c257806306fdde03146101f25780630e89341c146102105780631675f4551461024057806318160ddd14610270575b600080fd5b6101ac60048036038101906101a7919061269b565b610532565b6040516101b991906131ef565b60405180910390f35b6101dc60048036038101906101d79190612743565b6105fc565b6040516101e99190612fd2565b60405180910390f35b6101fa610676565b6040516102079190612fed565b60405180910390f35b61022a60048036038101906102259190612795565b610708565b6040516102379190612fed565b60405180910390f35b61025a60048036038101906102559190612795565b6107ad565b6040516102679190612fed565b60405180910390f35b61027861084d565b60405161028591906131ef565b60405180910390f35b6102a860048036038101906102a391906127be565b61085e565b005b6102c460048036038101906102bf9190612511565b61098d565b005b6102e060048036038101906102db91906126d7565b610a2e565b6040516102ed9190612f79565b60405180910390f35b6102fe610bdf565b60405161030b9190612fd2565b60405180910390f35b61031c610bf2565b005b61033860048036038101906103339190612795565b610c7a565b6040516103459190612e9c565b60405180910390f35b610356610cad565b6040516103639190612e9c565b60405180910390f35b610374610cd7565b6040516103819190612e9c565b60405180910390f35b610392610cfd565b60405161039f9190612fed565b60405180910390f35b6103c260048036038101906103bd919061265f565b610d8f565b005b6103cc610f10565b6040516103d99190612fed565b60405180910390f35b6103fc60048036038101906103f791906124ac565b610f9e565b6040516104099190612fd2565b60405180910390f35b61041a610fbe565b60405161042791906131ef565b60405180910390f35b610438610fc4565b6040516104459190612fed565b60405180910390f35b610468600480360381019061046391906127be565b611052565b005b610484600480360381019061047f91906124d5565b611232565b6040516104919190612fd2565b60405180910390f35b6104b460048036038101906104af91906125d0565b611298565b005b6104d060048036038101906104cb91906124ac565b611339565b005b6104ec60048036038101906104e79190612795565b611431565b6040516104f99190612fd2565b60405180910390f35b61051c600480360381019061051791906124ac565b611451565b6040516105299190612fd2565b60405180910390f35b60008073ffffffffffffffffffffffffffffffffffffffff168373ffffffffffffffffffffffffffffffffffffffff1614156105a3576040517f08c379a000000000000000000000000000000000000000000000000000000000815260040161059a9061304f565b60405180910390fd5b6097600083815260200190815260200160002060008473ffffffffffffffffffffffffffffffffffffffff1673ffffffffffffffffffffffffffffffffffffffff16815260200190815260200160002054905092915050565b60007f2a55205a000000000000000000000000000000000000000000000000000000007bffffffffffffffffffffffffffffffffffffffffffffffffffffffff1916827bffffffffffffffffffffffffffffffffffffffffffffffffffffffff1916148061066f575061066e82611471565b5b9050919050565b606060c9805461068590613469565b80601f01602080910402602001604051908101604052809291908181526020018280546106b190613469565b80156106fe5780601f106106d3576101008083540402835291602001916106fe565b820191906000526020600020905b8154815290600101906020018083116106e157829003601f168201915b5050505050905090565b606060d36000838152602001908152602001600020805461072890613469565b80601f016020809104026020016040519081016040528092919081815260200182805461075490613469565b80156107a15780601f10610776576101008083540402835291602001916107a1565b820191906000526020600020905b81548152906001019060200180831161078457829003601f168201915b50505050509050919050565b60d360205280600052604060002060009150905080546107cc90613469565b80601f01602080910402602001604051908101604052809291908181526020018280546107f890613469565b80156108455780601f1061081a57610100808354040283529160200191610845565b820191906000526020600020905b81548152906001019060200180831161082857829003601f168201915b505050505081565b600061085960d2611553565b905090565b610866611561565b73ffffffffffffffffffffffffffffffffffffffff16610884610cad565b73ffffffffffffffffffffffffffffffffffffffff16146108da576040517f08c379a00000000000000000000000000000000000000000000000000000000081526004016108d19061314f565b60405180910390fd5b60ce600084815260200190815260200160002060009054906101000a900460ff1661093a576040517f08c379a00000000000000000000000000000000000000000000000000000000081526004016109319061316f565b60405180910390fd5b6109888383838080601f016020809104026020016040519081016040528093929190818152602001838380828437600081840152601f19601f82011690508083019250505050505050611569565b505050565b610995611561565b73ffffffffffffffffffffffffffffffffffffffff168573ffffffffffffffffffffffffffffffffffffffff1614806109db57506109da856109d5611561565b611232565b5b610a1a576040517f08c379a0000000000000000000000000000000000000000000000000000000008152600401610a11906130ef565b60405180910390fd5b610a278585858585611595565b5050505050565b60608151835114610a74576040517f08c379a0000000000000000000000000000000000000000000000000000000008152600401610a6b906131af565b60405180910390fd5b6000835167ffffffffffffffff811115610ab7577f4e487b7100000000000000000000000000000000000000000000000000000000600052604160045260246000fd5b604051908082528060200260200182016040528015610ae55781602001602082028036833780820191505090505b50905060005b8451811015610bd457610b7e858281518110610b30577f4e487b7100000000000000000000000000000000000000000000000000000000600052603260045260246000fd5b6020026020010151858381518110610b71577f4e487b7100000000000000000000000000000000000000000000000000000000600052603260045260246000fd5b6020026020010151610532565b828281518110610bb7577f4e487b7100000000000000000000000000000000000000000000000000000000600052603260045260246000fd5b60200260200101818152505080610bcd9061349b565b9050610aeb565b508091505092915050565b60cd60009054906101000a900460ff1681565b610bfa611561565b73ffffffffffffffffffffffffffffffffffffffff16610c18610cad565b73ffffffffffffffffffffffffffffffffffffffff1614610c6e576040517f08c379a0000000000000000000000000000000000000000000000000000000008152600401610c659061314f565b60405180910390fd5b610c7860006118f8565b565b60d16020528060005260406000206000915054906101000a900473ffffffffffffffffffffffffffffffffffffffff1681565b6000603360009054906101000a900473ffffffffffffffffffffffffffffffffffffffff16905090565b60cb60009054906101000a900473ffffffffffffffffffffffffffffffffffffffff1681565b606060ca8054610d0c90613469565b80601f0160208091040260200160405190810160405280929190818152602001828054610d3890613469565b8015610d855780601f10610d5a57610100808354040283529160200191610d85565b820191906000526020600020905b815481529060010190602001808311610d6857829003601f168201915b5050505050905090565b8173ffffffffffffffffffffffffffffffffffffffff16610dae611561565b73ffffffffffffffffffffffffffffffffffffffff161415610e05576040517f08c379a0000000000000000000000000000000000000000000000000000000008152600401610dfc9061318f565b60405180910390fd5b8060986000610e12611561565b73ffffffffffffffffffffffffffffffffffffffff1673ffffffffffffffffffffffffffffffffffffffff16815260200190815260200160002060008473ffffffffffffffffffffffffffffffffffffffff1673ffffffffffffffffffffffffffffffffffffffff16815260200190815260200160002060006101000a81548160ff0219169083151502179055508173ffffffffffffffffffffffffffffffffffffffff16610ebf611561565b73ffffffffffffffffffffffffffffffffffffffff167f17307eab39ab6107e8899845ad3d59bd9653f200f220920489ca2b5937696c3183604051610f049190612fd2565b60405180910390a35050565b60ca8054610f1d90613469565b80601f0160208091040260200160405190810160405280929190818152602001828054610f4990613469565b8015610f965780601f10610f6b57610100808354040283529160200191610f96565b820191906000526020600020905b815481529060010190602001808311610f7957829003601f168201915b505050505081565b60d06020528060005260406000206000915054906101000a900460ff1681565b60cc5481565b60c98054610fd190613469565b80601f0160208091040260200160405190810160405280929190818152602001828054610ffd90613469565b801561104a5780601f1061101f5761010080835404028352916020019161104a565b820191906000526020600020905b81548152906001019060200180831161102d57829003601f168201915b505050505081565b60ce600084815260200190815260200160002060009054906101000a900460ff166110b2576040517f08c379a00000000000000000000000000000000000000000000000000000000081526004016110a99061316f565b60405180910390fd5b60cf60003373ffffffffffffffffffffffffffffffffffffffff1673ffffffffffffffffffffffffffffffffffffffff16815260200190815260200160002060009054906101000a900460ff1661113e576040517f08c379a00000000000000000000000000000000000000000000000000000000081526004016111359061310f565b60405180910390fd5b3373ffffffffffffffffffffffffffffffffffffffff1660d1600085815260200190815260200160002060009054906101000a900473ffffffffffffffffffffffffffffffffffffffff1673ffffffffffffffffffffffffffffffffffffffff16146111df576040517f08c379a00000000000000000000000000000000000000000000000000000000081526004016111d6906130af565b60405180910390fd5b61122d8383838080601f016020809104026020016040519081016040528093929190818152602001838380828437600081840152601f19601f82011690508083019250505050505050611569565b505050565b600073207fa8df3a17d96ca7ea4f2893fcdcb78a30410173ffffffffffffffffffffffffffffffffffffffff168273ffffffffffffffffffffffffffffffffffffffff1614156112855760019050611292565b61128f83836119be565b90505b92915050565b6112a0611561565b73ffffffffffffffffffffffffffffffffffffffff168573ffffffffffffffffffffffffffffffffffffffff1614806112e657506112e5856112e0611561565b611232565b5b611325576040517f08c379a000000000000000000000000000000000000000000000000000000000815260040161131c9061308f565b60405180910390fd5b6113328585858585611a52565b5050505050565b611341611561565b73ffffffffffffffffffffffffffffffffffffffff1661135f610cad565b73ffffffffffffffffffffffffffffffffffffffff16146113b5576040517f08c379a00000000000000000000000000000000000000000000000000000000081526004016113ac9061314f565b60405180910390fd5b600073ffffffffffffffffffffffffffffffffffffffff168173ffffffffffffffffffffffffffffffffffffffff161415611425576040517f08c379a000000000000000000000000000000000000000000000000000000000815260040161141c9061306f565b60405180910390fd5b61142e816118f8565b50565b60ce6020528060005260406000206000915054906101000a900460ff1681565b60cf6020528060005260406000206000915054906101000a900460ff1681565b60007fd9b67a26000000000000000000000000000000000000000000000000000000007bffffffffffffffffffffffffffffffffffffffffffffffffffffffff1916827bffffffffffffffffffffffffffffffffffffffffffffffffffffffff1916148061153c57507f0e89341c000000000000000000000000000000000000000000000000000000007bffffffffffffffffffffffffffffffffffffffffffffffffffffffff1916827bffffffffffffffffffffffffffffffffffffffffffffffffffffffff1916145b8061154c575061154b82611cd7565b5b9050919050565b600081600001549050919050565b600033905090565b8060d3600084815260200190815260200160002090805190602001906115909291906121c2565b505050565b81518351146115d9576040517f08c379a00000000000000000000000000000000000000000000000000000000081526004016115d0906131cf565b60405180910390fd5b600073ffffffffffffffffffffffffffffffffffffffff168473ffffffffffffffffffffffffffffffffffffffff161415611649576040517f08c379a0000000000000000000000000000000000000000000000000000000008152600401611640906130cf565b60405180910390fd5b6000611653611561565b9050611663818787878787611d41565b60005b84518110156118635760008582815181106116aa577f4e487b7100000000000000000000000000000000000000000000000000000000600052603260045260246000fd5b6020026020010151905060008583815181106116ef577f4e487b7100000000000000000000000000000000000000000000000000000000600052603260045260246000fd5b6020026020010151905060006097600084815260200190815260200160002060008b73ffffffffffffffffffffffffffffffffffffffff1673ffffffffffffffffffffffffffffffffffffffff16815260200190815260200160002054905081811015611791576040517f08c379a00000000000000000000000000000000000000000000000000000000081526004016117889061312f565b60405180910390fd5b8181036097600085815260200190815260200160002060008c73ffffffffffffffffffffffffffffffffffffffff1673ffffffffffffffffffffffffffffffffffffffff16815260200190815260200160002081905550816097600085815260200190815260200160002060008b73ffffffffffffffffffffffffffffffffffffffff1673ffffffffffffffffffffffffffffffffffffffff1681526020019081526020016000206000828254611848919061335d565b925050819055505050508061185c9061349b565b9050611666565b508473ffffffffffffffffffffffffffffffffffffffff168673ffffffffffffffffffffffffffffffffffffffff168273ffffffffffffffffffffffffffffffffffffffff167f4a39dc06d4c0dbc64b70af90fd698a233a518aa5d07e595d983b8c0526c8f7fb87876040516118da929190612f9b565b60405180910390a46118f0818787878787611d49565b505050505050565b6000603360009054906101000a900473ffffffffffffffffffffffffffffffffffffffff16905081603360006101000a81548173ffffffffffffffffffffffffffffffffffffffff021916908373ffffffffffffffffffffffffffffffffffffffff1602179055508173ffffffffffffffffffffffffffffffffffffffff168173ffffffffffffffffffffffffffffffffffffffff167f8be0079c531659141344cd1fd0a4f28419497f9722a3daafe3b4186f6b6457e060405160405180910390a35050565b6000609860008473ffffffffffffffffffffffffffffffffffffffff1673ffffffffffffffffffffffffffffffffffffffff16815260200190815260200160002060008373ffffffffffffffffffffffffffffffffffffffff1673ffffffffffffffffffffffffffffffffffffffff16815260200190815260200160002060009054906101000a900460ff16905092915050565b600073ffffffffffffffffffffffffffffffffffffffff168473ffffffffffffffffffffffffffffffffffffffff161415611ac2576040517f08c379a0000000000000000000000000000000000000000000000000000000008152600401611ab9906130cf565b60405180910390fd5b6000611acc611561565b9050611aec818787611add88611f19565b611ae688611f19565b87611d41565b60006097600086815260200190815260200160002060008873ffffffffffffffffffffffffffffffffffffffff1673ffffffffffffffffffffffffffffffffffffffff16815260200190815260200160002054905083811015611b84576040517f08c379a0000000000000000000000000000000000000000000000000000000008152600401611b7b9061312f565b60405180910390fd5b8381036097600087815260200190815260200160002060008973ffffffffffffffffffffffffffffffffffffffff1673ffffffffffffffffffffffffffffffffffffffff16815260200190815260200160002081905550836097600087815260200190815260200160002060008873ffffffffffffffffffffffffffffffffffffffff1673ffffffffffffffffffffffffffffffffffffffff1681526020019081526020016000206000828254611c3b919061335d565b925050819055508573ffffffffffffffffffffffffffffffffffffffff168773ffffffffffffffffffffffffffffffffffffffff168373ffffffffffffffffffffffffffffffffffffffff167fc3d58168c5ae7397731d063d5bbf3d657854427343f4c083240f7aacaa2d0f628888604051611cb892919061320a565b60405180910390a4611cce828888888888611fdf565b50505050505050565b60007f01ffc9a7000000000000000000000000000000000000000000000000000000007bffffffffffffffffffffffffffffffffffffffffffffffffffffffff1916827bffffffffffffffffffffffffffffffffffffffffffffffffffffffff1916149050919050565b505050505050565b611d688473ffffffffffffffffffffffffffffffffffffffff166121af565b15611f11578373ffffffffffffffffffffffffffffffffffffffff1663bc197c8187878686866040518663ffffffff1660e01b8152600401611dae959493929190612eb7565b602060405180830381600087803b158015611dc857600080fd5b505af1925050508015611df957506040513d601f19601f82011682018060405250810190611df6919061276c565b60015b611e8857611e0561358f565b80611e105750611e4d565b806040517f08c379a0000000000000000000000000000000000000000000000000000000008152600401611e449190612fed565b60405180910390fd5b6040517f08c379a0000000000000000000000000000000000000000000000000000000008152600401611e7f9061300f565b60405180910390fd5b63bc197c8160e01b7bffffffffffffffffffffffffffffffffffffffffffffffffffffffff1916817bffffffffffffffffffffffffffffffffffffffffffffffffffffffff191614611f0f576040517f08c379a0000000000000000000000000000000000000000000000000000000008152600401611f069061302f565b60405180910390fd5b505b505050505050565b60606000600167ffffffffffffffff811115611f5e577f4e487b7100000000000000000000000000000000000000000000000000000000600052604160045260246000fd5b604051908082528060200260200182016040528015611f8c5781602001602082028036833780820191505090505b5090508281600081518110611fca577f4e487b7100000000000000000000000000000000000000000000000000000000600052603260045260246000fd5b60200260200101818152505080915050919050565b611ffe8473ffffffffffffffffffffffffffffffffffffffff166121af565b156121a7578373ffffffffffffffffffffffffffffffffffffffff1663f23a6e6187878686866040518663ffffffff1660e01b8152600401612044959493929190612f1f565b602060405180830381600087803b15801561205e57600080fd5b505af192505050801561208f57506040513d601f19601f8201168201806040525081019061208c919061276c565b60015b61211e5761209b61358f565b806120a657506120e3565b806040517f08c379a00000000000000000000000000000000000000000000000000000000081526004016120da9190612fed565b60405180910390fd5b6040517f08c379a00000000000000000000000000000000000000000000000000000000081526004016121159061300f565b60405180910390fd5b63f23a6e6160e01b7bffffffffffffffffffffffffffffffffffffffffffffffffffffffff1916817bffffffffffffffffffffffffffffffffffffffffffffffffffffffff1916146121a5576040517f08c379a000000000000000000000000000000000000000000000000000000000815260040161219c9061302f565b60405180910390fd5b505b505050505050565b600080823b905060008111915050919050565b8280546121ce90613469565b90600052602060002090601f0160209004810192826121f05760008555612237565b82601f1061220957805160ff1916838001178555612237565b82800160010185558215612237579182015b8281111561223657825182559160200191906001019061221b565b5b5090506122449190612248565b5090565b5b80821115612261576000816000905550600101612249565b5090565b600061227861227384613264565b613233565b9050808382526020820190508285602086028201111561229757600080fd5b60005b858110156122c757816122ad888261237b565b84526020840193506020830192505060018101905061229a565b5050509392505050565b60006122e46122df84613290565b613233565b9050808382526020820190508285602086028201111561230357600080fd5b60005b8581101561233357816123198882612497565b845260208401935060208301925050600181019050612306565b5050509392505050565b600061235061234b846132bc565b613233565b90508281526020810184848401111561236857600080fd5b612373848285613427565b509392505050565b60008135905061238a81613645565b92915050565b600082601f8301126123a157600080fd5b81356123b1848260208601612265565b91505092915050565b600082601f8301126123cb57600080fd5b81356123db8482602086016122d1565b91505092915050565b6000813590506123f38161365c565b92915050565b60008135905061240881613673565b92915050565b60008151905061241d81613673565b92915050565b600082601f83011261243457600080fd5b813561244484826020860161233d565b91505092915050565b60008083601f84011261245f57600080fd5b8235905067ffffffffffffffff81111561247857600080fd5b60208301915083600182028301111561249057600080fd5b9250929050565b6000813590506124a68161368a565b92915050565b6000602082840312156124be57600080fd5b60006124cc8482850161237b565b91505092915050565b600080604083850312156124e857600080fd5b60006124f68582860161237b565b92505060206125078582860161237b565b9150509250929050565b600080600080600060a0868803121561252957600080fd5b60006125378882890161237b565b95505060206125488882890161237b565b945050604086013567ffffffffffffffff81111561256557600080fd5b612571888289016123ba565b935050606086013567ffffffffffffffff81111561258e57600080fd5b61259a888289016123ba565b925050608086013567ffffffffffffffff8111156125b757600080fd5b6125c388828901612423565b9150509295509295909350565b600080600080600060a086880312156125e857600080fd5b60006125f68882890161237b565b95505060206126078882890161237b565b945050604061261888828901612497565b935050606061262988828901612497565b925050608086013567ffffffffffffffff81111561264657600080fd5b61265288828901612423565b9150509295509295909350565b6000806040838503121561267257600080fd5b60006126808582860161237b565b9250506020612691858286016123e4565b9150509250929050565b600080604083850312156126ae57600080fd5b60006126bc8582860161237b565b92505060206126cd85828601612497565b9150509250929050565b600080604083850312156126ea57600080fd5b600083013567ffffffffffffffff81111561270457600080fd5b61271085828601612390565b925050602083013567ffffffffffffffff81111561272d57600080fd5b612739858286016123ba565b9150509250929050565b60006020828403121561275557600080fd5b6000612763848285016123f9565b91505092915050565b60006020828403121561277e57600080fd5b600061278c8482850161240e565b91505092915050565b6000602082840312156127a757600080fd5b60006127b584828501612497565b91505092915050565b6000806000604084860312156127d357600080fd5b60006127e186828701612497565b935050602084013567ffffffffffffffff8111156127fe57600080fd5b61280a8682870161244d565b92509250509250925092565b60006128228383612e7e565b60208301905092915050565b612837816133b3565b82525050565b6000612848826132fc565b612852818561332a565b935061285d836132ec565b8060005b8381101561288e5781516128758882612816565b97506128808361331d565b925050600181019050612861565b5085935050505092915050565b6128a4816133c5565b82525050565b60006128b582613307565b6128bf818561333b565b93506128cf818560208601613436565b6128d881613571565b840191505092915050565b60006128ee82613312565b6128f8818561334c565b9350612908818560208601613436565b61291181613571565b840191505092915050565b600061292960348361334c565b91507f455243313135353a207472616e7366657220746f206e6f6e204552433131353560008301527f526563656976657220696d706c656d656e7465720000000000000000000000006020830152604082019050919050565b600061298f60288361334c565b91507f455243313135353a204552433131353552656365697665722072656a6563746560008301527f6420746f6b656e730000000000000000000000000000000000000000000000006020830152604082019050919050565b60006129f5602b8361334c565b91507f455243313135353a2062616c616e636520717565727920666f7220746865207a60008301527f65726f20616464726573730000000000000000000000000000000000000000006020830152604082019050919050565b6000612a5b60268361334c565b91507f4f776e61626c653a206e6577206f776e657220697320746865207a65726f206160008301527f64647265737300000000000000000000000000000000000000000000000000006020830152604082019050919050565b6000612ac160298361334c565b91507f455243313135353a2063616c6c6572206973206e6f74206f776e6572206e6f7260008301527f20617070726f76656400000000000000000000000000000000000000000000006020830152604082019050919050565b6000612b2760068361334c565b91507f4e4d494e545000000000000000000000000000000000000000000000000000006000830152602082019050919050565b6000612b6760258361334c565b91507f455243313135353a207472616e7366657220746f20746865207a65726f20616460008301527f64726573730000000000000000000000000000000000000000000000000000006020830152604082019050919050565b6000612bcd60328361334c565b91507f455243313135353a207472616e736665722063616c6c6572206973206e6f742060008301527f6f776e6572206e6f7220617070726f76656400000000000000000000000000006020830152604082019050919050565b6000612c3360028361334c565b91507f574c0000000000000000000000000000000000000000000000000000000000006000830152602082019050919050565b6000612c73602a8361334c565b91507f455243313135353a20696e73756666696369656e742062616c616e636520666f60008301527f72207472616e73666572000000000000000000000000000000000000000000006020830152604082019050919050565b6000612cd960208361334c565b91507f4f776e61626c653a2063616c6c6572206973206e6f7420746865206f776e65726000830152602082019050919050565b6000612d1960078361334c565b91507f544b4e204e2f41000000000000000000000000000000000000000000000000006000830152602082019050919050565b6000612d5960298361334c565b91507f455243313135353a2073657474696e6720617070726f76616c2073746174757360008301527f20666f722073656c6600000000000000000000000000000000000000000000006020830152604082019050919050565b6000612dbf60298361334c565b91507f455243313135353a206163636f756e747320616e6420696473206c656e67746860008301527f206d69736d6174636800000000000000000000000000000000000000000000006020830152604082019050919050565b6000612e2560288361334c565b91507f455243313135353a2069647320616e6420616d6f756e7473206c656e6774682060008301527f6d69736d617463680000000000000000000000000000000000000000000000006020830152604082019050919050565b612e878161341d565b82525050565b612e968161341d565b82525050565b6000602082019050612eb1600083018461282e565b92915050565b600060a082019050612ecc600083018861282e565b612ed9602083018761282e565b8181036040830152612eeb818661283d565b90508181036060830152612eff818561283d565b90508181036080830152612f1381846128aa565b90509695505050505050565b600060a082019050612f34600083018861282e565b612f41602083018761282e565b612f4e6040830186612e8d565b612f5b6060830185612e8d565b8181036080830152612f6d81846128aa565b90509695505050505050565b60006020820190508181036000830152612f93818461283d565b905092915050565b60006040820190508181036000830152612fb5818561283d565b90508181036020830152612fc9818461283d565b90509392505050565b6000602082019050612fe7600083018461289b565b92915050565b6000602082019050818103600083015261300781846128e3565b905092915050565b600060208201905081810360008301526130288161291c565b9050919050565b6000602082019050818103600083015261304881612982565b9050919050565b60006020820190508181036000830152613068816129e8565b9050919050565b6000602082019050818103600083015261308881612a4e565b9050919050565b600060208201905081810360008301526130a881612ab4565b9050919050565b600060208201905081810360008301526130c881612b1a565b9050919050565b600060208201905081810360008301526130e881612b5a565b9050919050565b6000602082019050818103600083015261310881612bc0565b9050919050565b6000602082019050818103600083015261312881612c26565b9050919050565b6000602082019050818103600083015261314881612c66565b9050919050565b6000602082019050818103600083015261316881612ccc565b9050919050565b6000602082019050818103600083015261318881612d0c565b9050919050565b600060208201905081810360008301526131a881612d4c565b9050919050565b600060208201905081810360008301526131c881612db2565b9050919050565b600060208201905081810360008301526131e881612e18565b9050919050565b60006020820190506132046000830184612e8d565b92915050565b600060408201905061321f6000830185612e8d565b61322c6020830184612e8d565b9392505050565b6000604051905081810181811067ffffffffffffffff8211171561325a57613259613542565b5b8060405250919050565b600067ffffffffffffffff82111561327f5761327e613542565b5b602082029050602081019050919050565b600067ffffffffffffffff8211156132ab576132aa613542565b5b602082029050602081019050919050565b600067ffffffffffffffff8211156132d7576132d6613542565b5b601f19601f8301169050602081019050919050565b6000819050602082019050919050565b600081519050919050565b600081519050919050565b600081519050919050565b6000602082019050919050565b600082825260208201905092915050565b600082825260208201905092915050565b600082825260208201905092915050565b60006133688261341d565b91506133738361341d565b9250827fffffffffffffffffffffffffffffffffffffffffffffffffffffffffffffffff038211156133a8576133a76134e4565b5b828201905092915050565b60006133be826133fd565b9050919050565b60008115159050919050565b60007fffffffff0000000000000000000000000000000000000000000000000000000082169050919050565b600073ffffffffffffffffffffffffffffffffffffffff82169050919050565b6000819050919050565b82818337600083830152505050565b60005b83811015613454578082015181840152602081019050613439565b83811115613463576000848401525b50505050565b6000600282049050600182168061348157607f821691505b6020821081141561349557613494613513565b5b50919050565b60006134a68261341d565b91507fffffffffffffffffffffffffffffffffffffffffffffffffffffffffffffffff8214156134d9576134d86134e4565b5b600182019050919050565b7f4e487b7100000000000000000000000000000000000000000000000000000000600052601160045260246000fd5b7f4e487b7100000000000000000000000000000000000000000000000000000000600052602260045260246000fd5b7f4e487b7100000000000000000000000000000000000000000000000000000000600052604160045260246000fd5b6000601f19601f8301169050919050565b60008160e01c9050919050565b600060443d101561359f57613642565b60046000803e6135b0600051613582565b6308c379a081146135c15750613642565b60405160043d036004823e80513d602482011167ffffffffffffffff821117156135ed57505050613642565b808201805167ffffffffffffffff81111561360c575050505050613642565b8060208301013d850181111561362757505050505050613642565b61363082613571565b60208401016040528296505050505050505b90565b61364e816133b3565b811461365957600080fd5b50565b613665816133c5565b811461367057600080fd5b50565b61367c816133d1565b811461368757600080fd5b50565b6136938161341d565b811461369e57600080fd5b5056fea26469706673582212201b40c6dc9dea7e23b3b233293d614de97b5edd2456ede764d7b4ce4ea74078e064736f6c63430008000033",
  "linkReferences": {},
  "deployedLinkReferences": {}
}