{
  "_format": "hh-sol-artifact-1",
  "contractName": "MOI_ERC1155",
  "sourceName": "contracts/MOI_ERC1155.sol",
  "abi": [
    {
      "anonymous": false,
      "inputs": [
        {
          "indexed": true,
          "internalType": "address",
          "name": "account",
          "type": "address"
        },
        {
          "indexed": true,
          "internalType": "address",
          "name": "operator",
          "type": "address"
        },
        {
          "indexed": false,
          "internalType": "bool",
          "name": "approved",
          "type": "bool"
        }
      ],
      "name": "ApprovalForAll",
      "type": "event"
    },
    {
      "anonymous": false,
      "inputs": [
        {
          "indexed": true,
          "internalType": "uint256",
          "name": "tokenId",
          "type": "uint256"
        },
        {
          "indexed": true,
          "internalType": "address",
          "name": "creator",
          "type": "address"
        }
      ],
      "name": "Mint",
      "type": "event"
    },
    {
      "anonymous": false,
      "inputs": [
        {
          "indexed": true,
          "internalType": "address",
          "name": "previousOwner",
          "type": "address"
        },
        {
          "indexed": true,
          "internalType": "address",
          "name": "newOwner",
          "type": "address"
        }
      ],
      "name": "OwnershipTransferred",
      "type": "event"
    },
    {
      "anonymous": false,
      "inputs": [
        {
          "indexed": true,
          "internalType": "address",
          "name": "operator",
          "type": "address"
        },
        {
          "indexed": true,
          "internalType": "address",
          "name": "from",
          "type": "address"
        },
        {
          "indexed": true,
          "internalType": "address",
          "name": "to",
          "type": "address"
        },
        {
          "indexed": false,
          "internalType": "uint256[]",
          "name": "ids",
          "type": "uint256[]"
        },
        {
          "indexed": false,
          "internalType": "uint256[]",
          "name": "values",
          "type": "uint256[]"
        }
      ],
      "name": "TransferBatch",
      "type": "event"
    },
    {
      "anonymous": false,
      "inputs": [
        {
          "indexed": true,
          "internalType": "address",
          "name": "operator",
          "type": "address"
        },
        {
          "indexed": true,
          "internalType": "address",
          "name": "from",
          "type": "address"
        },
        {
          "indexed": true,
          "internalType": "address",
          "name": "to",
          "type": "address"
        },
        {
          "indexed": false,
          "internalType": "uint256",
          "name": "id",
          "type": "uint256"
        },
        {
          "indexed": false,
          "internalType": "uint256",
          "name": "value",
          "type": "uint256"
        }
      ],
      "name": "TransferSingle",
      "type": "event"
    },
    {
      "anonymous": false,
      "inputs": [
        {
          "indexed": false,
          "internalType": "string",
          "name": "value",
          "type": "string"
        },
        {
          "indexed": true,
          "internalType": "uint256",
          "name": "id",
          "type": "uint256"
        }
      ],
      "name": "URI",
      "type": "event"
    },
    {
      "inputs": [],
      "name": "__Storage_initialize",
      "outputs": [],
      "stateMutability": "nonpayable",
      "type": "function"
    },
    {
      "inputs": [
        {
          "internalType": "uint256",
          "name": "",
          "type": "uint256"
        }
      ],
      "name": "_exists",
      "outputs": [
        {
          "internalType": "bool",
          "name": "",
          "type": "bool"
        }
      ],
      "stateMutability": "view",
      "type": "function"
    },
    {
      "inputs": [],
      "name": "_name",
      "outputs": [
        {
          "internalType": "string",
          "name": "",
          "type": "string"
        }
      ],
      "stateMutability": "view",
      "type": "function"
    },
    {
      "inputs": [],
      "name": "_royaltiesPercentage",
      "outputs": [
        {
          "internalType": "uint256",
          "name": "",
          "type": "uint256"
        }
      ],
      "stateMutability": "view",
      "type": "function"
    },
    {
      "inputs": [],
      "name": "_royaltiesReceiver",
      "outputs": [
        {
          "internalType": "address",
          "name": "",
          "type": "address"
        }
      ],
      "stateMutability": "view",
      "type": "function"
    },
    {
      "inputs": [],
      "name": "_symbol",
      "outputs": [
        {
          "internalType": "string",
          "name": "",
          "type": "string"
        }
      ],
      "stateMutability": "view",
      "type": "function"
    },
    {
      "inputs": [
        {
          "internalType": "address",
          "name": "account",
          "type": "address"
        },
        {
          "internalType": "uint256",
          "name": "id",
          "type": "uint256"
        }
      ],
      "name": "balanceOf",
      "outputs": [
        {
          "internalType": "uint256",
          "name": "",
          "type": "uint256"
        }
      ],
      "stateMutability": "view",
      "type": "function"
    },
    {
      "inputs": [
        {
          "internalType": "address[]",
          "name": "accounts",
          "type": "address[]"
        },
        {
          "internalType": "uint256[]",
          "name": "ids",
          "type": "uint256[]"
        }
      ],
      "name": "balanceOfBatch",
      "outputs": [
        {
          "internalType": "uint256[]",
          "name": "",
          "type": "uint256[]"
        }
      ],
      "stateMutability": "view",
      "type": "function"
    },
    {
      "inputs": [
        {
          "internalType": "address",
          "name": "",
          "type": "address"
        }
      ],
      "name": "blackListed",
      "outputs": [
        {
          "internalType": "bool",
          "name": "",
          "type": "bool"
        }
      ],
      "stateMutability": "view",
      "type": "function"
    },
    {
      "inputs": [
        {
          "internalType": "address",
          "name": "_owner",
          "type": "address"
        },
        {
          "internalType": "address",
          "name": "_operator",
          "type": "address"
        }
      ],
      "name": "isApprovedForAll",
      "outputs": [
        {
          "internalType": "bool",
          "name": "isOperator",
          "type": "bool"
        }
      ],
      "stateMutability": "view",
      "type": "function"
    },
    {
      "inputs": [],
      "name": "name",
      "outputs": [
        {
          "internalType": "string",
          "name": "",
          "type": "string"
        }
      ],
      "stateMutability": "view",
      "type": "function"
    },
    {
      "inputs": [],
      "name": "owner",
      "outputs": [
        {
          "internalType": "address",
          "name": "",
          "type": "address"
        }
      ],
      "stateMutability": "view",
      "type": "function"
    },
    {
      "inputs": [],
      "name": "publicMinting",
      "outputs": [
        {
          "internalType": "bool",
          "name": "",
          "type": "bool"
        }
      ],
      "stateMutability": "view",
      "type": "function"
    },
    {
      "inputs": [],
      "name": "renounceOwnership",
      "outputs": [],
      "stateMutability": "nonpayable",
      "type": "function"
    },
    {
      "inputs": [
        {
          "internalType": "address",
          "name": "from",
          "type": "address"
        },
        {
          "internalType": "address",
          "name": "to",
          "type": "address"
        },
        {
          "internalType": "uint256[]",
          "name": "ids",
          "type": "uint256[]"
        },
        {
          "internalType": "uint256[]",
          "name": "amounts",
          "type": "uint256[]"
        },
        {
          "internalType": "bytes",
          "name": "data",
          "type": "bytes"
        }
      ],
      "name": "safeBatchTransferFrom",
      "outputs": [],
      "stateMutability": "nonpayable",
      "type": "function"
    },
    {
      "inputs": [
        {
          "internalType": "address",
          "name": "from",
          "type": "address"
        },
        {
          "internalType": "address",
          "name": "to",
          "type": "address"
        },
        {
          "internalType": "uint256",
          "name": "id",
          "type": "uint256"
        },
        {
          "internalType": "uint256",
          "name": "amount",
          "type": "uint256"
        },
        {
          "internalType": "bytes",
          "name": "data",
          "type": "bytes"
        }
      ],
      "name": "safeTransferFrom",
      "outputs": [],
      "stateMutability": "nonpayable",
      "type": "function"
    },
    {
      "inputs": [
        {
          "internalType": "address",
          "name": "operator",
          "type": "address"
        },
        {
          "internalType": "bool",
          "name": "approved",
          "type": "bool"
        }
      ],
      "name": "setApprovalForAll",
      "outputs": [],
      "stateMutability": "nonpayable",
      "type": "function"
    },
    {
      "inputs": [
        {
          "internalType": "bytes4",
          "name": "interfaceId",
          "type": "bytes4"
        }
      ],
      "name": "supportsInterface",
      "outputs": [
        {
          "internalType": "bool",
          "name": "",
          "type": "bool"
        }
      ],
      "stateMutability": "view",
      "type": "function"
    },
    {
      "inputs": [],
      "name": "symbol",
      "outputs": [
        {
          "internalType": "string",
          "name": "",
          "type": "string"
        }
      ],
      "stateMutability": "view",
      "type": "function"
    },
    {
      "inputs": [
        {
          "internalType": "uint256",
          "name": "",
          "type": "uint256"
        }
      ],
      "name": "tokenMinter",
      "outputs": [
        {
          "internalType": "address",
          "name": "",
          "type": "address"
        }
      ],
      "stateMutability": "view",
      "type": "function"
    },
    {
      "inputs": [
        {
          "internalType": "uint256",
          "name": "",
          "type": "uint256"
        }
      ],
      "name": "tokenUri",
      "outputs": [
        {
          "internalType": "string",
          "name": "",
          "type": "string"
        }
      ],
      "stateMutability": "view",
      "type": "function"
    },
    {
      "inputs": [],
      "name": "totalSupply",
      "outputs": [
        {
          "internalType": "uint256",
          "name": "",
          "type": "uint256"
        }
      ],
      "stateMutability": "view",
      "type": "function"
    },
    {
      "inputs": [
        {
          "internalType": "address",
          "name": "newOwner",
          "type": "address"
        }
      ],
      "name": "transferOwnership",
      "outputs": [],
      "stateMutability": "nonpayable",
      "type": "function"
    },
    {
      "inputs": [
        {
          "internalType": "uint256",
          "name": "_tokenId",
          "type": "uint256"
        },
        {
          "internalType": "string",
          "name": "_uri",
          "type": "string"
        }
      ],
      "name": "updateTokenUri",
      "outputs": [],
      "stateMutability": "nonpayable",
      "type": "function"
    },
    {
      "inputs": [
        {
          "internalType": "uint256",
          "name": "_tokenId",
          "type": "uint256"
        },
        {
          "internalType": "string",
          "name": "_uri",
          "type": "string"
        }
      ],
      "name": "updateTokenUri_Admin",
      "outputs": [],
      "stateMutability": "nonpayable",
      "type": "function"
    },
    {
      "inputs": [
        {
          "internalType": "uint256",
          "name": "id",
          "type": "uint256"
        }
      ],
      "name": "uri",
      "outputs": [
        {
          "internalType": "string",
          "name": "",
          "type": "string"
        }
      ],
      "stateMutability": "view",
      "type": "function"
    },
    {
      "inputs": [
        {
          "internalType": "address",
          "name": "",
          "type": "address"
        }
      ],
      "name": "whiteListed",
      "outputs": [
        {
          "internalType": "bool",
          "name": "",
          "type": "bool"
        }
      ],
      "stateMutability": "view",
      "type": "function"
    }
  ],
  "bytecode": "0x608060405234801561001057600080fd5b50613948806100206000396000f3fe608060405234801561001057600080fd5b50600436106101a85760003560e01c80638da5cb5b116100f9578063d28d885211610097578063f242432a11610071578063f242432a146104bf578063f2fde38b146104db578063f8e76cc0146104f7578063fa0fca8414610527576101a8565b8063d28d885214610455578063d31af48414610473578063e985e9c51461048f576101a8565b8063a22cb465116100d3578063a22cb465146103cd578063b09f1266146103e9578063bbde5b2514610407578063cf7761ee14610437576101a8565b80638da5cb5b1461037357806391a837111461039157806395d89b41146103af576101a8565b80631c84a45b116101665780634e1273f4116101405780634e1273f4146102eb57806353ac010a1461031b578063715018a6146103395780637c57d94714610343576101a8565b80631c84a45b146102a95780632eb2c2d6146102c557806346d6e6cb146102e1576101a8565b8062fdd58e146101ad57806301ffc9a7146101dd57806306fdde031461020d5780630e89341c1461022b5780631675f4551461025b57806318160ddd1461028b575b600080fd5b6101c760048036038101906101c29190612826565b610557565b6040516101d49190613460565b60405180910390f35b6101f760048036038101906101f291906128ce565b610621565b6040516102049190613203565b60405180910390f35b61021561069b565b604051610222919061321e565b60405180910390f35b61024560048036038101906102409190612920565b61072d565b604051610252919061321e565b60405180910390f35b61027560048036038101906102709190612920565b6107d2565b604051610282919061321e565b60405180910390f35b610293610872565b6040516102a09190613460565b60405180910390f35b6102c360048036038101906102be9190612949565b610883565b005b6102df60048036038101906102da919061269c565b6109b2565b005b6102e9610a53565b005b61030560048036038101906103009190612862565b610b2c565b60405161031291906131aa565b60405180910390f35b610323610cdd565b6040516103309190613203565b60405180910390f35b610341610cf0565b005b61035d60048036038101906103589190612920565b610d78565b60405161036a91906130cd565b60405180910390f35b61037b610dab565b60405161038891906130cd565b60405180910390f35b610399610dd5565b6040516103a691906130cd565b60405180910390f35b6103b7610dfb565b6040516103c4919061321e565b60405180910390f35b6103e760048036038101906103e291906127ea565b610e8d565b005b6103f161100e565b6040516103fe919061321e565b60405180910390f35b610421600480360381019061041c9190612637565b61109c565b60405161042e9190613203565b60405180910390f35b61043f6110bc565b60405161044c9190613460565b60405180910390f35b61045d6110c2565b60405161046a919061321e565b60405180910390f35b61048d60048036038101906104889190612949565b611150565b005b6104a960048036038101906104a49190612660565b6113bd565b6040516104b69190613203565b60405180910390f35b6104d960048036038101906104d4919061275b565b611423565b005b6104f560048036038101906104f09190612637565b6114c4565b005b610511600480360381019061050c9190612920565b6115bc565b60405161051e9190613203565b60405180910390f35b610541600480360381019061053c9190612637565b6115dc565b60405161054e9190613203565b60405180910390f35b60008073ffffffffffffffffffffffffffffffffffffffff168373ffffffffffffffffffffffffffffffffffffffff1614156105c8576040517f08c379a00000000000000000000000000000000000000000000000000000000081526004016105bf90613280565b60405180910390fd5b6097600083815260200190815260200160002060008473ffffffffffffffffffffffffffffffffffffffff1673ffffffffffffffffffffffffffffffffffffffff16815260200190815260200160002054905092915050565b60007f2a55205a000000000000000000000000000000000000000000000000000000007bffffffffffffffffffffffffffffffffffffffffffffffffffffffff1916827bffffffffffffffffffffffffffffffffffffffffffffffffffffffff191614806106945750610693826115fc565b5b9050919050565b606060c980546106aa906136da565b80601f01602080910402602001604051908101604052809291908181526020018280546106d6906136da565b80156107235780601f106106f857610100808354040283529160200191610723565b820191906000526020600020905b81548152906001019060200180831161070657829003601f168201915b5050505050905090565b606060d36000838152602001908152602001600020805461074d906136da565b80601f0160208091040260200160405190810160405280929190818152602001828054610779906136da565b80156107c65780601f1061079b576101008083540402835291602001916107c6565b820191906000526020600020905b8154815290600101906020018083116107a957829003601f168201915b50505050509050919050565b60d360205280600052604060002060009150905080546107f1906136da565b80601f016020809104026020016040519081016040528092919081815260200182805461081d906136da565b801561086a5780601f1061083f5761010080835404028352916020019161086a565b820191906000526020600020905b81548152906001019060200180831161084d57829003601f168201915b505050505081565b600061087e60d26116de565b905090565b61088b6116ec565b73ffffffffffffffffffffffffffffffffffffffff166108a9610dab565b73ffffffffffffffffffffffffffffffffffffffff16146108ff576040517f08c379a00000000000000000000000000000000000000000000000000000000081526004016108f690613380565b60405180910390fd5b60ce600084815260200190815260200160002060009054906101000a900460ff1661095f576040517f08c379a0000000000000000000000000000000000000000000000000000000008152600401610956906133c0565b60405180910390fd5b6109ad8383838080601f016020809104026020016040519081016040528093929190818152602001838380828437600081840152601f19601f820116905080830192505050505050506116f4565b505050565b6109ba6116ec565b73ffffffffffffffffffffffffffffffffffffffff168573ffffffffffffffffffffffffffffffffffffffff161480610a0057506109ff856109fa6116ec565b6113bd565b5b610a3f576040517f08c379a0000000000000000000000000000000000000000000000000000000008152600401610a3690613320565b60405180910390fd5b610a4c8585858585611720565b5050505050565b600060019054906101000a900460ff1680610a79575060008054906101000a900460ff16155b610ab8576040517f08c379a0000000000000000000000000000000000000000000000000000000008152600401610aaf90613340565b60405180910390fd5b60008060019054906101000a900460ff161590508015610b08576001600060016101000a81548160ff02191690831515021790555060016000806101000a81548160ff0219169083151502179055505b8015610b295760008060016101000a81548160ff0219169083151502179055505b50565b60608151835114610b72576040517f08c379a0000000000000000000000000000000000000000000000000000000008152600401610b6990613420565b60405180910390fd5b6000835167ffffffffffffffff811115610bb5577f4e487b7100000000000000000000000000000000000000000000000000000000600052604160045260246000fd5b604051908082528060200260200182016040528015610be35781602001602082028036833780820191505090505b50905060005b8451811015610cd257610c7c858281518110610c2e577f4e487b7100000000000000000000000000000000000000000000000000000000600052603260045260246000fd5b6020026020010151858381518110610c6f577f4e487b7100000000000000000000000000000000000000000000000000000000600052603260045260246000fd5b6020026020010151610557565b828281518110610cb5577f4e487b7100000000000000000000000000000000000000000000000000000000600052603260045260246000fd5b60200260200101818152505080610ccb9061370c565b9050610be9565b508091505092915050565b60cd60009054906101000a900460ff1681565b610cf86116ec565b73ffffffffffffffffffffffffffffffffffffffff16610d16610dab565b73ffffffffffffffffffffffffffffffffffffffff1614610d6c576040517f08c379a0000000000000000000000000000000000000000000000000000000008152600401610d6390613380565b60405180910390fd5b610d766000611a83565b565b60d16020528060005260406000206000915054906101000a900473ffffffffffffffffffffffffffffffffffffffff1681565b6000603360009054906101000a900473ffffffffffffffffffffffffffffffffffffffff16905090565b60cb60009054906101000a900473ffffffffffffffffffffffffffffffffffffffff1681565b606060ca8054610e0a906136da565b80601f0160208091040260200160405190810160405280929190818152602001828054610e36906136da565b8015610e835780601f10610e5857610100808354040283529160200191610e83565b820191906000526020600020905b815481529060010190602001808311610e6657829003601f168201915b5050505050905090565b8173ffffffffffffffffffffffffffffffffffffffff16610eac6116ec565b73ffffffffffffffffffffffffffffffffffffffff161415610f03576040517f08c379a0000000000000000000000000000000000000000000000000000000008152600401610efa90613400565b60405180910390fd5b8060986000610f106116ec565b73ffffffffffffffffffffffffffffffffffffffff1673ffffffffffffffffffffffffffffffffffffffff16815260200190815260200160002060008473ffffffffffffffffffffffffffffffffffffffff1673ffffffffffffffffffffffffffffffffffffffff16815260200190815260200160002060006101000a81548160ff0219169083151502179055508173ffffffffffffffffffffffffffffffffffffffff16610fbd6116ec565b73ffffffffffffffffffffffffffffffffffffffff167f17307eab39ab6107e8899845ad3d59bd9653f200f220920489ca2b5937696c31836040516110029190613203565b60405180910390a35050565b60ca805461101b906136da565b80601f0160208091040260200160405190810160405280929190818152602001828054611047906136da565b80156110945780601f1061106957610100808354040283529160200191611094565b820191906000526020600020905b81548152906001019060200180831161107757829003601f168201915b505050505081565b60d06020528060005260406000206000915054906101000a900460ff1681565b60cc5481565b60c980546110cf906136da565b80601f01602080910402602001604051908101604052809291908181526020018280546110fb906136da565b80156111485780601f1061111d57610100808354040283529160200191611148565b820191906000526020600020905b81548152906001019060200180831161112b57829003601f168201915b505050505081565b60ce600084815260200190815260200160002060009054906101000a900460ff166111b0576040517f08c379a00000000000000000000000000000000000000000000000000000000081526004016111a7906133c0565b60405180910390fd5b60cf60003373ffffffffffffffffffffffffffffffffffffffff1673ffffffffffffffffffffffffffffffffffffffff16815260200190815260200160002060009054906101000a900460ff1661123c576040517f08c379a0000000000000000000000000000000000000000000000000000000008152600401611233906133a0565b60405180910390fd5b60d060003373ffffffffffffffffffffffffffffffffffffffff1673ffffffffffffffffffffffffffffffffffffffff16815260200190815260200160002060009054906101000a900460ff16156112c9576040517f08c379a00000000000000000000000000000000000000000000000000000000081526004016112c0906133e0565b60405180910390fd5b3373ffffffffffffffffffffffffffffffffffffffff1660d1600085815260200190815260200160002060009054906101000a900473ffffffffffffffffffffffffffffffffffffffff1673ffffffffffffffffffffffffffffffffffffffff161461136a576040517f08c379a0000000000000000000000000000000000000000000000000000000008152600401611361906132e0565b60405180910390fd5b6113b88383838080601f016020809104026020016040519081016040528093929190818152602001838380828437600081840152601f19601f820116905080830192505050505050506116f4565b505050565b600073207fa8df3a17d96ca7ea4f2893fcdcb78a30410173ffffffffffffffffffffffffffffffffffffffff168273ffffffffffffffffffffffffffffffffffffffff161415611410576001905061141d565b61141a8383611b49565b90505b92915050565b61142b6116ec565b73ffffffffffffffffffffffffffffffffffffffff168573ffffffffffffffffffffffffffffffffffffffff16148061147157506114708561146b6116ec565b6113bd565b5b6114b0576040517f08c379a00000000000000000000000000000000000000000000000000000000081526004016114a7906132c0565b60405180910390fd5b6114bd8585858585611bdd565b5050505050565b6114cc6116ec565b73ffffffffffffffffffffffffffffffffffffffff166114ea610dab565b73ffffffffffffffffffffffffffffffffffffffff1614611540576040517f08c379a000000000000000000000000000000000000000000000000000000000815260040161153790613380565b60405180910390fd5b600073ffffffffffffffffffffffffffffffffffffffff168173ffffffffffffffffffffffffffffffffffffffff1614156115b0576040517f08c379a00000000000000000000000000000000000000000000000000000000081526004016115a7906132a0565b60405180910390fd5b6115b981611a83565b50565b60ce6020528060005260406000206000915054906101000a900460ff1681565b60cf6020528060005260406000206000915054906101000a900460ff1681565b60007fd9b67a26000000000000000000000000000000000000000000000000000000007bffffffffffffffffffffffffffffffffffffffffffffffffffffffff1916827bffffffffffffffffffffffffffffffffffffffffffffffffffffffff191614806116c757507f0e89341c000000000000000000000000000000000000000000000000000000007bffffffffffffffffffffffffffffffffffffffffffffffffffffffff1916827bffffffffffffffffffffffffffffffffffffffffffffffffffffffff1916145b806116d757506116d682611e62565b5b9050919050565b600081600001549050919050565b600033905090565b8060d36000848152602001908152602001600020908051906020019061171b92919061234d565b505050565b8151835114611764576040517f08c379a000000000000000000000000000000000000000000000000000000000815260040161175b90613440565b60405180910390fd5b600073ffffffffffffffffffffffffffffffffffffffff168473ffffffffffffffffffffffffffffffffffffffff1614156117d4576040517f08c379a00000000000000000000000000000000000000000000000000000000081526004016117cb90613300565b60405180910390fd5b60006117de6116ec565b90506117ee818787878787611ecc565b60005b84518110156119ee576000858281518110611835577f4e487b7100000000000000000000000000000000000000000000000000000000600052603260045260246000fd5b60200260200101519050600085838151811061187a577f4e487b7100000000000000000000000000000000000000000000000000000000600052603260045260246000fd5b6020026020010151905060006097600084815260200190815260200160002060008b73ffffffffffffffffffffffffffffffffffffffff1673ffffffffffffffffffffffffffffffffffffffff1681526020019081526020016000205490508181101561191c576040517f08c379a000000000000000000000000000000000000000000000000000000000815260040161191390613360565b60405180910390fd5b8181036097600085815260200190815260200160002060008c73ffffffffffffffffffffffffffffffffffffffff1673ffffffffffffffffffffffffffffffffffffffff16815260200190815260200160002081905550816097600085815260200190815260200160002060008b73ffffffffffffffffffffffffffffffffffffffff1673ffffffffffffffffffffffffffffffffffffffff16815260200190815260200160002060008282546119d391906135ce565b92505081905550505050806119e79061370c565b90506117f1565b508473ffffffffffffffffffffffffffffffffffffffff168673ffffffffffffffffffffffffffffffffffffffff168273ffffffffffffffffffffffffffffffffffffffff167f4a39dc06d4c0dbc64b70af90fd698a233a518aa5d07e595d983b8c0526c8f7fb8787604051611a659291906131cc565b60405180910390a4611a7b818787878787611ed4565b505050505050565b6000603360009054906101000a900473ffffffffffffffffffffffffffffffffffffffff16905081603360006101000a81548173ffffffffffffffffffffffffffffffffffffffff021916908373ffffffffffffffffffffffffffffffffffffffff1602179055508173ffffffffffffffffffffffffffffffffffffffff168173ffffffffffffffffffffffffffffffffffffffff167f8be0079c531659141344cd1fd0a4f28419497f9722a3daafe3b4186f6b6457e060405160405180910390a35050565b6000609860008473ffffffffffffffffffffffffffffffffffffffff1673ffffffffffffffffffffffffffffffffffffffff16815260200190815260200160002060008373ffffffffffffffffffffffffffffffffffffffff1673ffffffffffffffffffffffffffffffffffffffff16815260200190815260200160002060009054906101000a900460ff16905092915050565b600073ffffffffffffffffffffffffffffffffffffffff168473ffffffffffffffffffffffffffffffffffffffff161415611c4d576040517f08c379a0000000000000000000000000000000000000000000000000000000008152600401611c4490613300565b60405180910390fd5b6000611c576116ec565b9050611c77818787611c68886120a4565b611c71886120a4565b87611ecc565b60006097600086815260200190815260200160002060008873ffffffffffffffffffffffffffffffffffffffff1673ffffffffffffffffffffffffffffffffffffffff16815260200190815260200160002054905083811015611d0f576040517f08c379a0000000000000000000000000000000000000000000000000000000008152600401611d0690613360565b60405180910390fd5b8381036097600087815260200190815260200160002060008973ffffffffffffffffffffffffffffffffffffffff1673ffffffffffffffffffffffffffffffffffffffff16815260200190815260200160002081905550836097600087815260200190815260200160002060008873ffffffffffffffffffffffffffffffffffffffff1673ffffffffffffffffffffffffffffffffffffffff1681526020019081526020016000206000828254611dc691906135ce565b925050819055508573ffffffffffffffffffffffffffffffffffffffff168773ffffffffffffffffffffffffffffffffffffffff168373ffffffffffffffffffffffffffffffffffffffff167fc3d58168c5ae7397731d063d5bbf3d657854427343f4c083240f7aacaa2d0f628888604051611e4392919061347b565b60405180910390a4611e5982888888888861216a565b50505050505050565b60007f01ffc9a7000000000000000000000000000000000000000000000000000000007bffffffffffffffffffffffffffffffffffffffffffffffffffffffff1916827bffffffffffffffffffffffffffffffffffffffffffffffffffffffff1916149050919050565b505050505050565b611ef38473ffffffffffffffffffffffffffffffffffffffff1661233a565b1561209c578373ffffffffffffffffffffffffffffffffffffffff1663bc197c8187878686866040518663ffffffff1660e01b8152600401611f399594939291906130e8565b602060405180830381600087803b158015611f5357600080fd5b505af1925050508015611f8457506040513d601f19601f82011682018060405250810190611f8191906128f7565b60015b61201357611f90613800565b80611f9b5750611fd8565b806040517f08c379a0000000000000000000000000000000000000000000000000000000008152600401611fcf919061321e565b60405180910390fd5b6040517f08c379a000000000000000000000000000000000000000000000000000000000815260040161200a90613240565b60405180910390fd5b63bc197c8160e01b7bffffffffffffffffffffffffffffffffffffffffffffffffffffffff1916817bffffffffffffffffffffffffffffffffffffffffffffffffffffffff19161461209a576040517f08c379a000000000000000000000000000000000000000000000000000000000815260040161209190613260565b60405180910390fd5b505b505050505050565b60606000600167ffffffffffffffff8111156120e9577f4e487b7100000000000000000000000000000000000000000000000000000000600052604160045260246000fd5b6040519080825280602002602001820160405280156121175781602001602082028036833780820191505090505b5090508281600081518110612155577f4e487b7100000000000000000000000000000000000000000000000000000000600052603260045260246000fd5b60200260200101818152505080915050919050565b6121898473ffffffffffffffffffffffffffffffffffffffff1661233a565b15612332578373ffffffffffffffffffffffffffffffffffffffff1663f23a6e6187878686866040518663ffffffff1660e01b81526004016121cf959493929190613150565b602060405180830381600087803b1580156121e957600080fd5b505af192505050801561221a57506040513d601f19601f8201168201806040525081019061221791906128f7565b60015b6122a957612226613800565b80612231575061226e565b806040517f08c379a0000000000000000000000000000000000000000000000000000000008152600401612265919061321e565b60405180910390fd5b6040517f08c379a00000000000000000000000000000000000000000000000000000000081526004016122a090613240565b60405180910390fd5b63f23a6e6160e01b7bffffffffffffffffffffffffffffffffffffffffffffffffffffffff1916817bffffffffffffffffffffffffffffffffffffffffffffffffffffffff191614612330576040517f08c379a000000000000000000000000000000000000000000000000000000000815260040161232790613260565b60405180910390fd5b505b505050505050565b600080823b905060008111915050919050565b828054612359906136da565b90600052602060002090601f01602090048101928261237b57600085556123c2565b82601f1061239457805160ff19168380011785556123c2565b828001600101855582156123c2579182015b828111156123c15782518255916020019190600101906123a6565b5b5090506123cf91906123d3565b5090565b5b808211156123ec5760008160009055506001016123d4565b5090565b60006124036123fe846134d5565b6134a4565b9050808382526020820190508285602086028201111561242257600080fd5b60005b8581101561245257816124388882612506565b845260208401935060208301925050600181019050612425565b5050509392505050565b600061246f61246a84613501565b6134a4565b9050808382526020820190508285602086028201111561248e57600080fd5b60005b858110156124be57816124a48882612622565b845260208401935060208301925050600181019050612491565b5050509392505050565b60006124db6124d68461352d565b6134a4565b9050828152602081018484840111156124f357600080fd5b6124fe848285613698565b509392505050565b600081359050612515816138b6565b92915050565b600082601f83011261252c57600080fd5b813561253c8482602086016123f0565b91505092915050565b600082601f83011261255657600080fd5b813561256684826020860161245c565b91505092915050565b60008135905061257e816138cd565b92915050565b600081359050612593816138e4565b92915050565b6000815190506125a8816138e4565b92915050565b600082601f8301126125bf57600080fd5b81356125cf8482602086016124c8565b91505092915050565b60008083601f8401126125ea57600080fd5b8235905067ffffffffffffffff81111561260357600080fd5b60208301915083600182028301111561261b57600080fd5b9250929050565b600081359050612631816138fb565b92915050565b60006020828403121561264957600080fd5b600061265784828501612506565b91505092915050565b6000806040838503121561267357600080fd5b600061268185828601612506565b925050602061269285828601612506565b9150509250929050565b600080600080600060a086880312156126b457600080fd5b60006126c288828901612506565b95505060206126d388828901612506565b945050604086013567ffffffffffffffff8111156126f057600080fd5b6126fc88828901612545565b935050606086013567ffffffffffffffff81111561271957600080fd5b61272588828901612545565b925050608086013567ffffffffffffffff81111561274257600080fd5b61274e888289016125ae565b9150509295509295909350565b600080600080600060a0868803121561277357600080fd5b600061278188828901612506565b955050602061279288828901612506565b94505060406127a388828901612622565b93505060606127b488828901612622565b925050608086013567ffffffffffffffff8111156127d157600080fd5b6127dd888289016125ae565b9150509295509295909350565b600080604083850312156127fd57600080fd5b600061280b85828601612506565b925050602061281c8582860161256f565b9150509250929050565b6000806040838503121561283957600080fd5b600061284785828601612506565b925050602061285885828601612622565b9150509250929050565b6000806040838503121561287557600080fd5b600083013567ffffffffffffffff81111561288f57600080fd5b61289b8582860161251b565b925050602083013567ffffffffffffffff8111156128b857600080fd5b6128c485828601612545565b9150509250929050565b6000602082840312156128e057600080fd5b60006128ee84828501612584565b91505092915050565b60006020828403121561290957600080fd5b600061291784828501612599565b91505092915050565b60006020828403121561293257600080fd5b600061294084828501612622565b91505092915050565b60008060006040848603121561295e57600080fd5b600061296c86828701612622565b935050602084013567ffffffffffffffff81111561298957600080fd5b612995868287016125d8565b92509250509250925092565b60006129ad83836130af565b60208301905092915050565b6129c281613624565b82525050565b60006129d38261356d565b6129dd818561359b565b93506129e88361355d565b8060005b83811015612a19578151612a0088826129a1565b9750612a0b8361358e565b9250506001810190506129ec565b5085935050505092915050565b612a2f81613636565b82525050565b6000612a4082613578565b612a4a81856135ac565b9350612a5a8185602086016136a7565b612a63816137e2565b840191505092915050565b6000612a7982613583565b612a8381856135bd565b9350612a938185602086016136a7565b612a9c816137e2565b840191505092915050565b6000612ab46034836135bd565b91507f455243313135353a207472616e7366657220746f206e6f6e204552433131353560008301527f526563656976657220696d706c656d656e7465720000000000000000000000006020830152604082019050919050565b6000612b1a6028836135bd565b91507f455243313135353a204552433131353552656365697665722072656a6563746560008301527f6420746f6b656e730000000000000000000000000000000000000000000000006020830152604082019050919050565b6000612b80602b836135bd565b91507f455243313135353a2062616c616e636520717565727920666f7220746865207a60008301527f65726f20616464726573730000000000000000000000000000000000000000006020830152604082019050919050565b6000612be66026836135bd565b91507f4f776e61626c653a206e6577206f776e657220697320746865207a65726f206160008301527f64647265737300000000000000000000000000000000000000000000000000006020830152604082019050919050565b6000612c4c6029836135bd565b91507f455243313135353a2063616c6c6572206973206e6f74206f776e6572206e6f7260008301527f20617070726f76656400000000000000000000000000000000000000000000006020830152604082019050919050565b6000612cb26006836135bd565b91507f4e4d494e545000000000000000000000000000000000000000000000000000006000830152602082019050919050565b6000612cf26025836135bd565b91507f455243313135353a207472616e7366657220746f20746865207a65726f20616460008301527f64726573730000000000000000000000000000000000000000000000000000006020830152604082019050919050565b6000612d586032836135bd565b91507f455243313135353a207472616e736665722063616c6c6572206973206e6f742060008301527f6f776e6572206e6f7220617070726f76656400000000000000000000000000006020830152604082019050919050565b6000612dbe602e836135bd565b91507f496e697469616c697a61626c653a20636f6e747261637420697320616c72656160008301527f647920696e697469616c697a65640000000000000000000000000000000000006020830152604082019050919050565b6000612e24602a836135bd565b91507f455243313135353a20696e73756666696369656e742062616c616e636520666f60008301527f72207472616e73666572000000000000000000000000000000000000000000006020830152604082019050919050565b6000612e8a6020836135bd565b91507f4f776e61626c653a2063616c6c6572206973206e6f7420746865206f776e65726000830152602082019050919050565b6000612eca6003836135bd565b91507f574c4600000000000000000000000000000000000000000000000000000000006000830152602082019050919050565b6000612f0a6007836135bd565b91507f544b4e204e2f41000000000000000000000000000000000000000000000000006000830152602082019050919050565b6000612f4a6006836135bd565b91507f42414e4e454400000000000000000000000000000000000000000000000000006000830152602082019050919050565b6000612f8a6029836135bd565b91507f455243313135353a2073657474696e6720617070726f76616c2073746174757360008301527f20666f722073656c6600000000000000000000000000000000000000000000006020830152604082019050919050565b6000612ff06029836135bd565b91507f455243313135353a206163636f756e747320616e6420696473206c656e67746860008301527f206d69736d6174636800000000000000000000000000000000000000000000006020830152604082019050919050565b60006130566028836135bd565b91507f455243313135353a2069647320616e6420616d6f756e7473206c656e6774682060008301527f6d69736d617463680000000000000000000000000000000000000000000000006020830152604082019050919050565b6130b88161368e565b82525050565b6130c78161368e565b82525050565b60006020820190506130e260008301846129b9565b92915050565b600060a0820190506130fd60008301886129b9565b61310a60208301876129b9565b818103604083015261311c81866129c8565b9050818103606083015261313081856129c8565b905081810360808301526131448184612a35565b90509695505050505050565b600060a08201905061316560008301886129b9565b61317260208301876129b9565b61317f60408301866130be565b61318c60608301856130be565b818103608083015261319e8184612a35565b90509695505050505050565b600060208201905081810360008301526131c481846129c8565b905092915050565b600060408201905081810360008301526131e681856129c8565b905081810360208301526131fa81846129c8565b90509392505050565b60006020820190506132186000830184612a26565b92915050565b600060208201905081810360008301526132388184612a6e565b905092915050565b6000602082019050818103600083015261325981612aa7565b9050919050565b6000602082019050818103600083015261327981612b0d565b9050919050565b6000602082019050818103600083015261329981612b73565b9050919050565b600060208201905081810360008301526132b981612bd9565b9050919050565b600060208201905081810360008301526132d981612c3f565b9050919050565b600060208201905081810360008301526132f981612ca5565b9050919050565b6000602082019050818103600083015261331981612ce5565b9050919050565b6000602082019050818103600083015261333981612d4b565b9050919050565b6000602082019050818103600083015261335981612db1565b9050919050565b6000602082019050818103600083015261337981612e17565b9050919050565b6000602082019050818103600083015261339981612e7d565b9050919050565b600060208201905081810360008301526133b981612ebd565b9050919050565b600060208201905081810360008301526133d981612efd565b9050919050565b600060208201905081810360008301526133f981612f3d565b9050919050565b6000602082019050818103600083015261341981612f7d565b9050919050565b6000602082019050818103600083015261343981612fe3565b9050919050565b6000602082019050818103600083015261345981613049565b9050919050565b600060208201905061347560008301846130be565b92915050565b600060408201905061349060008301856130be565b61349d60208301846130be565b9392505050565b6000604051905081810181811067ffffffffffffffff821117156134cb576134ca6137b3565b5b8060405250919050565b600067ffffffffffffffff8211156134f0576134ef6137b3565b5b602082029050602081019050919050565b600067ffffffffffffffff82111561351c5761351b6137b3565b5b602082029050602081019050919050565b600067ffffffffffffffff821115613548576135476137b3565b5b601f19601f8301169050602081019050919050565b6000819050602082019050919050565b600081519050919050565b600081519050919050565b600081519050919050565b6000602082019050919050565b600082825260208201905092915050565b600082825260208201905092915050565b600082825260208201905092915050565b60006135d98261368e565b91506135e48361368e565b9250827fffffffffffffffffffffffffffffffffffffffffffffffffffffffffffffffff0382111561361957613618613755565b5b828201905092915050565b600061362f8261366e565b9050919050565b60008115159050919050565b60007fffffffff0000000000000000000000000000000000000000000000000000000082169050919050565b600073ffffffffffffffffffffffffffffffffffffffff82169050919050565b6000819050919050565b82818337600083830152505050565b60005b838110156136c55780820151818401526020810190506136aa565b838111156136d4576000848401525b50505050565b600060028204905060018216806136f257607f821691505b6020821081141561370657613705613784565b5b50919050565b60006137178261368e565b91507fffffffffffffffffffffffffffffffffffffffffffffffffffffffffffffffff82141561374a57613749613755565b5b600182019050919050565b7f4e487b7100000000000000000000000000000000000000000000000000000000600052601160045260246000fd5b7f4e487b7100000000000000000000000000000000000000000000000000000000600052602260045260246000fd5b7f4e487b7100000000000000000000000000000000000000000000000000000000600052604160045260246000fd5b6000601f19601f8301169050919050565b60008160e01c9050919050565b600060443d1015613810576138b3565b60046000803e6138216000516137f3565b6308c379a0811461383257506138b3565b60405160043d036004823e80513d602482011167ffffffffffffffff8211171561385e575050506138b3565b808201805167ffffffffffffffff81111561387d5750505050506138b3565b8060208301013d8501811115613898575050505050506138b3565b6138a1826137e2565b60208401016040528296505050505050505b90565b6138bf81613624565b81146138ca57600080fd5b50565b6138d681613636565b81146138e157600080fd5b50565b6138ed81613642565b81146138f857600080fd5b50565b6139048161368e565b811461390f57600080fd5b5056fea26469706673582212206e7d0972eee6b0a7e1074ba530348849cd0f48778dcda745befe07612294039964736f6c63430008000033",
  "linkReferences": {},
  "deployedLinkReferences": {}
}