{
  "_format": "hh-sol-artifact-1",
  "contractName": "Supply",
  "sourceName": "contracts/Supply.sol",
  "abi": [
    {
      "anonymous": false,
      "inputs": [
        {
          "indexed": true,
          "internalType": "address",
          "name": "previousOwner",
          "type": "address"
        },
        {
          "indexed": true,
          "internalType": "address",
          "name": "newOwner",
          "type": "address"
        }
      ],
      "name": "OwnershipTransferred",
      "type": "event"
    },
    {
      "inputs": [
        {
          "internalType": "uint256",
          "name": "",
          "type": "uint256"
        }
      ],
      "name": "_exists",
      "outputs": [
        {
          "internalType": "bool",
          "name": "",
          "type": "bool"
        }
      ],
      "stateMutability": "view",
      "type": "function"
    },
    {
      "inputs": [],
      "name": "_name",
      "outputs": [
        {
          "internalType": "string",
          "name": "",
          "type": "string"
        }
      ],
      "stateMutability": "view",
      "type": "function"
    },
    {
      "inputs": [],
      "name": "_royaltiesPercentage",
      "outputs": [
        {
          "internalType": "uint256",
          "name": "",
          "type": "uint256"
        }
      ],
      "stateMutability": "view",
      "type": "function"
    },
    {
      "inputs": [],
      "name": "_royaltiesReceiver",
      "outputs": [
        {
          "internalType": "address",
          "name": "",
          "type": "address"
        }
      ],
      "stateMutability": "view",
      "type": "function"
    },
    {
      "inputs": [],
      "name": "_symbol",
      "outputs": [
        {
          "internalType": "string",
          "name": "",
          "type": "string"
        }
      ],
      "stateMutability": "view",
      "type": "function"
    },
    {
      "inputs": [
        {
          "internalType": "address",
          "name": "",
          "type": "address"
        }
      ],
      "name": "blackListed",
      "outputs": [
        {
          "internalType": "bool",
          "name": "",
          "type": "bool"
        }
      ],
      "stateMutability": "view",
      "type": "function"
    },
    {
      "inputs": [
        {
          "internalType": "uint256",
          "name": "",
          "type": "uint256"
        }
      ],
      "name": "fixedSupplyStatus",
      "outputs": [
        {
          "internalType": "bool",
          "name": "",
          "type": "bool"
        }
      ],
      "stateMutability": "view",
      "type": "function"
    },
    {
      "inputs": [],
      "name": "owner",
      "outputs": [
        {
          "internalType": "address",
          "name": "",
          "type": "address"
        }
      ],
      "stateMutability": "view",
      "type": "function"
    },
    {
      "inputs": [],
      "name": "publicMinting",
      "outputs": [
        {
          "internalType": "bool",
          "name": "",
          "type": "bool"
        }
      ],
      "stateMutability": "view",
      "type": "function"
    },
    {
      "inputs": [],
      "name": "renounceOwnership",
      "outputs": [],
      "stateMutability": "nonpayable",
      "type": "function"
    },
    {
      "inputs": [
        {
          "internalType": "uint256",
          "name": "_tokenId",
          "type": "uint256"
        }
      ],
      "name": "toggleSupplyFixedStatus",
      "outputs": [],
      "stateMutability": "nonpayable",
      "type": "function"
    },
    {
      "inputs": [
        {
          "internalType": "uint256",
          "name": "",
          "type": "uint256"
        }
      ],
      "name": "tokenMinter",
      "outputs": [
        {
          "internalType": "address",
          "name": "",
          "type": "address"
        }
      ],
      "stateMutability": "view",
      "type": "function"
    },
    {
      "inputs": [
        {
          "internalType": "address",
          "name": "newOwner",
          "type": "address"
        }
      ],
      "name": "transferOwnership",
      "outputs": [],
      "stateMutability": "nonpayable",
      "type": "function"
    },
    {
      "inputs": [
        {
          "internalType": "address",
          "name": "",
          "type": "address"
        }
      ],
      "name": "whiteListed",
      "outputs": [
        {
          "internalType": "bool",
          "name": "",
          "type": "bool"
        }
      ],
      "stateMutability": "view",
      "type": "function"
    }
  ],
  "bytecode": "0x608060405234801561001057600080fd5b50610e7f806100206000396000f3fe608060405234801561001057600080fd5b50600436106100ea5760003560e01c8063bbde5b251161008c578063d28d885211610066578063d28d88521461023b578063f2fde38b14610259578063f8e76cc014610275578063fa0fca84146102a5576100ea565b8063bbde5b25146101bd578063c102f016146101ed578063cf7761ee1461021d576100ea565b80638da5cb5b116100c85780638da5cb5b146101475780638dfa22b31461016557806391a8371114610181578063b09f12661461019f576100ea565b806353ac010a146100ef578063715018a61461010d5780637c57d94714610117575b600080fd5b6100f76102d5565b6040516101049190610c1a565b60405180910390f35b6101156102e8565b005b610131600480360381019061012c9190610a0a565b610370565b60405161013e9190610bff565b60405180910390f35b61014f6103a3565b60405161015c9190610bff565b60405180910390f35b61017f600480360381019061017a9190610a0a565b6103cd565b005b610189610570565b6040516101969190610bff565b60405180910390f35b6101a7610596565b6040516101b49190610c35565b60405180910390f35b6101d760048036038101906101d291906109e1565b610624565b6040516101e49190610c1a565b60405180910390f35b61020760048036038101906102029190610a0a565b610644565b6040516102149190610c1a565b60405180910390f35b610225610664565b6040516102329190610cf7565b60405180910390f35b61024361066a565b6040516102509190610c35565b60405180910390f35b610273600480360381019061026e91906109e1565b6106f8565b005b61028f600480360381019061028a9190610a0a565b6107f0565b60405161029c9190610c1a565b60405180910390f35b6102bf60048036038101906102ba91906109e1565b610810565b6040516102cc9190610c1a565b60405180910390f35b606960009054906101000a900460ff1681565b6102f0610830565b73ffffffffffffffffffffffffffffffffffffffff1661030e6103a3565b73ffffffffffffffffffffffffffffffffffffffff1614610364576040517f08c379a000000000000000000000000000000000000000000000000000000000815260040161035b90610c97565b60405180910390fd5b61036e6000610838565b565b606d6020528060005260406000206000915054906101000a900473ffffffffffffffffffffffffffffffffffffffff1681565b6000603360009054906101000a900473ffffffffffffffffffffffffffffffffffffffff16905090565b606a600082815260200190815260200160002060009054906101000a900460ff1661042d576040517f08c379a000000000000000000000000000000000000000000000000000000000815260040161042490610cd7565b60405180910390fd5b606b60003373ffffffffffffffffffffffffffffffffffffffff1673ffffffffffffffffffffffffffffffffffffffff16815260200190815260200160002060009054906101000a900460ff166104b9576040517f08c379a00000000000000000000000000000000000000000000000000000000081526004016104b090610cb7565b60405180910390fd5b3373ffffffffffffffffffffffffffffffffffffffff16606d600083815260200190815260200160002060009054906101000a900473ffffffffffffffffffffffffffffffffffffffff1673ffffffffffffffffffffffffffffffffffffffff161461055a576040517f08c379a000000000000000000000000000000000000000000000000000000000815260040161055190610c77565b60405180910390fd5b61056d81610567836108fe565b15610988565b50565b606760009054906101000a900473ffffffffffffffffffffffffffffffffffffffff1681565b606680546105a390610da9565b80601f01602080910402602001604051908101604052809291908181526020018280546105cf90610da9565b801561061c5780601f106105f15761010080835404028352916020019161061c565b820191906000526020600020905b8154815290600101906020018083116105ff57829003601f168201915b505050505081565b606c6020528060005260406000206000915054906101000a900460ff1681565b606e6020528060005260406000206000915054906101000a900460ff1681565b60685481565b6065805461067790610da9565b80601f01602080910402602001604051908101604052809291908181526020018280546106a390610da9565b80156106f05780601f106106c5576101008083540402835291602001916106f0565b820191906000526020600020905b8154815290600101906020018083116106d357829003601f168201915b505050505081565b610700610830565b73ffffffffffffffffffffffffffffffffffffffff1661071e6103a3565b73ffffffffffffffffffffffffffffffffffffffff1614610774576040517f08c379a000000000000000000000000000000000000000000000000000000000815260040161076b90610c97565b60405180910390fd5b600073ffffffffffffffffffffffffffffffffffffffff168173ffffffffffffffffffffffffffffffffffffffff1614156107e4576040517f08c379a00000000000000000000000000000000000000000000000000000000081526004016107db90610c57565b60405180910390fd5b6107ed81610838565b50565b606a6020528060005260406000206000915054906101000a900460ff1681565b606b6020528060005260406000206000915054906101000a900460ff1681565b600033905090565b6000603360009054906101000a900473ffffffffffffffffffffffffffffffffffffffff16905081603360006101000a81548173ffffffffffffffffffffffffffffffffffffffff021916908373ffffffffffffffffffffffffffffffffffffffff1602179055508173ffffffffffffffffffffffffffffffffffffffff168173ffffffffffffffffffffffffffffffffffffffff167f8be0079c531659141344cd1fd0a4f28419497f9722a3daafe3b4186f6b6457e060405160405180910390a35050565b6000606a600083815260200190815260200160002060009054906101000a900460ff16610960576040517f08c379a000000000000000000000000000000000000000000000000000000000815260040161095790610cd7565b60405180910390fd5b606e600083815260200190815260200160002060009054906101000a900460ff169050919050565b80606e600084815260200190815260200160002060006101000a81548160ff0219169083151502179055505050565b6000813590506109c681610e1b565b92915050565b6000813590506109db81610e32565b92915050565b6000602082840312156109f357600080fd5b6000610a01848285016109b7565b91505092915050565b600060208284031215610a1c57600080fd5b6000610a2a848285016109cc565b91505092915050565b610a3c81610d2e565b82525050565b610a4b81610d40565b82525050565b6000610a5c82610d12565b610a668185610d1d565b9350610a76818560208601610d76565b610a7f81610e0a565b840191505092915050565b6000610a97602683610d1d565b91507f4f776e61626c653a206e6577206f776e657220697320746865207a65726f206160008301527f64647265737300000000000000000000000000000000000000000000000000006020830152604082019050919050565b6000610afd600683610d1d565b91507f4e4d494e545000000000000000000000000000000000000000000000000000006000830152602082019050919050565b6000610b3d602083610d1d565b91507f4f776e61626c653a2063616c6c6572206973206e6f7420746865206f776e65726000830152602082019050919050565b6000610b7d600383610d1d565b91507f574c4600000000000000000000000000000000000000000000000000000000006000830152602082019050919050565b6000610bbd600783610d1d565b91507f544b4e204e2f41000000000000000000000000000000000000000000000000006000830152602082019050919050565b610bf981610d6c565b82525050565b6000602082019050610c146000830184610a33565b92915050565b6000602082019050610c2f6000830184610a42565b92915050565b60006020820190508181036000830152610c4f8184610a51565b905092915050565b60006020820190508181036000830152610c7081610a8a565b9050919050565b60006020820190508181036000830152610c9081610af0565b9050919050565b60006020820190508181036000830152610cb081610b30565b9050919050565b60006020820190508181036000830152610cd081610b70565b9050919050565b60006020820190508181036000830152610cf081610bb0565b9050919050565b6000602082019050610d0c6000830184610bf0565b92915050565b600081519050919050565b600082825260208201905092915050565b6000610d3982610d4c565b9050919050565b60008115159050919050565b600073ffffffffffffffffffffffffffffffffffffffff82169050919050565b6000819050919050565b60005b83811015610d94578082015181840152602081019050610d79565b83811115610da3576000848401525b50505050565b60006002820490506001821680610dc157607f821691505b60208210811415610dd557610dd4610ddb565b5b50919050565b7f4e487b7100000000000000000000000000000000000000000000000000000000600052602260045260246000fd5b6000601f19601f8301169050919050565b610e2481610d2e565b8114610e2f57600080fd5b50565b610e3b81610d6c565b8114610e4657600080fd5b5056fea2646970667358221220ed514cc20fb981cc1a6ee7ecfa5e7b13785cf315bdbf28bba18537f30ec28ade64736f6c63430008000033",
  "linkReferences": {},
  "deployedLinkReferences": {}
}