{
  "_format": "hh-sol-artifact-1",
  "contractName": "Supply",
  "sourceName": "contracts/Supply.sol",
  "abi": [
    {
      "anonymous": false,
      "inputs": [
        {
          "indexed": true,
          "internalType": "address",
          "name": "previousOwner",
          "type": "address"
        },
        {
          "indexed": true,
          "internalType": "address",
          "name": "newOwner",
          "type": "address"
        }
      ],
      "name": "OwnershipTransferred",
      "type": "event"
    },
    {
      "inputs": [],
      "name": "__Storage_initialize",
      "outputs": [],
      "stateMutability": "nonpayable",
      "type": "function"
    },
    {
      "inputs": [
        {
          "internalType": "uint256",
          "name": "",
          "type": "uint256"
        }
      ],
      "name": "_exists",
      "outputs": [
        {
          "internalType": "bool",
          "name": "",
          "type": "bool"
        }
      ],
      "stateMutability": "view",
      "type": "function"
    },
    {
      "inputs": [],
      "name": "_name",
      "outputs": [
        {
          "internalType": "string",
          "name": "",
          "type": "string"
        }
      ],
      "stateMutability": "view",
      "type": "function"
    },
    {
      "inputs": [],
      "name": "_royaltiesPercentage",
      "outputs": [
        {
          "internalType": "uint256",
          "name": "",
          "type": "uint256"
        }
      ],
      "stateMutability": "view",
      "type": "function"
    },
    {
      "inputs": [],
      "name": "_royaltiesReceiver",
      "outputs": [
        {
          "internalType": "address",
          "name": "",
          "type": "address"
        }
      ],
      "stateMutability": "view",
      "type": "function"
    },
    {
      "inputs": [],
      "name": "_symbol",
      "outputs": [
        {
          "internalType": "string",
          "name": "",
          "type": "string"
        }
      ],
      "stateMutability": "view",
      "type": "function"
    },
    {
      "inputs": [
        {
          "internalType": "address",
          "name": "",
          "type": "address"
        }
      ],
      "name": "blackListed",
      "outputs": [
        {
          "internalType": "bool",
          "name": "",
          "type": "bool"
        }
      ],
      "stateMutability": "view",
      "type": "function"
    },
    {
      "inputs": [
        {
          "internalType": "uint256",
          "name": "",
          "type": "uint256"
        }
      ],
      "name": "fixedSupplyStatus",
      "outputs": [
        {
          "internalType": "bool",
          "name": "",
          "type": "bool"
        }
      ],
      "stateMutability": "view",
      "type": "function"
    },
    {
      "inputs": [],
      "name": "owner",
      "outputs": [
        {
          "internalType": "address",
          "name": "",
          "type": "address"
        }
      ],
      "stateMutability": "view",
      "type": "function"
    },
    {
      "inputs": [],
      "name": "publicMinting",
      "outputs": [
        {
          "internalType": "bool",
          "name": "",
          "type": "bool"
        }
      ],
      "stateMutability": "view",
      "type": "function"
    },
    {
      "inputs": [],
      "name": "renounceOwnership",
      "outputs": [],
      "stateMutability": "nonpayable",
      "type": "function"
    },
    {
      "inputs": [
        {
          "internalType": "uint256",
          "name": "_tokenId",
          "type": "uint256"
        }
      ],
      "name": "toggleSupplyFixedStatus",
      "outputs": [],
      "stateMutability": "nonpayable",
      "type": "function"
    },
    {
      "inputs": [
        {
          "internalType": "uint256",
          "name": "_tokenId",
          "type": "uint256"
        }
      ],
      "name": "toggleSupplyFixedStatus_Admin",
      "outputs": [],
      "stateMutability": "nonpayable",
      "type": "function"
    },
    {
      "inputs": [
        {
          "internalType": "uint256",
          "name": "",
          "type": "uint256"
        }
      ],
      "name": "tokenMinter",
      "outputs": [
        {
          "internalType": "address",
          "name": "",
          "type": "address"
        }
      ],
      "stateMutability": "view",
      "type": "function"
    },
    {
      "inputs": [
        {
          "internalType": "address",
          "name": "newOwner",
          "type": "address"
        }
      ],
      "name": "transferOwnership",
      "outputs": [],
      "stateMutability": "nonpayable",
      "type": "function"
    },
    {
      "inputs": [
        {
          "internalType": "address",
          "name": "",
          "type": "address"
        }
      ],
      "name": "whiteListed",
      "outputs": [
        {
          "internalType": "bool",
          "name": "",
          "type": "bool"
        }
      ],
      "stateMutability": "view",
      "type": "function"
    }
  ],
  "bytecode": "0x608060405234801561001057600080fd5b5061110c806100206000396000f3fe608060405234801561001057600080fd5b50600436106101005760003560e01c8063b09f126611610097578063d28d885211610066578063d28d885214610277578063f2fde38b14610295578063f8e76cc0146102b1578063fa0fca84146102e157610100565b8063b09f1266146101db578063bbde5b25146101f9578063c102f01614610229578063cf7761ee1461025957610100565b80637c57d947116100d35780637c57d947146101535780638da5cb5b146101835780638dfa22b3146101a157806391a83711146101bd57610100565b806346d6e6cb1461010557806353ac010a1461010f5780636e1200171461012d578063715018a614610149575b600080fd5b61010d610311565b005b6101176103ea565b6040516101249190610e87565b60405180910390f35b61014760048036038101906101429190610c11565b6103fd565b005b6101516104ef565b005b61016d60048036038101906101689190610c11565b610577565b60405161017a9190610e6c565b60405180910390f35b61018b6105aa565b6040516101989190610e6c565b60405180910390f35b6101bb60048036038101906101b69190610c11565b6105d4565b005b6101c5610777565b6040516101d29190610e6c565b60405180910390f35b6101e361079d565b6040516101f09190610ea2565b60405180910390f35b610213600480360381019061020e9190610be8565b61082b565b6040516102209190610e87565b60405180910390f35b610243600480360381019061023e9190610c11565b61084b565b6040516102509190610e87565b60405180910390f35b61026161086b565b60405161026e9190610f84565b60405180910390f35b61027f610871565b60405161028c9190610ea2565b60405180910390f35b6102af60048036038101906102aa9190610be8565b6108ff565b005b6102cb60048036038101906102c69190610c11565b6109f7565b6040516102d89190610e87565b60405180910390f35b6102fb60048036038101906102f69190610be8565b610a17565b6040516103089190610e87565b60405180910390f35b600060019054906101000a900460ff1680610337575060008054906101000a900460ff16155b610376576040517f08c379a000000000000000000000000000000000000000000000000000000000815260040161036d90610f04565b60405180910390fd5b60008060019054906101000a900460ff1615905080156103c6576001600060016101000a81548160ff02191690831515021790555060016000806101000a81548160ff0219169083151502179055505b80156103e75760008060016101000a81548160ff0219169083151502179055505b50565b606960009054906101000a900460ff1681565b610405610a37565b73ffffffffffffffffffffffffffffffffffffffff166104236105aa565b73ffffffffffffffffffffffffffffffffffffffff1614610479576040517f08c379a000000000000000000000000000000000000000000000000000000000815260040161047090610f24565b60405180910390fd5b606a600082815260200190815260200160002060009054906101000a900460ff166104d9576040517f08c379a00000000000000000000000000000000000000000000000000000000081526004016104d090610f64565b60405180910390fd5b6104ec816104e683610a3f565b15610ac9565b50565b6104f7610a37565b73ffffffffffffffffffffffffffffffffffffffff166105156105aa565b73ffffffffffffffffffffffffffffffffffffffff161461056b576040517f08c379a000000000000000000000000000000000000000000000000000000000815260040161056290610f24565b60405180910390fd5b6105756000610af8565b565b606d6020528060005260406000206000915054906101000a900473ffffffffffffffffffffffffffffffffffffffff1681565b6000603360009054906101000a900473ffffffffffffffffffffffffffffffffffffffff16905090565b606a600082815260200190815260200160002060009054906101000a900460ff16610634576040517f08c379a000000000000000000000000000000000000000000000000000000000815260040161062b90610f64565b60405180910390fd5b606b60003373ffffffffffffffffffffffffffffffffffffffff1673ffffffffffffffffffffffffffffffffffffffff16815260200190815260200160002060009054906101000a900460ff166106c0576040517f08c379a00000000000000000000000000000000000000000000000000000000081526004016106b790610f44565b60405180910390fd5b3373ffffffffffffffffffffffffffffffffffffffff16606d600083815260200190815260200160002060009054906101000a900473ffffffffffffffffffffffffffffffffffffffff1673ffffffffffffffffffffffffffffffffffffffff1614610761576040517f08c379a000000000000000000000000000000000000000000000000000000000815260040161075890610ee4565b60405180910390fd5b6107748161076e83610a3f565b15610ac9565b50565b606760009054906101000a900473ffffffffffffffffffffffffffffffffffffffff1681565b606680546107aa90611036565b80601f01602080910402602001604051908101604052809291908181526020018280546107d690611036565b80156108235780601f106107f857610100808354040283529160200191610823565b820191906000526020600020905b81548152906001019060200180831161080657829003601f168201915b505050505081565b606c6020528060005260406000206000915054906101000a900460ff1681565b606e6020528060005260406000206000915054906101000a900460ff1681565b60685481565b6065805461087e90611036565b80601f01602080910402602001604051908101604052809291908181526020018280546108aa90611036565b80156108f75780601f106108cc576101008083540402835291602001916108f7565b820191906000526020600020905b8154815290600101906020018083116108da57829003601f168201915b505050505081565b610907610a37565b73ffffffffffffffffffffffffffffffffffffffff166109256105aa565b73ffffffffffffffffffffffffffffffffffffffff161461097b576040517f08c379a000000000000000000000000000000000000000000000000000000000815260040161097290610f24565b60405180910390fd5b600073ffffffffffffffffffffffffffffffffffffffff168173ffffffffffffffffffffffffffffffffffffffff1614156109eb576040517f08c379a00000000000000000000000000000000000000000000000000000000081526004016109e290610ec4565b60405180910390fd5b6109f481610af8565b50565b606a6020528060005260406000206000915054906101000a900460ff1681565b606b6020528060005260406000206000915054906101000a900460ff1681565b600033905090565b6000606a600083815260200190815260200160002060009054906101000a900460ff16610aa1576040517f08c379a0000000000000000000000000000000000000000000000000000000008152600401610a9890610f64565b60405180910390fd5b606e600083815260200190815260200160002060009054906101000a900460ff169050919050565b80606e600084815260200190815260200160002060006101000a81548160ff0219169083151502179055505050565b6000603360009054906101000a900473ffffffffffffffffffffffffffffffffffffffff16905081603360006101000a81548173ffffffffffffffffffffffffffffffffffffffff021916908373ffffffffffffffffffffffffffffffffffffffff1602179055508173ffffffffffffffffffffffffffffffffffffffff168173ffffffffffffffffffffffffffffffffffffffff167f8be0079c531659141344cd1fd0a4f28419497f9722a3daafe3b4186f6b6457e060405160405180910390a35050565b600081359050610bcd816110a8565b92915050565b600081359050610be2816110bf565b92915050565b600060208284031215610bfa57600080fd5b6000610c0884828501610bbe565b91505092915050565b600060208284031215610c2357600080fd5b6000610c3184828501610bd3565b91505092915050565b610c4381610fbb565b82525050565b610c5281610fcd565b82525050565b6000610c6382610f9f565b610c6d8185610faa565b9350610c7d818560208601611003565b610c8681611097565b840191505092915050565b6000610c9e602683610faa565b91507f4f776e61626c653a206e6577206f776e657220697320746865207a65726f206160008301527f64647265737300000000000000000000000000000000000000000000000000006020830152604082019050919050565b6000610d04600683610faa565b91507f4e4d494e545000000000000000000000000000000000000000000000000000006000830152602082019050919050565b6000610d44602e83610faa565b91507f496e697469616c697a61626c653a20636f6e747261637420697320616c72656160008301527f647920696e697469616c697a65640000000000000000000000000000000000006020830152604082019050919050565b6000610daa602083610faa565b91507f4f776e61626c653a2063616c6c6572206973206e6f7420746865206f776e65726000830152602082019050919050565b6000610dea600383610faa565b91507f574c4600000000000000000000000000000000000000000000000000000000006000830152602082019050919050565b6000610e2a600783610faa565b91507f544b4e204e2f41000000000000000000000000000000000000000000000000006000830152602082019050919050565b610e6681610ff9565b82525050565b6000602082019050610e816000830184610c3a565b92915050565b6000602082019050610e9c6000830184610c49565b92915050565b60006020820190508181036000830152610ebc8184610c58565b905092915050565b60006020820190508181036000830152610edd81610c91565b9050919050565b60006020820190508181036000830152610efd81610cf7565b9050919050565b60006020820190508181036000830152610f1d81610d37565b9050919050565b60006020820190508181036000830152610f3d81610d9d565b9050919050565b60006020820190508181036000830152610f5d81610ddd565b9050919050565b60006020820190508181036000830152610f7d81610e1d565b9050919050565b6000602082019050610f996000830184610e5d565b92915050565b600081519050919050565b600082825260208201905092915050565b6000610fc682610fd9565b9050919050565b60008115159050919050565b600073ffffffffffffffffffffffffffffffffffffffff82169050919050565b6000819050919050565b60005b83811015611021578082015181840152602081019050611006565b83811115611030576000848401525b50505050565b6000600282049050600182168061104e57607f821691505b6020821081141561106257611061611068565b5b50919050565b7f4e487b7100000000000000000000000000000000000000000000000000000000600052602260045260246000fd5b6000601f19601f8301169050919050565b6110b181610fbb565b81146110bc57600080fd5b50565b6110c881610ff9565b81146110d357600080fd5b5056fea26469706673582212204f0054359605d8c647206e339d1574c57563e02fcc32a9ae9a9c50714639d67f64736f6c63430008000033",
  "linkReferences": {},
  "deployedLinkReferences": {}
}