{
  "_format": "hh-sol-artifact-1",
  "contractName": "MOI_ERC1155",
  "sourceName": "contracts/Minter.sol",
  "abi": [
    {
      "anonymous": false,
      "inputs": [
        {
          "indexed": true,
          "internalType": "address",
          "name": "account",
          "type": "address"
        },
        {
          "indexed": true,
          "internalType": "address",
          "name": "operator",
          "type": "address"
        },
        {
          "indexed": false,
          "internalType": "bool",
          "name": "approved",
          "type": "bool"
        }
      ],
      "name": "ApprovalForAll",
      "type": "event"
    },
    {
      "anonymous": false,
      "inputs": [
        {
          "indexed": true,
          "internalType": "uint256",
          "name": "tokenId",
          "type": "uint256"
        },
        {
          "indexed": true,
          "internalType": "address",
          "name": "creator",
          "type": "address"
        }
      ],
      "name": "Mint",
      "type": "event"
    },
    {
      "anonymous": false,
      "inputs": [
        {
          "indexed": true,
          "internalType": "address",
          "name": "previousOwner",
          "type": "address"
        },
        {
          "indexed": true,
          "internalType": "address",
          "name": "newOwner",
          "type": "address"
        }
      ],
      "name": "OwnershipTransferred",
      "type": "event"
    },
    {
      "anonymous": false,
      "inputs": [
        {
          "indexed": true,
          "internalType": "address",
          "name": "operator",
          "type": "address"
        },
        {
          "indexed": true,
          "internalType": "address",
          "name": "from",
          "type": "address"
        },
        {
          "indexed": true,
          "internalType": "address",
          "name": "to",
          "type": "address"
        },
        {
          "indexed": false,
          "internalType": "uint256[]",
          "name": "ids",
          "type": "uint256[]"
        },
        {
          "indexed": false,
          "internalType": "uint256[]",
          "name": "values",
          "type": "uint256[]"
        }
      ],
      "name": "TransferBatch",
      "type": "event"
    },
    {
      "anonymous": false,
      "inputs": [
        {
          "indexed": true,
          "internalType": "address",
          "name": "operator",
          "type": "address"
        },
        {
          "indexed": true,
          "internalType": "address",
          "name": "from",
          "type": "address"
        },
        {
          "indexed": true,
          "internalType": "address",
          "name": "to",
          "type": "address"
        },
        {
          "indexed": false,
          "internalType": "uint256",
          "name": "id",
          "type": "uint256"
        },
        {
          "indexed": false,
          "internalType": "uint256",
          "name": "value",
          "type": "uint256"
        }
      ],
      "name": "TransferSingle",
      "type": "event"
    },
    {
      "anonymous": false,
      "inputs": [
        {
          "indexed": false,
          "internalType": "string",
          "name": "value",
          "type": "string"
        },
        {
          "indexed": true,
          "internalType": "uint256",
          "name": "id",
          "type": "uint256"
        }
      ],
      "name": "URI",
      "type": "event"
    },
    {
      "inputs": [
        {
          "internalType": "uint256",
          "name": "",
          "type": "uint256"
        }
      ],
      "name": "_exists",
      "outputs": [
        {
          "internalType": "bool",
          "name": "",
          "type": "bool"
        }
      ],
      "stateMutability": "view",
      "type": "function"
    },
    {
      "inputs": [],
      "name": "_name",
      "outputs": [
        {
          "internalType": "string",
          "name": "",
          "type": "string"
        }
      ],
      "stateMutability": "view",
      "type": "function"
    },
    {
      "inputs": [
        {
          "internalType": "uint256",
          "name": "",
          "type": "uint256"
        }
      ],
      "name": "_paused",
      "outputs": [
        {
          "internalType": "bool",
          "name": "",
          "type": "bool"
        }
      ],
      "stateMutability": "view",
      "type": "function"
    },
    {
      "inputs": [],
      "name": "_royaltiesPercentage",
      "outputs": [
        {
          "internalType": "uint256",
          "name": "",
          "type": "uint256"
        }
      ],
      "stateMutability": "view",
      "type": "function"
    },
    {
      "inputs": [],
      "name": "_symbol",
      "outputs": [
        {
          "internalType": "string",
          "name": "",
          "type": "string"
        }
      ],
      "stateMutability": "view",
      "type": "function"
    },
    {
      "inputs": [
        {
          "internalType": "address",
          "name": "account",
          "type": "address"
        },
        {
          "internalType": "uint256",
          "name": "id",
          "type": "uint256"
        }
      ],
      "name": "balanceOf",
      "outputs": [
        {
          "internalType": "uint256",
          "name": "",
          "type": "uint256"
        }
      ],
      "stateMutability": "view",
      "type": "function"
    },
    {
      "inputs": [
        {
          "internalType": "address[]",
          "name": "accounts",
          "type": "address[]"
        },
        {
          "internalType": "uint256[]",
          "name": "ids",
          "type": "uint256[]"
        }
      ],
      "name": "balanceOfBatch",
      "outputs": [
        {
          "internalType": "uint256[]",
          "name": "",
          "type": "uint256[]"
        }
      ],
      "stateMutability": "view",
      "type": "function"
    },
    {
      "inputs": [
        {
          "internalType": "uint256",
          "name": "_tokenId",
          "type": "uint256"
        }
      ],
      "name": "exists",
      "outputs": [
        {
          "internalType": "bool",
          "name": "",
          "type": "bool"
        }
      ],
      "stateMutability": "view",
      "type": "function"
    },
    {
      "inputs": [],
      "name": "getRoyaltiesPercentage",
      "outputs": [
        {
          "internalType": "uint256",
          "name": "",
          "type": "uint256"
        }
      ],
      "stateMutability": "view",
      "type": "function"
    },
    {
      "inputs": [
        {
          "internalType": "string",
          "name": "fullName",
          "type": "string"
        },
        {
          "internalType": "string",
          "name": "symbl",
          "type": "string"
        },
        {
          "internalType": "address",
          "name": "royaltiyReciever",
          "type": "address"
        },
        {
          "internalType": "address",
          "name": "minter",
          "type": "address"
        },
        {
          "internalType": "uint256",
          "name": "royaltiesPercentage",
          "type": "uint256"
        },
        {
          "internalType": "bool",
          "name": "_publicMinting",
          "type": "bool"
        },
        {
          "internalType": "string",
          "name": "metadata",
          "type": "string"
        }
      ],
      "name": "initialize",
      "outputs": [],
      "stateMutability": "nonpayable",
      "type": "function"
    },
    {
      "inputs": [
        {
          "internalType": "address",
          "name": "account",
          "type": "address"
        },
        {
          "internalType": "address",
          "name": "operator",
          "type": "address"
        }
      ],
      "name": "isApprovedForAll",
      "outputs": [
        {
          "internalType": "bool",
          "name": "",
          "type": "bool"
        }
      ],
      "stateMutability": "view",
      "type": "function"
    },
    {
      "inputs": [
        {
          "internalType": "uint256",
          "name": "_tokenId",
          "type": "uint256"
        }
      ],
      "name": "isMintingPaused",
      "outputs": [
        {
          "internalType": "bool",
          "name": "",
          "type": "bool"
        }
      ],
      "stateMutability": "view",
      "type": "function"
    },
    {
      "inputs": [
        {
          "internalType": "string",
          "name": "_tokenURI",
          "type": "string"
        },
        {
          "internalType": "uint256",
          "name": "amount",
          "type": "uint256"
        },
        {
          "internalType": "bool",
          "name": "paused",
          "type": "bool"
        }
      ],
      "name": "mint",
      "outputs": [
        {
          "internalType": "uint256",
          "name": "",
          "type": "uint256"
        }
      ],
      "stateMutability": "nonpayable",
      "type": "function"
    },
    {
      "inputs": [],
      "name": "name",
      "outputs": [
        {
          "internalType": "string",
          "name": "",
          "type": "string"
        }
      ],
      "stateMutability": "view",
      "type": "function"
    },
    {
      "inputs": [],
      "name": "owner",
      "outputs": [
        {
          "internalType": "address",
          "name": "",
          "type": "address"
        }
      ],
      "stateMutability": "view",
      "type": "function"
    },
    {
      "inputs": [],
      "name": "publicMinting",
      "outputs": [
        {
          "internalType": "bool",
          "name": "",
          "type": "bool"
        }
      ],
      "stateMutability": "view",
      "type": "function"
    },
    {
      "inputs": [
        {
          "internalType": "uint256",
          "name": "_tokenId",
          "type": "uint256"
        },
        {
          "internalType": "uint256",
          "name": "amount",
          "type": "uint256"
        }
      ],
      "name": "reSupply",
      "outputs": [],
      "stateMutability": "nonpayable",
      "type": "function"
    },
    {
      "inputs": [
        {
          "internalType": "address",
          "name": "addy",
          "type": "address"
        }
      ],
      "name": "removeWhiteList",
      "outputs": [],
      "stateMutability": "nonpayable",
      "type": "function"
    },
    {
      "inputs": [
        {
          "internalType": "address",
          "name": "addy",
          "type": "address"
        }
      ],
      "name": "removeWhiteList_Admin",
      "outputs": [],
      "stateMutability": "nonpayable",
      "type": "function"
    },
    {
      "inputs": [],
      "name": "renounceOwnership",
      "outputs": [],
      "stateMutability": "nonpayable",
      "type": "function"
    },
    {
      "inputs": [],
      "name": "royaltiesReceiver",
      "outputs": [
        {
          "internalType": "address",
          "name": "",
          "type": "address"
        }
      ],
      "stateMutability": "view",
      "type": "function"
    },
    {
      "inputs": [
        {
          "internalType": "uint256",
          "name": "_nftId",
          "type": "uint256"
        },
        {
          "internalType": "uint256",
          "name": "_salePrice",
          "type": "uint256"
        }
      ],
      "name": "royaltyInfo",
      "outputs": [
        {
          "internalType": "address",
          "name": "receiver",
          "type": "address"
        },
        {
          "internalType": "uint256",
          "name": "royaltyAmount",
          "type": "uint256"
        },
        {
          "internalType": "uint256",
          "name": "tokenId",
          "type": "uint256"
        }
      ],
      "stateMutability": "view",
      "type": "function"
    },
    {
      "inputs": [
        {
          "internalType": "address",
          "name": "from",
          "type": "address"
        },
        {
          "internalType": "address",
          "name": "to",
          "type": "address"
        },
        {
          "internalType": "uint256[]",
          "name": "ids",
          "type": "uint256[]"
        },
        {
          "internalType": "uint256[]",
          "name": "amounts",
          "type": "uint256[]"
        },
        {
          "internalType": "bytes",
          "name": "data",
          "type": "bytes"
        }
      ],
      "name": "safeBatchTransferFrom",
      "outputs": [],
      "stateMutability": "nonpayable",
      "type": "function"
    },
    {
      "inputs": [
        {
          "internalType": "address",
          "name": "from",
          "type": "address"
        },
        {
          "internalType": "address",
          "name": "to",
          "type": "address"
        },
        {
          "internalType": "uint256",
          "name": "id",
          "type": "uint256"
        },
        {
          "internalType": "uint256",
          "name": "amount",
          "type": "uint256"
        },
        {
          "internalType": "bytes",
          "name": "data",
          "type": "bytes"
        }
      ],
      "name": "safeTransferFrom",
      "outputs": [],
      "stateMutability": "nonpayable",
      "type": "function"
    },
    {
      "inputs": [
        {
          "internalType": "address",
          "name": "operator",
          "type": "address"
        },
        {
          "internalType": "bool",
          "name": "approved",
          "type": "bool"
        }
      ],
      "name": "setApprovalForAll",
      "outputs": [],
      "stateMutability": "nonpayable",
      "type": "function"
    },
    {
      "inputs": [
        {
          "internalType": "string",
          "name": "_newName",
          "type": "string"
        }
      ],
      "name": "setName",
      "outputs": [],
      "stateMutability": "nonpayable",
      "type": "function"
    },
    {
      "inputs": [
        {
          "internalType": "uint256",
          "name": "newRoyalties",
          "type": "uint256"
        }
      ],
      "name": "setRoyalties",
      "outputs": [],
      "stateMutability": "nonpayable",
      "type": "function"
    },
    {
      "inputs": [
        {
          "internalType": "address",
          "name": "newRoyaltiesReceiver",
          "type": "address"
        }
      ],
      "name": "setRoyaltiesReceiver",
      "outputs": [],
      "stateMutability": "nonpayable",
      "type": "function"
    },
    {
      "inputs": [
        {
          "internalType": "string",
          "name": "_newSymbol",
          "type": "string"
        }
      ],
      "name": "setSymbol",
      "outputs": [],
      "stateMutability": "nonpayable",
      "type": "function"
    },
    {
      "inputs": [
        {
          "internalType": "address",
          "name": "addy",
          "type": "address"
        }
      ],
      "name": "setWhiteList",
      "outputs": [],
      "stateMutability": "nonpayable",
      "type": "function"
    },
    {
      "inputs": [
        {
          "internalType": "address",
          "name": "addy",
          "type": "address"
        }
      ],
      "name": "setWhiteList_Admin",
      "outputs": [],
      "stateMutability": "nonpayable",
      "type": "function"
    },
    {
      "inputs": [
        {
          "internalType": "bytes4",
          "name": "interfaceId",
          "type": "bytes4"
        }
      ],
      "name": "supportsInterface",
      "outputs": [
        {
          "internalType": "bool",
          "name": "",
          "type": "bool"
        }
      ],
      "stateMutability": "view",
      "type": "function"
    },
    {
      "inputs": [],
      "name": "symbol",
      "outputs": [
        {
          "internalType": "string",
          "name": "",
          "type": "string"
        }
      ],
      "stateMutability": "view",
      "type": "function"
    },
    {
      "inputs": [
        {
          "internalType": "uint256",
          "name": "_tokenId",
          "type": "uint256"
        }
      ],
      "name": "toggleMintingPause",
      "outputs": [],
      "stateMutability": "nonpayable",
      "type": "function"
    },
    {
      "inputs": [],
      "name": "togglePublicMinting",
      "outputs": [],
      "stateMutability": "nonpayable",
      "type": "function"
    },
    {
      "inputs": [
        {
          "internalType": "uint256",
          "name": "",
          "type": "uint256"
        }
      ],
      "name": "tokenUri",
      "outputs": [
        {
          "internalType": "string",
          "name": "",
          "type": "string"
        }
      ],
      "stateMutability": "view",
      "type": "function"
    },
    {
      "inputs": [],
      "name": "totalSupply",
      "outputs": [
        {
          "internalType": "uint256",
          "name": "",
          "type": "uint256"
        }
      ],
      "stateMutability": "view",
      "type": "function"
    },
    {
      "inputs": [
        {
          "internalType": "address",
          "name": "newOwner",
          "type": "address"
        }
      ],
      "name": "transferOwnership",
      "outputs": [],
      "stateMutability": "nonpayable",
      "type": "function"
    },
    {
      "inputs": [
        {
          "internalType": "uint256",
          "name": "_tokenId",
          "type": "uint256"
        },
        {
          "internalType": "string",
          "name": "_uri",
          "type": "string"
        }
      ],
      "name": "updateTokenUri",
      "outputs": [],
      "stateMutability": "nonpayable",
      "type": "function"
    },
    {
      "inputs": [
        {
          "internalType": "uint256",
          "name": "id",
          "type": "uint256"
        }
      ],
      "name": "uri",
      "outputs": [
        {
          "internalType": "string",
          "name": "",
          "type": "string"
        }
      ],
      "stateMutability": "view",
      "type": "function"
    },
    {
      "inputs": [
        {
          "internalType": "address",
          "name": "",
          "type": "address"
        }
      ],
      "name": "whiteListed",
      "outputs": [
        {
          "internalType": "bool",
          "name": "",
          "type": "bool"
        }
      ],
      "stateMutability": "view",
      "type": "function"
    }
  ],
  "bytecode": "0x608060405234801561001057600080fd5b5061567580620000216000396000f3fe608060405234801561001057600080fd5b50600436106102525760003560e01c8063715018a611610146578063b84c8246116100c3578063e985e9c511610087578063e985e9c5146106e5578063ecacecc214610715578063f242432a14610731578063f2fde38b1461074d578063f8e76cc014610769578063fa0fca841461079957610252565b8063b84c824614610655578063c47f002714610671578063cf7761ee1461068d578063d28d8852146106ab578063d31af484146106c957610252565b8063a35984941161010a578063a3598494146105b1578063a3a51bd5146105cd578063b09f1266146105eb578063b514371514610609578063b6a86df61461062557610252565b8063715018a61461051f5780638da5cb5b1461052957806395d89b411461054757806396f76f6f14610565578063a22cb4651461059557610252565b80632b80183f116101d45780634e1273f4116101985780634e1273f41461047b5780634f558e79146104ab57806353ac010a146104db5780635febd58c146104f95780636b8a21fc1461051557610252565b80632b80183f146103db5780632eb2c2d6146103f7578063362b986c1461041357806339e899ee1461044357806346a2a9461461045f57610252565b80631675f4551161021b5780631675f4551461032357806318160ddd146103535780632042e5c2146103715780632785d08e1461038d5780632a55205a146103a957610252565b8062fdd58e1461025757806301ffc9a71461028757806306fdde03146102b7578063075b8907146102d55780630e89341c146102f3575b600080fd5b610271600480360381019061026c9190613ff6565b6107c9565b60405161027e91906150d3565b60405180910390f35b6102a1600480360381019061029c919061409e565b610893565b6040516102ae9190614db6565b60405180910390f35b6102bf61090d565b6040516102cc9190614dd1565b60405180910390f35b6102dd61099f565b6040516102ea91906150d3565b60405180910390f35b61030d60048036038101906103089190614294565b6109a9565b60405161031a9190614dd1565b60405180910390f35b61033d60048036038101906103389190614294565b610a4e565b60405161034a9190614dd1565b60405180910390f35b61035b610aee565b60405161036891906150d3565b60405180910390f35b61038b60048036038101906103869190613e07565b610aff565b005b6103a760048036038101906103a29190614315565b610ce7565b005b6103c360048036038101906103be9190614315565b610e67565b6040516103d293929190614d26565b60405180910390f35b6103f560048036038101906103f09190614294565b610ebc565b005b610411600480360381019061040c9190613e6c565b610f51565b005b61042d60048036038101906104289190614294565b610ff2565b60405161043a9190614db6565b60405180910390f35b61045d60048036038101906104589190613e07565b611012565b005b61047960048036038101906104749190613e07565b611148565b005b61049560048036038101906104909190614032565b6112b2565b6040516104a29190614d5d565b60405180910390f35b6104c560048036038101906104c09190614294565b611463565b6040516104d29190614db6565b60405180910390f35b6104e361148d565b6040516104f09190614db6565b60405180910390f35b610513600480360381019061050e9190614135565b6114a0565b005b61051d6116b6565b005b61052761175e565b005b6105316117e6565b60405161053e9190614c49565b60405180910390f35b61054f611810565b60405161055c9190614dd1565b60405180910390f35b61057f600480360381019061057a9190614228565b6118a2565b60405161058c91906150d3565b60405180910390f35b6105af60048036038101906105aa9190613fba565b611afc565b005b6105cb60048036038101906105c69190614294565b611c7d565b005b6105d5611d67565b6040516105e29190614c49565b60405180910390f35b6105f3611d91565b6040516106009190614dd1565b60405180910390f35b610623600480360381019061061e9190613e07565b611e1f565b005b61063f600480360381019061063a9190614294565b611f3a565b60405161064c9190614db6565b60405180910390f35b61066f600480360381019061066a91906140f0565b611fac565b005b61068b600480360381019061068691906140f0565b61203e565b005b6106956120d0565b6040516106a291906150d3565b60405180910390f35b6106b36120d6565b6040516106c09190614dd1565b60405180910390f35b6106e360048036038101906106de91906142bd565b612164565b005b6106ff60048036038101906106fa9190613e30565b61228b565b60405161070c9190614db6565b60405180910390f35b61072f600480360381019061072a9190613e07565b61231f565b005b61074b60048036038101906107469190613f2b565b612482565b005b61076760048036038101906107629190613e07565b612523565b005b610783600480360381019061077e9190614294565b61261b565b6040516107909190614db6565b60405180910390f35b6107b360048036038101906107ae9190613e07565b61263b565b6040516107c09190614db6565b60405180910390f35b60008073ffffffffffffffffffffffffffffffffffffffff168373ffffffffffffffffffffffffffffffffffffffff16141561083a576040517f08c379a000000000000000000000000000000000000000000000000000000000815260040161083190614e73565b60405180910390fd5b6097600083815260200190815260200160002060008473ffffffffffffffffffffffffffffffffffffffff1673ffffffffffffffffffffffffffffffffffffffff16815260200190815260200160002054905092915050565b60007f2a55205a000000000000000000000000000000000000000000000000000000007bffffffffffffffffffffffffffffffffffffffffffffffffffffffff1916827bffffffffffffffffffffffffffffffffffffffffffffffffffffffff1916148061090657506109058261265b565b5b9050919050565b606060ca805461091c906153d8565b80601f0160208091040260200160405190810160405280929190818152602001828054610948906153d8565b80156109955780601f1061096a57610100808354040283529160200191610995565b820191906000526020600020905b81548152906001019060200180831161097857829003601f168201915b5050505050905090565b600060cd54905090565b606060d1600083815260200190815260200160002080546109c9906153d8565b80601f01602080910402602001604051908101604052809291908181526020018280546109f5906153d8565b8015610a425780601f10610a1757610100808354040283529160200191610a42565b820191906000526020600020905b815481529060010190602001808311610a2557829003601f168201915b50505050509050919050565b60d16020528060005260406000206000915090508054610a6d906153d8565b80601f0160208091040260200160405190810160405280929190818152602001828054610a99906153d8565b8015610ae65780601f10610abb57610100808354040283529160200191610ae6565b820191906000526020600020905b815481529060010190602001808311610ac957829003601f168201915b505050505081565b6000610afa60c961273d565b905090565b60d360003373ffffffffffffffffffffffffffffffffffffffff1673ffffffffffffffffffffffffffffffffffffffff16815260200190815260200160002060009054906101000a900460ff16610b8b576040517f08c379a0000000000000000000000000000000000000000000000000000000008152600401610b8290614fb3565b60405180910390fd5b8073ffffffffffffffffffffffffffffffffffffffff163373ffffffffffffffffffffffffffffffffffffffff1614610bf9576040517f08c379a0000000000000000000000000000000000000000000000000000000008152600401610bf090614f73565b60405180910390fd5b6000151560d360008373ffffffffffffffffffffffffffffffffffffffff1673ffffffffffffffffffffffffffffffffffffffff16815260200190815260200160002060009054906101000a900460ff16151514610c8c576040517f08c379a0000000000000000000000000000000000000000000000000000000008152600401610c8390614e53565b60405180910390fd5b600060d360008373ffffffffffffffffffffffffffffffffffffffff1673ffffffffffffffffffffffffffffffffffffffff16815260200190815260200160002060006101000a81548160ff02191690831515021790555050565b60d360003373ffffffffffffffffffffffffffffffffffffffff1673ffffffffffffffffffffffffffffffffffffffff16815260200190815260200160002060009054906101000a900460ff16610d73576040517f08c379a0000000000000000000000000000000000000000000000000000000008152600401610d6a90614fb3565b60405180910390fd5b610d7c82611463565b610dbb576040517f08c379a0000000000000000000000000000000000000000000000000000000008152600401610db290614ff3565b60405180910390fd5b610dc482611f3a565b15610e04576040517f08c379a0000000000000000000000000000000000000000000000000000000008152600401610dfb90614e33565b60405180910390fd5b610e1f3383836040518060200160405280600081525061274b565b3373ffffffffffffffffffffffffffffffffffffffff16827ff3cea5493d790af0133817606f7350a91d7f154ea52eaa79d179d4d231e5010260405160405180910390a35050565b600080600080606460cd5486610e7d91906152c8565b610e879190615297565b905060cc60009054906101000a900473ffffffffffffffffffffffffffffffffffffffff168187935093509350509250925092565b610ec46128e2565b73ffffffffffffffffffffffffffffffffffffffff16610ee26117e6565b73ffffffffffffffffffffffffffffffffffffffff1614610f38576040517f08c379a0000000000000000000000000000000000000000000000000000000008152600401610f2f90615013565b60405180910390fd5b60cd54811415610f4757600080fd5b8060cd8190555050565b610f596128e2565b73ffffffffffffffffffffffffffffffffffffffff168573ffffffffffffffffffffffffffffffffffffffff161480610f9f5750610f9e85610f996128e2565b61228b565b5b610fde576040517f08c379a0000000000000000000000000000000000000000000000000000000008152600401610fd590614f13565b60405180910390fd5b610feb85858585856128ea565b5050505050565b60d06020528060005260406000206000915054906101000a900460ff1681565b60ce60009054906101000a900460ff16611061576040517f08c379a000000000000000000000000000000000000000000000000000000000815260040161105890614fd3565b60405180910390fd5b60d360008273ffffffffffffffffffffffffffffffffffffffff1673ffffffffffffffffffffffffffffffffffffffff16815260200190815260200160002060009054906101000a900460ff166110ed576040517f08c379a00000000000000000000000000000000000000000000000000000000081526004016110e490615033565b60405180910390fd5b600160d360008373ffffffffffffffffffffffffffffffffffffffff1673ffffffffffffffffffffffffffffffffffffffff16815260200190815260200160002060006101000a81548160ff02191690831515021790555050565b6111506128e2565b73ffffffffffffffffffffffffffffffffffffffff1661116e6117e6565b73ffffffffffffffffffffffffffffffffffffffff16146111c4576040517f08c379a00000000000000000000000000000000000000000000000000000000081526004016111bb90615013565b60405180910390fd5b6000151560d360008373ffffffffffffffffffffffffffffffffffffffff1673ffffffffffffffffffffffffffffffffffffffff16815260200190815260200160002060009054906101000a900460ff16151514611257576040517f08c379a000000000000000000000000000000000000000000000000000000000815260040161124e90614e53565b60405180910390fd5b600060d360008373ffffffffffffffffffffffffffffffffffffffff1673ffffffffffffffffffffffffffffffffffffffff16815260200190815260200160002060006101000a81548160ff02191690831515021790555050565b606081518351146112f8576040517f08c379a00000000000000000000000000000000000000000000000000000000081526004016112ef90615073565b60405180910390fd5b6000835167ffffffffffffffff81111561133b577f4e487b7100000000000000000000000000000000000000000000000000000000600052604160045260246000fd5b6040519080825280602002602001820160405280156113695781602001602082028036833780820191505090505b50905060005b8451811015611458576114028582815181106113b4577f4e487b7100000000000000000000000000000000000000000000000000000000600052603260045260246000fd5b60200260200101518583815181106113f5577f4e487b7100000000000000000000000000000000000000000000000000000000600052603260045260246000fd5b60200260200101516107c9565b82828151811061143b577f4e487b7100000000000000000000000000000000000000000000000000000000600052603260045260246000fd5b602002602001018181525050806114519061540a565b905061136f565b508091505092915050565b600060cf600083815260200190815260200160002060009054906101000a900460ff169050919050565b60ce60009054906101000a900460ff1681565b600060019054906101000a900460ff16806114c6575060008054906101000a900460ff16155b611505576040517f08c379a00000000000000000000000000000000000000000000000000000000081526004016114fc90614f33565b60405180910390fd5b60008060019054906101000a900460ff161590508015611555576001600060016101000a81548160ff02191690831515021790555060016000806101000a81548160ff0219169083151502179055505b6115a283838080601f016020809104026020016040519081016040528093929190818152602001838380828437600081840152601f19601f82011690508083019250505050505050612c4d565b6115aa612d40565b8a8a60ca91906115bb929190613a97565b50888860cb91906115cd929190613a97565b508660cc60006101000a81548173ffffffffffffffffffffffffffffffffffffffff021916908373ffffffffffffffffffffffffffffffffffffffff1602179055508460cd819055508360ce60006101000a81548160ff021916908315150217905550600160d360008873ffffffffffffffffffffffffffffffffffffffff1673ffffffffffffffffffffffffffffffffffffffff16815260200190815260200160002060006101000a81548160ff02191690831515021790555080156116a95760008060016101000a81548160ff0219169083151502179055505b5050505050505050505050565b6116be6128e2565b73ffffffffffffffffffffffffffffffffffffffff166116dc6117e6565b73ffffffffffffffffffffffffffffffffffffffff1614611732576040517f08c379a000000000000000000000000000000000000000000000000000000000815260040161172990615013565b60405180910390fd5b60ce60009054906101000a900460ff161560ce60006101000a81548160ff021916908315150217905550565b6117666128e2565b73ffffffffffffffffffffffffffffffffffffffff166117846117e6565b73ffffffffffffffffffffffffffffffffffffffff16146117da576040517f08c379a00000000000000000000000000000000000000000000000000000000081526004016117d190615013565b60405180910390fd5b6117e46000612e29565b565b6000603360009054906101000a900473ffffffffffffffffffffffffffffffffffffffff16905090565b606060cb805461181f906153d8565b80601f016020809104026020016040519081016040528092919081815260200182805461184b906153d8565b80156118985780601f1061186d57610100808354040283529160200191611898565b820191906000526020600020905b81548152906001019060200180831161187b57829003601f168201915b5050505050905090565b6000806118af60c961273d565b9050600015156118be82611463565b151514611900576040517f08c379a00000000000000000000000000000000000000000000000000000000081526004016118f790614eb3565b60405180910390fd5b60d360003373ffffffffffffffffffffffffffffffffffffffff1673ffffffffffffffffffffffffffffffffffffffff16815260200190815260200160002060009054906101000a900460ff1661198c576040517f08c379a000000000000000000000000000000000000000000000000000000000815260040161198390614fb3565b60405180910390fd5b600086869050116119d2576040517f08c379a00000000000000000000000000000000000000000000000000000000081526004016119c990614f53565b60405180910390fd5b6119ed3382866040518060200160405280600081525061274b565b611a3b8187878080601f016020809104026020016040519081016040528093929190818152602001838380828437600081840152601f19601f82011690508083019250505050505050612eef565b611a46816001612f1b565b611a508184612f4a565b3360d2600083815260200190815260200160002060006101000a81548173ffffffffffffffffffffffffffffffffffffffff021916908373ffffffffffffffffffffffffffffffffffffffff160217905550611aac60c9612f79565b3373ffffffffffffffffffffffffffffffffffffffff16817ff3cea5493d790af0133817606f7350a91d7f154ea52eaa79d179d4d231e5010260405160405180910390a380915050949350505050565b8173ffffffffffffffffffffffffffffffffffffffff16611b1b6128e2565b73ffffffffffffffffffffffffffffffffffffffff161415611b72576040517f08c379a0000000000000000000000000000000000000000000000000000000008152600401611b6990615053565b60405180910390fd5b8060986000611b7f6128e2565b73ffffffffffffffffffffffffffffffffffffffff1673ffffffffffffffffffffffffffffffffffffffff16815260200190815260200160002060008473ffffffffffffffffffffffffffffffffffffffff1673ffffffffffffffffffffffffffffffffffffffff16815260200190815260200160002060006101000a81548160ff0219169083151502179055508173ffffffffffffffffffffffffffffffffffffffff16611c2c6128e2565b73ffffffffffffffffffffffffffffffffffffffff167f17307eab39ab6107e8899845ad3d59bd9653f200f220920489ca2b5937696c3183604051611c719190614db6565b60405180910390a35050565b611c8681611463565b611cc5576040517f08c379a0000000000000000000000000000000000000000000000000000000008152600401611cbc90614ff3565b60405180910390fd5b60d360003373ffffffffffffffffffffffffffffffffffffffff1673ffffffffffffffffffffffffffffffffffffffff16815260200190815260200160002060009054906101000a900460ff16611d51576040517f08c379a0000000000000000000000000000000000000000000000000000000008152600401611d4890614fb3565b60405180910390fd5b611d6481611d5e83611f3a565b15612f4a565b50565b600060cc60009054906101000a900473ffffffffffffffffffffffffffffffffffffffff16905090565b60cb8054611d9e906153d8565b80601f0160208091040260200160405190810160405280929190818152602001828054611dca906153d8565b8015611e175780601f10611dec57610100808354040283529160200191611e17565b820191906000526020600020905b815481529060010190602001808311611dfa57829003601f168201915b505050505081565b611e276128e2565b73ffffffffffffffffffffffffffffffffffffffff16611e456117e6565b73ffffffffffffffffffffffffffffffffffffffff1614611e9b576040517f08c379a0000000000000000000000000000000000000000000000000000000008152600401611e9290615013565b60405180910390fd5b60cc60009054906101000a900473ffffffffffffffffffffffffffffffffffffffff1673ffffffffffffffffffffffffffffffffffffffff168173ffffffffffffffffffffffffffffffffffffffff161415611ef657600080fd5b8060cc60006101000a81548173ffffffffffffffffffffffffffffffffffffffff021916908373ffffffffffffffffffffffffffffffffffffffff16021790555050565b6000611f4582611463565b611f84576040517f08c379a0000000000000000000000000000000000000000000000000000000008152600401611f7b90614ff3565b60405180910390fd5b60d0600083815260200190815260200160002060009054906101000a900460ff169050919050565b611fb46128e2565b73ffffffffffffffffffffffffffffffffffffffff16611fd26117e6565b73ffffffffffffffffffffffffffffffffffffffff1614612028576040517f08c379a000000000000000000000000000000000000000000000000000000000815260040161201f90615013565b60405180910390fd5b818160cb9190612039929190613a97565b505050565b6120466128e2565b73ffffffffffffffffffffffffffffffffffffffff166120646117e6565b73ffffffffffffffffffffffffffffffffffffffff16146120ba576040517f08c379a00000000000000000000000000000000000000000000000000000000081526004016120b190615013565b60405180910390fd5b818160ca91906120cb929190613a97565b505050565b60cd5481565b60ca80546120e3906153d8565b80601f016020809104026020016040519081016040528092919081815260200182805461210f906153d8565b801561215c5780601f106121315761010080835404028352916020019161215c565b820191906000526020600020905b81548152906001019060200180831161213f57829003601f168201915b505050505081565b61216d83611463565b6121ac576040517f08c379a00000000000000000000000000000000000000000000000000000000081526004016121a390614ff3565b60405180910390fd5b60d360003373ffffffffffffffffffffffffffffffffffffffff1673ffffffffffffffffffffffffffffffffffffffff16815260200190815260200160002060009054906101000a900460ff16612238576040517f08c379a000000000000000000000000000000000000000000000000000000000815260040161222f90614fb3565b60405180910390fd5b6122868383838080601f016020809104026020016040519081016040528093929190818152602001838380828437600081840152601f19601f82011690508083019250505050505050612eef565b505050565b6000609860008473ffffffffffffffffffffffffffffffffffffffff1673ffffffffffffffffffffffffffffffffffffffff16815260200190815260200160002060008373ffffffffffffffffffffffffffffffffffffffff1673ffffffffffffffffffffffffffffffffffffffff16815260200190815260200160002060009054906101000a900460ff16905092915050565b6123276128e2565b73ffffffffffffffffffffffffffffffffffffffff166123456117e6565b73ffffffffffffffffffffffffffffffffffffffff161461239b576040517f08c379a000000000000000000000000000000000000000000000000000000000815260040161239290615013565b60405180910390fd5b60d360008273ffffffffffffffffffffffffffffffffffffffff1673ffffffffffffffffffffffffffffffffffffffff16815260200190815260200160002060009054906101000a900460ff16612427576040517f08c379a000000000000000000000000000000000000000000000000000000000815260040161241e90615033565b60405180910390fd5b600160d360008373ffffffffffffffffffffffffffffffffffffffff1673ffffffffffffffffffffffffffffffffffffffff16815260200190815260200160002060006101000a81548160ff02191690831515021790555050565b61248a6128e2565b73ffffffffffffffffffffffffffffffffffffffff168573ffffffffffffffffffffffffffffffffffffffff1614806124d057506124cf856124ca6128e2565b61228b565b5b61250f576040517f08c379a000000000000000000000000000000000000000000000000000000000815260040161250690614ed3565b60405180910390fd5b61251c8585858585612f8f565b5050505050565b61252b6128e2565b73ffffffffffffffffffffffffffffffffffffffff166125496117e6565b73ffffffffffffffffffffffffffffffffffffffff161461259f576040517f08c379a000000000000000000000000000000000000000000000000000000000815260040161259690615013565b60405180910390fd5b600073ffffffffffffffffffffffffffffffffffffffff168173ffffffffffffffffffffffffffffffffffffffff16141561260f576040517f08c379a000000000000000000000000000000000000000000000000000000000815260040161260690614e93565b60405180910390fd5b61261881612e29565b50565b60cf6020528060005260406000206000915054906101000a900460ff1681565b60d36020528060005260406000206000915054906101000a900460ff1681565b60007fd9b67a26000000000000000000000000000000000000000000000000000000007bffffffffffffffffffffffffffffffffffffffffffffffffffffffff1916827bffffffffffffffffffffffffffffffffffffffffffffffffffffffff1916148061272657507f0e89341c000000000000000000000000000000000000000000000000000000007bffffffffffffffffffffffffffffffffffffffffffffffffffffffff1916827bffffffffffffffffffffffffffffffffffffffffffffffffffffffff1916145b80612736575061273582613214565b5b9050919050565b600081600001549050919050565b600073ffffffffffffffffffffffffffffffffffffffff168473ffffffffffffffffffffffffffffffffffffffff1614156127bb576040517f08c379a00000000000000000000000000000000000000000000000000000000081526004016127b2906150b3565b60405180910390fd5b60006127c56128e2565b90506127e6816000876127d78861327e565b6127e08861327e565b87613344565b826097600086815260200190815260200160002060008773ffffffffffffffffffffffffffffffffffffffff1673ffffffffffffffffffffffffffffffffffffffff16815260200190815260200160002060008282546128469190615241565b925050819055508473ffffffffffffffffffffffffffffffffffffffff16600073ffffffffffffffffffffffffffffffffffffffff168273ffffffffffffffffffffffffffffffffffffffff167fc3d58168c5ae7397731d063d5bbf3d657854427343f4c083240f7aacaa2d0f6287876040516128c49291906150ee565b60405180910390a46128db8160008787878761334c565b5050505050565b600033905090565b815183511461292e576040517f08c379a000000000000000000000000000000000000000000000000000000000815260040161292590615093565b60405180910390fd5b600073ffffffffffffffffffffffffffffffffffffffff168473ffffffffffffffffffffffffffffffffffffffff16141561299e576040517f08c379a000000000000000000000000000000000000000000000000000000000815260040161299590614ef3565b60405180910390fd5b60006129a86128e2565b90506129b8818787878787613344565b60005b8451811015612bb85760008582815181106129ff577f4e487b7100000000000000000000000000000000000000000000000000000000600052603260045260246000fd5b602002602001015190506000858381518110612a44577f4e487b7100000000000000000000000000000000000000000000000000000000600052603260045260246000fd5b6020026020010151905060006097600084815260200190815260200160002060008b73ffffffffffffffffffffffffffffffffffffffff1673ffffffffffffffffffffffffffffffffffffffff16815260200190815260200160002054905081811015612ae6576040517f08c379a0000000000000000000000000000000000000000000000000000000008152600401612add90614f93565b60405180910390fd5b8181036097600085815260200190815260200160002060008c73ffffffffffffffffffffffffffffffffffffffff1673ffffffffffffffffffffffffffffffffffffffff16815260200190815260200160002081905550816097600085815260200190815260200160002060008b73ffffffffffffffffffffffffffffffffffffffff1673ffffffffffffffffffffffffffffffffffffffff1681526020019081526020016000206000828254612b9d9190615241565b9250508190555050505080612bb19061540a565b90506129bb565b508473ffffffffffffffffffffffffffffffffffffffff168673ffffffffffffffffffffffffffffffffffffffff168273ffffffffffffffffffffffffffffffffffffffff167f4a39dc06d4c0dbc64b70af90fd698a233a518aa5d07e595d983b8c0526c8f7fb8787604051612c2f929190614d7f565b60405180910390a4612c4581878787878761351c565b505050505050565b600060019054906101000a900460ff1680612c73575060008054906101000a900460ff16155b612cb2576040517f08c379a0000000000000000000000000000000000000000000000000000000008152600401612ca990614f33565b60405180910390fd5b60008060019054906101000a900460ff161590508015612d02576001600060016101000a81548160ff02191690831515021790555060016000806101000a81548160ff0219169083151502179055505b612d0a6136ec565b612d126137c5565b612d1b8261389e565b8015612d3c5760008060016101000a81548160ff0219169083151502179055505b5050565b600060019054906101000a900460ff1680612d66575060008054906101000a900460ff16155b612da5576040517f08c379a0000000000000000000000000000000000000000000000000000000008152600401612d9c90614f33565b60405180910390fd5b60008060019054906101000a900460ff161590508015612df5576001600060016101000a81548160ff02191690831515021790555060016000806101000a81548160ff0219169083151502179055505b612dfd6136ec565b612e05613981565b8015612e265760008060016101000a81548160ff0219169083151502179055505b50565b6000603360009054906101000a900473ffffffffffffffffffffffffffffffffffffffff16905081603360006101000a81548173ffffffffffffffffffffffffffffffffffffffff021916908373ffffffffffffffffffffffffffffffffffffffff1602179055508173ffffffffffffffffffffffffffffffffffffffff168173ffffffffffffffffffffffffffffffffffffffff167f8be0079c531659141344cd1fd0a4f28419497f9722a3daafe3b4186f6b6457e060405160405180910390a35050565b8060d160008481526020019081526020016000209080519060200190612f16929190613b1d565b505050565b8060cf600084815260200190815260200160002060006101000a81548160ff0219169083151502179055505050565b8060d0600084815260200190815260200160002060006101000a81548160ff0219169083151502179055505050565b6001816000016000828254019250508190555050565b600073ffffffffffffffffffffffffffffffffffffffff168473ffffffffffffffffffffffffffffffffffffffff161415612fff576040517f08c379a0000000000000000000000000000000000000000000000000000000008152600401612ff690614ef3565b60405180910390fd5b60006130096128e2565b905061302981878761301a8861327e565b6130238861327e565b87613344565b60006097600086815260200190815260200160002060008873ffffffffffffffffffffffffffffffffffffffff1673ffffffffffffffffffffffffffffffffffffffff168152602001908152602001600020549050838110156130c1576040517f08c379a00000000000000000000000000000000000000000000000000000000081526004016130b890614f93565b60405180910390fd5b8381036097600087815260200190815260200160002060008973ffffffffffffffffffffffffffffffffffffffff1673ffffffffffffffffffffffffffffffffffffffff16815260200190815260200160002081905550836097600087815260200190815260200160002060008873ffffffffffffffffffffffffffffffffffffffff1673ffffffffffffffffffffffffffffffffffffffff16815260200190815260200160002060008282546131789190615241565b925050819055508573ffffffffffffffffffffffffffffffffffffffff168773ffffffffffffffffffffffffffffffffffffffff168373ffffffffffffffffffffffffffffffffffffffff167fc3d58168c5ae7397731d063d5bbf3d657854427343f4c083240f7aacaa2d0f6288886040516131f59291906150ee565b60405180910390a461320b82888888888861334c565b50505050505050565b60007f01ffc9a7000000000000000000000000000000000000000000000000000000007bffffffffffffffffffffffffffffffffffffffffffffffffffffffff1916827bffffffffffffffffffffffffffffffffffffffffffffffffffffffff1916149050919050565b60606000600167ffffffffffffffff8111156132c3577f4e487b7100000000000000000000000000000000000000000000000000000000600052604160045260246000fd5b6040519080825280602002602001820160405280156132f15781602001602082028036833780820191505090505b509050828160008151811061332f577f4e487b7100000000000000000000000000000000000000000000000000000000600052603260045260246000fd5b60200260200101818152505080915050919050565b505050505050565b61336b8473ffffffffffffffffffffffffffffffffffffffff16613a6a565b15613514578373ffffffffffffffffffffffffffffffffffffffff1663f23a6e6187878686866040518663ffffffff1660e01b81526004016133b1959493929190614ccc565b602060405180830381600087803b1580156133cb57600080fd5b505af19250505080156133fc57506040513d601f19601f820116820180604052508101906133f991906140c7565b60015b61348b5761340861552d565b806134135750613450565b806040517f08c379a00000000000000000000000000000000000000000000000000000000081526004016134479190614dd1565b60405180910390fd5b6040517f08c379a000000000000000000000000000000000000000000000000000000000815260040161348290614df3565b60405180910390fd5b63f23a6e6160e01b7bffffffffffffffffffffffffffffffffffffffffffffffffffffffff1916817bffffffffffffffffffffffffffffffffffffffffffffffffffffffff191614613512576040517f08c379a000000000000000000000000000000000000000000000000000000000815260040161350990614e13565b60405180910390fd5b505b505050505050565b61353b8473ffffffffffffffffffffffffffffffffffffffff16613a6a565b156136e4578373ffffffffffffffffffffffffffffffffffffffff1663bc197c8187878686866040518663ffffffff1660e01b8152600401613581959493929190614c64565b602060405180830381600087803b15801561359b57600080fd5b505af19250505080156135cc57506040513d601f19601f820116820180604052508101906135c991906140c7565b60015b61365b576135d861552d565b806135e35750613620565b806040517f08c379a00000000000000000000000000000000000000000000000000000000081526004016136179190614dd1565b60405180910390fd5b6040517f08c379a000000000000000000000000000000000000000000000000000000000815260040161365290614df3565b60405180910390fd5b63bc197c8160e01b7bffffffffffffffffffffffffffffffffffffffffffffffffffffffff1916817bffffffffffffffffffffffffffffffffffffffffffffffffffffffff1916146136e2576040517f08c379a00000000000000000000000000000000000000000000000000000000081526004016136d990614e13565b60405180910390fd5b505b505050505050565b600060019054906101000a900460ff1680613712575060008054906101000a900460ff16155b613751576040517f08c379a000000000000000000000000000000000000000000000000000000000815260040161374890614f33565b60405180910390fd5b60008060019054906101000a900460ff1615905080156137a1576001600060016101000a81548160ff02191690831515021790555060016000806101000a81548160ff0219169083151502179055505b80156137c25760008060016101000a81548160ff0219169083151502179055505b50565b600060019054906101000a900460ff16806137eb575060008054906101000a900460ff16155b61382a576040517f08c379a000000000000000000000000000000000000000000000000000000000815260040161382190614f33565b60405180910390fd5b60008060019054906101000a900460ff16159050801561387a576001600060016101000a81548160ff02191690831515021790555060016000806101000a81548160ff0219169083151502179055505b801561389b5760008060016101000a81548160ff0219169083151502179055505b50565b600060019054906101000a900460ff16806138c4575060008054906101000a900460ff16155b613903576040517f08c379a00000000000000000000000000000000000000000000000000000000081526004016138fa90614f33565b60405180910390fd5b60008060019054906101000a900460ff161590508015613953576001600060016101000a81548160ff02191690831515021790555060016000806101000a81548160ff0219169083151502179055505b61395c82613a7d565b801561397d5760008060016101000a81548160ff0219169083151502179055505b5050565b600060019054906101000a900460ff16806139a7575060008054906101000a900460ff16155b6139e6576040517f08c379a00000000000000000000000000000000000000000000000000000000081526004016139dd90614f33565b60405180910390fd5b60008060019054906101000a900460ff161590508015613a36576001600060016101000a81548160ff02191690831515021790555060016000806101000a81548160ff0219169083151502179055505b613a46613a416128e2565b612e29565b8015613a675760008060016101000a81548160ff0219169083151502179055505b50565b600080823b905060008111915050919050565b8060999080519060200190613a93929190613b1d565b5050565b828054613aa3906153d8565b90600052602060002090601f016020900481019282613ac55760008555613b0c565b82601f10613ade57803560ff1916838001178555613b0c565b82800160010185558215613b0c579182015b82811115613b0b578235825591602001919060010190613af0565b5b509050613b199190613ba3565b5090565b828054613b29906153d8565b90600052602060002090601f016020900481019282613b4b5760008555613b92565b82601f10613b6457805160ff1916838001178555613b92565b82800160010185558215613b92579182015b82811115613b91578251825591602001919060010190613b76565b5b509050613b9f9190613ba3565b5090565b5b80821115613bbc576000816000905550600101613ba4565b5090565b6000613bd3613bce84615148565b615117565b90508083825260208201905082856020860282011115613bf257600080fd5b60005b85811015613c225781613c088882613cd6565b845260208401935060208301925050600181019050613bf5565b5050509392505050565b6000613c3f613c3a84615174565b615117565b90508083825260208201905082856020860282011115613c5e57600080fd5b60005b85811015613c8e5781613c748882613df2565b845260208401935060208301925050600181019050613c61565b5050509392505050565b6000613cab613ca6846151a0565b615117565b905082815260208101848484011115613cc357600080fd5b613cce848285615396565b509392505050565b600081359050613ce5816155e3565b92915050565b600082601f830112613cfc57600080fd5b8135613d0c848260208601613bc0565b91505092915050565b600082601f830112613d2657600080fd5b8135613d36848260208601613c2c565b91505092915050565b600081359050613d4e816155fa565b92915050565b600081359050613d6381615611565b92915050565b600081519050613d7881615611565b92915050565b600082601f830112613d8f57600080fd5b8135613d9f848260208601613c98565b91505092915050565b60008083601f840112613dba57600080fd5b8235905067ffffffffffffffff811115613dd357600080fd5b602083019150836001820283011115613deb57600080fd5b9250929050565b600081359050613e0181615628565b92915050565b600060208284031215613e1957600080fd5b6000613e2784828501613cd6565b91505092915050565b60008060408385031215613e4357600080fd5b6000613e5185828601613cd6565b9250506020613e6285828601613cd6565b9150509250929050565b600080600080600060a08688031215613e8457600080fd5b6000613e9288828901613cd6565b9550506020613ea388828901613cd6565b945050604086013567ffffffffffffffff811115613ec057600080fd5b613ecc88828901613d15565b935050606086013567ffffffffffffffff811115613ee957600080fd5b613ef588828901613d15565b925050608086013567ffffffffffffffff811115613f1257600080fd5b613f1e88828901613d7e565b9150509295509295909350565b600080600080600060a08688031215613f4357600080fd5b6000613f5188828901613cd6565b9550506020613f6288828901613cd6565b9450506040613f7388828901613df2565b9350506060613f8488828901613df2565b925050608086013567ffffffffffffffff811115613fa157600080fd5b613fad88828901613d7e565b9150509295509295909350565b60008060408385031215613fcd57600080fd5b6000613fdb85828601613cd6565b9250506020613fec85828601613d3f565b9150509250929050565b6000806040838503121561400957600080fd5b600061401785828601613cd6565b925050602061402885828601613df2565b9150509250929050565b6000806040838503121561404557600080fd5b600083013567ffffffffffffffff81111561405f57600080fd5b61406b85828601613ceb565b925050602083013567ffffffffffffffff81111561408857600080fd5b61409485828601613d15565b9150509250929050565b6000602082840312156140b057600080fd5b60006140be84828501613d54565b91505092915050565b6000602082840312156140d957600080fd5b60006140e784828501613d69565b91505092915050565b6000806020838503121561410357600080fd5b600083013567ffffffffffffffff81111561411d57600080fd5b61412985828601613da8565b92509250509250929050565b60008060008060008060008060008060e08b8d03121561415457600080fd5b60008b013567ffffffffffffffff81111561416e57600080fd5b61417a8d828e01613da8565b9a509a505060208b013567ffffffffffffffff81111561419957600080fd5b6141a58d828e01613da8565b985098505060406141b88d828e01613cd6565b96505060606141c98d828e01613cd6565b95505060806141da8d828e01613df2565b94505060a06141eb8d828e01613d3f565b93505060c08b013567ffffffffffffffff81111561420857600080fd5b6142148d828e01613da8565b92509250509295989b9194979a5092959850565b6000806000806060858703121561423e57600080fd5b600085013567ffffffffffffffff81111561425857600080fd5b61426487828801613da8565b9450945050602061427787828801613df2565b925050604061428887828801613d3f565b91505092959194509250565b6000602082840312156142a657600080fd5b60006142b484828501613df2565b91505092915050565b6000806000604084860312156142d257600080fd5b60006142e086828701613df2565b935050602084013567ffffffffffffffff8111156142fd57600080fd5b61430986828701613da8565b92509250509250925092565b6000806040838503121561432857600080fd5b600061433685828601613df2565b925050602061434785828601613df2565b9150509250929050565b600061435d8383614c2b565b60208301905092915050565b61437281615322565b82525050565b6000614383826151e0565b61438d818561520e565b9350614398836151d0565b8060005b838110156143c95781516143b08882614351565b97506143bb83615201565b92505060018101905061439c565b5085935050505092915050565b6143df81615334565b82525050565b60006143f0826151eb565b6143fa818561521f565b935061440a8185602086016153a5565b6144138161550f565b840191505092915050565b6000614429826151f6565b6144338185615230565b93506144438185602086016153a5565b61444c8161550f565b840191505092915050565b6000614464603483615230565b91507f455243313135353a207472616e7366657220746f206e6f6e204552433131353560008301527f526563656976657220696d706c656d656e7465720000000000000000000000006020830152604082019050919050565b60006144ca602883615230565b91507f455243313135353a204552433131353552656365697665722072656a6563746560008301527f6420746f6b656e730000000000000000000000000000000000000000000000006020830152604082019050919050565b6000614530601983615230565b91507f546f6b656e206973206e6f74207265537570706c7961626c65000000000000006000830152602082019050919050565b6000614570601483615230565b91507f416c726561647920556e57686974656c697365640000000000000000000000006000830152602082019050919050565b60006145b0602b83615230565b91507f455243313135353a2062616c616e636520717565727920666f7220746865207a60008301527f65726f20616464726573730000000000000000000000000000000000000000006020830152604082019050919050565b6000614616602683615230565b91507f4f776e61626c653a206e6577206f776e657220697320746865207a65726f206160008301527f64647265737300000000000000000000000000000000000000000000000000006020830152604082019050919050565b600061467c601483615230565b91507f546f6b656e20616c7265616479206578697374730000000000000000000000006000830152602082019050919050565b60006146bc602983615230565b91507f455243313135353a2063616c6c6572206973206e6f74206f776e6572206e6f7260008301527f20617070726f76656400000000000000000000000000000000000000000000006020830152604082019050919050565b6000614722602583615230565b91507f455243313135353a207472616e7366657220746f20746865207a65726f20616460008301527f64726573730000000000000000000000000000000000000000000000000000006020830152604082019050919050565b6000614788603283615230565b91507f455243313135353a207472616e736665722063616c6c6572206973206e6f742060008301527f6f776e6572206e6f7220617070726f76656400000000000000000000000000006020830152604082019050919050565b60006147ee602e83615230565b91507f496e697469616c697a61626c653a20636f6e747261637420697320616c72656160008301527f647920696e697469616c697a65640000000000000000000000000000000000006020830152604082019050919050565b6000614854601083615230565b91507f4d7573742050726f7669646520555249000000000000000000000000000000006000830152602082019050919050565b6000614894602b83615230565b91507f596f752043616e204f6e6c792052656d6f766520596f757273656c662046726f60008301527f6d2057686974656c6973740000000000000000000000000000000000000000006020830152604082019050919050565b60006148fa602a83615230565b91507f455243313135353a20696e73756666696369656e742062616c616e636520666f60008301527f72207472616e73666572000000000000000000000000000000000000000000006020830152604082019050919050565b6000614960601783615230565b91507f596f7520617265206e6f742077686974656c69737465640000000000000000006000830152602082019050919050565b60006149a0601d83615230565b91507f5075626c6963204d696e74696e67206973206e6f7420656e61626c65640000006000830152602082019050919050565b60006149e0601483615230565b91507f546f6b656e20446f65736e2774204578697374730000000000000000000000006000830152602082019050919050565b6000614a20602083615230565b91507f4f776e61626c653a2063616c6c6572206973206e6f7420746865206f776e65726000830152602082019050919050565b6000614a60601383615230565b91507f416c72656164792057686974656c6973746564000000000000000000000000006000830152602082019050919050565b6000614aa0602983615230565b91507f455243313135353a2073657474696e6720617070726f76616c2073746174757360008301527f20666f722073656c6600000000000000000000000000000000000000000000006020830152604082019050919050565b6000614b06602983615230565b91507f455243313135353a206163636f756e747320616e6420696473206c656e67746860008301527f206d69736d6174636800000000000000000000000000000000000000000000006020830152604082019050919050565b6000614b6c602883615230565b91507f455243313135353a2069647320616e6420616d6f756e7473206c656e6774682060008301527f6d69736d617463680000000000000000000000000000000000000000000000006020830152604082019050919050565b6000614bd2602183615230565b91507f455243313135353a206d696e7420746f20746865207a65726f2061646472657360008301527f73000000000000000000000000000000000000000000000000000000000000006020830152604082019050919050565b614c348161538c565b82525050565b614c438161538c565b82525050565b6000602082019050614c5e6000830184614369565b92915050565b600060a082019050614c796000830188614369565b614c866020830187614369565b8181036040830152614c988186614378565b90508181036060830152614cac8185614378565b90508181036080830152614cc081846143e5565b90509695505050505050565b600060a082019050614ce16000830188614369565b614cee6020830187614369565b614cfb6040830186614c3a565b614d086060830185614c3a565b8181036080830152614d1a81846143e5565b90509695505050505050565b6000606082019050614d3b6000830186614369565b614d486020830185614c3a565b614d556040830184614c3a565b949350505050565b60006020820190508181036000830152614d778184614378565b905092915050565b60006040820190508181036000830152614d998185614378565b90508181036020830152614dad8184614378565b90509392505050565b6000602082019050614dcb60008301846143d6565b92915050565b60006020820190508181036000830152614deb818461441e565b905092915050565b60006020820190508181036000830152614e0c81614457565b9050919050565b60006020820190508181036000830152614e2c816144bd565b9050919050565b60006020820190508181036000830152614e4c81614523565b9050919050565b60006020820190508181036000830152614e6c81614563565b9050919050565b60006020820190508181036000830152614e8c816145a3565b9050919050565b60006020820190508181036000830152614eac81614609565b9050919050565b60006020820190508181036000830152614ecc8161466f565b9050919050565b60006020820190508181036000830152614eec816146af565b9050919050565b60006020820190508181036000830152614f0c81614715565b9050919050565b60006020820190508181036000830152614f2c8161477b565b9050919050565b60006020820190508181036000830152614f4c816147e1565b9050919050565b60006020820190508181036000830152614f6c81614847565b9050919050565b60006020820190508181036000830152614f8c81614887565b9050919050565b60006020820190508181036000830152614fac816148ed565b9050919050565b60006020820190508181036000830152614fcc81614953565b9050919050565b60006020820190508181036000830152614fec81614993565b9050919050565b6000602082019050818103600083015261500c816149d3565b9050919050565b6000602082019050818103600083015261502c81614a13565b9050919050565b6000602082019050818103600083015261504c81614a53565b9050919050565b6000602082019050818103600083015261506c81614a93565b9050919050565b6000602082019050818103600083015261508c81614af9565b9050919050565b600060208201905081810360008301526150ac81614b5f565b9050919050565b600060208201905081810360008301526150cc81614bc5565b9050919050565b60006020820190506150e86000830184614c3a565b92915050565b60006040820190506151036000830185614c3a565b6151106020830184614c3a565b9392505050565b6000604051905081810181811067ffffffffffffffff8211171561513e5761513d6154e0565b5b8060405250919050565b600067ffffffffffffffff821115615163576151626154e0565b5b602082029050602081019050919050565b600067ffffffffffffffff82111561518f5761518e6154e0565b5b602082029050602081019050919050565b600067ffffffffffffffff8211156151bb576151ba6154e0565b5b601f19601f8301169050602081019050919050565b6000819050602082019050919050565b600081519050919050565b600081519050919050565b600081519050919050565b6000602082019050919050565b600082825260208201905092915050565b600082825260208201905092915050565b600082825260208201905092915050565b600061524c8261538c565b91506152578361538c565b9250827fffffffffffffffffffffffffffffffffffffffffffffffffffffffffffffffff0382111561528c5761528b615453565b5b828201905092915050565b60006152a28261538c565b91506152ad8361538c565b9250826152bd576152bc615482565b5b828204905092915050565b60006152d38261538c565b91506152de8361538c565b9250817fffffffffffffffffffffffffffffffffffffffffffffffffffffffffffffffff048311821515161561531757615316615453565b5b828202905092915050565b600061532d8261536c565b9050919050565b60008115159050919050565b60007fffffffff0000000000000000000000000000000000000000000000000000000082169050919050565b600073ffffffffffffffffffffffffffffffffffffffff82169050919050565b6000819050919050565b82818337600083830152505050565b60005b838110156153c35780820151818401526020810190506153a8565b838111156153d2576000848401525b50505050565b600060028204905060018216806153f057607f821691505b60208210811415615404576154036154b1565b5b50919050565b60006154158261538c565b91507fffffffffffffffffffffffffffffffffffffffffffffffffffffffffffffffff82141561544857615447615453565b5b600182019050919050565b7f4e487b7100000000000000000000000000000000000000000000000000000000600052601160045260246000fd5b7f4e487b7100000000000000000000000000000000000000000000000000000000600052601260045260246000fd5b7f4e487b7100000000000000000000000000000000000000000000000000000000600052602260045260246000fd5b7f4e487b7100000000000000000000000000000000000000000000000000000000600052604160045260246000fd5b6000601f19601f8301169050919050565b60008160e01c9050919050565b600060443d101561553d576155e0565b60046000803e61554e600051615520565b6308c379a0811461555f57506155e0565b60405160043d036004823e80513d602482011167ffffffffffffffff8211171561558b575050506155e0565b808201805167ffffffffffffffff8111156155aa5750505050506155e0565b8060208301013d85018111156155c5575050505050506155e0565b6155ce8261550f565b60208401016040528296505050505050505b90565b6155ec81615322565b81146155f757600080fd5b50565b61560381615334565b811461560e57600080fd5b50565b61561a81615340565b811461562557600080fd5b50565b6156318161538c565b811461563c57600080fd5b5056fea26469706673582212204404a718d4309b468e543bd1b39e893a11e495bc6d0ea3027de6c812493d5d7c64736f6c63430008000033",
  "linkReferences": {},
  "deployedLinkReferences": {}
}