{
  "_format": "hh-sol-artifact-1",
  "contractName": "NFTCollection",
  "sourceName": "contracts/Minter.sol",
  "abi": [
    {
      "anonymous": false,
      "inputs": [
        {
          "indexed": true,
          "internalType": "address",
          "name": "account",
          "type": "address"
        },
        {
          "indexed": true,
          "internalType": "address",
          "name": "operator",
          "type": "address"
        },
        {
          "indexed": false,
          "internalType": "bool",
          "name": "approved",
          "type": "bool"
        }
      ],
      "name": "ApprovalForAll",
      "type": "event"
    },
    {
      "anonymous": false,
      "inputs": [
        {
          "indexed": true,
          "internalType": "uint256",
          "name": "tokenId",
          "type": "uint256"
        },
        {
          "indexed": true,
          "internalType": "address",
          "name": "creator",
          "type": "address"
        }
      ],
      "name": "Mint",
      "type": "event"
    },
    {
      "anonymous": false,
      "inputs": [
        {
          "indexed": true,
          "internalType": "address",
          "name": "previousOwner",
          "type": "address"
        },
        {
          "indexed": true,
          "internalType": "address",
          "name": "newOwner",
          "type": "address"
        }
      ],
      "name": "OwnershipTransferred",
      "type": "event"
    },
    {
      "anonymous": false,
      "inputs": [
        {
          "indexed": true,
          "internalType": "address",
          "name": "operator",
          "type": "address"
        },
        {
          "indexed": true,
          "internalType": "address",
          "name": "from",
          "type": "address"
        },
        {
          "indexed": true,
          "internalType": "address",
          "name": "to",
          "type": "address"
        },
        {
          "indexed": false,
          "internalType": "uint256[]",
          "name": "ids",
          "type": "uint256[]"
        },
        {
          "indexed": false,
          "internalType": "uint256[]",
          "name": "values",
          "type": "uint256[]"
        }
      ],
      "name": "TransferBatch",
      "type": "event"
    },
    {
      "anonymous": false,
      "inputs": [
        {
          "indexed": true,
          "internalType": "address",
          "name": "operator",
          "type": "address"
        },
        {
          "indexed": true,
          "internalType": "address",
          "name": "from",
          "type": "address"
        },
        {
          "indexed": true,
          "internalType": "address",
          "name": "to",
          "type": "address"
        },
        {
          "indexed": false,
          "internalType": "uint256",
          "name": "id",
          "type": "uint256"
        },
        {
          "indexed": false,
          "internalType": "uint256",
          "name": "value",
          "type": "uint256"
        }
      ],
      "name": "TransferSingle",
      "type": "event"
    },
    {
      "anonymous": false,
      "inputs": [
        {
          "indexed": false,
          "internalType": "string",
          "name": "value",
          "type": "string"
        },
        {
          "indexed": true,
          "internalType": "uint256",
          "name": "id",
          "type": "uint256"
        }
      ],
      "name": "URI",
      "type": "event"
    },
    {
      "inputs": [],
      "name": "__Storage_initialize",
      "outputs": [],
      "stateMutability": "nonpayable",
      "type": "function"
    },
    {
      "inputs": [
        {
          "internalType": "uint256",
          "name": "",
          "type": "uint256"
        }
      ],
      "name": "_exists",
      "outputs": [
        {
          "internalType": "bool",
          "name": "",
          "type": "bool"
        }
      ],
      "stateMutability": "view",
      "type": "function"
    },
    {
      "inputs": [],
      "name": "_name",
      "outputs": [
        {
          "internalType": "string",
          "name": "",
          "type": "string"
        }
      ],
      "stateMutability": "view",
      "type": "function"
    },
    {
      "inputs": [],
      "name": "_royaltiesPercentage",
      "outputs": [
        {
          "internalType": "uint256",
          "name": "",
          "type": "uint256"
        }
      ],
      "stateMutability": "view",
      "type": "function"
    },
    {
      "inputs": [],
      "name": "_royaltiesReceiver",
      "outputs": [
        {
          "internalType": "address",
          "name": "",
          "type": "address"
        }
      ],
      "stateMutability": "view",
      "type": "function"
    },
    {
      "inputs": [],
      "name": "_symbol",
      "outputs": [
        {
          "internalType": "string",
          "name": "",
          "type": "string"
        }
      ],
      "stateMutability": "view",
      "type": "function"
    },
    {
      "inputs": [
        {
          "internalType": "address",
          "name": "_addr",
          "type": "address"
        }
      ],
      "name": "addBlackList",
      "outputs": [],
      "stateMutability": "nonpayable",
      "type": "function"
    },
    {
      "inputs": [
        {
          "internalType": "address",
          "name": "account",
          "type": "address"
        },
        {
          "internalType": "uint256",
          "name": "id",
          "type": "uint256"
        }
      ],
      "name": "balanceOf",
      "outputs": [
        {
          "internalType": "uint256",
          "name": "",
          "type": "uint256"
        }
      ],
      "stateMutability": "view",
      "type": "function"
    },
    {
      "inputs": [
        {
          "internalType": "address[]",
          "name": "accounts",
          "type": "address[]"
        },
        {
          "internalType": "uint256[]",
          "name": "ids",
          "type": "uint256[]"
        }
      ],
      "name": "balanceOfBatch",
      "outputs": [
        {
          "internalType": "uint256[]",
          "name": "",
          "type": "uint256[]"
        }
      ],
      "stateMutability": "view",
      "type": "function"
    },
    {
      "inputs": [
        {
          "internalType": "address",
          "name": "",
          "type": "address"
        }
      ],
      "name": "blackListed",
      "outputs": [
        {
          "internalType": "bool",
          "name": "",
          "type": "bool"
        }
      ],
      "stateMutability": "view",
      "type": "function"
    },
    {
      "inputs": [
        {
          "internalType": "uint256",
          "name": "",
          "type": "uint256"
        }
      ],
      "name": "fixedSupplyStatus",
      "outputs": [
        {
          "internalType": "bool",
          "name": "",
          "type": "bool"
        }
      ],
      "stateMutability": "view",
      "type": "function"
    },
    {
      "inputs": [
        {
          "internalType": "string",
          "name": "fullName",
          "type": "string"
        },
        {
          "internalType": "string",
          "name": "symbl",
          "type": "string"
        },
        {
          "internalType": "address",
          "name": "royaltiyReciever",
          "type": "address"
        },
        {
          "internalType": "address",
          "name": "minter",
          "type": "address"
        },
        {
          "internalType": "uint256",
          "name": "royaltiesPercentage",
          "type": "uint256"
        },
        {
          "internalType": "bool",
          "name": "_publicMinting",
          "type": "bool"
        },
        {
          "internalType": "string",
          "name": "metadata",
          "type": "string"
        }
      ],
      "name": "initialize",
      "outputs": [],
      "stateMutability": "nonpayable",
      "type": "function"
    },
    {
      "inputs": [
        {
          "internalType": "address",
          "name": "_owner",
          "type": "address"
        },
        {
          "internalType": "address",
          "name": "_operator",
          "type": "address"
        }
      ],
      "name": "isApprovedForAll",
      "outputs": [
        {
          "internalType": "bool",
          "name": "isOperator",
          "type": "bool"
        }
      ],
      "stateMutability": "view",
      "type": "function"
    },
    {
      "inputs": [
        {
          "internalType": "address",
          "name": "forwarder",
          "type": "address"
        }
      ],
      "name": "isTrustedForwarder",
      "outputs": [
        {
          "internalType": "bool",
          "name": "",
          "type": "bool"
        }
      ],
      "stateMutability": "view",
      "type": "function"
    },
    {
      "inputs": [
        {
          "internalType": "string",
          "name": "_tokenURI",
          "type": "string"
        },
        {
          "internalType": "uint256",
          "name": "amount",
          "type": "uint256"
        },
        {
          "internalType": "bool",
          "name": "_isSupplyFixed",
          "type": "bool"
        }
      ],
      "name": "mint",
      "outputs": [
        {
          "internalType": "uint256",
          "name": "",
          "type": "uint256"
        }
      ],
      "stateMutability": "nonpayable",
      "type": "function"
    },
    {
      "inputs": [],
      "name": "name",
      "outputs": [
        {
          "internalType": "string",
          "name": "",
          "type": "string"
        }
      ],
      "stateMutability": "view",
      "type": "function"
    },
    {
      "inputs": [],
      "name": "owner",
      "outputs": [
        {
          "internalType": "address",
          "name": "",
          "type": "address"
        }
      ],
      "stateMutability": "view",
      "type": "function"
    },
    {
      "inputs": [],
      "name": "publicMinting",
      "outputs": [
        {
          "internalType": "bool",
          "name": "",
          "type": "bool"
        }
      ],
      "stateMutability": "view",
      "type": "function"
    },
    {
      "inputs": [
        {
          "internalType": "address",
          "name": "_airdropAddy",
          "type": "address"
        },
        {
          "internalType": "uint256",
          "name": "_tokenId",
          "type": "uint256"
        },
        {
          "internalType": "uint256",
          "name": "amount",
          "type": "uint256"
        }
      ],
      "name": "reSupply",
      "outputs": [
        {
          "internalType": "uint256",
          "name": "",
          "type": "uint256"
        }
      ],
      "stateMutability": "nonpayable",
      "type": "function"
    },
    {
      "inputs": [
        {
          "internalType": "address",
          "name": "_addr",
          "type": "address"
        }
      ],
      "name": "removeBlackList",
      "outputs": [],
      "stateMutability": "nonpayable",
      "type": "function"
    },
    {
      "inputs": [
        {
          "internalType": "address",
          "name": "_addr",
          "type": "address"
        }
      ],
      "name": "removeWhiteList",
      "outputs": [],
      "stateMutability": "nonpayable",
      "type": "function"
    },
    {
      "inputs": [
        {
          "internalType": "address",
          "name": "_addr",
          "type": "address"
        }
      ],
      "name": "removeWhiteList_Admin",
      "outputs": [],
      "stateMutability": "nonpayable",
      "type": "function"
    },
    {
      "inputs": [],
      "name": "renounceOwnership",
      "outputs": [],
      "stateMutability": "nonpayable",
      "type": "function"
    },
    {
      "inputs": [
        {
          "internalType": "uint256",
          "name": "_tokenId",
          "type": "uint256"
        }
      ],
      "name": "revokeTokenMintingPriv",
      "outputs": [],
      "stateMutability": "nonpayable",
      "type": "function"
    },
    {
      "inputs": [
        {
          "internalType": "uint256",
          "name": "_nftId",
          "type": "uint256"
        },
        {
          "internalType": "uint256",
          "name": "_salePrice",
          "type": "uint256"
        }
      ],
      "name": "royaltyInfo",
      "outputs": [
        {
          "internalType": "address",
          "name": "receiver",
          "type": "address"
        },
        {
          "internalType": "uint256",
          "name": "royaltyAmount",
          "type": "uint256"
        },
        {
          "internalType": "uint256",
          "name": "tokenId",
          "type": "uint256"
        }
      ],
      "stateMutability": "view",
      "type": "function"
    },
    {
      "inputs": [
        {
          "internalType": "address",
          "name": "from",
          "type": "address"
        },
        {
          "internalType": "address",
          "name": "to",
          "type": "address"
        },
        {
          "internalType": "uint256[]",
          "name": "ids",
          "type": "uint256[]"
        },
        {
          "internalType": "uint256[]",
          "name": "amounts",
          "type": "uint256[]"
        },
        {
          "internalType": "bytes",
          "name": "data",
          "type": "bytes"
        }
      ],
      "name": "safeBatchTransferFrom",
      "outputs": [],
      "stateMutability": "nonpayable",
      "type": "function"
    },
    {
      "inputs": [
        {
          "internalType": "address",
          "name": "from",
          "type": "address"
        },
        {
          "internalType": "address",
          "name": "to",
          "type": "address"
        },
        {
          "internalType": "uint256",
          "name": "id",
          "type": "uint256"
        },
        {
          "internalType": "uint256",
          "name": "amount",
          "type": "uint256"
        },
        {
          "internalType": "bytes",
          "name": "data",
          "type": "bytes"
        }
      ],
      "name": "safeTransferFrom",
      "outputs": [],
      "stateMutability": "nonpayable",
      "type": "function"
    },
    {
      "inputs": [
        {
          "internalType": "address",
          "name": "operator",
          "type": "address"
        },
        {
          "internalType": "bool",
          "name": "approved",
          "type": "bool"
        }
      ],
      "name": "setApprovalForAll",
      "outputs": [],
      "stateMutability": "nonpayable",
      "type": "function"
    },
    {
      "inputs": [
        {
          "internalType": "uint256",
          "name": "newRoyalties",
          "type": "uint256"
        }
      ],
      "name": "setRoyalties",
      "outputs": [],
      "stateMutability": "nonpayable",
      "type": "function"
    },
    {
      "inputs": [
        {
          "internalType": "address",
          "name": "newRoyaltiesReceiver",
          "type": "address"
        }
      ],
      "name": "setRoyaltiesReceiver",
      "outputs": [],
      "stateMutability": "nonpayable",
      "type": "function"
    },
    {
      "inputs": [
        {
          "internalType": "address",
          "name": "_addr",
          "type": "address"
        }
      ],
      "name": "setWhiteList",
      "outputs": [],
      "stateMutability": "nonpayable",
      "type": "function"
    },
    {
      "inputs": [
        {
          "internalType": "address",
          "name": "_addr",
          "type": "address"
        }
      ],
      "name": "setWhiteList_Admin",
      "outputs": [],
      "stateMutability": "nonpayable",
      "type": "function"
    },
    {
      "inputs": [
        {
          "internalType": "bytes4",
          "name": "interfaceId",
          "type": "bytes4"
        }
      ],
      "name": "supportsInterface",
      "outputs": [
        {
          "internalType": "bool",
          "name": "",
          "type": "bool"
        }
      ],
      "stateMutability": "view",
      "type": "function"
    },
    {
      "inputs": [],
      "name": "symbol",
      "outputs": [
        {
          "internalType": "string",
          "name": "",
          "type": "string"
        }
      ],
      "stateMutability": "view",
      "type": "function"
    },
    {
      "inputs": [],
      "name": "togglePublicMinting",
      "outputs": [],
      "stateMutability": "nonpayable",
      "type": "function"
    },
    {
      "inputs": [
        {
          "internalType": "uint256",
          "name": "_tokenId",
          "type": "uint256"
        }
      ],
      "name": "toggleSupplyFixedStatus",
      "outputs": [],
      "stateMutability": "nonpayable",
      "type": "function"
    },
    {
      "inputs": [
        {
          "internalType": "uint256",
          "name": "_tokenId",
          "type": "uint256"
        }
      ],
      "name": "toggleSupplyFixedStatus_Admin",
      "outputs": [],
      "stateMutability": "nonpayable",
      "type": "function"
    },
    {
      "inputs": [
        {
          "internalType": "uint256",
          "name": "",
          "type": "uint256"
        }
      ],
      "name": "tokenMinter",
      "outputs": [
        {
          "internalType": "address",
          "name": "",
          "type": "address"
        }
      ],
      "stateMutability": "view",
      "type": "function"
    },
    {
      "inputs": [
        {
          "internalType": "uint256",
          "name": "",
          "type": "uint256"
        }
      ],
      "name": "tokenUri",
      "outputs": [
        {
          "internalType": "string",
          "name": "",
          "type": "string"
        }
      ],
      "stateMutability": "view",
      "type": "function"
    },
    {
      "inputs": [],
      "name": "totalSupply",
      "outputs": [
        {
          "internalType": "uint256",
          "name": "",
          "type": "uint256"
        }
      ],
      "stateMutability": "view",
      "type": "function"
    },
    {
      "inputs": [
        {
          "internalType": "address",
          "name": "newOwner",
          "type": "address"
        }
      ],
      "name": "transferOwnership",
      "outputs": [],
      "stateMutability": "nonpayable",
      "type": "function"
    },
    {
      "inputs": [
        {
          "internalType": "uint256",
          "name": "_tokenId",
          "type": "uint256"
        },
        {
          "internalType": "string",
          "name": "_uri",
          "type": "string"
        }
      ],
      "name": "updateTokenUri",
      "outputs": [],
      "stateMutability": "nonpayable",
      "type": "function"
    },
    {
      "inputs": [
        {
          "internalType": "uint256",
          "name": "_tokenId",
          "type": "uint256"
        },
        {
          "internalType": "string",
          "name": "_uri",
          "type": "string"
        }
      ],
      "name": "updateTokenUri_Admin",
      "outputs": [],
      "stateMutability": "nonpayable",
      "type": "function"
    },
    {
      "inputs": [
        {
          "internalType": "uint256",
          "name": "id",
          "type": "uint256"
        }
      ],
      "name": "uri",
      "outputs": [
        {
          "internalType": "string",
          "name": "",
          "type": "string"
        }
      ],
      "stateMutability": "view",
      "type": "function"
    },
    {
      "inputs": [
        {
          "internalType": "address",
          "name": "",
          "type": "address"
        }
      ],
      "name": "whiteListed",
      "outputs": [
        {
          "internalType": "bool",
          "name": "",
          "type": "bool"
        }
      ],
      "stateMutability": "view",
      "type": "function"
    }
  ],
  "bytecode": "0x608060405234801561001057600080fd5b50615ff080620000216000396000f3fe608060405234801561001057600080fd5b506004361061027e5760003560e01c8063715018a61161015c578063bbde5b25116100ce578063e985e9c511610087578063e985e9c514610795578063ecacecc2146107c5578063f242432a146107e1578063f2fde38b146107fd578063f8e76cc014610819578063fa0fca84146108495761027e565b8063bbde5b25146106c1578063c102f016146106f1578063cf7761ee14610721578063d28d88521461073f578063d31af4841461075d578063e4997dc5146107795761027e565b806391a837111161012057806391a83711146105ff57806395d89b411461061d57806396f76f6f1461063b578063a22cb4651461066b578063b09f126614610687578063b5143715146106a55761027e565b8063715018a61461055b5780637c57d947146105655780638491a5a3146105955780638da5cb5b146105c55780638dfa22b3146105e35761027e565b80632eb2c2d6116101f55780634e1273f4116101b95780634e1273f41461049b57806353ac010a146104cb578063572b6c05146104e95780635febd58c146105195780636b8a21fc146105355780636e1200171461053f5761027e565b80632eb2c2d61461042157806339e899ee1461043d5780634211da721461045957806346a2a9461461047557806346d6e6cb146104915761027e565b80631675f455116102475780631675f4551461034d57806318160ddd1461037d5780631c84a45b1461039b5780632042e5c2146103b75780632a55205a146103d35780632b80183f146104055761027e565b8062fdd58e1461028357806301ffc9a7146102b357806306fdde03146102e35780630e89341c146103015780630ecb93c014610331575b600080fd5b61029d6004803603810190610298919061498d565b610879565b6040516102aa9190615a4e565b60405180910390f35b6102cd60048036038101906102c89190614a84565b610943565b6040516102da9190615731565b60405180910390f35b6102eb6109bd565b6040516102f8919061574c565b60405180910390f35b61031b60048036038101906103169190614c35565b610a4f565b604051610328919061574c565b60405180910390f35b61034b6004803603810190610346919061479e565b610af5565b005b61036760048036038101906103629190614c35565b610b7f565b604051610374919061574c565b60405180910390f35b610385610c20565b6040516103929190615a4e565b60405180910390f35b6103b560048036038101906103b09190614c5e565b610c32565b005b6103d160048036038101906103cc919061479e565b610d62565b005b6103ed60048036038101906103e89190614cb6565b610dde565b6040516103fc939291906156a1565b60405180910390f35b61041f600480360381019061041a9190614c35565b610e33565b005b61043b60048036038101906104369190614803565b610ec8565b005b6104576004803603810190610452919061479e565b610f69565b005b610473600480360381019061046e9190614c35565b610fc6565b005b61048f600480360381019061048a919061479e565b611076565b005b610499611100565b005b6104b560048036038101906104b09190614a18565b6111d9565b6040516104c291906156d8565b60405180910390f35b6104d361138a565b6040516104e09190615731565b60405180910390f35b61050360048036038101906104fe919061479e565b61139d565b6040516105109190615731565b60405180910390f35b610533600480360381019061052e9190614ad6565b6113f7565b005b61053d611504565b005b61055960048036038101906105549190614c35565b61159b565b005b61056361168e565b005b61057f600480360381019061057a9190614c35565b611716565b60405161058c91906155c4565b60405180910390f35b6105af60048036038101906105aa91906149c9565b61174a565b6040516105bc9190615a4e565b60405180910390f35b6105cd6118c6565b6040516105da91906155c4565b60405180910390f35b6105fd60048036038101906105f89190614c35565b6118f0565b005b610607611a96565b60405161061491906155c4565b60405180910390f35b610625611abc565b604051610632919061574c565b60405180910390f35b61065560048036038101906106509190614bc9565b611b4e565b6040516106629190615a4e565b60405180910390f35b61068560048036038101906106809190614951565b611c8f565b005b61068f611e10565b60405161069c919061574c565b60405180910390f35b6106bf60048036038101906106ba919061479e565b611e9e565b005b6106db60048036038101906106d6919061479e565b611fb9565b6040516106e89190615731565b60405180910390f35b61070b60048036038101906107069190614c35565b611fda565b6040516107189190615731565b60405180910390f35b610729611ffb565b6040516107369190615a4e565b60405180910390f35b610747612001565b604051610754919061574c565b60405180910390f35b61077760048036038101906107729190614c5e565b61208f565b005b610793600480360381019061078e919061479e565b612300565b005b6107af60048036038101906107aa91906147c7565b61238a565b6040516107bc9190615731565b60405180910390f35b6107df60048036038101906107da919061479e565b6123f0565b005b6107fb60048036038101906107f691906148c2565b61247a565b005b6108176004803603810190610812919061479e565b61251b565b005b610833600480360381019061082e9190614c35565b612613565b6040516108409190615731565b60405180910390f35b610863600480360381019061085e919061479e565b612634565b6040516108709190615731565b60405180910390f35b60008073ffffffffffffffffffffffffffffffffffffffff168373ffffffffffffffffffffffffffffffffffffffff1614156108ea576040517f08c379a00000000000000000000000000000000000000000000000000000000081526004016108e1906157ae565b60405180910390fd5b60c9600083815260200190815260200160002060008473ffffffffffffffffffffffffffffffffffffffff1673ffffffffffffffffffffffffffffffffffffffff16815260200190815260200160002054905092915050565b60007f2a55205a000000000000000000000000000000000000000000000000000000007bffffffffffffffffffffffffffffffffffffffffffffffffffffffff1916827bffffffffffffffffffffffffffffffffffffffffffffffffffffffff191614806109b657506109b582612655565b5b9050919050565b606060fb80546109cc90615d53565b80601f01602080910402602001604051908101604052809291908181526020018280546109f890615d53565b8015610a455780601f10610a1a57610100808354040283529160200191610a45565b820191906000526020600020905b815481529060010190602001808311610a2857829003601f168201915b5050505050905090565b606061010560008381526020019081526020016000208054610a7090615d53565b80601f0160208091040260200160405190810160405280929190818152602001828054610a9c90615d53565b8015610ae95780601f10610abe57610100808354040283529160200191610ae9565b820191906000526020600020905b815481529060010190602001808311610acc57829003601f168201915b50505050509050919050565b610afd612737565b73ffffffffffffffffffffffffffffffffffffffff16610b1b6118c6565b73ffffffffffffffffffffffffffffffffffffffff1614610b71576040517f08c379a0000000000000000000000000000000000000000000000000000000008152600401610b689061590e565b60405180910390fd5b610b7c816001612746565b50565b6101056020528060005260406000206000915090508054610b9f90615d53565b80601f0160208091040260200160405190810160405280929190818152602001828054610bcb90615d53565b8015610c185780601f10610bed57610100808354040283529160200191610c18565b820191906000526020600020905b815481529060010190602001808311610bfb57829003601f168201915b505050505081565b6000610c2d6101046127a2565b905090565b610c3a612737565b73ffffffffffffffffffffffffffffffffffffffff16610c586118c6565b73ffffffffffffffffffffffffffffffffffffffff1614610cae576040517f08c379a0000000000000000000000000000000000000000000000000000000008152600401610ca59061590e565b60405180910390fd5b610100600084815260200190815260200160002060009054906101000a900460ff16610d0f576040517f08c379a0000000000000000000000000000000000000000000000000000000008152600401610d069061594e565b60405180910390fd5b610d5d8383838080601f016020809104026020016040519081016040528093929190818152602001838380828437600081840152601f19601f820116905080830192505050505050506127b0565b505050565b8073ffffffffffffffffffffffffffffffffffffffff163373ffffffffffffffffffffffffffffffffffffffff1614610dd0576040517f08c379a0000000000000000000000000000000000000000000000000000000008152600401610dc7906159ce565b60405180910390fd5b610ddb8160006127dd565b50565b600080600080606460fe5486610df49190615c43565b610dfe9190615c12565b905060fd60009054906101000a900473ffffffffffffffffffffffffffffffffffffffff168187935093509350509250925092565b610e3b612737565b73ffffffffffffffffffffffffffffffffffffffff16610e596118c6565b73ffffffffffffffffffffffffffffffffffffffff1614610eaf576040517f08c379a0000000000000000000000000000000000000000000000000000000008152600401610ea69061590e565b60405180910390fd5b60fe54811415610ebe57600080fd5b8060fe8190555050565b610ed0612737565b73ffffffffffffffffffffffffffffffffffffffff168573ffffffffffffffffffffffffffffffffffffffff161480610f165750610f1585610f10612737565b61238a565b5b610f55576040517f08c379a0000000000000000000000000000000000000000000000000000000008152600401610f4c9061586e565b60405180910390fd5b610f628585858585612839565b5050505050565b60ff60009054906101000a900460ff16610fb8576040517f08c379a0000000000000000000000000000000000000000000000000000000008152600401610faf906157ce565b60405180910390fd5b610fc38160016127dd565b50565b3373ffffffffffffffffffffffffffffffffffffffff16610103600083815260200190815260200160002060009054906101000a900473ffffffffffffffffffffffffffffffffffffffff1673ffffffffffffffffffffffffffffffffffffffff1614611068576040517f08c379a000000000000000000000000000000000000000000000000000000000815260040161105f9061582e565b60405180910390fd5b611073816000612b9c565b50565b61107e612737565b73ffffffffffffffffffffffffffffffffffffffff1661109c6118c6565b73ffffffffffffffffffffffffffffffffffffffff16146110f2576040517f08c379a00000000000000000000000000000000000000000000000000000000081526004016110e99061590e565b60405180910390fd5b6110fd8160006127dd565b50565b600060019054906101000a900460ff1680611126575060008054906101000a900460ff16155b611165576040517f08c379a000000000000000000000000000000000000000000000000000000000815260040161115c9061588e565b60405180910390fd5b60008060019054906101000a900460ff1615905080156111b5576001600060016101000a81548160ff02191690831515021790555060016000806101000a81548160ff0219169083151502179055505b80156111d65760008060016101000a81548160ff0219169083151502179055505b50565b6060815183511461121f576040517f08c379a0000000000000000000000000000000000000000000000000000000008152600401611216906159ee565b60405180910390fd5b6000835167ffffffffffffffff811115611262577f4e487b7100000000000000000000000000000000000000000000000000000000600052604160045260246000fd5b6040519080825280602002602001820160405280156112905781602001602082028036833780820191505090505b50905060005b845181101561137f576113298582815181106112db577f4e487b7100000000000000000000000000000000000000000000000000000000600052603260045260246000fd5b602002602001015185838151811061131c577f4e487b7100000000000000000000000000000000000000000000000000000000600052603260045260246000fd5b6020026020010151610879565b828281518110611362577f4e487b7100000000000000000000000000000000000000000000000000000000600052603260045260246000fd5b6020026020010181815250508061137890615d85565b9050611296565b508091505092915050565b60ff60009054906101000a900460ff1681565b6000603360009054906101000a900473ffffffffffffffffffffffffffffffffffffffff1673ffffffffffffffffffffffffffffffffffffffff168273ffffffffffffffffffffffffffffffffffffffff16149050919050565b600060019054906101000a900460ff168061141d575060008054906101000a900460ff16155b61145c576040517f08c379a00000000000000000000000000000000000000000000000000000000081526004016114539061588e565b60405180910390fd5b60008060019054906101000a900460ff1615905080156114ac576001600060016101000a81548160ff02191690831515021790555060016000806101000a81548160ff0219169083151502179055505b6114ba8b8b8b8b8787612bf3565b6114c48487612d4b565b6114ce8786612e30565b6114d6612f25565b80156114f75760008060016101000a81548160ff0219169083151502179055505b5050505050505050505050565b61150c612737565b73ffffffffffffffffffffffffffffffffffffffff1661152a6118c6565b73ffffffffffffffffffffffffffffffffffffffff1614611580576040517f08c379a00000000000000000000000000000000000000000000000000000000081526004016115779061590e565b60405180910390fd5b61159960ff60009054906101000a900460ff1615613006565b565b6115a3612737565b73ffffffffffffffffffffffffffffffffffffffff166115c16118c6565b73ffffffffffffffffffffffffffffffffffffffff1614611617576040517f08c379a000000000000000000000000000000000000000000000000000000000815260040161160e9061590e565b60405180910390fd5b610100600082815260200190815260200160002060009054906101000a900460ff16611678576040517f08c379a000000000000000000000000000000000000000000000000000000000815260040161166f9061594e565b60405180910390fd5b61168b8161168583613023565b156130af565b50565b611696612737565b73ffffffffffffffffffffffffffffffffffffffff166116b46118c6565b73ffffffffffffffffffffffffffffffffffffffff161461170a576040517f08c379a00000000000000000000000000000000000000000000000000000000081526004016117019061590e565b60405180910390fd5b61171460006130df565b565b6101036020528060005260406000206000915054906101000a900473ffffffffffffffffffffffffffffffffffffffff1681565b6000610106600084815260200190815260200160002060009054906101000a900460ff16156117ae576040517f08c379a00000000000000000000000000000000000000000000000000000000081526004016117a5906158ae565b60405180910390fd5b610100600084815260200190815260200160002060009054906101000a900460ff1661180f576040517f08c379a00000000000000000000000000000000000000000000000000000000081526004016118069061594e565b60405180910390fd5b3373ffffffffffffffffffffffffffffffffffffffff16610103600085815260200190815260200160002060009054906101000a900473ffffffffffffffffffffffffffffffffffffffff1673ffffffffffffffffffffffffffffffffffffffff16146118b1576040517f08c379a00000000000000000000000000000000000000000000000000000000081526004016118a89061582e565b60405180910390fd5b6118bc8484846131a5565b8290509392505050565b6000606560009054906101000a900473ffffffffffffffffffffffffffffffffffffffff16905090565b610100600082815260200190815260200160002060009054906101000a900460ff16611951576040517f08c379a00000000000000000000000000000000000000000000000000000000081526004016119489061594e565b60405180910390fd5b61010160003373ffffffffffffffffffffffffffffffffffffffff1673ffffffffffffffffffffffffffffffffffffffff16815260200190815260200160002060009054906101000a900460ff166119de576040517f08c379a00000000000000000000000000000000000000000000000000000000081526004016119d59061592e565b60405180910390fd5b3373ffffffffffffffffffffffffffffffffffffffff16610103600083815260200190815260200160002060009054906101000a900473ffffffffffffffffffffffffffffffffffffffff1673ffffffffffffffffffffffffffffffffffffffff1614611a80576040517f08c379a0000000000000000000000000000000000000000000000000000000008152600401611a779061582e565b60405180910390fd5b611a9381611a8d83613023565b156130af565b50565b60fd60009054906101000a900473ffffffffffffffffffffffffffffffffffffffff1681565b606060fc8054611acb90615d53565b80601f0160208091040260200160405190810160405280929190818152602001828054611af790615d53565b8015611b445780601f10611b1957610100808354040283529160200191611b44565b820191906000526020600020905b815481529060010190602001808311611b2757829003601f168201915b5050505050905090565b600080611b59610c20565b905060008686905011611ba1576040517f08c379a0000000000000000000000000000000000000000000000000000000008152600401611b98906158ee565b60405180910390fd5b610100600082815260200190815260200160002060009054906101000a900460ff1615611c03576040517f08c379a0000000000000000000000000000000000000000000000000000000008152600401611bfa9061598e565b60405180910390fd5b611c0e3382866131a5565b611c5c8187878080601f016020809104026020016040519081016040528093929190818152602001838380828437600081840152601f19601f820116905080830192505050505050506127b0565b611c67816001613324565b611c7181846130af565b611c7b8133612b9c565b611c83613354565b80915050949350505050565b8173ffffffffffffffffffffffffffffffffffffffff16611cae612737565b73ffffffffffffffffffffffffffffffffffffffff161415611d05576040517f08c379a0000000000000000000000000000000000000000000000000000000008152600401611cfc906159ae565b60405180910390fd5b8060ca6000611d12612737565b73ffffffffffffffffffffffffffffffffffffffff1673ffffffffffffffffffffffffffffffffffffffff16815260200190815260200160002060008473ffffffffffffffffffffffffffffffffffffffff1673ffffffffffffffffffffffffffffffffffffffff16815260200190815260200160002060006101000a81548160ff0219169083151502179055508173ffffffffffffffffffffffffffffffffffffffff16611dbf612737565b73ffffffffffffffffffffffffffffffffffffffff167f17307eab39ab6107e8899845ad3d59bd9653f200f220920489ca2b5937696c3183604051611e049190615731565b60405180910390a35050565b60fc8054611e1d90615d53565b80601f0160208091040260200160405190810160405280929190818152602001828054611e4990615d53565b8015611e965780601f10611e6b57610100808354040283529160200191611e96565b820191906000526020600020905b815481529060010190602001808311611e7957829003601f168201915b505050505081565b611ea6612737565b73ffffffffffffffffffffffffffffffffffffffff16611ec46118c6565b73ffffffffffffffffffffffffffffffffffffffff1614611f1a576040517f08c379a0000000000000000000000000000000000000000000000000000000008152600401611f119061590e565b60405180910390fd5b60fd60009054906101000a900473ffffffffffffffffffffffffffffffffffffffff1673ffffffffffffffffffffffffffffffffffffffff168173ffffffffffffffffffffffffffffffffffffffff161415611f7557600080fd5b8060fd60006101000a81548173ffffffffffffffffffffffffffffffffffffffff021916908373ffffffffffffffffffffffffffffffffffffffff16021790555050565b6101026020528060005260406000206000915054906101000a900460ff1681565b6101066020528060005260406000206000915054906101000a900460ff1681565b60fe5481565b60fb805461200e90615d53565b80601f016020809104026020016040519081016040528092919081815260200182805461203a90615d53565b80156120875780601f1061205c57610100808354040283529160200191612087565b820191906000526020600020905b81548152906001019060200180831161206a57829003601f168201915b505050505081565b610100600084815260200190815260200160002060009054906101000a900460ff166120f0576040517f08c379a00000000000000000000000000000000000000000000000000000000081526004016120e79061594e565b60405180910390fd5b61010160003373ffffffffffffffffffffffffffffffffffffffff1673ffffffffffffffffffffffffffffffffffffffff16815260200190815260200160002060009054906101000a900460ff1661217d576040517f08c379a00000000000000000000000000000000000000000000000000000000081526004016121749061592e565b60405180910390fd5b61010260003373ffffffffffffffffffffffffffffffffffffffff1673ffffffffffffffffffffffffffffffffffffffff16815260200190815260200160002060009054906101000a900460ff161561220b576040517f08c379a00000000000000000000000000000000000000000000000000000000081526004016122029061596e565b60405180910390fd5b3373ffffffffffffffffffffffffffffffffffffffff16610103600085815260200190815260200160002060009054906101000a900473ffffffffffffffffffffffffffffffffffffffff1673ffffffffffffffffffffffffffffffffffffffff16146122ad576040517f08c379a00000000000000000000000000000000000000000000000000000000081526004016122a49061582e565b60405180910390fd5b6122fb8383838080601f016020809104026020016040519081016040528093929190818152602001838380828437600081840152601f19601f820116905080830192505050505050506127b0565b505050565b612308612737565b73ffffffffffffffffffffffffffffffffffffffff166123266118c6565b73ffffffffffffffffffffffffffffffffffffffff161461237c576040517f08c379a00000000000000000000000000000000000000000000000000000000081526004016123739061590e565b60405180910390fd5b612387816000612746565b50565b600073207fa8df3a17d96ca7ea4f2893fcdcb78a30410173ffffffffffffffffffffffffffffffffffffffff168273ffffffffffffffffffffffffffffffffffffffff1614156123dd57600190506123ea565b6123e78383613361565b90505b92915050565b6123f8612737565b73ffffffffffffffffffffffffffffffffffffffff166124166118c6565b73ffffffffffffffffffffffffffffffffffffffff161461246c576040517f08c379a00000000000000000000000000000000000000000000000000000000081526004016124639061590e565b60405180910390fd5b6124778160016127dd565b50565b612482612737565b73ffffffffffffffffffffffffffffffffffffffff168573ffffffffffffffffffffffffffffffffffffffff1614806124c857506124c7856124c2612737565b61238a565b5b612507576040517f08c379a00000000000000000000000000000000000000000000000000000000081526004016124fe9061580e565b60405180910390fd5b61251485858585856133f5565b5050505050565b612523612737565b73ffffffffffffffffffffffffffffffffffffffff166125416118c6565b73ffffffffffffffffffffffffffffffffffffffff1614612597576040517f08c379a000000000000000000000000000000000000000000000000000000000815260040161258e9061590e565b60405180910390fd5b600073ffffffffffffffffffffffffffffffffffffffff168173ffffffffffffffffffffffffffffffffffffffff161415612607576040517f08c379a00000000000000000000000000000000000000000000000000000000081526004016125fe906157ee565b60405180910390fd5b612610816130df565b50565b6101006020528060005260406000206000915054906101000a900460ff1681565b6101016020528060005260406000206000915054906101000a900460ff1681565b60007fd9b67a26000000000000000000000000000000000000000000000000000000007bffffffffffffffffffffffffffffffffffffffffffffffffffffffff1916827bffffffffffffffffffffffffffffffffffffffffffffffffffffffff1916148061272057507f0e89341c000000000000000000000000000000000000000000000000000000007bffffffffffffffffffffffffffffffffffffffffffffffffffffffff1916827bffffffffffffffffffffffffffffffffffffffffffffffffffffffff1916145b80612730575061272f8261367a565b5b9050919050565b60006127416136e4565b905090565b8061010260008473ffffffffffffffffffffffffffffffffffffffff1673ffffffffffffffffffffffffffffffffffffffff16815260200190815260200160002060006101000a81548160ff0219169083151502179055505050565b600081600001549050919050565b80610105600084815260200190815260200160002090805190602001906127d892919061442e565b505050565b8061010160008473ffffffffffffffffffffffffffffffffffffffff1673ffffffffffffffffffffffffffffffffffffffff16815260200190815260200160002060006101000a81548160ff0219169083151502179055505050565b815183511461287d576040517f08c379a000000000000000000000000000000000000000000000000000000000815260040161287490615a0e565b60405180910390fd5b600073ffffffffffffffffffffffffffffffffffffffff168473ffffffffffffffffffffffffffffffffffffffff1614156128ed576040517f08c379a00000000000000000000000000000000000000000000000000000000081526004016128e49061584e565b60405180910390fd5b60006128f7612737565b9050612907818787878787613795565b60005b8451811015612b0757600085828151811061294e577f4e487b7100000000000000000000000000000000000000000000000000000000600052603260045260246000fd5b602002602001015190506000858381518110612993577f4e487b7100000000000000000000000000000000000000000000000000000000600052603260045260246000fd5b60200260200101519050600060c9600084815260200190815260200160002060008b73ffffffffffffffffffffffffffffffffffffffff1673ffffffffffffffffffffffffffffffffffffffff16815260200190815260200160002054905081811015612a35576040517f08c379a0000000000000000000000000000000000000000000000000000000008152600401612a2c906158ce565b60405180910390fd5b81810360c9600085815260200190815260200160002060008c73ffffffffffffffffffffffffffffffffffffffff1673ffffffffffffffffffffffffffffffffffffffff168152602001908152602001600020819055508160c9600085815260200190815260200160002060008b73ffffffffffffffffffffffffffffffffffffffff1673ffffffffffffffffffffffffffffffffffffffff1681526020019081526020016000206000828254612aec9190615bbc565b9250508190555050505080612b0090615d85565b905061290a565b508473ffffffffffffffffffffffffffffffffffffffff168673ffffffffffffffffffffffffffffffffffffffff168273ffffffffffffffffffffffffffffffffffffffff167f4a39dc06d4c0dbc64b70af90fd698a233a518aa5d07e595d983b8c0526c8f7fb8787604051612b7e9291906156fa565b60405180910390a4612b9481878787878761379d565b505050505050565b80610103600084815260200190815260200160002060006101000a81548173ffffffffffffffffffffffffffffffffffffffff021916908373ffffffffffffffffffffffffffffffffffffffff1602179055505050565b600060019054906101000a900460ff1680612c19575060008054906101000a900460ff16155b612c58576040517f08c379a0000000000000000000000000000000000000000000000000000000008152600401612c4f9061588e565b60405180910390fd5b60008060019054906101000a900460ff161590508015612ca8576001600060016101000a81548160ff02191690831515021790555060016000806101000a81548160ff0219169083151502179055505b612cf583838080601f016020809104026020016040519081016040528093929190818152602001838380828437600081840152601f19601f8201169050808301925050505050505061396d565b612cfd613a60565b868660fb9190612d0e9291906144b4565b50848460fc9190612d209291906144b4565b508015612d425760008060016101000a81548160ff0219169083151502179055505b50505050505050565b600060019054906101000a900460ff1680612d71575060008054906101000a900460ff16155b612db0576040517f08c379a0000000000000000000000000000000000000000000000000000000008152600401612da79061588e565b60405180910390fd5b60008060019054906101000a900460ff161590508015612e00576001600060016101000a81548160ff02191690831515021790555060016000806101000a81548160ff0219169083151502179055505b612e0a8383613b49565b8015612e2b5760008060016101000a81548160ff0219169083151502179055505b505050565b600060019054906101000a900460ff1680612e56575060008054906101000a900460ff16155b612e95576040517f08c379a0000000000000000000000000000000000000000000000000000000008152600401612e8c9061588e565b60405180910390fd5b60008060019054906101000a900460ff161590508015612ee5576001600060016101000a81548160ff02191690831515021790555060016000806101000a81548160ff0219169083151502179055505b612eed613a60565b612ef683611e9e565b612eff82610e33565b8015612f205760008060016101000a81548160ff0219169083151502179055505b505050565b600060019054906101000a900460ff1680612f4b575060008054906101000a900460ff16155b612f8a576040517f08c379a0000000000000000000000000000000000000000000000000000000008152600401612f819061588e565b60405180910390fd5b60008060019054906101000a900460ff161590508015612fda576001600060016101000a81548160ff02191690831515021790555060016000806101000a81548160ff0219169083151502179055505b612fe2613a60565b80156130035760008060016101000a81548160ff0219169083151502179055505b50565b8060ff60006101000a81548160ff02191690831515021790555050565b6000610100600083815260200190815260200160002060009054906101000a900460ff16613086576040517f08c379a000000000000000000000000000000000000000000000000000000000815260040161307d9061594e565b60405180910390fd5b610106600083815260200190815260200160002060009054906101000a900460ff169050919050565b80610106600084815260200190815260200160002060006101000a81548160ff0219169083151502179055505050565b6000606560009054906101000a900473ffffffffffffffffffffffffffffffffffffffff16905081606560006101000a81548173ffffffffffffffffffffffffffffffffffffffff021916908373ffffffffffffffffffffffffffffffffffffffff1602179055508173ffffffffffffffffffffffffffffffffffffffff168173ffffffffffffffffffffffffffffffffffffffff167f8be0079c531659141344cd1fd0a4f28419497f9722a3daafe3b4186f6b6457e060405160405180910390a35050565b61010160003373ffffffffffffffffffffffffffffffffffffffff1673ffffffffffffffffffffffffffffffffffffffff16815260200190815260200160002060009054906101000a900460ff16613232576040517f08c379a00000000000000000000000000000000000000000000000000000000081526004016132299061592e565b60405180910390fd5b61010260003373ffffffffffffffffffffffffffffffffffffffff1673ffffffffffffffffffffffffffffffffffffffff16815260200190815260200160002060009054906101000a900460ff16156132c0576040517f08c379a00000000000000000000000000000000000000000000000000000000081526004016132b79061596e565b60405180910390fd5b6132db83838360405180602001604052806000815250613c40565b3373ffffffffffffffffffffffffffffffffffffffff16827ff3cea5493d790af0133817606f7350a91d7f154ea52eaa79d179d4d231e5010260405160405180910390a3505050565b80610100600084815260200190815260200160002060006101000a81548160ff0219169083151502179055505050565b61335f610104613dd7565b565b600060ca60008473ffffffffffffffffffffffffffffffffffffffff1673ffffffffffffffffffffffffffffffffffffffff16815260200190815260200160002060008373ffffffffffffffffffffffffffffffffffffffff1673ffffffffffffffffffffffffffffffffffffffff16815260200190815260200160002060009054906101000a900460ff16905092915050565b600073ffffffffffffffffffffffffffffffffffffffff168473ffffffffffffffffffffffffffffffffffffffff161415613465576040517f08c379a000000000000000000000000000000000000000000000000000000000815260040161345c9061584e565b60405180910390fd5b600061346f612737565b905061348f81878761348088613ded565b61348988613ded565b87613795565b600060c9600086815260200190815260200160002060008873ffffffffffffffffffffffffffffffffffffffff1673ffffffffffffffffffffffffffffffffffffffff16815260200190815260200160002054905083811015613527576040517f08c379a000000000000000000000000000000000000000000000000000000000815260040161351e906158ce565b60405180910390fd5b83810360c9600087815260200190815260200160002060008973ffffffffffffffffffffffffffffffffffffffff1673ffffffffffffffffffffffffffffffffffffffff168152602001908152602001600020819055508360c9600087815260200190815260200160002060008873ffffffffffffffffffffffffffffffffffffffff1673ffffffffffffffffffffffffffffffffffffffff16815260200190815260200160002060008282546135de9190615bbc565b925050819055508573ffffffffffffffffffffffffffffffffffffffff168773ffffffffffffffffffffffffffffffffffffffff168373ffffffffffffffffffffffffffffffffffffffff167fc3d58168c5ae7397731d063d5bbf3d657854427343f4c083240f7aacaa2d0f62888860405161365b929190615a69565b60405180910390a4613671828888888888613eb3565b50505050505050565b60007f01ffc9a7000000000000000000000000000000000000000000000000000000007bffffffffffffffffffffffffffffffffffffffffffffffffffffffff1916827bffffffffffffffffffffffffffffffffffffffffffffffffffffffff1916149050919050565b60003073ffffffffffffffffffffffffffffffffffffffff163373ffffffffffffffffffffffffffffffffffffffff16141561378e57600080368080601f016020809104026020016040519081016040528093929190818152602001838380828437600081840152601f19601f820116905080830192505050505050509050600080369050905073ffffffffffffffffffffffffffffffffffffffff818301511692505050613792565b3390505b90565b505050505050565b6137bc8473ffffffffffffffffffffffffffffffffffffffff16614083565b15613965578373ffffffffffffffffffffffffffffffffffffffff1663bc197c8187878686866040518663ffffffff1660e01b81526004016138029594939291906155df565b602060405180830381600087803b15801561381c57600080fd5b505af192505050801561384d57506040513d601f19601f8201168201806040525081019061384a9190614aad565b60015b6138dc57613859615ea8565b8061386457506138a1565b806040517f08c379a0000000000000000000000000000000000000000000000000000000008152600401613898919061574c565b60405180910390fd5b6040517f08c379a00000000000000000000000000000000000000000000000000000000081526004016138d39061576e565b60405180910390fd5b63bc197c8160e01b7bffffffffffffffffffffffffffffffffffffffffffffffffffffffff1916817bffffffffffffffffffffffffffffffffffffffffffffffffffffffff191614613963576040517f08c379a000000000000000000000000000000000000000000000000000000000815260040161395a9061578e565b60405180910390fd5b505b505050505050565b600060019054906101000a900460ff1680613993575060008054906101000a900460ff16155b6139d2576040517f08c379a00000000000000000000000000000000000000000000000000000000081526004016139c99061588e565b60405180910390fd5b60008060019054906101000a900460ff161590508015613a22576001600060016101000a81548160ff02191690831515021790555060016000806101000a81548160ff0219169083151502179055505b613a2a614096565b613a3261416f565b613a3b82614248565b8015613a5c5760008060016101000a81548160ff0219169083151502179055505b5050565b600060019054906101000a900460ff1680613a86575060008054906101000a900460ff16155b613ac5576040517f08c379a0000000000000000000000000000000000000000000000000000000008152600401613abc9061588e565b60405180910390fd5b60008060019054906101000a900460ff161590508015613b15576001600060016101000a81548160ff02191690831515021790555060016000806101000a81548160ff0219169083151502179055505b613b1d614096565b613b2561432b565b8015613b465760008060016101000a81548160ff0219169083151502179055505b50565b600060019054906101000a900460ff1680613b6f575060008054906101000a900460ff16155b613bae576040517f08c379a0000000000000000000000000000000000000000000000000000000008152600401613ba59061588e565b60405180910390fd5b60008060019054906101000a900460ff161590508015613bfe576001600060016101000a81548160ff02191690831515021790555060016000806101000a81548160ff0219169083151502179055505b613c0783613006565b613c128260016127dd565b613c1a613a60565b8015613c3b5760008060016101000a81548160ff0219169083151502179055505b505050565b600073ffffffffffffffffffffffffffffffffffffffff168473ffffffffffffffffffffffffffffffffffffffff161415613cb0576040517f08c379a0000000000000000000000000000000000000000000000000000000008152600401613ca790615a2e565b60405180910390fd5b6000613cba612737565b9050613cdb81600087613ccc88613ded565b613cd588613ded565b87613795565b8260c9600086815260200190815260200160002060008773ffffffffffffffffffffffffffffffffffffffff1673ffffffffffffffffffffffffffffffffffffffff1681526020019081526020016000206000828254613d3b9190615bbc565b925050819055508473ffffffffffffffffffffffffffffffffffffffff16600073ffffffffffffffffffffffffffffffffffffffff168273ffffffffffffffffffffffffffffffffffffffff167fc3d58168c5ae7397731d063d5bbf3d657854427343f4c083240f7aacaa2d0f628787604051613db9929190615a69565b60405180910390a4613dd081600087878787613eb3565b5050505050565b6001816000016000828254019250508190555050565b60606000600167ffffffffffffffff811115613e32577f4e487b7100000000000000000000000000000000000000000000000000000000600052604160045260246000fd5b604051908082528060200260200182016040528015613e605781602001602082028036833780820191505090505b5090508281600081518110613e9e577f4e487b7100000000000000000000000000000000000000000000000000000000600052603260045260246000fd5b60200260200101818152505080915050919050565b613ed28473ffffffffffffffffffffffffffffffffffffffff16614083565b1561407b578373ffffffffffffffffffffffffffffffffffffffff1663f23a6e6187878686866040518663ffffffff1660e01b8152600401613f18959493929190615647565b602060405180830381600087803b158015613f3257600080fd5b505af1925050508015613f6357506040513d601f19601f82011682018060405250810190613f609190614aad565b60015b613ff257613f6f615ea8565b80613f7a5750613fb7565b806040517f08c379a0000000000000000000000000000000000000000000000000000000008152600401613fae919061574c565b60405180910390fd5b6040517f08c379a0000000000000000000000000000000000000000000000000000000008152600401613fe99061576e565b60405180910390fd5b63f23a6e6160e01b7bffffffffffffffffffffffffffffffffffffffffffffffffffffffff1916817bffffffffffffffffffffffffffffffffffffffffffffffffffffffff191614614079576040517f08c379a00000000000000000000000000000000000000000000000000000000081526004016140709061578e565b60405180910390fd5b505b505050505050565b600080823b905060008111915050919050565b600060019054906101000a900460ff16806140bc575060008054906101000a900460ff16155b6140fb576040517f08c379a00000000000000000000000000000000000000000000000000000000081526004016140f29061588e565b60405180910390fd5b60008060019054906101000a900460ff16159050801561414b576001600060016101000a81548160ff02191690831515021790555060016000806101000a81548160ff0219169083151502179055505b801561416c5760008060016101000a81548160ff0219169083151502179055505b50565b600060019054906101000a900460ff1680614195575060008054906101000a900460ff16155b6141d4576040517f08c379a00000000000000000000000000000000000000000000000000000000081526004016141cb9061588e565b60405180910390fd5b60008060019054906101000a900460ff161590508015614224576001600060016101000a81548160ff02191690831515021790555060016000806101000a81548160ff0219169083151502179055505b80156142455760008060016101000a81548160ff0219169083151502179055505b50565b600060019054906101000a900460ff168061426e575060008054906101000a900460ff16155b6142ad576040517f08c379a00000000000000000000000000000000000000000000000000000000081526004016142a49061588e565b60405180910390fd5b60008060019054906101000a900460ff1615905080156142fd576001600060016101000a81548160ff02191690831515021790555060016000806101000a81548160ff0219169083151502179055505b61430682614414565b80156143275760008060016101000a81548160ff0219169083151502179055505b5050565b600060019054906101000a900460ff1680614351575060008054906101000a900460ff16155b614390576040517f08c379a00000000000000000000000000000000000000000000000000000000081526004016143879061588e565b60405180910390fd5b60008060019054906101000a900460ff1615905080156143e0576001600060016101000a81548160ff02191690831515021790555060016000806101000a81548160ff0219169083151502179055505b6143f06143eb612737565b6130df565b80156144115760008060016101000a81548160ff0219169083151502179055505b50565b8060cb908051906020019061442a92919061442e565b5050565b82805461443a90615d53565b90600052602060002090601f01602090048101928261445c57600085556144a3565b82601f1061447557805160ff19168380011785556144a3565b828001600101855582156144a3579182015b828111156144a2578251825591602001919060010190614487565b5b5090506144b0919061453a565b5090565b8280546144c090615d53565b90600052602060002090601f0160209004810192826144e25760008555614529565b82601f106144fb57803560ff1916838001178555614529565b82800160010185558215614529579182015b8281111561452857823582559160200191906001019061450d565b5b509050614536919061453a565b5090565b5b8082111561455357600081600090555060010161453b565b5090565b600061456a61456584615ac3565b615a92565b9050808382526020820190508285602086028201111561458957600080fd5b60005b858110156145b9578161459f888261466d565b84526020840193506020830192505060018101905061458c565b5050509392505050565b60006145d66145d184615aef565b615a92565b905080838252602082019050828560208602820111156145f557600080fd5b60005b85811015614625578161460b8882614789565b8452602084019350602083019250506001810190506145f8565b5050509392505050565b600061464261463d84615b1b565b615a92565b90508281526020810184848401111561465a57600080fd5b614665848285615d11565b509392505050565b60008135905061467c81615f5e565b92915050565b600082601f83011261469357600080fd5b81356146a3848260208601614557565b91505092915050565b600082601f8301126146bd57600080fd5b81356146cd8482602086016145c3565b91505092915050565b6000813590506146e581615f75565b92915050565b6000813590506146fa81615f8c565b92915050565b60008151905061470f81615f8c565b92915050565b600082601f83011261472657600080fd5b813561473684826020860161462f565b91505092915050565b60008083601f84011261475157600080fd5b8235905067ffffffffffffffff81111561476a57600080fd5b60208301915083600182028301111561478257600080fd5b9250929050565b60008135905061479881615fa3565b92915050565b6000602082840312156147b057600080fd5b60006147be8482850161466d565b91505092915050565b600080604083850312156147da57600080fd5b60006147e88582860161466d565b92505060206147f98582860161466d565b9150509250929050565b600080600080600060a0868803121561481b57600080fd5b60006148298882890161466d565b955050602061483a8882890161466d565b945050604086013567ffffffffffffffff81111561485757600080fd5b614863888289016146ac565b935050606086013567ffffffffffffffff81111561488057600080fd5b61488c888289016146ac565b925050608086013567ffffffffffffffff8111156148a957600080fd5b6148b588828901614715565b9150509295509295909350565b600080600080600060a086880312156148da57600080fd5b60006148e88882890161466d565b95505060206148f98882890161466d565b945050604061490a88828901614789565b935050606061491b88828901614789565b925050608086013567ffffffffffffffff81111561493857600080fd5b61494488828901614715565b9150509295509295909350565b6000806040838503121561496457600080fd5b60006149728582860161466d565b9250506020614983858286016146d6565b9150509250929050565b600080604083850312156149a057600080fd5b60006149ae8582860161466d565b92505060206149bf85828601614789565b9150509250929050565b6000806000606084860312156149de57600080fd5b60006149ec8682870161466d565b93505060206149fd86828701614789565b9250506040614a0e86828701614789565b9150509250925092565b60008060408385031215614a2b57600080fd5b600083013567ffffffffffffffff811115614a4557600080fd5b614a5185828601614682565b925050602083013567ffffffffffffffff811115614a6e57600080fd5b614a7a858286016146ac565b9150509250929050565b600060208284031215614a9657600080fd5b6000614aa4848285016146eb565b91505092915050565b600060208284031215614abf57600080fd5b6000614acd84828501614700565b91505092915050565b60008060008060008060008060008060e08b8d031215614af557600080fd5b60008b013567ffffffffffffffff811115614b0f57600080fd5b614b1b8d828e0161473f565b9a509a505060208b013567ffffffffffffffff811115614b3a57600080fd5b614b468d828e0161473f565b98509850506040614b598d828e0161466d565b9650506060614b6a8d828e0161466d565b9550506080614b7b8d828e01614789565b94505060a0614b8c8d828e016146d6565b93505060c08b013567ffffffffffffffff811115614ba957600080fd5b614bb58d828e0161473f565b92509250509295989b9194979a5092959850565b60008060008060608587031215614bdf57600080fd5b600085013567ffffffffffffffff811115614bf957600080fd5b614c058782880161473f565b94509450506020614c1887828801614789565b9250506040614c29878288016146d6565b91505092959194509250565b600060208284031215614c4757600080fd5b6000614c5584828501614789565b91505092915050565b600080600060408486031215614c7357600080fd5b6000614c8186828701614789565b935050602084013567ffffffffffffffff811115614c9e57600080fd5b614caa8682870161473f565b92509250509250925092565b60008060408385031215614cc957600080fd5b6000614cd785828601614789565b9250506020614ce885828601614789565b9150509250929050565b6000614cfe83836155a6565b60208301905092915050565b614d1381615c9d565b82525050565b6000614d2482615b5b565b614d2e8185615b89565b9350614d3983615b4b565b8060005b83811015614d6a578151614d518882614cf2565b9750614d5c83615b7c565b925050600181019050614d3d565b5085935050505092915050565b614d8081615caf565b82525050565b6000614d9182615b66565b614d9b8185615b9a565b9350614dab818560208601615d20565b614db481615e8a565b840191505092915050565b6000614dca82615b71565b614dd48185615bab565b9350614de4818560208601615d20565b614ded81615e8a565b840191505092915050565b6000614e05603483615bab565b91507f455243313135353a207472616e7366657220746f206e6f6e204552433131353560008301527f526563656976657220696d706c656d656e7465720000000000000000000000006020830152604082019050919050565b6000614e6b602883615bab565b91507f455243313135353a204552433131353552656365697665722072656a6563746560008301527f6420746f6b656e730000000000000000000000000000000000000000000000006020830152604082019050919050565b6000614ed1602b83615bab565b91507f455243313135353a2062616c616e636520717565727920666f7220746865207a60008301527f65726f20616464726573730000000000000000000000000000000000000000006020830152604082019050919050565b6000614f37600683615bab565b91507f4e504d494e5400000000000000000000000000000000000000000000000000006000830152602082019050919050565b6000614f77602683615bab565b91507f4f776e61626c653a206e6577206f776e657220697320746865207a65726f206160008301527f64647265737300000000000000000000000000000000000000000000000000006020830152604082019050919050565b6000614fdd602983615bab565b91507f455243313135353a2063616c6c6572206973206e6f74206f776e6572206e6f7260008301527f20617070726f76656400000000000000000000000000000000000000000000006020830152604082019050919050565b6000615043600683615bab565b91507f4e4d494e545000000000000000000000000000000000000000000000000000006000830152602082019050919050565b6000615083602583615bab565b91507f455243313135353a207472616e7366657220746f20746865207a65726f20616460008301527f64726573730000000000000000000000000000000000000000000000000000006020830152604082019050919050565b60006150e9603283615bab565b91507f455243313135353a207472616e736665722063616c6c6572206973206e6f742060008301527f6f776e6572206e6f7220617070726f76656400000000000000000000000000006020830152604082019050919050565b600061514f602e83615bab565b91507f496e697469616c697a61626c653a20636f6e747261637420697320616c72656160008301527f647920696e697469616c697a65640000000000000000000000000000000000006020830152604082019050919050565b60006151b5600783615bab565b91507f544b4e20522f53000000000000000000000000000000000000000000000000006000830152602082019050919050565b60006151f5602a83615bab565b91507f455243313135353a20696e73756666696369656e742062616c616e636520666f60008301527f72207472616e73666572000000000000000000000000000000000000000000006020830152604082019050919050565b600061525b600683615bab565b91507f4e4f2055524900000000000000000000000000000000000000000000000000006000830152602082019050919050565b600061529b602083615bab565b91507f4f776e61626c653a2063616c6c6572206973206e6f7420746865206f776e65726000830152602082019050919050565b60006152db600383615bab565b91507f574c4600000000000000000000000000000000000000000000000000000000006000830152602082019050919050565b600061531b600783615bab565b91507f544b4e204e2f41000000000000000000000000000000000000000000000000006000830152602082019050919050565b600061535b600683615bab565b91507f42414e4e454400000000000000000000000000000000000000000000000000006000830152602082019050919050565b600061539b600483615bab565b91507f544b4e52000000000000000000000000000000000000000000000000000000006000830152602082019050919050565b60006153db602983615bab565b91507f455243313135353a2073657474696e6720617070726f76616c2073746174757360008301527f20666f722073656c6600000000000000000000000000000000000000000000006020830152604082019050919050565b6000615441600983615bab565b91507f4e4f54204f574e455200000000000000000000000000000000000000000000006000830152602082019050919050565b6000615481602983615bab565b91507f455243313135353a206163636f756e747320616e6420696473206c656e67746860008301527f206d69736d6174636800000000000000000000000000000000000000000000006020830152604082019050919050565b60006154e7602883615bab565b91507f455243313135353a2069647320616e6420616d6f756e7473206c656e6774682060008301527f6d69736d617463680000000000000000000000000000000000000000000000006020830152604082019050919050565b600061554d602183615bab565b91507f455243313135353a206d696e7420746f20746865207a65726f2061646472657360008301527f73000000000000000000000000000000000000000000000000000000000000006020830152604082019050919050565b6155af81615d07565b82525050565b6155be81615d07565b82525050565b60006020820190506155d96000830184614d0a565b92915050565b600060a0820190506155f46000830188614d0a565b6156016020830187614d0a565b81810360408301526156138186614d19565b905081810360608301526156278185614d19565b9050818103608083015261563b8184614d86565b90509695505050505050565b600060a08201905061565c6000830188614d0a565b6156696020830187614d0a565b61567660408301866155b5565b61568360608301856155b5565b81810360808301526156958184614d86565b90509695505050505050565b60006060820190506156b66000830186614d0a565b6156c360208301856155b5565b6156d060408301846155b5565b949350505050565b600060208201905081810360008301526156f28184614d19565b905092915050565b600060408201905081810360008301526157148185614d19565b905081810360208301526157288184614d19565b90509392505050565b60006020820190506157466000830184614d77565b92915050565b600060208201905081810360008301526157668184614dbf565b905092915050565b6000602082019050818103600083015261578781614df8565b9050919050565b600060208201905081810360008301526157a781614e5e565b9050919050565b600060208201905081810360008301526157c781614ec4565b9050919050565b600060208201905081810360008301526157e781614f2a565b9050919050565b6000602082019050818103600083015261580781614f6a565b9050919050565b6000602082019050818103600083015261582781614fd0565b9050919050565b6000602082019050818103600083015261584781615036565b9050919050565b6000602082019050818103600083015261586781615076565b9050919050565b60006020820190508181036000830152615887816150dc565b9050919050565b600060208201905081810360008301526158a781615142565b9050919050565b600060208201905081810360008301526158c7816151a8565b9050919050565b600060208201905081810360008301526158e7816151e8565b9050919050565b600060208201905081810360008301526159078161524e565b9050919050565b600060208201905081810360008301526159278161528e565b9050919050565b60006020820190508181036000830152615947816152ce565b9050919050565b600060208201905081810360008301526159678161530e565b9050919050565b600060208201905081810360008301526159878161534e565b9050919050565b600060208201905081810360008301526159a78161538e565b9050919050565b600060208201905081810360008301526159c7816153ce565b9050919050565b600060208201905081810360008301526159e781615434565b9050919050565b60006020820190508181036000830152615a0781615474565b9050919050565b60006020820190508181036000830152615a27816154da565b9050919050565b60006020820190508181036000830152615a4781615540565b9050919050565b6000602082019050615a6360008301846155b5565b92915050565b6000604082019050615a7e60008301856155b5565b615a8b60208301846155b5565b9392505050565b6000604051905081810181811067ffffffffffffffff82111715615ab957615ab8615e5b565b5b8060405250919050565b600067ffffffffffffffff821115615ade57615add615e5b565b5b602082029050602081019050919050565b600067ffffffffffffffff821115615b0a57615b09615e5b565b5b602082029050602081019050919050565b600067ffffffffffffffff821115615b3657615b35615e5b565b5b601f19601f8301169050602081019050919050565b6000819050602082019050919050565b600081519050919050565b600081519050919050565b600081519050919050565b6000602082019050919050565b600082825260208201905092915050565b600082825260208201905092915050565b600082825260208201905092915050565b6000615bc782615d07565b9150615bd283615d07565b9250827fffffffffffffffffffffffffffffffffffffffffffffffffffffffffffffffff03821115615c0757615c06615dce565b5b828201905092915050565b6000615c1d82615d07565b9150615c2883615d07565b925082615c3857615c37615dfd565b5b828204905092915050565b6000615c4e82615d07565b9150615c5983615d07565b9250817fffffffffffffffffffffffffffffffffffffffffffffffffffffffffffffffff0483118215151615615c9257615c91615dce565b5b828202905092915050565b6000615ca882615ce7565b9050919050565b60008115159050919050565b60007fffffffff0000000000000000000000000000000000000000000000000000000082169050919050565b600073ffffffffffffffffffffffffffffffffffffffff82169050919050565b6000819050919050565b82818337600083830152505050565b60005b83811015615d3e578082015181840152602081019050615d23565b83811115615d4d576000848401525b50505050565b60006002820490506001821680615d6b57607f821691505b60208210811415615d7f57615d7e615e2c565b5b50919050565b6000615d9082615d07565b91507fffffffffffffffffffffffffffffffffffffffffffffffffffffffffffffffff821415615dc357615dc2615dce565b5b600182019050919050565b7f4e487b7100000000000000000000000000000000000000000000000000000000600052601160045260246000fd5b7f4e487b7100000000000000000000000000000000000000000000000000000000600052601260045260246000fd5b7f4e487b7100000000000000000000000000000000000000000000000000000000600052602260045260246000fd5b7f4e487b7100000000000000000000000000000000000000000000000000000000600052604160045260246000fd5b6000601f19601f8301169050919050565b60008160e01c9050919050565b600060443d1015615eb857615f5b565b60046000803e615ec9600051615e9b565b6308c379a08114615eda5750615f5b565b60405160043d036004823e80513d602482011167ffffffffffffffff82111715615f0657505050615f5b565b808201805167ffffffffffffffff811115615f25575050505050615f5b565b8060208301013d8501811115615f4057505050505050615f5b565b615f4982615e8a565b60208401016040528296505050505050505b90565b615f6781615c9d565b8114615f7257600080fd5b50565b615f7e81615caf565b8114615f8957600080fd5b50565b615f9581615cbb565b8114615fa057600080fd5b50565b615fac81615d07565b8114615fb757600080fd5b5056fea26469706673582212206d1da3ae0f09977355e5d4c03deb0571eaa4643397665c4201b31dea918355e464736f6c63430008000033",
  "linkReferences": {},
  "deployedLinkReferences": {}
}