{
  "_format": "hh-sol-artifact-1",
  "contractName": "NFTCollection",
  "sourceName": "contracts/Minter.sol",
  "abi": [
    {
      "anonymous": false,
      "inputs": [
        {
          "indexed": true,
          "internalType": "address",
          "name": "account",
          "type": "address"
        },
        {
          "indexed": true,
          "internalType": "address",
          "name": "operator",
          "type": "address"
        },
        {
          "indexed": false,
          "internalType": "bool",
          "name": "approved",
          "type": "bool"
        }
      ],
      "name": "ApprovalForAll",
      "type": "event"
    },
    {
      "anonymous": false,
      "inputs": [
        {
          "indexed": true,
          "internalType": "uint256",
          "name": "tokenId",
          "type": "uint256"
        },
        {
          "indexed": true,
          "internalType": "address",
          "name": "creator",
          "type": "address"
        }
      ],
      "name": "Mint",
      "type": "event"
    },
    {
      "anonymous": false,
      "inputs": [
        {
          "indexed": true,
          "internalType": "address",
          "name": "previousOwner",
          "type": "address"
        },
        {
          "indexed": true,
          "internalType": "address",
          "name": "newOwner",
          "type": "address"
        }
      ],
      "name": "OwnershipTransferred",
      "type": "event"
    },
    {
      "anonymous": false,
      "inputs": [
        {
          "indexed": true,
          "internalType": "address",
          "name": "operator",
          "type": "address"
        },
        {
          "indexed": true,
          "internalType": "address",
          "name": "from",
          "type": "address"
        },
        {
          "indexed": true,
          "internalType": "address",
          "name": "to",
          "type": "address"
        },
        {
          "indexed": false,
          "internalType": "uint256[]",
          "name": "ids",
          "type": "uint256[]"
        },
        {
          "indexed": false,
          "internalType": "uint256[]",
          "name": "values",
          "type": "uint256[]"
        }
      ],
      "name": "TransferBatch",
      "type": "event"
    },
    {
      "anonymous": false,
      "inputs": [
        {
          "indexed": true,
          "internalType": "address",
          "name": "operator",
          "type": "address"
        },
        {
          "indexed": true,
          "internalType": "address",
          "name": "from",
          "type": "address"
        },
        {
          "indexed": true,
          "internalType": "address",
          "name": "to",
          "type": "address"
        },
        {
          "indexed": false,
          "internalType": "uint256",
          "name": "id",
          "type": "uint256"
        },
        {
          "indexed": false,
          "internalType": "uint256",
          "name": "value",
          "type": "uint256"
        }
      ],
      "name": "TransferSingle",
      "type": "event"
    },
    {
      "anonymous": false,
      "inputs": [
        {
          "indexed": false,
          "internalType": "string",
          "name": "value",
          "type": "string"
        },
        {
          "indexed": true,
          "internalType": "uint256",
          "name": "id",
          "type": "uint256"
        }
      ],
      "name": "URI",
      "type": "event"
    },
    {
      "inputs": [],
      "name": "__Storage_initialize",
      "outputs": [],
      "stateMutability": "nonpayable",
      "type": "function"
    },
    {
      "inputs": [
        {
          "internalType": "uint256",
          "name": "",
          "type": "uint256"
        }
      ],
      "name": "_exists",
      "outputs": [
        {
          "internalType": "bool",
          "name": "",
          "type": "bool"
        }
      ],
      "stateMutability": "view",
      "type": "function"
    },
    {
      "inputs": [],
      "name": "_name",
      "outputs": [
        {
          "internalType": "string",
          "name": "",
          "type": "string"
        }
      ],
      "stateMutability": "view",
      "type": "function"
    },
    {
      "inputs": [],
      "name": "_royaltiesPercentage",
      "outputs": [
        {
          "internalType": "uint256",
          "name": "",
          "type": "uint256"
        }
      ],
      "stateMutability": "view",
      "type": "function"
    },
    {
      "inputs": [],
      "name": "_royaltiesReceiver",
      "outputs": [
        {
          "internalType": "address",
          "name": "",
          "type": "address"
        }
      ],
      "stateMutability": "view",
      "type": "function"
    },
    {
      "inputs": [],
      "name": "_symbol",
      "outputs": [
        {
          "internalType": "string",
          "name": "",
          "type": "string"
        }
      ],
      "stateMutability": "view",
      "type": "function"
    },
    {
      "inputs": [
        {
          "internalType": "address",
          "name": "_addr",
          "type": "address"
        }
      ],
      "name": "addBlackList",
      "outputs": [],
      "stateMutability": "nonpayable",
      "type": "function"
    },
    {
      "inputs": [
        {
          "internalType": "address",
          "name": "account",
          "type": "address"
        },
        {
          "internalType": "uint256",
          "name": "id",
          "type": "uint256"
        }
      ],
      "name": "balanceOf",
      "outputs": [
        {
          "internalType": "uint256",
          "name": "",
          "type": "uint256"
        }
      ],
      "stateMutability": "view",
      "type": "function"
    },
    {
      "inputs": [
        {
          "internalType": "address[]",
          "name": "accounts",
          "type": "address[]"
        },
        {
          "internalType": "uint256[]",
          "name": "ids",
          "type": "uint256[]"
        }
      ],
      "name": "balanceOfBatch",
      "outputs": [
        {
          "internalType": "uint256[]",
          "name": "",
          "type": "uint256[]"
        }
      ],
      "stateMutability": "view",
      "type": "function"
    },
    {
      "inputs": [
        {
          "internalType": "address",
          "name": "",
          "type": "address"
        }
      ],
      "name": "blackListed",
      "outputs": [
        {
          "internalType": "bool",
          "name": "",
          "type": "bool"
        }
      ],
      "stateMutability": "view",
      "type": "function"
    },
    {
      "inputs": [
        {
          "internalType": "uint256",
          "name": "",
          "type": "uint256"
        }
      ],
      "name": "fixedSupplyStatus",
      "outputs": [
        {
          "internalType": "bool",
          "name": "",
          "type": "bool"
        }
      ],
      "stateMutability": "view",
      "type": "function"
    },
    {
      "inputs": [
        {
          "internalType": "string",
          "name": "fullName",
          "type": "string"
        },
        {
          "internalType": "string",
          "name": "symbl",
          "type": "string"
        },
        {
          "internalType": "address",
          "name": "royaltiyReciever",
          "type": "address"
        },
        {
          "internalType": "address",
          "name": "minter",
          "type": "address"
        },
        {
          "internalType": "uint256",
          "name": "royaltiesPercentage",
          "type": "uint256"
        },
        {
          "internalType": "bool",
          "name": "_publicMinting",
          "type": "bool"
        },
        {
          "internalType": "string",
          "name": "metadata",
          "type": "string"
        }
      ],
      "name": "initialize",
      "outputs": [],
      "stateMutability": "nonpayable",
      "type": "function"
    },
    {
      "inputs": [
        {
          "internalType": "address",
          "name": "_owner",
          "type": "address"
        },
        {
          "internalType": "address",
          "name": "_operator",
          "type": "address"
        }
      ],
      "name": "isApprovedForAll",
      "outputs": [
        {
          "internalType": "bool",
          "name": "isOperator",
          "type": "bool"
        }
      ],
      "stateMutability": "view",
      "type": "function"
    },
    {
      "inputs": [
        {
          "internalType": "address",
          "name": "forwarder",
          "type": "address"
        }
      ],
      "name": "isTrustedForwarder",
      "outputs": [
        {
          "internalType": "bool",
          "name": "",
          "type": "bool"
        }
      ],
      "stateMutability": "view",
      "type": "function"
    },
    {
      "inputs": [
        {
          "internalType": "string",
          "name": "_tokenURI",
          "type": "string"
        },
        {
          "internalType": "uint256",
          "name": "amount",
          "type": "uint256"
        },
        {
          "internalType": "bool",
          "name": "_isSupplyFixed",
          "type": "bool"
        }
      ],
      "name": "mint",
      "outputs": [
        {
          "internalType": "uint256",
          "name": "",
          "type": "uint256"
        }
      ],
      "stateMutability": "nonpayable",
      "type": "function"
    },
    {
      "inputs": [],
      "name": "name",
      "outputs": [
        {
          "internalType": "string",
          "name": "",
          "type": "string"
        }
      ],
      "stateMutability": "view",
      "type": "function"
    },
    {
      "inputs": [],
      "name": "owner",
      "outputs": [
        {
          "internalType": "address",
          "name": "",
          "type": "address"
        }
      ],
      "stateMutability": "view",
      "type": "function"
    },
    {
      "inputs": [],
      "name": "publicMinting",
      "outputs": [
        {
          "internalType": "bool",
          "name": "",
          "type": "bool"
        }
      ],
      "stateMutability": "view",
      "type": "function"
    },
    {
      "inputs": [
        {
          "internalType": "address",
          "name": "_airdropAddy",
          "type": "address"
        },
        {
          "internalType": "uint256",
          "name": "_tokenId",
          "type": "uint256"
        },
        {
          "internalType": "uint256",
          "name": "amount",
          "type": "uint256"
        }
      ],
      "name": "reSupply",
      "outputs": [
        {
          "internalType": "uint256",
          "name": "",
          "type": "uint256"
        }
      ],
      "stateMutability": "nonpayable",
      "type": "function"
    },
    {
      "inputs": [
        {
          "internalType": "address",
          "name": "_addr",
          "type": "address"
        }
      ],
      "name": "removeBlackList",
      "outputs": [],
      "stateMutability": "nonpayable",
      "type": "function"
    },
    {
      "inputs": [
        {
          "internalType": "address",
          "name": "_addr",
          "type": "address"
        }
      ],
      "name": "removeWhiteList",
      "outputs": [],
      "stateMutability": "nonpayable",
      "type": "function"
    },
    {
      "inputs": [
        {
          "internalType": "address",
          "name": "_addr",
          "type": "address"
        }
      ],
      "name": "removeWhiteList_Admin",
      "outputs": [],
      "stateMutability": "nonpayable",
      "type": "function"
    },
    {
      "inputs": [],
      "name": "renounceOwnership",
      "outputs": [],
      "stateMutability": "nonpayable",
      "type": "function"
    },
    {
      "inputs": [
        {
          "internalType": "uint256",
          "name": "_tokenId",
          "type": "uint256"
        }
      ],
      "name": "revokeTokenMintingPriv",
      "outputs": [],
      "stateMutability": "nonpayable",
      "type": "function"
    },
    {
      "inputs": [
        {
          "internalType": "uint256",
          "name": "_nftId",
          "type": "uint256"
        },
        {
          "internalType": "uint256",
          "name": "_salePrice",
          "type": "uint256"
        }
      ],
      "name": "royaltyInfo",
      "outputs": [
        {
          "internalType": "address",
          "name": "receiver",
          "type": "address"
        },
        {
          "internalType": "uint256",
          "name": "royaltyAmount",
          "type": "uint256"
        },
        {
          "internalType": "uint256",
          "name": "tokenId",
          "type": "uint256"
        }
      ],
      "stateMutability": "view",
      "type": "function"
    },
    {
      "inputs": [
        {
          "internalType": "address",
          "name": "from",
          "type": "address"
        },
        {
          "internalType": "address",
          "name": "to",
          "type": "address"
        },
        {
          "internalType": "uint256[]",
          "name": "ids",
          "type": "uint256[]"
        },
        {
          "internalType": "uint256[]",
          "name": "amounts",
          "type": "uint256[]"
        },
        {
          "internalType": "bytes",
          "name": "data",
          "type": "bytes"
        }
      ],
      "name": "safeBatchTransferFrom",
      "outputs": [],
      "stateMutability": "nonpayable",
      "type": "function"
    },
    {
      "inputs": [
        {
          "internalType": "address",
          "name": "from",
          "type": "address"
        },
        {
          "internalType": "address",
          "name": "to",
          "type": "address"
        },
        {
          "internalType": "uint256",
          "name": "id",
          "type": "uint256"
        },
        {
          "internalType": "uint256",
          "name": "amount",
          "type": "uint256"
        },
        {
          "internalType": "bytes",
          "name": "data",
          "type": "bytes"
        }
      ],
      "name": "safeTransferFrom",
      "outputs": [],
      "stateMutability": "nonpayable",
      "type": "function"
    },
    {
      "inputs": [
        {
          "internalType": "address",
          "name": "operator",
          "type": "address"
        },
        {
          "internalType": "bool",
          "name": "approved",
          "type": "bool"
        }
      ],
      "name": "setApprovalForAll",
      "outputs": [],
      "stateMutability": "nonpayable",
      "type": "function"
    },
    {
      "inputs": [
        {
          "internalType": "uint256",
          "name": "newRoyalties",
          "type": "uint256"
        }
      ],
      "name": "setRoyalties",
      "outputs": [],
      "stateMutability": "nonpayable",
      "type": "function"
    },
    {
      "inputs": [
        {
          "internalType": "address",
          "name": "newRoyaltiesReceiver",
          "type": "address"
        }
      ],
      "name": "setRoyaltiesReceiver",
      "outputs": [],
      "stateMutability": "nonpayable",
      "type": "function"
    },
    {
      "inputs": [
        {
          "internalType": "address",
          "name": "_addr",
          "type": "address"
        }
      ],
      "name": "setWhiteList",
      "outputs": [],
      "stateMutability": "nonpayable",
      "type": "function"
    },
    {
      "inputs": [
        {
          "internalType": "address",
          "name": "_addr",
          "type": "address"
        }
      ],
      "name": "setWhiteList_Admin",
      "outputs": [],
      "stateMutability": "nonpayable",
      "type": "function"
    },
    {
      "inputs": [
        {
          "internalType": "bytes4",
          "name": "interfaceId",
          "type": "bytes4"
        }
      ],
      "name": "supportsInterface",
      "outputs": [
        {
          "internalType": "bool",
          "name": "",
          "type": "bool"
        }
      ],
      "stateMutability": "view",
      "type": "function"
    },
    {
      "inputs": [],
      "name": "symbol",
      "outputs": [
        {
          "internalType": "string",
          "name": "",
          "type": "string"
        }
      ],
      "stateMutability": "view",
      "type": "function"
    },
    {
      "inputs": [],
      "name": "togglePublicMinting",
      "outputs": [],
      "stateMutability": "nonpayable",
      "type": "function"
    },
    {
      "inputs": [
        {
          "internalType": "uint256",
          "name": "_tokenId",
          "type": "uint256"
        }
      ],
      "name": "toggleSupplyFixedStatus",
      "outputs": [],
      "stateMutability": "nonpayable",
      "type": "function"
    },
    {
      "inputs": [
        {
          "internalType": "uint256",
          "name": "_tokenId",
          "type": "uint256"
        }
      ],
      "name": "toggleSupplyFixedStatus_Admin",
      "outputs": [],
      "stateMutability": "nonpayable",
      "type": "function"
    },
    {
      "inputs": [
        {
          "internalType": "uint256",
          "name": "",
          "type": "uint256"
        }
      ],
      "name": "tokenMinter",
      "outputs": [
        {
          "internalType": "address",
          "name": "",
          "type": "address"
        }
      ],
      "stateMutability": "view",
      "type": "function"
    },
    {
      "inputs": [
        {
          "internalType": "uint256",
          "name": "",
          "type": "uint256"
        }
      ],
      "name": "tokenUri",
      "outputs": [
        {
          "internalType": "string",
          "name": "",
          "type": "string"
        }
      ],
      "stateMutability": "view",
      "type": "function"
    },
    {
      "inputs": [],
      "name": "totalSupply",
      "outputs": [
        {
          "internalType": "uint256",
          "name": "",
          "type": "uint256"
        }
      ],
      "stateMutability": "view",
      "type": "function"
    },
    {
      "inputs": [
        {
          "internalType": "address",
          "name": "newOwner",
          "type": "address"
        }
      ],
      "name": "transferOwnership",
      "outputs": [],
      "stateMutability": "nonpayable",
      "type": "function"
    },
    {
      "inputs": [
        {
          "internalType": "uint256",
          "name": "_tokenId",
          "type": "uint256"
        },
        {
          "internalType": "string",
          "name": "_uri",
          "type": "string"
        }
      ],
      "name": "updateTokenUri",
      "outputs": [],
      "stateMutability": "nonpayable",
      "type": "function"
    },
    {
      "inputs": [
        {
          "internalType": "uint256",
          "name": "_tokenId",
          "type": "uint256"
        },
        {
          "internalType": "string",
          "name": "_uri",
          "type": "string"
        }
      ],
      "name": "updateTokenUri_Admin",
      "outputs": [],
      "stateMutability": "nonpayable",
      "type": "function"
    },
    {
      "inputs": [
        {
          "internalType": "uint256",
          "name": "id",
          "type": "uint256"
        }
      ],
      "name": "uri",
      "outputs": [
        {
          "internalType": "string",
          "name": "",
          "type": "string"
        }
      ],
      "stateMutability": "view",
      "type": "function"
    },
    {
      "inputs": [
        {
          "internalType": "address",
          "name": "",
          "type": "address"
        }
      ],
      "name": "whiteListed",
      "outputs": [
        {
          "internalType": "bool",
          "name": "",
          "type": "bool"
        }
      ],
      "stateMutability": "view",
      "type": "function"
    }
  ],
  "bytecode": "0x608060405234801561001057600080fd5b50615efa80620000216000396000f3fe608060405234801561001057600080fd5b506004361061027e5760003560e01c8063715018a61161015c578063bbde5b25116100ce578063e985e9c511610087578063e985e9c514610795578063ecacecc2146107c5578063f242432a146107e1578063f2fde38b146107fd578063f8e76cc014610819578063fa0fca84146108495761027e565b8063bbde5b25146106c1578063c102f016146106f1578063cf7761ee14610721578063d28d88521461073f578063d31af4841461075d578063e4997dc5146107795761027e565b806391a837111161012057806391a83711146105ff57806395d89b411461061d57806396f76f6f1461063b578063a22cb4651461066b578063b09f126614610687578063b5143715146106a55761027e565b8063715018a61461055b5780637c57d947146105655780638491a5a3146105955780638da5cb5b146105c55780638dfa22b3146105e35761027e565b80632eb2c2d6116101f55780634e1273f4116101b95780634e1273f41461049b57806353ac010a146104cb578063572b6c05146104e95780635febd58c146105195780636b8a21fc146105355780636e1200171461053f5761027e565b80632eb2c2d61461042157806339e899ee1461043d5780634211da721461045957806346a2a9461461047557806346d6e6cb146104915761027e565b80631675f455116102475780631675f4551461034d57806318160ddd1461037d5780631c84a45b1461039b5780632042e5c2146103b75780632a55205a146103d35780632b80183f146104055761027e565b8062fdd58e1461028357806301ffc9a7146102b357806306fdde03146102e35780630e89341c146103015780630ecb93c014610331575b600080fd5b61029d60048036038101906102989190614897565b610879565b6040516102aa9190615958565b60405180910390f35b6102cd60048036038101906102c8919061498e565b610943565b6040516102da919061563b565b60405180910390f35b6102eb6109bd565b6040516102f89190615656565b60405180910390f35b61031b60048036038101906103169190614b3f565b610a4f565b6040516103289190615656565b60405180910390f35b61034b600480360381019061034691906146a8565b610af5565b005b61036760048036038101906103629190614b3f565b610b7f565b6040516103749190615656565b60405180910390f35b610385610c20565b6040516103929190615958565b60405180910390f35b6103b560048036038101906103b09190614b68565b610c32565b005b6103d160048036038101906103cc91906146a8565b610d62565b005b6103ed60048036038101906103e89190614bc0565b610dde565b6040516103fc939291906155ab565b60405180910390f35b61041f600480360381019061041a9190614b3f565b610e33565b005b61043b6004803603810190610436919061470d565b610ec8565b005b610457600480360381019061045291906146a8565b610f69565b005b610473600480360381019061046e9190614b3f565b610fc6565b005b61048f600480360381019061048a91906146a8565b611076565b005b610499611100565b005b6104b560048036038101906104b09190614922565b6111d9565b6040516104c291906155e2565b60405180910390f35b6104d361138a565b6040516104e0919061563b565b60405180910390f35b61050360048036038101906104fe91906146a8565b61139d565b604051610510919061563b565b60405180910390f35b610533600480360381019061052e91906149e0565b6113f7565b005b61053d61150c565b005b61055960048036038101906105549190614b3f565b6115a3565b005b610563611696565b005b61057f600480360381019061057a9190614b3f565b61171e565b60405161058c91906154ce565b60405180910390f35b6105af60048036038101906105aa91906148d3565b611752565b6040516105bc9190615958565b60405180910390f35b6105cd6118b5565b6040516105da91906154ce565b60405180910390f35b6105fd60048036038101906105f89190614b3f565b6118df565b005b610607611a85565b60405161061491906154ce565b60405180910390f35b610625611aab565b6040516106329190615656565b60405180910390f35b61065560048036038101906106509190614ad3565b611b3d565b6040516106629190615958565b60405180910390f35b6106856004803603810190610680919061485b565b611c7e565b005b61068f611dff565b60405161069c9190615656565b60405180910390f35b6106bf60048036038101906106ba91906146a8565b611e8d565b005b6106db60048036038101906106d691906146a8565b611fa8565b6040516106e8919061563b565b60405180910390f35b61070b60048036038101906107069190614b3f565b611fc9565b604051610718919061563b565b60405180910390f35b610729611fea565b6040516107369190615958565b60405180910390f35b610747611ff0565b6040516107549190615656565b60405180910390f35b61077760048036038101906107729190614b68565b61207e565b005b610793600480360381019061078e91906146a8565b6122ef565b005b6107af60048036038101906107aa91906146d1565b612379565b6040516107bc919061563b565b60405180910390f35b6107df60048036038101906107da91906146a8565b6123df565b005b6107fb60048036038101906107f691906147cc565b612469565b005b610817600480360381019061081291906146a8565b61250a565b005b610833600480360381019061082e9190614b3f565b612602565b604051610840919061563b565b60405180910390f35b610863600480360381019061085e91906146a8565b612623565b604051610870919061563b565b60405180910390f35b60008073ffffffffffffffffffffffffffffffffffffffff168373ffffffffffffffffffffffffffffffffffffffff1614156108ea576040517f08c379a00000000000000000000000000000000000000000000000000000000081526004016108e1906156b8565b60405180910390fd5b60c9600083815260200190815260200160002060008473ffffffffffffffffffffffffffffffffffffffff1673ffffffffffffffffffffffffffffffffffffffff16815260200190815260200160002054905092915050565b60007f2a55205a000000000000000000000000000000000000000000000000000000007bffffffffffffffffffffffffffffffffffffffffffffffffffffffff1916827bffffffffffffffffffffffffffffffffffffffffffffffffffffffff191614806109b657506109b582612644565b5b9050919050565b606060fb80546109cc90615c5d565b80601f01602080910402602001604051908101604052809291908181526020018280546109f890615c5d565b8015610a455780601f10610a1a57610100808354040283529160200191610a45565b820191906000526020600020905b815481529060010190602001808311610a2857829003601f168201915b5050505050905090565b606061010560008381526020019081526020016000208054610a7090615c5d565b80601f0160208091040260200160405190810160405280929190818152602001828054610a9c90615c5d565b8015610ae95780601f10610abe57610100808354040283529160200191610ae9565b820191906000526020600020905b815481529060010190602001808311610acc57829003601f168201915b50505050509050919050565b610afd612726565b73ffffffffffffffffffffffffffffffffffffffff16610b1b6118b5565b73ffffffffffffffffffffffffffffffffffffffff1614610b71576040517f08c379a0000000000000000000000000000000000000000000000000000000008152600401610b6890615818565b60405180910390fd5b610b7c816001612735565b50565b6101056020528060005260406000206000915090508054610b9f90615c5d565b80601f0160208091040260200160405190810160405280929190818152602001828054610bcb90615c5d565b8015610c185780601f10610bed57610100808354040283529160200191610c18565b820191906000526020600020905b815481529060010190602001808311610bfb57829003601f168201915b505050505081565b6000610c2d610104612791565b905090565b610c3a612726565b73ffffffffffffffffffffffffffffffffffffffff16610c586118b5565b73ffffffffffffffffffffffffffffffffffffffff1614610cae576040517f08c379a0000000000000000000000000000000000000000000000000000000008152600401610ca590615818565b60405180910390fd5b610100600084815260200190815260200160002060009054906101000a900460ff16610d0f576040517f08c379a0000000000000000000000000000000000000000000000000000000008152600401610d0690615858565b60405180910390fd5b610d5d8383838080601f016020809104026020016040519081016040528093929190818152602001838380828437600081840152601f19601f8201169050808301925050505050505061279f565b505050565b8073ffffffffffffffffffffffffffffffffffffffff163373ffffffffffffffffffffffffffffffffffffffff1614610dd0576040517f08c379a0000000000000000000000000000000000000000000000000000000008152600401610dc7906158d8565b60405180910390fd5b610ddb8160006127cc565b50565b600080600080606460fe5486610df49190615b4d565b610dfe9190615b1c565b905060fd60009054906101000a900473ffffffffffffffffffffffffffffffffffffffff168187935093509350509250925092565b610e3b612726565b73ffffffffffffffffffffffffffffffffffffffff16610e596118b5565b73ffffffffffffffffffffffffffffffffffffffff1614610eaf576040517f08c379a0000000000000000000000000000000000000000000000000000000008152600401610ea690615818565b60405180910390fd5b60fe54811415610ebe57600080fd5b8060fe8190555050565b610ed0612726565b73ffffffffffffffffffffffffffffffffffffffff168573ffffffffffffffffffffffffffffffffffffffff161480610f165750610f1585610f10612726565b612379565b5b610f55576040517f08c379a0000000000000000000000000000000000000000000000000000000008152600401610f4c90615778565b60405180910390fd5b610f628585858585612828565b5050505050565b60ff60009054906101000a900460ff16610fb8576040517f08c379a0000000000000000000000000000000000000000000000000000000008152600401610faf906156d8565b60405180910390fd5b610fc38160016127cc565b50565b3373ffffffffffffffffffffffffffffffffffffffff16610103600083815260200190815260200160002060009054906101000a900473ffffffffffffffffffffffffffffffffffffffff1673ffffffffffffffffffffffffffffffffffffffff1614611068576040517f08c379a000000000000000000000000000000000000000000000000000000000815260040161105f90615738565b60405180910390fd5b611073816000612b8b565b50565b61107e612726565b73ffffffffffffffffffffffffffffffffffffffff1661109c6118b5565b73ffffffffffffffffffffffffffffffffffffffff16146110f2576040517f08c379a00000000000000000000000000000000000000000000000000000000081526004016110e990615818565b60405180910390fd5b6110fd8160006127cc565b50565b600060019054906101000a900460ff1680611126575060008054906101000a900460ff16155b611165576040517f08c379a000000000000000000000000000000000000000000000000000000000815260040161115c90615798565b60405180910390fd5b60008060019054906101000a900460ff1615905080156111b5576001600060016101000a81548160ff02191690831515021790555060016000806101000a81548160ff0219169083151502179055505b80156111d65760008060016101000a81548160ff0219169083151502179055505b50565b6060815183511461121f576040517f08c379a0000000000000000000000000000000000000000000000000000000008152600401611216906158f8565b60405180910390fd5b6000835167ffffffffffffffff811115611262577f4e487b7100000000000000000000000000000000000000000000000000000000600052604160045260246000fd5b6040519080825280602002602001820160405280156112905781602001602082028036833780820191505090505b50905060005b845181101561137f576113298582815181106112db577f4e487b7100000000000000000000000000000000000000000000000000000000600052603260045260246000fd5b602002602001015185838151811061131c577f4e487b7100000000000000000000000000000000000000000000000000000000600052603260045260246000fd5b6020026020010151610879565b828281518110611362577f4e487b7100000000000000000000000000000000000000000000000000000000600052603260045260246000fd5b6020026020010181815250508061137890615c8f565b9050611296565b508091505092915050565b60ff60009054906101000a900460ff1681565b6000606560009054906101000a900473ffffffffffffffffffffffffffffffffffffffff1673ffffffffffffffffffffffffffffffffffffffff168273ffffffffffffffffffffffffffffffffffffffff16149050919050565b600060019054906101000a900460ff168061141d575060008054906101000a900460ff16155b61145c576040517f08c379a000000000000000000000000000000000000000000000000000000000815260040161145390615798565b60405180910390fd5b60008060019054906101000a900460ff1615905080156114ac576001600060016101000a81548160ff02191690831515021790555060016000806101000a81548160ff0219169083151502179055505b6114ba8b8b8b8b8787612be2565b6114c48487612d3a565b6114ce8786612e31565b6114d6612f26565b6114de613007565b80156114ff5760008060016101000a81548160ff0219169083151502179055505b5050505050505050505050565b611514612726565b73ffffffffffffffffffffffffffffffffffffffff166115326118b5565b73ffffffffffffffffffffffffffffffffffffffff1614611588576040517f08c379a000000000000000000000000000000000000000000000000000000000815260040161157f90615818565b60405180910390fd5b6115a160ff60009054906101000a900460ff16156130f0565b565b6115ab612726565b73ffffffffffffffffffffffffffffffffffffffff166115c96118b5565b73ffffffffffffffffffffffffffffffffffffffff161461161f576040517f08c379a000000000000000000000000000000000000000000000000000000000815260040161161690615818565b60405180910390fd5b610100600082815260200190815260200160002060009054906101000a900460ff16611680576040517f08c379a000000000000000000000000000000000000000000000000000000000815260040161167790615858565b60405180910390fd5b6116938161168d8361310d565b15613199565b50565b61169e612726565b73ffffffffffffffffffffffffffffffffffffffff166116bc6118b5565b73ffffffffffffffffffffffffffffffffffffffff1614611712576040517f08c379a000000000000000000000000000000000000000000000000000000000815260040161170990615818565b60405180910390fd5b61171c60006131c9565b565b6101036020528060005260406000206000915054906101000a900473ffffffffffffffffffffffffffffffffffffffff1681565b600061175d8361310d565b1561179d576040517f08c379a0000000000000000000000000000000000000000000000000000000008152600401611794906157b8565b60405180910390fd5b610100600084815260200190815260200160002060009054906101000a900460ff166117fe576040517f08c379a00000000000000000000000000000000000000000000000000000000081526004016117f590615858565b60405180910390fd5b3373ffffffffffffffffffffffffffffffffffffffff16610103600085815260200190815260200160002060009054906101000a900473ffffffffffffffffffffffffffffffffffffffff1673ffffffffffffffffffffffffffffffffffffffff16146118a0576040517f08c379a000000000000000000000000000000000000000000000000000000000815260040161189790615738565b60405180910390fd5b6118ab84848461328f565b8290509392505050565b6000603360009054906101000a900473ffffffffffffffffffffffffffffffffffffffff16905090565b610100600082815260200190815260200160002060009054906101000a900460ff16611940576040517f08c379a000000000000000000000000000000000000000000000000000000000815260040161193790615858565b60405180910390fd5b61010160003373ffffffffffffffffffffffffffffffffffffffff1673ffffffffffffffffffffffffffffffffffffffff16815260200190815260200160002060009054906101000a900460ff166119cd576040517f08c379a00000000000000000000000000000000000000000000000000000000081526004016119c490615838565b60405180910390fd5b3373ffffffffffffffffffffffffffffffffffffffff16610103600083815260200190815260200160002060009054906101000a900473ffffffffffffffffffffffffffffffffffffffff1673ffffffffffffffffffffffffffffffffffffffff1614611a6f576040517f08c379a0000000000000000000000000000000000000000000000000000000008152600401611a6690615738565b60405180910390fd5b611a8281611a7c8361310d565b15613199565b50565b60fd60009054906101000a900473ffffffffffffffffffffffffffffffffffffffff1681565b606060fc8054611aba90615c5d565b80601f0160208091040260200160405190810160405280929190818152602001828054611ae690615c5d565b8015611b335780601f10611b0857610100808354040283529160200191611b33565b820191906000526020600020905b815481529060010190602001808311611b1657829003601f168201915b5050505050905090565b600080611b48610c20565b905060008686905011611b90576040517f08c379a0000000000000000000000000000000000000000000000000000000008152600401611b87906157f8565b60405180910390fd5b610100600082815260200190815260200160002060009054906101000a900460ff1615611bf2576040517f08c379a0000000000000000000000000000000000000000000000000000000008152600401611be990615898565b60405180910390fd5b611bfd33828661328f565b611c4b8187878080601f016020809104026020016040519081016040528093929190818152602001838380828437600081840152601f19601f8201169050808301925050505050505061279f565b611c5681600161340e565b611c608184613199565b611c6a8133612b8b565b611c7261343e565b80915050949350505050565b8173ffffffffffffffffffffffffffffffffffffffff16611c9d612726565b73ffffffffffffffffffffffffffffffffffffffff161415611cf4576040517f08c379a0000000000000000000000000000000000000000000000000000000008152600401611ceb906158b8565b60405180910390fd5b8060ca6000611d01612726565b73ffffffffffffffffffffffffffffffffffffffff1673ffffffffffffffffffffffffffffffffffffffff16815260200190815260200160002060008473ffffffffffffffffffffffffffffffffffffffff1673ffffffffffffffffffffffffffffffffffffffff16815260200190815260200160002060006101000a81548160ff0219169083151502179055508173ffffffffffffffffffffffffffffffffffffffff16611dae612726565b73ffffffffffffffffffffffffffffffffffffffff167f17307eab39ab6107e8899845ad3d59bd9653f200f220920489ca2b5937696c3183604051611df3919061563b565b60405180910390a35050565b60fc8054611e0c90615c5d565b80601f0160208091040260200160405190810160405280929190818152602001828054611e3890615c5d565b8015611e855780601f10611e5a57610100808354040283529160200191611e85565b820191906000526020600020905b815481529060010190602001808311611e6857829003601f168201915b505050505081565b611e95612726565b73ffffffffffffffffffffffffffffffffffffffff16611eb36118b5565b73ffffffffffffffffffffffffffffffffffffffff1614611f09576040517f08c379a0000000000000000000000000000000000000000000000000000000008152600401611f0090615818565b60405180910390fd5b60fd60009054906101000a900473ffffffffffffffffffffffffffffffffffffffff1673ffffffffffffffffffffffffffffffffffffffff168173ffffffffffffffffffffffffffffffffffffffff161415611f6457600080fd5b8060fd60006101000a81548173ffffffffffffffffffffffffffffffffffffffff021916908373ffffffffffffffffffffffffffffffffffffffff16021790555050565b6101026020528060005260406000206000915054906101000a900460ff1681565b6101066020528060005260406000206000915054906101000a900460ff1681565b60fe5481565b60fb8054611ffd90615c5d565b80601f016020809104026020016040519081016040528092919081815260200182805461202990615c5d565b80156120765780601f1061204b57610100808354040283529160200191612076565b820191906000526020600020905b81548152906001019060200180831161205957829003601f168201915b505050505081565b610100600084815260200190815260200160002060009054906101000a900460ff166120df576040517f08c379a00000000000000000000000000000000000000000000000000000000081526004016120d690615858565b60405180910390fd5b61010160003373ffffffffffffffffffffffffffffffffffffffff1673ffffffffffffffffffffffffffffffffffffffff16815260200190815260200160002060009054906101000a900460ff1661216c576040517f08c379a000000000000000000000000000000000000000000000000000000000815260040161216390615838565b60405180910390fd5b61010260003373ffffffffffffffffffffffffffffffffffffffff1673ffffffffffffffffffffffffffffffffffffffff16815260200190815260200160002060009054906101000a900460ff16156121fa576040517f08c379a00000000000000000000000000000000000000000000000000000000081526004016121f190615878565b60405180910390fd5b3373ffffffffffffffffffffffffffffffffffffffff16610103600085815260200190815260200160002060009054906101000a900473ffffffffffffffffffffffffffffffffffffffff1673ffffffffffffffffffffffffffffffffffffffff161461229c576040517f08c379a000000000000000000000000000000000000000000000000000000000815260040161229390615738565b60405180910390fd5b6122ea8383838080601f016020809104026020016040519081016040528093929190818152602001838380828437600081840152601f19601f8201169050808301925050505050505061279f565b505050565b6122f7612726565b73ffffffffffffffffffffffffffffffffffffffff166123156118b5565b73ffffffffffffffffffffffffffffffffffffffff161461236b576040517f08c379a000000000000000000000000000000000000000000000000000000000815260040161236290615818565b60405180910390fd5b612376816000612735565b50565b600073207fa8df3a17d96ca7ea4f2893fcdcb78a30410173ffffffffffffffffffffffffffffffffffffffff168273ffffffffffffffffffffffffffffffffffffffff1614156123cc57600190506123d9565b6123d6838361344b565b90505b92915050565b6123e7612726565b73ffffffffffffffffffffffffffffffffffffffff166124056118b5565b73ffffffffffffffffffffffffffffffffffffffff161461245b576040517f08c379a000000000000000000000000000000000000000000000000000000000815260040161245290615818565b60405180910390fd5b6124668160016127cc565b50565b612471612726565b73ffffffffffffffffffffffffffffffffffffffff168573ffffffffffffffffffffffffffffffffffffffff1614806124b757506124b6856124b1612726565b612379565b5b6124f6576040517f08c379a00000000000000000000000000000000000000000000000000000000081526004016124ed90615718565b60405180910390fd5b61250385858585856134df565b5050505050565b612512612726565b73ffffffffffffffffffffffffffffffffffffffff166125306118b5565b73ffffffffffffffffffffffffffffffffffffffff1614612586576040517f08c379a000000000000000000000000000000000000000000000000000000000815260040161257d90615818565b60405180910390fd5b600073ffffffffffffffffffffffffffffffffffffffff168173ffffffffffffffffffffffffffffffffffffffff1614156125f6576040517f08c379a00000000000000000000000000000000000000000000000000000000081526004016125ed906156f8565b60405180910390fd5b6125ff816131c9565b50565b6101006020528060005260406000206000915054906101000a900460ff1681565b6101016020528060005260406000206000915054906101000a900460ff1681565b60007fd9b67a26000000000000000000000000000000000000000000000000000000007bffffffffffffffffffffffffffffffffffffffffffffffffffffffff1916827bffffffffffffffffffffffffffffffffffffffffffffffffffffffff1916148061270f57507f0e89341c000000000000000000000000000000000000000000000000000000007bffffffffffffffffffffffffffffffffffffffffffffffffffffffff1916827bffffffffffffffffffffffffffffffffffffffffffffffffffffffff1916145b8061271f575061271e82613764565b5b9050919050565b60006127306137ce565b905090565b8061010260008473ffffffffffffffffffffffffffffffffffffffff1673ffffffffffffffffffffffffffffffffffffffff16815260200190815260200160002060006101000a81548160ff0219169083151502179055505050565b600081600001549050919050565b80610105600084815260200190815260200160002090805190602001906127c7929190614338565b505050565b8061010160008473ffffffffffffffffffffffffffffffffffffffff1673ffffffffffffffffffffffffffffffffffffffff16815260200190815260200160002060006101000a81548160ff0219169083151502179055505050565b815183511461286c576040517f08c379a000000000000000000000000000000000000000000000000000000000815260040161286390615918565b60405180910390fd5b600073ffffffffffffffffffffffffffffffffffffffff168473ffffffffffffffffffffffffffffffffffffffff1614156128dc576040517f08c379a00000000000000000000000000000000000000000000000000000000081526004016128d390615758565b60405180910390fd5b60006128e6612726565b90506128f681878787878761387f565b60005b8451811015612af657600085828151811061293d577f4e487b7100000000000000000000000000000000000000000000000000000000600052603260045260246000fd5b602002602001015190506000858381518110612982577f4e487b7100000000000000000000000000000000000000000000000000000000600052603260045260246000fd5b60200260200101519050600060c9600084815260200190815260200160002060008b73ffffffffffffffffffffffffffffffffffffffff1673ffffffffffffffffffffffffffffffffffffffff16815260200190815260200160002054905081811015612a24576040517f08c379a0000000000000000000000000000000000000000000000000000000008152600401612a1b906157d8565b60405180910390fd5b81810360c9600085815260200190815260200160002060008c73ffffffffffffffffffffffffffffffffffffffff1673ffffffffffffffffffffffffffffffffffffffff168152602001908152602001600020819055508160c9600085815260200190815260200160002060008b73ffffffffffffffffffffffffffffffffffffffff1673ffffffffffffffffffffffffffffffffffffffff1681526020019081526020016000206000828254612adb9190615ac6565b9250508190555050505080612aef90615c8f565b90506128f9565b508473ffffffffffffffffffffffffffffffffffffffff168673ffffffffffffffffffffffffffffffffffffffff168273ffffffffffffffffffffffffffffffffffffffff167f4a39dc06d4c0dbc64b70af90fd698a233a518aa5d07e595d983b8c0526c8f7fb8787604051612b6d929190615604565b60405180910390a4612b83818787878787613887565b505050505050565b80610103600084815260200190815260200160002060006101000a81548173ffffffffffffffffffffffffffffffffffffffff021916908373ffffffffffffffffffffffffffffffffffffffff1602179055505050565b600060019054906101000a900460ff1680612c08575060008054906101000a900460ff16155b612c47576040517f08c379a0000000000000000000000000000000000000000000000000000000008152600401612c3e90615798565b60405180910390fd5b60008060019054906101000a900460ff161590508015612c97576001600060016101000a81548160ff02191690831515021790555060016000806101000a81548160ff0219169083151502179055505b612ce483838080601f016020809104026020016040519081016040528093929190818152602001838380828437600081840152601f19601f82011690508083019250505050505050613a57565b612cec613007565b868660fb9190612cfd9291906143be565b50848460fc9190612d0f9291906143be565b508015612d315760008060016101000a81548160ff0219169083151502179055505b50505050505050565b600060019054906101000a900460ff1680612d60575060008054906101000a900460ff16155b612d9f576040517f08c379a0000000000000000000000000000000000000000000000000000000008152600401612d9690615798565b60405180910390fd5b60008060019054906101000a900460ff161590508015612def576001600060016101000a81548160ff02191690831515021790555060016000806101000a81548160ff0219169083151502179055505b612df7613007565b612e00836130f0565b612e0b8260016127cc565b8015612e2c5760008060016101000a81548160ff0219169083151502179055505b505050565b600060019054906101000a900460ff1680612e57575060008054906101000a900460ff16155b612e96576040517f08c379a0000000000000000000000000000000000000000000000000000000008152600401612e8d90615798565b60405180910390fd5b60008060019054906101000a900460ff161590508015612ee6576001600060016101000a81548160ff02191690831515021790555060016000806101000a81548160ff0219169083151502179055505b612eee613007565b612ef783611e8d565b612f0082610e33565b8015612f215760008060016101000a81548160ff0219169083151502179055505b505050565b600060019054906101000a900460ff1680612f4c575060008054906101000a900460ff16155b612f8b576040517f08c379a0000000000000000000000000000000000000000000000000000000008152600401612f8290615798565b60405180910390fd5b60008060019054906101000a900460ff161590508015612fdb576001600060016101000a81548160ff02191690831515021790555060016000806101000a81548160ff0219169083151502179055505b612fe3613007565b80156130045760008060016101000a81548160ff0219169083151502179055505b50565b600060019054906101000a900460ff168061302d575060008054906101000a900460ff16155b61306c576040517f08c379a000000000000000000000000000000000000000000000000000000000815260040161306390615798565b60405180910390fd5b60008060019054906101000a900460ff1615905080156130bc576001600060016101000a81548160ff02191690831515021790555060016000806101000a81548160ff0219169083151502179055505b6130c4613b4a565b6130cc613c23565b80156130ed5760008060016101000a81548160ff0219169083151502179055505b50565b8060ff60006101000a81548160ff02191690831515021790555050565b6000610100600083815260200190815260200160002060009054906101000a900460ff16613170576040517f08c379a000000000000000000000000000000000000000000000000000000000815260040161316790615858565b60405180910390fd5b610106600083815260200190815260200160002060009054906101000a900460ff169050919050565b80610106600084815260200190815260200160002060006101000a81548160ff0219169083151502179055505050565b6000603360009054906101000a900473ffffffffffffffffffffffffffffffffffffffff16905081603360006101000a81548173ffffffffffffffffffffffffffffffffffffffff021916908373ffffffffffffffffffffffffffffffffffffffff1602179055508173ffffffffffffffffffffffffffffffffffffffff168173ffffffffffffffffffffffffffffffffffffffff167f8be0079c531659141344cd1fd0a4f28419497f9722a3daafe3b4186f6b6457e060405160405180910390a35050565b61010160003373ffffffffffffffffffffffffffffffffffffffff1673ffffffffffffffffffffffffffffffffffffffff16815260200190815260200160002060009054906101000a900460ff1661331c576040517f08c379a000000000000000000000000000000000000000000000000000000000815260040161331390615838565b60405180910390fd5b61010260003373ffffffffffffffffffffffffffffffffffffffff1673ffffffffffffffffffffffffffffffffffffffff16815260200190815260200160002060009054906101000a900460ff16156133aa576040517f08c379a00000000000000000000000000000000000000000000000000000000081526004016133a190615878565b60405180910390fd5b6133c583838360405180602001604052806000815250613d0c565b3373ffffffffffffffffffffffffffffffffffffffff16827ff3cea5493d790af0133817606f7350a91d7f154ea52eaa79d179d4d231e5010260405160405180910390a3505050565b80610100600084815260200190815260200160002060006101000a81548160ff0219169083151502179055505050565b613449610104613ea3565b565b600060ca60008473ffffffffffffffffffffffffffffffffffffffff1673ffffffffffffffffffffffffffffffffffffffff16815260200190815260200160002060008373ffffffffffffffffffffffffffffffffffffffff1673ffffffffffffffffffffffffffffffffffffffff16815260200190815260200160002060009054906101000a900460ff16905092915050565b600073ffffffffffffffffffffffffffffffffffffffff168473ffffffffffffffffffffffffffffffffffffffff16141561354f576040517f08c379a000000000000000000000000000000000000000000000000000000000815260040161354690615758565b60405180910390fd5b6000613559612726565b905061357981878761356a88613eb9565b61357388613eb9565b8761387f565b600060c9600086815260200190815260200160002060008873ffffffffffffffffffffffffffffffffffffffff1673ffffffffffffffffffffffffffffffffffffffff16815260200190815260200160002054905083811015613611576040517f08c379a0000000000000000000000000000000000000000000000000000000008152600401613608906157d8565b60405180910390fd5b83810360c9600087815260200190815260200160002060008973ffffffffffffffffffffffffffffffffffffffff1673ffffffffffffffffffffffffffffffffffffffff168152602001908152602001600020819055508360c9600087815260200190815260200160002060008873ffffffffffffffffffffffffffffffffffffffff1673ffffffffffffffffffffffffffffffffffffffff16815260200190815260200160002060008282546136c89190615ac6565b925050819055508573ffffffffffffffffffffffffffffffffffffffff168773ffffffffffffffffffffffffffffffffffffffff168373ffffffffffffffffffffffffffffffffffffffff167fc3d58168c5ae7397731d063d5bbf3d657854427343f4c083240f7aacaa2d0f628888604051613745929190615973565b60405180910390a461375b828888888888613f7f565b50505050505050565b60007f01ffc9a7000000000000000000000000000000000000000000000000000000007bffffffffffffffffffffffffffffffffffffffffffffffffffffffff1916827bffffffffffffffffffffffffffffffffffffffffffffffffffffffff1916149050919050565b60003073ffffffffffffffffffffffffffffffffffffffff163373ffffffffffffffffffffffffffffffffffffffff16141561387857600080368080601f016020809104026020016040519081016040528093929190818152602001838380828437600081840152601f19601f820116905080830192505050505050509050600080369050905073ffffffffffffffffffffffffffffffffffffffff81830151169250505061387c565b3390505b90565b505050505050565b6138a68473ffffffffffffffffffffffffffffffffffffffff1661414f565b15613a4f578373ffffffffffffffffffffffffffffffffffffffff1663bc197c8187878686866040518663ffffffff1660e01b81526004016138ec9594939291906154e9565b602060405180830381600087803b15801561390657600080fd5b505af192505050801561393757506040513d601f19601f8201168201806040525081019061393491906149b7565b60015b6139c657613943615db2565b8061394e575061398b565b806040517f08c379a00000000000000000000000000000000000000000000000000000000081526004016139829190615656565b60405180910390fd5b6040517f08c379a00000000000000000000000000000000000000000000000000000000081526004016139bd90615678565b60405180910390fd5b63bc197c8160e01b7bffffffffffffffffffffffffffffffffffffffffffffffffffffffff1916817bffffffffffffffffffffffffffffffffffffffffffffffffffffffff191614613a4d576040517f08c379a0000000000000000000000000000000000000000000000000000000008152600401613a4490615698565b60405180910390fd5b505b505050505050565b600060019054906101000a900460ff1680613a7d575060008054906101000a900460ff16155b613abc576040517f08c379a0000000000000000000000000000000000000000000000000000000008152600401613ab390615798565b60405180910390fd5b60008060019054906101000a900460ff161590508015613b0c576001600060016101000a81548160ff02191690831515021790555060016000806101000a81548160ff0219169083151502179055505b613b14613b4a565b613b1c614162565b613b258261423b565b8015613b465760008060016101000a81548160ff0219169083151502179055505b5050565b600060019054906101000a900460ff1680613b70575060008054906101000a900460ff16155b613baf576040517f08c379a0000000000000000000000000000000000000000000000000000000008152600401613ba690615798565b60405180910390fd5b60008060019054906101000a900460ff161590508015613bff576001600060016101000a81548160ff02191690831515021790555060016000806101000a81548160ff0219169083151502179055505b8015613c205760008060016101000a81548160ff0219169083151502179055505b50565b600060019054906101000a900460ff1680613c49575060008054906101000a900460ff16155b613c88576040517f08c379a0000000000000000000000000000000000000000000000000000000008152600401613c7f90615798565b60405180910390fd5b60008060019054906101000a900460ff161590508015613cd8576001600060016101000a81548160ff02191690831515021790555060016000806101000a81548160ff0219169083151502179055505b613ce8613ce3612726565b6131c9565b8015613d095760008060016101000a81548160ff0219169083151502179055505b50565b600073ffffffffffffffffffffffffffffffffffffffff168473ffffffffffffffffffffffffffffffffffffffff161415613d7c576040517f08c379a0000000000000000000000000000000000000000000000000000000008152600401613d7390615938565b60405180910390fd5b6000613d86612726565b9050613da781600087613d9888613eb9565b613da188613eb9565b8761387f565b8260c9600086815260200190815260200160002060008773ffffffffffffffffffffffffffffffffffffffff1673ffffffffffffffffffffffffffffffffffffffff1681526020019081526020016000206000828254613e079190615ac6565b925050819055508473ffffffffffffffffffffffffffffffffffffffff16600073ffffffffffffffffffffffffffffffffffffffff168273ffffffffffffffffffffffffffffffffffffffff167fc3d58168c5ae7397731d063d5bbf3d657854427343f4c083240f7aacaa2d0f628787604051613e85929190615973565b60405180910390a4613e9c81600087878787613f7f565b5050505050565b6001816000016000828254019250508190555050565b60606000600167ffffffffffffffff811115613efe577f4e487b7100000000000000000000000000000000000000000000000000000000600052604160045260246000fd5b604051908082528060200260200182016040528015613f2c5781602001602082028036833780820191505090505b5090508281600081518110613f6a577f4e487b7100000000000000000000000000000000000000000000000000000000600052603260045260246000fd5b60200260200101818152505080915050919050565b613f9e8473ffffffffffffffffffffffffffffffffffffffff1661414f565b15614147578373ffffffffffffffffffffffffffffffffffffffff1663f23a6e6187878686866040518663ffffffff1660e01b8152600401613fe4959493929190615551565b602060405180830381600087803b158015613ffe57600080fd5b505af192505050801561402f57506040513d601f19601f8201168201806040525081019061402c91906149b7565b60015b6140be5761403b615db2565b806140465750614083565b806040517f08c379a000000000000000000000000000000000000000000000000000000000815260040161407a9190615656565b60405180910390fd5b6040517f08c379a00000000000000000000000000000000000000000000000000000000081526004016140b590615678565b60405180910390fd5b63f23a6e6160e01b7bffffffffffffffffffffffffffffffffffffffffffffffffffffffff1916817bffffffffffffffffffffffffffffffffffffffffffffffffffffffff191614614145576040517f08c379a000000000000000000000000000000000000000000000000000000000815260040161413c90615698565b60405180910390fd5b505b505050505050565b600080823b905060008111915050919050565b600060019054906101000a900460ff1680614188575060008054906101000a900460ff16155b6141c7576040517f08c379a00000000000000000000000000000000000000000000000000000000081526004016141be90615798565b60405180910390fd5b60008060019054906101000a900460ff161590508015614217576001600060016101000a81548160ff02191690831515021790555060016000806101000a81548160ff0219169083151502179055505b80156142385760008060016101000a81548160ff0219169083151502179055505b50565b600060019054906101000a900460ff1680614261575060008054906101000a900460ff16155b6142a0576040517f08c379a000000000000000000000000000000000000000000000000000000000815260040161429790615798565b60405180910390fd5b60008060019054906101000a900460ff1615905080156142f0576001600060016101000a81548160ff02191690831515021790555060016000806101000a81548160ff0219169083151502179055505b6142f98261431e565b801561431a5760008060016101000a81548160ff0219169083151502179055505b5050565b8060cb9080519060200190614334929190614338565b5050565b82805461434490615c5d565b90600052602060002090601f01602090048101928261436657600085556143ad565b82601f1061437f57805160ff19168380011785556143ad565b828001600101855582156143ad579182015b828111156143ac578251825591602001919060010190614391565b5b5090506143ba9190614444565b5090565b8280546143ca90615c5d565b90600052602060002090601f0160209004810192826143ec5760008555614433565b82601f1061440557803560ff1916838001178555614433565b82800160010185558215614433579182015b82811115614432578235825591602001919060010190614417565b5b5090506144409190614444565b5090565b5b8082111561445d576000816000905550600101614445565b5090565b600061447461446f846159cd565b61599c565b9050808382526020820190508285602086028201111561449357600080fd5b60005b858110156144c357816144a98882614577565b845260208401935060208301925050600181019050614496565b5050509392505050565b60006144e06144db846159f9565b61599c565b905080838252602082019050828560208602820111156144ff57600080fd5b60005b8581101561452f57816145158882614693565b845260208401935060208301925050600181019050614502565b5050509392505050565b600061454c61454784615a25565b61599c565b90508281526020810184848401111561456457600080fd5b61456f848285615c1b565b509392505050565b60008135905061458681615e68565b92915050565b600082601f83011261459d57600080fd5b81356145ad848260208601614461565b91505092915050565b600082601f8301126145c757600080fd5b81356145d78482602086016144cd565b91505092915050565b6000813590506145ef81615e7f565b92915050565b60008135905061460481615e96565b92915050565b60008151905061461981615e96565b92915050565b600082601f83011261463057600080fd5b8135614640848260208601614539565b91505092915050565b60008083601f84011261465b57600080fd5b8235905067ffffffffffffffff81111561467457600080fd5b60208301915083600182028301111561468c57600080fd5b9250929050565b6000813590506146a281615ead565b92915050565b6000602082840312156146ba57600080fd5b60006146c884828501614577565b91505092915050565b600080604083850312156146e457600080fd5b60006146f285828601614577565b925050602061470385828601614577565b9150509250929050565b600080600080600060a0868803121561472557600080fd5b600061473388828901614577565b955050602061474488828901614577565b945050604086013567ffffffffffffffff81111561476157600080fd5b61476d888289016145b6565b935050606086013567ffffffffffffffff81111561478a57600080fd5b614796888289016145b6565b925050608086013567ffffffffffffffff8111156147b357600080fd5b6147bf8882890161461f565b9150509295509295909350565b600080600080600060a086880312156147e457600080fd5b60006147f288828901614577565b955050602061480388828901614577565b945050604061481488828901614693565b935050606061482588828901614693565b925050608086013567ffffffffffffffff81111561484257600080fd5b61484e8882890161461f565b9150509295509295909350565b6000806040838503121561486e57600080fd5b600061487c85828601614577565b925050602061488d858286016145e0565b9150509250929050565b600080604083850312156148aa57600080fd5b60006148b885828601614577565b92505060206148c985828601614693565b9150509250929050565b6000806000606084860312156148e857600080fd5b60006148f686828701614577565b935050602061490786828701614693565b925050604061491886828701614693565b9150509250925092565b6000806040838503121561493557600080fd5b600083013567ffffffffffffffff81111561494f57600080fd5b61495b8582860161458c565b925050602083013567ffffffffffffffff81111561497857600080fd5b614984858286016145b6565b9150509250929050565b6000602082840312156149a057600080fd5b60006149ae848285016145f5565b91505092915050565b6000602082840312156149c957600080fd5b60006149d78482850161460a565b91505092915050565b60008060008060008060008060008060e08b8d0312156149ff57600080fd5b60008b013567ffffffffffffffff811115614a1957600080fd5b614a258d828e01614649565b9a509a505060208b013567ffffffffffffffff811115614a4457600080fd5b614a508d828e01614649565b98509850506040614a638d828e01614577565b9650506060614a748d828e01614577565b9550506080614a858d828e01614693565b94505060a0614a968d828e016145e0565b93505060c08b013567ffffffffffffffff811115614ab357600080fd5b614abf8d828e01614649565b92509250509295989b9194979a5092959850565b60008060008060608587031215614ae957600080fd5b600085013567ffffffffffffffff811115614b0357600080fd5b614b0f87828801614649565b94509450506020614b2287828801614693565b9250506040614b33878288016145e0565b91505092959194509250565b600060208284031215614b5157600080fd5b6000614b5f84828501614693565b91505092915050565b600080600060408486031215614b7d57600080fd5b6000614b8b86828701614693565b935050602084013567ffffffffffffffff811115614ba857600080fd5b614bb486828701614649565b92509250509250925092565b60008060408385031215614bd357600080fd5b6000614be185828601614693565b9250506020614bf285828601614693565b9150509250929050565b6000614c0883836154b0565b60208301905092915050565b614c1d81615ba7565b82525050565b6000614c2e82615a65565b614c388185615a93565b9350614c4383615a55565b8060005b83811015614c74578151614c5b8882614bfc565b9750614c6683615a86565b925050600181019050614c47565b5085935050505092915050565b614c8a81615bb9565b82525050565b6000614c9b82615a70565b614ca58185615aa4565b9350614cb5818560208601615c2a565b614cbe81615d94565b840191505092915050565b6000614cd482615a7b565b614cde8185615ab5565b9350614cee818560208601615c2a565b614cf781615d94565b840191505092915050565b6000614d0f603483615ab5565b91507f455243313135353a207472616e7366657220746f206e6f6e204552433131353560008301527f526563656976657220696d706c656d656e7465720000000000000000000000006020830152604082019050919050565b6000614d75602883615ab5565b91507f455243313135353a204552433131353552656365697665722072656a6563746560008301527f6420746f6b656e730000000000000000000000000000000000000000000000006020830152604082019050919050565b6000614ddb602b83615ab5565b91507f455243313135353a2062616c616e636520717565727920666f7220746865207a60008301527f65726f20616464726573730000000000000000000000000000000000000000006020830152604082019050919050565b6000614e41600683615ab5565b91507f4e504d494e5400000000000000000000000000000000000000000000000000006000830152602082019050919050565b6000614e81602683615ab5565b91507f4f776e61626c653a206e6577206f776e657220697320746865207a65726f206160008301527f64647265737300000000000000000000000000000000000000000000000000006020830152604082019050919050565b6000614ee7602983615ab5565b91507f455243313135353a2063616c6c6572206973206e6f74206f776e6572206e6f7260008301527f20617070726f76656400000000000000000000000000000000000000000000006020830152604082019050919050565b6000614f4d600683615ab5565b91507f4e4d494e545000000000000000000000000000000000000000000000000000006000830152602082019050919050565b6000614f8d602583615ab5565b91507f455243313135353a207472616e7366657220746f20746865207a65726f20616460008301527f64726573730000000000000000000000000000000000000000000000000000006020830152604082019050919050565b6000614ff3603283615ab5565b91507f455243313135353a207472616e736665722063616c6c6572206973206e6f742060008301527f6f776e6572206e6f7220617070726f76656400000000000000000000000000006020830152604082019050919050565b6000615059602e83615ab5565b91507f496e697469616c697a61626c653a20636f6e747261637420697320616c72656160008301527f647920696e697469616c697a65640000000000000000000000000000000000006020830152604082019050919050565b60006150bf600783615ab5565b91507f544b4e20522f53000000000000000000000000000000000000000000000000006000830152602082019050919050565b60006150ff602a83615ab5565b91507f455243313135353a20696e73756666696369656e742062616c616e636520666f60008301527f72207472616e73666572000000000000000000000000000000000000000000006020830152604082019050919050565b6000615165600683615ab5565b91507f4e4f2055524900000000000000000000000000000000000000000000000000006000830152602082019050919050565b60006151a5602083615ab5565b91507f4f776e61626c653a2063616c6c6572206973206e6f7420746865206f776e65726000830152602082019050919050565b60006151e5600383615ab5565b91507f574c4600000000000000000000000000000000000000000000000000000000006000830152602082019050919050565b6000615225600783615ab5565b91507f544b4e204e2f41000000000000000000000000000000000000000000000000006000830152602082019050919050565b6000615265600683615ab5565b91507f42414e4e454400000000000000000000000000000000000000000000000000006000830152602082019050919050565b60006152a5600483615ab5565b91507f544b4e52000000000000000000000000000000000000000000000000000000006000830152602082019050919050565b60006152e5602983615ab5565b91507f455243313135353a2073657474696e6720617070726f76616c2073746174757360008301527f20666f722073656c6600000000000000000000000000000000000000000000006020830152604082019050919050565b600061534b600983615ab5565b91507f4e4f54204f574e455200000000000000000000000000000000000000000000006000830152602082019050919050565b600061538b602983615ab5565b91507f455243313135353a206163636f756e747320616e6420696473206c656e67746860008301527f206d69736d6174636800000000000000000000000000000000000000000000006020830152604082019050919050565b60006153f1602883615ab5565b91507f455243313135353a2069647320616e6420616d6f756e7473206c656e6774682060008301527f6d69736d617463680000000000000000000000000000000000000000000000006020830152604082019050919050565b6000615457602183615ab5565b91507f455243313135353a206d696e7420746f20746865207a65726f2061646472657360008301527f73000000000000000000000000000000000000000000000000000000000000006020830152604082019050919050565b6154b981615c11565b82525050565b6154c881615c11565b82525050565b60006020820190506154e36000830184614c14565b92915050565b600060a0820190506154fe6000830188614c14565b61550b6020830187614c14565b818103604083015261551d8186614c23565b905081810360608301526155318185614c23565b905081810360808301526155458184614c90565b90509695505050505050565b600060a0820190506155666000830188614c14565b6155736020830187614c14565b61558060408301866154bf565b61558d60608301856154bf565b818103608083015261559f8184614c90565b90509695505050505050565b60006060820190506155c06000830186614c14565b6155cd60208301856154bf565b6155da60408301846154bf565b949350505050565b600060208201905081810360008301526155fc8184614c23565b905092915050565b6000604082019050818103600083015261561e8185614c23565b905081810360208301526156328184614c23565b90509392505050565b60006020820190506156506000830184614c81565b92915050565b600060208201905081810360008301526156708184614cc9565b905092915050565b6000602082019050818103600083015261569181614d02565b9050919050565b600060208201905081810360008301526156b181614d68565b9050919050565b600060208201905081810360008301526156d181614dce565b9050919050565b600060208201905081810360008301526156f181614e34565b9050919050565b6000602082019050818103600083015261571181614e74565b9050919050565b6000602082019050818103600083015261573181614eda565b9050919050565b6000602082019050818103600083015261575181614f40565b9050919050565b6000602082019050818103600083015261577181614f80565b9050919050565b6000602082019050818103600083015261579181614fe6565b9050919050565b600060208201905081810360008301526157b18161504c565b9050919050565b600060208201905081810360008301526157d1816150b2565b9050919050565b600060208201905081810360008301526157f1816150f2565b9050919050565b6000602082019050818103600083015261581181615158565b9050919050565b6000602082019050818103600083015261583181615198565b9050919050565b60006020820190508181036000830152615851816151d8565b9050919050565b6000602082019050818103600083015261587181615218565b9050919050565b6000602082019050818103600083015261589181615258565b9050919050565b600060208201905081810360008301526158b181615298565b9050919050565b600060208201905081810360008301526158d1816152d8565b9050919050565b600060208201905081810360008301526158f18161533e565b9050919050565b600060208201905081810360008301526159118161537e565b9050919050565b60006020820190508181036000830152615931816153e4565b9050919050565b600060208201905081810360008301526159518161544a565b9050919050565b600060208201905061596d60008301846154bf565b92915050565b600060408201905061598860008301856154bf565b61599560208301846154bf565b9392505050565b6000604051905081810181811067ffffffffffffffff821117156159c3576159c2615d65565b5b8060405250919050565b600067ffffffffffffffff8211156159e8576159e7615d65565b5b602082029050602081019050919050565b600067ffffffffffffffff821115615a1457615a13615d65565b5b602082029050602081019050919050565b600067ffffffffffffffff821115615a4057615a3f615d65565b5b601f19601f8301169050602081019050919050565b6000819050602082019050919050565b600081519050919050565b600081519050919050565b600081519050919050565b6000602082019050919050565b600082825260208201905092915050565b600082825260208201905092915050565b600082825260208201905092915050565b6000615ad182615c11565b9150615adc83615c11565b9250827fffffffffffffffffffffffffffffffffffffffffffffffffffffffffffffffff03821115615b1157615b10615cd8565b5b828201905092915050565b6000615b2782615c11565b9150615b3283615c11565b925082615b4257615b41615d07565b5b828204905092915050565b6000615b5882615c11565b9150615b6383615c11565b9250817fffffffffffffffffffffffffffffffffffffffffffffffffffffffffffffffff0483118215151615615b9c57615b9b615cd8565b5b828202905092915050565b6000615bb282615bf1565b9050919050565b60008115159050919050565b60007fffffffff0000000000000000000000000000000000000000000000000000000082169050919050565b600073ffffffffffffffffffffffffffffffffffffffff82169050919050565b6000819050919050565b82818337600083830152505050565b60005b83811015615c48578082015181840152602081019050615c2d565b83811115615c57576000848401525b50505050565b60006002820490506001821680615c7557607f821691505b60208210811415615c8957615c88615d36565b5b50919050565b6000615c9a82615c11565b91507fffffffffffffffffffffffffffffffffffffffffffffffffffffffffffffffff821415615ccd57615ccc615cd8565b5b600182019050919050565b7f4e487b7100000000000000000000000000000000000000000000000000000000600052601160045260246000fd5b7f4e487b7100000000000000000000000000000000000000000000000000000000600052601260045260246000fd5b7f4e487b7100000000000000000000000000000000000000000000000000000000600052602260045260246000fd5b7f4e487b7100000000000000000000000000000000000000000000000000000000600052604160045260246000fd5b6000601f19601f8301169050919050565b60008160e01c9050919050565b600060443d1015615dc257615e65565b60046000803e615dd3600051615da5565b6308c379a08114615de45750615e65565b60405160043d036004823e80513d602482011167ffffffffffffffff82111715615e1057505050615e65565b808201805167ffffffffffffffff811115615e2f575050505050615e65565b8060208301013d8501811115615e4a57505050505050615e65565b615e5382615d94565b60208401016040528296505050505050505b90565b615e7181615ba7565b8114615e7c57600080fd5b50565b615e8881615bb9565b8114615e9357600080fd5b50565b615e9f81615bc5565b8114615eaa57600080fd5b50565b615eb681615c11565b8114615ec157600080fd5b5056fea2646970667358221220e2fa8b2c1bc67cce9cbd1534936e641c0a16344b62218fb9e5252f70fbcb059164736f6c63430008000033",
  "linkReferences": {},
  "deployedLinkReferences": {}
}