{
  "_format": "hh-sol-artifact-1",
  "contractName": "NFTCollection",
  "sourceName": "contracts/Minter.sol",
  "abi": [
    {
      "anonymous": false,
      "inputs": [
        {
          "indexed": true,
          "internalType": "address",
          "name": "account",
          "type": "address"
        },
        {
          "indexed": true,
          "internalType": "address",
          "name": "operator",
          "type": "address"
        },
        {
          "indexed": false,
          "internalType": "bool",
          "name": "approved",
          "type": "bool"
        }
      ],
      "name": "ApprovalForAll",
      "type": "event"
    },
    {
      "anonymous": false,
      "inputs": [
        {
          "indexed": true,
          "internalType": "uint256",
          "name": "tokenId",
          "type": "uint256"
        },
        {
          "indexed": true,
          "internalType": "address",
          "name": "creator",
          "type": "address"
        }
      ],
      "name": "Mint",
      "type": "event"
    },
    {
      "anonymous": false,
      "inputs": [
        {
          "indexed": true,
          "internalType": "address",
          "name": "previousOwner",
          "type": "address"
        },
        {
          "indexed": true,
          "internalType": "address",
          "name": "newOwner",
          "type": "address"
        }
      ],
      "name": "OwnershipTransferred",
      "type": "event"
    },
    {
      "anonymous": false,
      "inputs": [
        {
          "indexed": true,
          "internalType": "address",
          "name": "operator",
          "type": "address"
        },
        {
          "indexed": true,
          "internalType": "address",
          "name": "from",
          "type": "address"
        },
        {
          "indexed": true,
          "internalType": "address",
          "name": "to",
          "type": "address"
        },
        {
          "indexed": false,
          "internalType": "uint256[]",
          "name": "ids",
          "type": "uint256[]"
        },
        {
          "indexed": false,
          "internalType": "uint256[]",
          "name": "values",
          "type": "uint256[]"
        }
      ],
      "name": "TransferBatch",
      "type": "event"
    },
    {
      "anonymous": false,
      "inputs": [
        {
          "indexed": true,
          "internalType": "address",
          "name": "operator",
          "type": "address"
        },
        {
          "indexed": true,
          "internalType": "address",
          "name": "from",
          "type": "address"
        },
        {
          "indexed": true,
          "internalType": "address",
          "name": "to",
          "type": "address"
        },
        {
          "indexed": false,
          "internalType": "uint256",
          "name": "id",
          "type": "uint256"
        },
        {
          "indexed": false,
          "internalType": "uint256",
          "name": "value",
          "type": "uint256"
        }
      ],
      "name": "TransferSingle",
      "type": "event"
    },
    {
      "anonymous": false,
      "inputs": [
        {
          "indexed": false,
          "internalType": "string",
          "name": "value",
          "type": "string"
        },
        {
          "indexed": true,
          "internalType": "uint256",
          "name": "id",
          "type": "uint256"
        }
      ],
      "name": "URI",
      "type": "event"
    },
    {
      "inputs": [
        {
          "internalType": "uint256",
          "name": "",
          "type": "uint256"
        }
      ],
      "name": "NFT_Type",
      "outputs": [
        {
          "internalType": "string",
          "name": "",
          "type": "string"
        }
      ],
      "stateMutability": "view",
      "type": "function"
    },
    {
      "inputs": [
        {
          "internalType": "uint256",
          "name": "",
          "type": "uint256"
        }
      ],
      "name": "_exists",
      "outputs": [
        {
          "internalType": "bool",
          "name": "",
          "type": "bool"
        }
      ],
      "stateMutability": "view",
      "type": "function"
    },
    {
      "inputs": [],
      "name": "_name",
      "outputs": [
        {
          "internalType": "string",
          "name": "",
          "type": "string"
        }
      ],
      "stateMutability": "view",
      "type": "function"
    },
    {
      "inputs": [],
      "name": "_royaltiesPercentage",
      "outputs": [
        {
          "internalType": "uint256",
          "name": "",
          "type": "uint256"
        }
      ],
      "stateMutability": "view",
      "type": "function"
    },
    {
      "inputs": [],
      "name": "_royaltiesReceiver",
      "outputs": [
        {
          "internalType": "address",
          "name": "",
          "type": "address"
        }
      ],
      "stateMutability": "view",
      "type": "function"
    },
    {
      "inputs": [],
      "name": "_symbol",
      "outputs": [
        {
          "internalType": "string",
          "name": "",
          "type": "string"
        }
      ],
      "stateMutability": "view",
      "type": "function"
    },
    {
      "inputs": [
        {
          "internalType": "address",
          "name": "_addr",
          "type": "address"
        }
      ],
      "name": "addBlackList",
      "outputs": [],
      "stateMutability": "nonpayable",
      "type": "function"
    },
    {
      "inputs": [
        {
          "internalType": "address",
          "name": "account",
          "type": "address"
        },
        {
          "internalType": "uint256",
          "name": "id",
          "type": "uint256"
        }
      ],
      "name": "balanceOf",
      "outputs": [
        {
          "internalType": "uint256",
          "name": "",
          "type": "uint256"
        }
      ],
      "stateMutability": "view",
      "type": "function"
    },
    {
      "inputs": [
        {
          "internalType": "address[]",
          "name": "accounts",
          "type": "address[]"
        },
        {
          "internalType": "uint256[]",
          "name": "ids",
          "type": "uint256[]"
        }
      ],
      "name": "balanceOfBatch",
      "outputs": [
        {
          "internalType": "uint256[]",
          "name": "",
          "type": "uint256[]"
        }
      ],
      "stateMutability": "view",
      "type": "function"
    },
    {
      "inputs": [
        {
          "internalType": "address",
          "name": "",
          "type": "address"
        }
      ],
      "name": "blackListed",
      "outputs": [
        {
          "internalType": "bool",
          "name": "",
          "type": "bool"
        }
      ],
      "stateMutability": "view",
      "type": "function"
    },
    {
      "inputs": [
        {
          "internalType": "uint256",
          "name": "",
          "type": "uint256"
        }
      ],
      "name": "fixedSupplyStatus",
      "outputs": [
        {
          "internalType": "bool",
          "name": "",
          "type": "bool"
        }
      ],
      "stateMutability": "view",
      "type": "function"
    },
    {
      "inputs": [
        {
          "internalType": "string",
          "name": "fullName",
          "type": "string"
        },
        {
          "internalType": "string",
          "name": "symbl",
          "type": "string"
        },
        {
          "internalType": "address",
          "name": "royaltiyReciever",
          "type": "address"
        },
        {
          "internalType": "address",
          "name": "minter",
          "type": "address"
        },
        {
          "internalType": "uint256",
          "name": "royaltiesPercentage",
          "type": "uint256"
        },
        {
          "internalType": "bool",
          "name": "_publicMinting",
          "type": "bool"
        },
        {
          "internalType": "string",
          "name": "metadata",
          "type": "string"
        }
      ],
      "name": "initialize",
      "outputs": [],
      "stateMutability": "nonpayable",
      "type": "function"
    },
    {
      "inputs": [
        {
          "internalType": "address",
          "name": "_owner",
          "type": "address"
        },
        {
          "internalType": "address",
          "name": "_operator",
          "type": "address"
        }
      ],
      "name": "isApprovedForAll",
      "outputs": [
        {
          "internalType": "bool",
          "name": "isOperator",
          "type": "bool"
        }
      ],
      "stateMutability": "view",
      "type": "function"
    },
    {
      "inputs": [
        {
          "internalType": "address",
          "name": "forwarder",
          "type": "address"
        }
      ],
      "name": "isTrustedForwarder",
      "outputs": [
        {
          "internalType": "bool",
          "name": "",
          "type": "bool"
        }
      ],
      "stateMutability": "view",
      "type": "function"
    },
    {
      "inputs": [
        {
          "internalType": "address",
          "name": "reciever",
          "type": "address"
        },
        {
          "internalType": "string",
          "name": "_tokenURI",
          "type": "string"
        },
        {
          "internalType": "uint256",
          "name": "amount",
          "type": "uint256"
        },
        {
          "internalType": "string",
          "name": "nft_type",
          "type": "string"
        },
        {
          "internalType": "bool",
          "name": "_isSupplyFixed",
          "type": "bool"
        }
      ],
      "name": "mint",
      "outputs": [
        {
          "internalType": "uint256",
          "name": "",
          "type": "uint256"
        }
      ],
      "stateMutability": "nonpayable",
      "type": "function"
    },
    {
      "inputs": [],
      "name": "name",
      "outputs": [
        {
          "internalType": "string",
          "name": "",
          "type": "string"
        }
      ],
      "stateMutability": "view",
      "type": "function"
    },
    {
      "inputs": [],
      "name": "owner",
      "outputs": [
        {
          "internalType": "address",
          "name": "",
          "type": "address"
        }
      ],
      "stateMutability": "view",
      "type": "function"
    },
    {
      "inputs": [],
      "name": "publicMinting",
      "outputs": [
        {
          "internalType": "bool",
          "name": "",
          "type": "bool"
        }
      ],
      "stateMutability": "view",
      "type": "function"
    },
    {
      "inputs": [
        {
          "internalType": "address",
          "name": "_airdropAddy",
          "type": "address"
        },
        {
          "internalType": "uint256",
          "name": "_tokenId",
          "type": "uint256"
        },
        {
          "internalType": "uint256",
          "name": "amount",
          "type": "uint256"
        }
      ],
      "name": "reSupply",
      "outputs": [
        {
          "internalType": "uint256",
          "name": "",
          "type": "uint256"
        }
      ],
      "stateMutability": "nonpayable",
      "type": "function"
    },
    {
      "inputs": [
        {
          "internalType": "address",
          "name": "_addr",
          "type": "address"
        }
      ],
      "name": "removeBlackList",
      "outputs": [],
      "stateMutability": "nonpayable",
      "type": "function"
    },
    {
      "inputs": [
        {
          "internalType": "address",
          "name": "_addr",
          "type": "address"
        }
      ],
      "name": "removeWhiteList",
      "outputs": [],
      "stateMutability": "nonpayable",
      "type": "function"
    },
    {
      "inputs": [],
      "name": "renounceOwnership",
      "outputs": [],
      "stateMutability": "nonpayable",
      "type": "function"
    },
    {
      "inputs": [
        {
          "internalType": "uint256",
          "name": "_nftId",
          "type": "uint256"
        },
        {
          "internalType": "uint256",
          "name": "_salePrice",
          "type": "uint256"
        }
      ],
      "name": "royaltyInfo",
      "outputs": [
        {
          "internalType": "address",
          "name": "receiver",
          "type": "address"
        },
        {
          "internalType": "uint256",
          "name": "royaltyAmount",
          "type": "uint256"
        },
        {
          "internalType": "uint256",
          "name": "tokenId",
          "type": "uint256"
        }
      ],
      "stateMutability": "view",
      "type": "function"
    },
    {
      "inputs": [
        {
          "internalType": "address",
          "name": "from",
          "type": "address"
        },
        {
          "internalType": "address",
          "name": "to",
          "type": "address"
        },
        {
          "internalType": "uint256[]",
          "name": "ids",
          "type": "uint256[]"
        },
        {
          "internalType": "uint256[]",
          "name": "amounts",
          "type": "uint256[]"
        },
        {
          "internalType": "bytes",
          "name": "data",
          "type": "bytes"
        }
      ],
      "name": "safeBatchTransferFrom",
      "outputs": [],
      "stateMutability": "nonpayable",
      "type": "function"
    },
    {
      "inputs": [
        {
          "internalType": "address",
          "name": "from",
          "type": "address"
        },
        {
          "internalType": "address",
          "name": "to",
          "type": "address"
        },
        {
          "internalType": "uint256",
          "name": "id",
          "type": "uint256"
        },
        {
          "internalType": "uint256",
          "name": "amount",
          "type": "uint256"
        },
        {
          "internalType": "bytes",
          "name": "data",
          "type": "bytes"
        }
      ],
      "name": "safeTransferFrom",
      "outputs": [],
      "stateMutability": "nonpayable",
      "type": "function"
    },
    {
      "inputs": [
        {
          "internalType": "address",
          "name": "operator",
          "type": "address"
        },
        {
          "internalType": "bool",
          "name": "approved",
          "type": "bool"
        }
      ],
      "name": "setApprovalForAll",
      "outputs": [],
      "stateMutability": "nonpayable",
      "type": "function"
    },
    {
      "inputs": [
        {
          "internalType": "uint256",
          "name": "newRoyalties",
          "type": "uint256"
        }
      ],
      "name": "setRoyalties",
      "outputs": [],
      "stateMutability": "nonpayable",
      "type": "function"
    },
    {
      "inputs": [
        {
          "internalType": "address",
          "name": "newRoyaltiesReceiver",
          "type": "address"
        }
      ],
      "name": "setRoyaltiesReceiver",
      "outputs": [],
      "stateMutability": "nonpayable",
      "type": "function"
    },
    {
      "inputs": [
        {
          "internalType": "address",
          "name": "_addr",
          "type": "address"
        }
      ],
      "name": "setWhiteList",
      "outputs": [],
      "stateMutability": "nonpayable",
      "type": "function"
    },
    {
      "inputs": [
        {
          "internalType": "address",
          "name": "_addr",
          "type": "address"
        }
      ],
      "name": "setWhiteList_Admin",
      "outputs": [],
      "stateMutability": "nonpayable",
      "type": "function"
    },
    {
      "inputs": [
        {
          "internalType": "bytes4",
          "name": "interfaceId",
          "type": "bytes4"
        }
      ],
      "name": "supportsInterface",
      "outputs": [
        {
          "internalType": "bool",
          "name": "",
          "type": "bool"
        }
      ],
      "stateMutability": "view",
      "type": "function"
    },
    {
      "inputs": [],
      "name": "symbol",
      "outputs": [
        {
          "internalType": "string",
          "name": "",
          "type": "string"
        }
      ],
      "stateMutability": "view",
      "type": "function"
    },
    {
      "inputs": [],
      "name": "togglePublicMinting",
      "outputs": [],
      "stateMutability": "nonpayable",
      "type": "function"
    },
    {
      "inputs": [
        {
          "internalType": "uint256",
          "name": "_tokenId",
          "type": "uint256"
        }
      ],
      "name": "toggleSupplyFixedStatus",
      "outputs": [],
      "stateMutability": "nonpayable",
      "type": "function"
    },
    {
      "inputs": [
        {
          "internalType": "uint256",
          "name": "",
          "type": "uint256"
        }
      ],
      "name": "tokenMinter",
      "outputs": [
        {
          "internalType": "address",
          "name": "",
          "type": "address"
        }
      ],
      "stateMutability": "view",
      "type": "function"
    },
    {
      "inputs": [
        {
          "internalType": "uint256",
          "name": "",
          "type": "uint256"
        }
      ],
      "name": "tokenUri",
      "outputs": [
        {
          "internalType": "string",
          "name": "",
          "type": "string"
        }
      ],
      "stateMutability": "view",
      "type": "function"
    },
    {
      "inputs": [],
      "name": "totalSupply",
      "outputs": [
        {
          "internalType": "uint256",
          "name": "",
          "type": "uint256"
        }
      ],
      "stateMutability": "view",
      "type": "function"
    },
    {
      "inputs": [
        {
          "internalType": "address",
          "name": "newOwner",
          "type": "address"
        }
      ],
      "name": "transferOwnership",
      "outputs": [],
      "stateMutability": "nonpayable",
      "type": "function"
    },
    {
      "inputs": [
        {
          "internalType": "uint256",
          "name": "_tokenId",
          "type": "uint256"
        },
        {
          "internalType": "string",
          "name": "_uri",
          "type": "string"
        }
      ],
      "name": "updateTokenUri",
      "outputs": [],
      "stateMutability": "nonpayable",
      "type": "function"
    },
    {
      "inputs": [
        {
          "internalType": "uint256",
          "name": "_tokenId",
          "type": "uint256"
        },
        {
          "internalType": "string",
          "name": "_uri",
          "type": "string"
        }
      ],
      "name": "updateTokenUri_Admin",
      "outputs": [],
      "stateMutability": "nonpayable",
      "type": "function"
    },
    {
      "inputs": [
        {
          "internalType": "uint256",
          "name": "id",
          "type": "uint256"
        }
      ],
      "name": "uri",
      "outputs": [
        {
          "internalType": "string",
          "name": "",
          "type": "string"
        }
      ],
      "stateMutability": "view",
      "type": "function"
    },
    {
      "inputs": [
        {
          "internalType": "address",
          "name": "",
          "type": "address"
        }
      ],
      "name": "whiteListed",
      "outputs": [
        {
          "internalType": "bool",
          "name": "",
          "type": "bool"
        }
      ],
      "stateMutability": "view",
      "type": "function"
    }
  ],
  "bytecode": "0x608060405234801561001057600080fd5b50615f0680620000216000396000f3fe608060405234801561001057600080fd5b506004361061025d5760003560e01c80637c57d94711610146578063c102f016116100c3578063e985e9c511610087578063e985e9c514610746578063ecacecc214610776578063f242432a14610792578063f2fde38b146107ae578063f8e76cc0146107ca578063fa0fca84146107fa5761025d565b8063c102f016146106a2578063cf7761ee146106d2578063d28d8852146106f0578063d31af4841461070e578063e4997dc51461072a5761025d565b806395d89b411161010a57806395d89b41146105fe578063a22cb4651461061c578063b09f126614610638578063b514371514610656578063bbde5b25146106725761025d565b80637c57d947146105465780638491a5a3146105765780638da5cb5b146105a65780638dfa22b3146105c457806391a83711146105e05761025d565b80632b80183f116101df57806353ac010a116101a357806353ac010a14610498578063572b6c05146104b65780635ef86939146104e65780635febd58c146105165780636b8a21fc14610532578063715018a61461053c5761025d565b80632b80183f146103e45780632eb2c2d61461040057806339e899ee1461041c5780634b1a4954146104385780634e1273f4146104685761025d565b80631675f455116102265780631675f4551461032c57806318160ddd1461035c5780631c84a45b1461037a5780632042e5c2146103965780632a55205a146103b25761025d565b8062fdd58e1461026257806301ffc9a71461029257806306fdde03146102c25780630e89341c146102e05780630ecb93c014610310575b600080fd5b61027c6004803603810190610277919061484f565b61082a565b6040516102899190615964565b60405180910390f35b6102ac60048036038101906102a79190614946565b6108f4565b6040516102b99190615607565b60405180910390f35b6102ca61096e565b6040516102d79190615622565b60405180910390f35b6102fa60048036038101906102f59190614a8b565b610a00565b6040516103079190615622565b60405180910390f35b61032a600480360381019061032591906145b0565b610aa6565b005b61034660048036038101906103419190614a8b565b610b3b565b6040516103539190615622565b60405180910390f35b610364610bdc565b6040516103719190615964565b60405180910390f35b610394600480360381019061038f9190614ab4565b610bee565b005b6103b060048036038101906103ab91906145b0565b610d1e565b005b6103cc60048036038101906103c79190614b0c565b610d9a565b6040516103db93929190615577565b60405180910390f35b6103fe60048036038101906103f99190614a8b565b610dea565b005b61041a60048036038101906104159190614615565b610e7f565b005b610436600480360381019061043191906145b0565b610f20565b005b610452600480360381019061044d919061479f565b610f7d565b60405161045f9190615964565b60405180910390f35b610482600480360381019061047d91906148da565b61119e565b60405161048f91906155ae565b60405180910390f35b6104a061134f565b6040516104ad9190615607565b60405180910390f35b6104d060048036038101906104cb91906145b0565b611362565b6040516104dd9190615607565b60405180910390f35b61050060048036038101906104fb9190614a8b565b6113bc565b60405161050d9190615622565b60405180910390f35b610530600480360381019061052b9190614998565b61145d565b005b61053a61156a565b005b610544611601565b005b610560600480360381019061055b9190614a8b565b611689565b60405161056d919061549a565b60405180910390f35b610590600480360381019061058b919061488b565b6116bd565b60405161059d9190615964565b60405180910390f35b6105ae611839565b6040516105bb919061549a565b60405180910390f35b6105de60048036038101906105d99190614a8b565b611863565b005b6105e8611a09565b6040516105f5919061549a565b60405180910390f35b610606611a2f565b6040516106139190615622565b60405180910390f35b61063660048036038101906106319190614763565b611ac1565b005b610640611c42565b60405161064d9190615622565b60405180910390f35b610670600480360381019061066b91906145b0565b611cd0565b005b61068c600480360381019061068791906145b0565b611deb565b6040516106999190615607565b60405180910390f35b6106bc60048036038101906106b79190614a8b565b611e0c565b6040516106c99190615607565b60405180910390f35b6106da611e2d565b6040516106e79190615964565b60405180910390f35b6106f8611e33565b6040516107059190615622565b60405180910390f35b61072860048036038101906107239190614ab4565b611ec1565b005b610744600480360381019061073f91906145b0565b6120a4565b005b610760600480360381019061075b91906145d9565b61212e565b60405161076d9190615607565b60405180910390f35b610790600480360381019061078b91906145b0565b612194565b005b6107ac60048036038101906107a791906146d4565b61221e565b005b6107c860048036038101906107c391906145b0565b6122bf565b005b6107e460048036038101906107df9190614a8b565b6123b7565b6040516107f19190615607565b60405180910390f35b610814600480360381019061080f91906145b0565b6123d8565b6040516108219190615607565b60405180910390f35b60008073ffffffffffffffffffffffffffffffffffffffff168373ffffffffffffffffffffffffffffffffffffffff16141561089b576040517f08c379a000000000000000000000000000000000000000000000000000000000815260040161089290615684565b60405180910390fd5b60c9600083815260200190815260200160002060008473ffffffffffffffffffffffffffffffffffffffff1673ffffffffffffffffffffffffffffffffffffffff16815260200190815260200160002054905092915050565b60007f2a55205a000000000000000000000000000000000000000000000000000000007bffffffffffffffffffffffffffffffffffffffffffffffffffffffff1916827bffffffffffffffffffffffffffffffffffffffffffffffffffffffff191614806109675750610966826123f9565b5b9050919050565b606060fb805461097d90615c69565b80601f01602080910402602001604051908101604052809291908181526020018280546109a990615c69565b80156109f65780601f106109cb576101008083540402835291602001916109f6565b820191906000526020600020905b8154815290600101906020018083116109d957829003601f168201915b5050505050905090565b606061010560008381526020019081526020016000208054610a2190615c69565b80601f0160208091040260200160405190810160405280929190818152602001828054610a4d90615c69565b8015610a9a5780601f10610a6f57610100808354040283529160200191610a9a565b820191906000526020600020905b815481529060010190602001808311610a7d57829003601f168201915b50505050509050919050565b610aae6124db565b73ffffffffffffffffffffffffffffffffffffffff16610acc611839565b73ffffffffffffffffffffffffffffffffffffffff1614610b22576040517f08c379a0000000000000000000000000000000000000000000000000000000008152600401610b1990615864565b60405180910390fd5b610b2d8160006124ea565b610b38816001612546565b50565b6101056020528060005260406000206000915090508054610b5b90615c69565b80601f0160208091040260200160405190810160405280929190818152602001828054610b8790615c69565b8015610bd45780601f10610ba957610100808354040283529160200191610bd4565b820191906000526020600020905b815481529060010190602001808311610bb757829003601f168201915b505050505081565b6000610be96101046125a2565b905090565b610bf66124db565b73ffffffffffffffffffffffffffffffffffffffff16610c14611839565b73ffffffffffffffffffffffffffffffffffffffff1614610c6a576040517f08c379a0000000000000000000000000000000000000000000000000000000008152600401610c6190615864565b60405180910390fd5b610100600084815260200190815260200160002060009054906101000a900460ff16610ccb576040517f08c379a0000000000000000000000000000000000000000000000000000000008152600401610cc2906158a4565b60405180910390fd5b610d198383838080601f016020809104026020016040519081016040528093929190818152602001838380828437600081840152601f19601f820116905080830192505050505050506125b0565b505050565b8073ffffffffffffffffffffffffffffffffffffffff163373ffffffffffffffffffffffffffffffffffffffff1614610d8c576040517f08c379a0000000000000000000000000000000000000000000000000000000008152600401610d83906158e4565b60405180910390fd5b610d978160006124ea565b50565b600080600060fd60009054906101000a900473ffffffffffffffffffffffffffffffffffffffff16606460fe54610dd19190615b28565b85610ddc9190615b59565b869250925092509250925092565b610df26124db565b73ffffffffffffffffffffffffffffffffffffffff16610e10611839565b73ffffffffffffffffffffffffffffffffffffffff1614610e66576040517f08c379a0000000000000000000000000000000000000000000000000000000008152600401610e5d90615864565b60405180910390fd5b60fe54811415610e7557600080fd5b8060fe8190555050565b610e876124db565b73ffffffffffffffffffffffffffffffffffffffff168573ffffffffffffffffffffffffffffffffffffffff161480610ecd5750610ecc85610ec76124db565b61212e565b5b610f0c576040517f08c379a0000000000000000000000000000000000000000000000000000000008152600401610f0390615764565b60405180910390fd5b610f1985858585856125dd565b5050505050565b60ff60009054906101000a900460ff16610f6f576040517f08c379a0000000000000000000000000000000000000000000000000000000008152600401610f66906156a4565b60405180910390fd5b610f7a8160016124ea565b50565b600080610f88610bdc565b905060008888905011610fd0576040517f08c379a0000000000000000000000000000000000000000000000000000000008152600401610fc790615844565b60405180910390fd5b610100600082815260200190815260200160002060009054906101000a900460ff1615611032576040517f08c379a000000000000000000000000000000000000000000000000000000000815260040161102990615704565b60405180910390fd5b60008611611075576040517f08c379a000000000000000000000000000000000000000000000000000000000815260040161106c90615784565b60405180910390fd5b61107f8585612940565b5061108b898288612ba8565b8484610107600084815260200190815260200160002091906110ae929190614240565b506110fd8189898080601f016020809104026020016040519081016040528093929190818152602001838380828437600081840152601f19601f820116905080830192505050505050506125b0565b6001610100600083815260200190815260200160002060006101000a81548160ff0219169083151502179055506111348184612c99565b88610103600083815260200190815260200160002060006101000a81548173ffffffffffffffffffffffffffffffffffffffff021916908373ffffffffffffffffffffffffffffffffffffffff16021790555061118f612cc9565b80915050979650505050505050565b606081518351146111e4576040517f08c379a00000000000000000000000000000000000000000000000000000000081526004016111db90615904565b60405180910390fd5b6000835167ffffffffffffffff811115611227577f4e487b7100000000000000000000000000000000000000000000000000000000600052604160045260246000fd5b6040519080825280602002602001820160405280156112555781602001602082028036833780820191505090505b50905060005b8451811015611344576112ee8582815181106112a0577f4e487b7100000000000000000000000000000000000000000000000000000000600052603260045260246000fd5b60200260200101518583815181106112e1577f4e487b7100000000000000000000000000000000000000000000000000000000600052603260045260246000fd5b602002602001015161082a565b828281518110611327577f4e487b7100000000000000000000000000000000000000000000000000000000600052603260045260246000fd5b6020026020010181815250508061133d90615c9b565b905061125b565b508091505092915050565b60ff60009054906101000a900460ff1681565b6000603360009054906101000a900473ffffffffffffffffffffffffffffffffffffffff1673ffffffffffffffffffffffffffffffffffffffff168273ffffffffffffffffffffffffffffffffffffffff16149050919050565b61010760205280600052604060002060009150905080546113dc90615c69565b80601f016020809104026020016040519081016040528092919081815260200182805461140890615c69565b80156114555780601f1061142a57610100808354040283529160200191611455565b820191906000526020600020905b81548152906001019060200180831161143857829003601f168201915b505050505081565b600060019054906101000a900460ff1680611483575060008054906101000a900460ff16155b6114c2576040517f08c379a00000000000000000000000000000000000000000000000000000000081526004016114b9906157c4565b60405180910390fd5b60008060019054906101000a900460ff161590508015611512576001600060016101000a81548160ff02191690831515021790555060016000806101000a81548160ff0219169083151502179055505b6115208b8b8b8b8787612cd6565b61152a8487612e2e565b6115348786612f25565b61153c61301a565b801561155d5760008060016101000a81548160ff0219169083151502179055505b5050505050505050505050565b6115726124db565b73ffffffffffffffffffffffffffffffffffffffff16611590611839565b73ffffffffffffffffffffffffffffffffffffffff16146115e6576040517f08c379a00000000000000000000000000000000000000000000000000000000081526004016115dd90615864565b60405180910390fd5b6115ff60ff60009054906101000a900460ff16156130fb565b565b6116096124db565b73ffffffffffffffffffffffffffffffffffffffff16611627611839565b73ffffffffffffffffffffffffffffffffffffffff161461167d576040517f08c379a000000000000000000000000000000000000000000000000000000000815260040161167490615864565b60405180910390fd5b6116876000613118565b565b6101036020528060005260406000206000915054906101000a900473ffffffffffffffffffffffffffffffffffffffff1681565b6000610106600084815260200190815260200160002060009054906101000a900460ff1615611721576040517f08c379a0000000000000000000000000000000000000000000000000000000008152600401611718906157e4565b60405180910390fd5b610100600084815260200190815260200160002060009054906101000a900460ff16611782576040517f08c379a0000000000000000000000000000000000000000000000000000000008152600401611779906158a4565b60405180910390fd5b3373ffffffffffffffffffffffffffffffffffffffff16610103600085815260200190815260200160002060009054906101000a900473ffffffffffffffffffffffffffffffffffffffff1673ffffffffffffffffffffffffffffffffffffffff1614611824576040517f08c379a000000000000000000000000000000000000000000000000000000000815260040161181b90615724565b60405180910390fd5b61182f848484612ba8565b8290509392505050565b6000606560009054906101000a900473ffffffffffffffffffffffffffffffffffffffff16905090565b610100600082815260200190815260200160002060009054906101000a900460ff166118c4576040517f08c379a00000000000000000000000000000000000000000000000000000000081526004016118bb906158a4565b60405180910390fd5b61010160003373ffffffffffffffffffffffffffffffffffffffff1673ffffffffffffffffffffffffffffffffffffffff16815260200190815260200160002060009054906101000a900460ff16611951576040517f08c379a000000000000000000000000000000000000000000000000000000000815260040161194890615884565b60405180910390fd5b3373ffffffffffffffffffffffffffffffffffffffff16610103600083815260200190815260200160002060009054906101000a900473ffffffffffffffffffffffffffffffffffffffff1673ffffffffffffffffffffffffffffffffffffffff16146119f3576040517f08c379a00000000000000000000000000000000000000000000000000000000081526004016119ea90615724565b60405180910390fd5b611a0681611a00836131de565b15612c99565b50565b60fd60009054906101000a900473ffffffffffffffffffffffffffffffffffffffff1681565b606060fc8054611a3e90615c69565b80601f0160208091040260200160405190810160405280929190818152602001828054611a6a90615c69565b8015611ab75780601f10611a8c57610100808354040283529160200191611ab7565b820191906000526020600020905b815481529060010190602001808311611a9a57829003601f168201915b5050505050905090565b8173ffffffffffffffffffffffffffffffffffffffff16611ae06124db565b73ffffffffffffffffffffffffffffffffffffffff161415611b37576040517f08c379a0000000000000000000000000000000000000000000000000000000008152600401611b2e906158c4565b60405180910390fd5b8060ca6000611b446124db565b73ffffffffffffffffffffffffffffffffffffffff1673ffffffffffffffffffffffffffffffffffffffff16815260200190815260200160002060008473ffffffffffffffffffffffffffffffffffffffff1673ffffffffffffffffffffffffffffffffffffffff16815260200190815260200160002060006101000a81548160ff0219169083151502179055508173ffffffffffffffffffffffffffffffffffffffff16611bf16124db565b73ffffffffffffffffffffffffffffffffffffffff167f17307eab39ab6107e8899845ad3d59bd9653f200f220920489ca2b5937696c3183604051611c369190615607565b60405180910390a35050565b60fc8054611c4f90615c69565b80601f0160208091040260200160405190810160405280929190818152602001828054611c7b90615c69565b8015611cc85780601f10611c9d57610100808354040283529160200191611cc8565b820191906000526020600020905b815481529060010190602001808311611cab57829003601f168201915b505050505081565b611cd86124db565b73ffffffffffffffffffffffffffffffffffffffff16611cf6611839565b73ffffffffffffffffffffffffffffffffffffffff1614611d4c576040517f08c379a0000000000000000000000000000000000000000000000000000000008152600401611d4390615864565b60405180910390fd5b60fd60009054906101000a900473ffffffffffffffffffffffffffffffffffffffff1673ffffffffffffffffffffffffffffffffffffffff168173ffffffffffffffffffffffffffffffffffffffff161415611da757600080fd5b8060fd60006101000a81548173ffffffffffffffffffffffffffffffffffffffff021916908373ffffffffffffffffffffffffffffffffffffffff16021790555050565b6101026020528060005260406000206000915054906101000a900460ff1681565b6101066020528060005260406000206000915054906101000a900460ff1681565b60fe5481565b60fb8054611e4090615c69565b80601f0160208091040260200160405190810160405280929190818152602001828054611e6c90615c69565b8015611eb95780601f10611e8e57610100808354040283529160200191611eb9565b820191906000526020600020905b815481529060010190602001808311611e9c57829003601f168201915b505050505081565b610100600084815260200190815260200160002060009054906101000a900460ff16611f22576040517f08c379a0000000000000000000000000000000000000000000000000000000008152600401611f19906158a4565b60405180910390fd5b61010160003373ffffffffffffffffffffffffffffffffffffffff1673ffffffffffffffffffffffffffffffffffffffff16815260200190815260200160002060009054906101000a900460ff16611faf576040517f08c379a0000000000000000000000000000000000000000000000000000000008152600401611fa6906157a4565b60405180910390fd5b3373ffffffffffffffffffffffffffffffffffffffff16610103600085815260200190815260200160002060009054906101000a900473ffffffffffffffffffffffffffffffffffffffff1673ffffffffffffffffffffffffffffffffffffffff1614612051576040517f08c379a000000000000000000000000000000000000000000000000000000000815260040161204890615724565b60405180910390fd5b61209f8383838080601f016020809104026020016040519081016040528093929190818152602001838380828437600081840152601f19601f820116905080830192505050505050506125b0565b505050565b6120ac6124db565b73ffffffffffffffffffffffffffffffffffffffff166120ca611839565b73ffffffffffffffffffffffffffffffffffffffff1614612120576040517f08c379a000000000000000000000000000000000000000000000000000000000815260040161211790615864565b60405180910390fd5b61212b816000612546565b50565b600073207fa8df3a17d96ca7ea4f2893fcdcb78a30410173ffffffffffffffffffffffffffffffffffffffff168273ffffffffffffffffffffffffffffffffffffffff161415612181576001905061218e565b61218b838361326a565b90505b92915050565b61219c6124db565b73ffffffffffffffffffffffffffffffffffffffff166121ba611839565b73ffffffffffffffffffffffffffffffffffffffff1614612210576040517f08c379a000000000000000000000000000000000000000000000000000000000815260040161220790615864565b60405180910390fd5b61221b8160016124ea565b50565b6122266124db565b73ffffffffffffffffffffffffffffffffffffffff168573ffffffffffffffffffffffffffffffffffffffff16148061226c575061226b856122666124db565b61212e565b5b6122ab576040517f08c379a00000000000000000000000000000000000000000000000000000000081526004016122a2906156e4565b60405180910390fd5b6122b885858585856132fe565b5050505050565b6122c76124db565b73ffffffffffffffffffffffffffffffffffffffff166122e5611839565b73ffffffffffffffffffffffffffffffffffffffff161461233b576040517f08c379a000000000000000000000000000000000000000000000000000000000815260040161233290615864565b60405180910390fd5b600073ffffffffffffffffffffffffffffffffffffffff168173ffffffffffffffffffffffffffffffffffffffff1614156123ab576040517f08c379a00000000000000000000000000000000000000000000000000000000081526004016123a2906156c4565b60405180910390fd5b6123b481613118565b50565b6101006020528060005260406000206000915054906101000a900460ff1681565b6101016020528060005260406000206000915054906101000a900460ff1681565b60007fd9b67a26000000000000000000000000000000000000000000000000000000007bffffffffffffffffffffffffffffffffffffffffffffffffffffffff1916827bffffffffffffffffffffffffffffffffffffffffffffffffffffffff191614806124c457507f0e89341c000000000000000000000000000000000000000000000000000000007bffffffffffffffffffffffffffffffffffffffffffffffffffffffff1916827bffffffffffffffffffffffffffffffffffffffffffffffffffffffff1916145b806124d457506124d382613583565b5b9050919050565b60006124e56135ed565b905090565b8061010160008473ffffffffffffffffffffffffffffffffffffffff1673ffffffffffffffffffffffffffffffffffffffff16815260200190815260200160002060006101000a81548160ff0219169083151502179055505050565b8061010260008473ffffffffffffffffffffffffffffffffffffffff1673ffffffffffffffffffffffffffffffffffffffff16815260200190815260200160002060006101000a81548160ff0219169083151502179055505050565b600081600001549050919050565b80610105600084815260200190815260200160002090805190602001906125d89291906142c6565b505050565b8151835114612621576040517f08c379a000000000000000000000000000000000000000000000000000000000815260040161261890615924565b60405180910390fd5b600073ffffffffffffffffffffffffffffffffffffffff168473ffffffffffffffffffffffffffffffffffffffff161415612691576040517f08c379a000000000000000000000000000000000000000000000000000000000815260040161268890615744565b60405180910390fd5b600061269b6124db565b90506126ab81878787878761369e565b60005b84518110156128ab5760008582815181106126f2577f4e487b7100000000000000000000000000000000000000000000000000000000600052603260045260246000fd5b602002602001015190506000858381518110612737577f4e487b7100000000000000000000000000000000000000000000000000000000600052603260045260246000fd5b60200260200101519050600060c9600084815260200190815260200160002060008b73ffffffffffffffffffffffffffffffffffffffff1673ffffffffffffffffffffffffffffffffffffffff168152602001908152602001600020549050818110156127d9576040517f08c379a00000000000000000000000000000000000000000000000000000000081526004016127d090615824565b60405180910390fd5b81810360c9600085815260200190815260200160002060008c73ffffffffffffffffffffffffffffffffffffffff1673ffffffffffffffffffffffffffffffffffffffff168152602001908152602001600020819055508160c9600085815260200190815260200160002060008b73ffffffffffffffffffffffffffffffffffffffff1673ffffffffffffffffffffffffffffffffffffffff16815260200190815260200160002060008282546128909190615ad2565b92505081905550505050806128a490615c9b565b90506126ae565b508473ffffffffffffffffffffffffffffffffffffffff168673ffffffffffffffffffffffffffffffffffffffff168273ffffffffffffffffffffffffffffffffffffffff167f4a39dc06d4c0dbc64b70af90fd698a233a518aa5d07e595d983b8c0526c8f7fb87876040516129229291906155d0565b60405180910390a46129388187878787876136a6565b505050505050565b60008083838080601f016020809104026020016040519081016040528093929190818152602001838380828437600081840152601f19601f8201169050808301925050505050505090506000818051906020012090507f5c3967f2b1d87e07afa360938c88d98d4bf767b9d432ec3eb7ee85774b4faf018114806129e357507f3caeaa4f82d97703335583a4473c4e776f6d770e0d866cdd2fe57ac9bfc9d75381145b156129f357600092505050612ba2565b7f167706e83545bc0fb130476239ec381f65fba8f92e2379d60a07869aa04b4ccc811480612a4057507f644b1a8cccdfab58072478297998ec0011fedd34a8496639c6827c121f29325081145b15612a5057600192505050612ba2565b7f9cbba8234599abf796399d317abec093aeb0a9dfd217bd73e8e36946b5d598fa811480612a9d57507f3a38b5ba7c3c62dbe61d528ab5a5ac1b7957c216c46d366f91b5a4e7729c548481145b15612aad57600292505050612ba2565b7f920c54edc732787d8f2c25d8aa808241143826502f4449b9473d9e589cdf9350811480612afa57507fd76c7f615cf3202d8582371189782edca760c903c409440371e44e8dda25267c81145b15612b0a57600392505050612ba2565b7fe61419cb8ba176c873c5a45ed0c428fe63daf63f437565fc2c5e01376a044974811480612b5757507fb8dcbc25f855eba3a2d2d0f9f33e9693a39add5af712e9e6050895ff3390e96c81145b15612b6757600492505050612ba2565b6040517f08c379a0000000000000000000000000000000000000000000000000000000008152600401612b9990615804565b60405180910390fd5b92915050565b61010160003373ffffffffffffffffffffffffffffffffffffffff1673ffffffffffffffffffffffffffffffffffffffff16815260200190815260200160002060009054906101000a900460ff16612c35576040517f08c379a0000000000000000000000000000000000000000000000000000000008152600401612c2c90615884565b60405180910390fd5b612c5083838360405180602001604052806000815250613876565b3373ffffffffffffffffffffffffffffffffffffffff16827ff3cea5493d790af0133817606f7350a91d7f154ea52eaa79d179d4d231e5010260405160405180910390a3505050565b80610106600084815260200190815260200160002060006101000a81548160ff0219169083151502179055505050565b612cd4610104613a0d565b565b600060019054906101000a900460ff1680612cfc575060008054906101000a900460ff16155b612d3b576040517f08c379a0000000000000000000000000000000000000000000000000000000008152600401612d32906157c4565b60405180910390fd5b60008060019054906101000a900460ff161590508015612d8b576001600060016101000a81548160ff02191690831515021790555060016000806101000a81548160ff0219169083151502179055505b612dd883838080601f016020809104026020016040519081016040528093929190818152602001838380828437600081840152601f19601f82011690508083019250505050505050613a23565b612de0613b16565b868660fb9190612df1929190614240565b50848460fc9190612e03929190614240565b508015612e255760008060016101000a81548160ff0219169083151502179055505b50505050505050565b600060019054906101000a900460ff1680612e54575060008054906101000a900460ff16155b612e93576040517f08c379a0000000000000000000000000000000000000000000000000000000008152600401612e8a906157c4565b60405180910390fd5b60008060019054906101000a900460ff161590508015612ee3576001600060016101000a81548160ff02191690831515021790555060016000806101000a81548160ff0219169083151502179055505b612eec836130fb565b612ef78260016124ea565b612eff613b16565b8015612f205760008060016101000a81548160ff0219169083151502179055505b505050565b600060019054906101000a900460ff1680612f4b575060008054906101000a900460ff16155b612f8a576040517f08c379a0000000000000000000000000000000000000000000000000000000008152600401612f81906157c4565b60405180910390fd5b60008060019054906101000a900460ff161590508015612fda576001600060016101000a81548160ff02191690831515021790555060016000806101000a81548160ff0219169083151502179055505b612fe2613b16565b612feb83611cd0565b612ff482610dea565b80156130155760008060016101000a81548160ff0219169083151502179055505b505050565b600060019054906101000a900460ff1680613040575060008054906101000a900460ff16155b61307f576040517f08c379a0000000000000000000000000000000000000000000000000000000008152600401613076906157c4565b60405180910390fd5b60008060019054906101000a900460ff1615905080156130cf576001600060016101000a81548160ff02191690831515021790555060016000806101000a81548160ff0219169083151502179055505b6130d7613b16565b80156130f85760008060016101000a81548160ff0219169083151502179055505b50565b8060ff60006101000a81548160ff02191690831515021790555050565b6000606560009054906101000a900473ffffffffffffffffffffffffffffffffffffffff16905081606560006101000a81548173ffffffffffffffffffffffffffffffffffffffff021916908373ffffffffffffffffffffffffffffffffffffffff1602179055508173ffffffffffffffffffffffffffffffffffffffff168173ffffffffffffffffffffffffffffffffffffffff167f8be0079c531659141344cd1fd0a4f28419497f9722a3daafe3b4186f6b6457e060405160405180910390a35050565b6000610100600083815260200190815260200160002060009054906101000a900460ff16613241576040517f08c379a0000000000000000000000000000000000000000000000000000000008152600401613238906158a4565b60405180910390fd5b610106600083815260200190815260200160002060009054906101000a900460ff169050919050565b600060ca60008473ffffffffffffffffffffffffffffffffffffffff1673ffffffffffffffffffffffffffffffffffffffff16815260200190815260200160002060008373ffffffffffffffffffffffffffffffffffffffff1673ffffffffffffffffffffffffffffffffffffffff16815260200190815260200160002060009054906101000a900460ff16905092915050565b600073ffffffffffffffffffffffffffffffffffffffff168473ffffffffffffffffffffffffffffffffffffffff16141561336e576040517f08c379a000000000000000000000000000000000000000000000000000000000815260040161336590615744565b60405180910390fd5b60006133786124db565b905061339881878761338988613bff565b61339288613bff565b8761369e565b600060c9600086815260200190815260200160002060008873ffffffffffffffffffffffffffffffffffffffff1673ffffffffffffffffffffffffffffffffffffffff16815260200190815260200160002054905083811015613430576040517f08c379a000000000000000000000000000000000000000000000000000000000815260040161342790615824565b60405180910390fd5b83810360c9600087815260200190815260200160002060008973ffffffffffffffffffffffffffffffffffffffff1673ffffffffffffffffffffffffffffffffffffffff168152602001908152602001600020819055508360c9600087815260200190815260200160002060008873ffffffffffffffffffffffffffffffffffffffff1673ffffffffffffffffffffffffffffffffffffffff16815260200190815260200160002060008282546134e79190615ad2565b925050819055508573ffffffffffffffffffffffffffffffffffffffff168773ffffffffffffffffffffffffffffffffffffffff168373ffffffffffffffffffffffffffffffffffffffff167fc3d58168c5ae7397731d063d5bbf3d657854427343f4c083240f7aacaa2d0f62888860405161356492919061597f565b60405180910390a461357a828888888888613cc5565b50505050505050565b60007f01ffc9a7000000000000000000000000000000000000000000000000000000007bffffffffffffffffffffffffffffffffffffffffffffffffffffffff1916827bffffffffffffffffffffffffffffffffffffffffffffffffffffffff1916149050919050565b60003073ffffffffffffffffffffffffffffffffffffffff163373ffffffffffffffffffffffffffffffffffffffff16141561369757600080368080601f016020809104026020016040519081016040528093929190818152602001838380828437600081840152601f19601f820116905080830192505050505050509050600080369050905073ffffffffffffffffffffffffffffffffffffffff81830151169250505061369b565b3390505b90565b505050505050565b6136c58473ffffffffffffffffffffffffffffffffffffffff16613e95565b1561386e578373ffffffffffffffffffffffffffffffffffffffff1663bc197c8187878686866040518663ffffffff1660e01b815260040161370b9594939291906154b5565b602060405180830381600087803b15801561372557600080fd5b505af192505050801561375657506040513d601f19601f82011682018060405250810190613753919061496f565b60015b6137e557613762615dbe565b8061376d57506137aa565b806040517f08c379a00000000000000000000000000000000000000000000000000000000081526004016137a19190615622565b60405180910390fd5b6040517f08c379a00000000000000000000000000000000000000000000000000000000081526004016137dc90615644565b60405180910390fd5b63bc197c8160e01b7bffffffffffffffffffffffffffffffffffffffffffffffffffffffff1916817bffffffffffffffffffffffffffffffffffffffffffffffffffffffff19161461386c576040517f08c379a000000000000000000000000000000000000000000000000000000000815260040161386390615664565b60405180910390fd5b505b505050505050565b600073ffffffffffffffffffffffffffffffffffffffff168473ffffffffffffffffffffffffffffffffffffffff1614156138e6576040517f08c379a00000000000000000000000000000000000000000000000000000000081526004016138dd90615944565b60405180910390fd5b60006138f06124db565b90506139118160008761390288613bff565b61390b88613bff565b8761369e565b8260c9600086815260200190815260200160002060008773ffffffffffffffffffffffffffffffffffffffff1673ffffffffffffffffffffffffffffffffffffffff16815260200190815260200160002060008282546139719190615ad2565b925050819055508473ffffffffffffffffffffffffffffffffffffffff16600073ffffffffffffffffffffffffffffffffffffffff168273ffffffffffffffffffffffffffffffffffffffff167fc3d58168c5ae7397731d063d5bbf3d657854427343f4c083240f7aacaa2d0f6287876040516139ef92919061597f565b60405180910390a4613a0681600087878787613cc5565b5050505050565b6001816000016000828254019250508190555050565b600060019054906101000a900460ff1680613a49575060008054906101000a900460ff16155b613a88576040517f08c379a0000000000000000000000000000000000000000000000000000000008152600401613a7f906157c4565b60405180910390fd5b60008060019054906101000a900460ff161590508015613ad8576001600060016101000a81548160ff02191690831515021790555060016000806101000a81548160ff0219169083151502179055505b613ae0613ea8565b613ae8613f81565b613af18261405a565b8015613b125760008060016101000a81548160ff0219169083151502179055505b5050565b600060019054906101000a900460ff1680613b3c575060008054906101000a900460ff16155b613b7b576040517f08c379a0000000000000000000000000000000000000000000000000000000008152600401613b72906157c4565b60405180910390fd5b60008060019054906101000a900460ff161590508015613bcb576001600060016101000a81548160ff02191690831515021790555060016000806101000a81548160ff0219169083151502179055505b613bd3613ea8565b613bdb61413d565b8015613bfc5760008060016101000a81548160ff0219169083151502179055505b50565b60606000600167ffffffffffffffff811115613c44577f4e487b7100000000000000000000000000000000000000000000000000000000600052604160045260246000fd5b604051908082528060200260200182016040528015613c725781602001602082028036833780820191505090505b5090508281600081518110613cb0577f4e487b7100000000000000000000000000000000000000000000000000000000600052603260045260246000fd5b60200260200101818152505080915050919050565b613ce48473ffffffffffffffffffffffffffffffffffffffff16613e95565b15613e8d578373ffffffffffffffffffffffffffffffffffffffff1663f23a6e6187878686866040518663ffffffff1660e01b8152600401613d2a95949392919061551d565b602060405180830381600087803b158015613d4457600080fd5b505af1925050508015613d7557506040513d601f19601f82011682018060405250810190613d72919061496f565b60015b613e0457613d81615dbe565b80613d8c5750613dc9565b806040517f08c379a0000000000000000000000000000000000000000000000000000000008152600401613dc09190615622565b60405180910390fd5b6040517f08c379a0000000000000000000000000000000000000000000000000000000008152600401613dfb90615644565b60405180910390fd5b63f23a6e6160e01b7bffffffffffffffffffffffffffffffffffffffffffffffffffffffff1916817bffffffffffffffffffffffffffffffffffffffffffffffffffffffff191614613e8b576040517f08c379a0000000000000000000000000000000000000000000000000000000008152600401613e8290615664565b60405180910390fd5b505b505050505050565b600080823b905060008111915050919050565b600060019054906101000a900460ff1680613ece575060008054906101000a900460ff16155b613f0d576040517f08c379a0000000000000000000000000000000000000000000000000000000008152600401613f04906157c4565b60405180910390fd5b60008060019054906101000a900460ff161590508015613f5d576001600060016101000a81548160ff02191690831515021790555060016000806101000a81548160ff0219169083151502179055505b8015613f7e5760008060016101000a81548160ff0219169083151502179055505b50565b600060019054906101000a900460ff1680613fa7575060008054906101000a900460ff16155b613fe6576040517f08c379a0000000000000000000000000000000000000000000000000000000008152600401613fdd906157c4565b60405180910390fd5b60008060019054906101000a900460ff161590508015614036576001600060016101000a81548160ff02191690831515021790555060016000806101000a81548160ff0219169083151502179055505b80156140575760008060016101000a81548160ff0219169083151502179055505b50565b600060019054906101000a900460ff1680614080575060008054906101000a900460ff16155b6140bf576040517f08c379a00000000000000000000000000000000000000000000000000000000081526004016140b6906157c4565b60405180910390fd5b60008060019054906101000a900460ff16159050801561410f576001600060016101000a81548160ff02191690831515021790555060016000806101000a81548160ff0219169083151502179055505b61411882614226565b80156141395760008060016101000a81548160ff0219169083151502179055505b5050565b600060019054906101000a900460ff1680614163575060008054906101000a900460ff16155b6141a2576040517f08c379a0000000000000000000000000000000000000000000000000000000008152600401614199906157c4565b60405180910390fd5b60008060019054906101000a900460ff1615905080156141f2576001600060016101000a81548160ff02191690831515021790555060016000806101000a81548160ff0219169083151502179055505b6142026141fd6124db565b613118565b80156142235760008060016101000a81548160ff0219169083151502179055505b50565b8060cb908051906020019061423c9291906142c6565b5050565b82805461424c90615c69565b90600052602060002090601f01602090048101928261426e57600085556142b5565b82601f1061428757803560ff19168380011785556142b5565b828001600101855582156142b5579182015b828111156142b4578235825591602001919060010190614299565b5b5090506142c2919061434c565b5090565b8280546142d290615c69565b90600052602060002090601f0160209004810192826142f4576000855561433b565b82601f1061430d57805160ff191683800117855561433b565b8280016001018555821561433b579182015b8281111561433a57825182559160200191906001019061431f565b5b509050614348919061434c565b5090565b5b8082111561436557600081600090555060010161434d565b5090565b600061437c614377846159d9565b6159a8565b9050808382526020820190508285602086028201111561439b57600080fd5b60005b858110156143cb57816143b1888261447f565b84526020840193506020830192505060018101905061439e565b5050509392505050565b60006143e86143e384615a05565b6159a8565b9050808382526020820190508285602086028201111561440757600080fd5b60005b85811015614437578161441d888261459b565b84526020840193506020830192505060018101905061440a565b5050509392505050565b600061445461444f84615a31565b6159a8565b90508281526020810184848401111561446c57600080fd5b614477848285615c27565b509392505050565b60008135905061448e81615e74565b92915050565b600082601f8301126144a557600080fd5b81356144b5848260208601614369565b91505092915050565b600082601f8301126144cf57600080fd5b81356144df8482602086016143d5565b91505092915050565b6000813590506144f781615e8b565b92915050565b60008135905061450c81615ea2565b92915050565b60008151905061452181615ea2565b92915050565b600082601f83011261453857600080fd5b8135614548848260208601614441565b91505092915050565b60008083601f84011261456357600080fd5b8235905067ffffffffffffffff81111561457c57600080fd5b60208301915083600182028301111561459457600080fd5b9250929050565b6000813590506145aa81615eb9565b92915050565b6000602082840312156145c257600080fd5b60006145d08482850161447f565b91505092915050565b600080604083850312156145ec57600080fd5b60006145fa8582860161447f565b925050602061460b8582860161447f565b9150509250929050565b600080600080600060a0868803121561462d57600080fd5b600061463b8882890161447f565b955050602061464c8882890161447f565b945050604086013567ffffffffffffffff81111561466957600080fd5b614675888289016144be565b935050606086013567ffffffffffffffff81111561469257600080fd5b61469e888289016144be565b925050608086013567ffffffffffffffff8111156146bb57600080fd5b6146c788828901614527565b9150509295509295909350565b600080600080600060a086880312156146ec57600080fd5b60006146fa8882890161447f565b955050602061470b8882890161447f565b945050604061471c8882890161459b565b935050606061472d8882890161459b565b925050608086013567ffffffffffffffff81111561474a57600080fd5b61475688828901614527565b9150509295509295909350565b6000806040838503121561477657600080fd5b60006147848582860161447f565b9250506020614795858286016144e8565b9150509250929050565b600080600080600080600060a0888a0312156147ba57600080fd5b60006147c88a828b0161447f565b975050602088013567ffffffffffffffff8111156147e557600080fd5b6147f18a828b01614551565b965096505060406148048a828b0161459b565b945050606088013567ffffffffffffffff81111561482157600080fd5b61482d8a828b01614551565b935093505060806148408a828b016144e8565b91505092959891949750929550565b6000806040838503121561486257600080fd5b60006148708582860161447f565b92505060206148818582860161459b565b9150509250929050565b6000806000606084860312156148a057600080fd5b60006148ae8682870161447f565b93505060206148bf8682870161459b565b92505060406148d08682870161459b565b9150509250925092565b600080604083850312156148ed57600080fd5b600083013567ffffffffffffffff81111561490757600080fd5b61491385828601614494565b925050602083013567ffffffffffffffff81111561493057600080fd5b61493c858286016144be565b9150509250929050565b60006020828403121561495857600080fd5b6000614966848285016144fd565b91505092915050565b60006020828403121561498157600080fd5b600061498f84828501614512565b91505092915050565b60008060008060008060008060008060e08b8d0312156149b757600080fd5b60008b013567ffffffffffffffff8111156149d157600080fd5b6149dd8d828e01614551565b9a509a505060208b013567ffffffffffffffff8111156149fc57600080fd5b614a088d828e01614551565b98509850506040614a1b8d828e0161447f565b9650506060614a2c8d828e0161447f565b9550506080614a3d8d828e0161459b565b94505060a0614a4e8d828e016144e8565b93505060c08b013567ffffffffffffffff811115614a6b57600080fd5b614a778d828e01614551565b92509250509295989b9194979a5092959850565b600060208284031215614a9d57600080fd5b6000614aab8482850161459b565b91505092915050565b600080600060408486031215614ac957600080fd5b6000614ad78682870161459b565b935050602084013567ffffffffffffffff811115614af457600080fd5b614b0086828701614551565b92509250509250925092565b60008060408385031215614b1f57600080fd5b6000614b2d8582860161459b565b9250506020614b3e8582860161459b565b9150509250929050565b6000614b54838361547c565b60208301905092915050565b614b6981615bb3565b82525050565b6000614b7a82615a71565b614b848185615a9f565b9350614b8f83615a61565b8060005b83811015614bc0578151614ba78882614b48565b9750614bb283615a92565b925050600181019050614b93565b5085935050505092915050565b614bd681615bc5565b82525050565b6000614be782615a7c565b614bf18185615ab0565b9350614c01818560208601615c36565b614c0a81615da0565b840191505092915050565b6000614c2082615a87565b614c2a8185615ac1565b9350614c3a818560208601615c36565b614c4381615da0565b840191505092915050565b6000614c5b603483615ac1565b91507f455243313135353a207472616e7366657220746f206e6f6e204552433131353560008301527f526563656976657220696d706c656d656e7465720000000000000000000000006020830152604082019050919050565b6000614cc1602883615ac1565b91507f455243313135353a204552433131353552656365697665722072656a6563746560008301527f6420746f6b656e730000000000000000000000000000000000000000000000006020830152604082019050919050565b6000614d27602b83615ac1565b91507f455243313135353a2062616c616e636520717565727920666f7220746865207a60008301527f65726f20616464726573730000000000000000000000000000000000000000006020830152604082019050919050565b6000614d8d600683615ac1565b91507f4e504d494e5400000000000000000000000000000000000000000000000000006000830152602082019050919050565b6000614dcd602683615ac1565b91507f4f776e61626c653a206e6577206f776e657220697320746865207a65726f206160008301527f64647265737300000000000000000000000000000000000000000000000000006020830152604082019050919050565b6000614e33602983615ac1565b91507f455243313135353a2063616c6c6572206973206e6f74206f776e6572206e6f7260008301527f20617070726f76656400000000000000000000000000000000000000000000006020830152604082019050919050565b6000614e99600683615ac1565b91507f45584953545300000000000000000000000000000000000000000000000000006000830152602082019050919050565b6000614ed9600683615ac1565b91507f4e4d494e545000000000000000000000000000000000000000000000000000006000830152602082019050919050565b6000614f19602583615ac1565b91507f455243313135353a207472616e7366657220746f20746865207a65726f20616460008301527f64726573730000000000000000000000000000000000000000000000000000006020830152604082019050919050565b6000614f7f603283615ac1565b91507f455243313135353a207472616e736665722063616c6c6572206973206e6f742060008301527f6f776e6572206e6f7220617070726f76656400000000000000000000000000006020830152604082019050919050565b6000614fe5600883615ac1565b91507f4e4f5f5350504c590000000000000000000000000000000000000000000000006000830152602082019050919050565b6000615025600283615ac1565b91507f574c0000000000000000000000000000000000000000000000000000000000006000830152602082019050919050565b6000615065602e83615ac1565b91507f496e697469616c697a61626c653a20636f6e747261637420697320616c72656160008301527f647920696e697469616c697a65640000000000000000000000000000000000006020830152604082019050919050565b60006150cb600783615ac1565b91507f544b4e20522f53000000000000000000000000000000000000000000000000006000830152602082019050919050565b600061510b600c83615ac1565b91507f494e56414c4944205459504500000000000000000000000000000000000000006000830152602082019050919050565b600061514b602a83615ac1565b91507f455243313135353a20696e73756666696369656e742062616c616e636520666f60008301527f72207472616e73666572000000000000000000000000000000000000000000006020830152604082019050919050565b60006151b1600683615ac1565b91507f4e4f2055524900000000000000000000000000000000000000000000000000006000830152602082019050919050565b60006151f1602083615ac1565b91507f4f776e61626c653a2063616c6c6572206973206e6f7420746865206f776e65726000830152602082019050919050565b6000615231600383615ac1565b91507f574c4600000000000000000000000000000000000000000000000000000000006000830152602082019050919050565b6000615271600783615ac1565b91507f544b4e204e2f41000000000000000000000000000000000000000000000000006000830152602082019050919050565b60006152b1602983615ac1565b91507f455243313135353a2073657474696e6720617070726f76616c2073746174757360008301527f20666f722073656c6600000000000000000000000000000000000000000000006020830152604082019050919050565b6000615317600983615ac1565b91507f4e4f54204f574e455200000000000000000000000000000000000000000000006000830152602082019050919050565b6000615357602983615ac1565b91507f455243313135353a206163636f756e747320616e6420696473206c656e67746860008301527f206d69736d6174636800000000000000000000000000000000000000000000006020830152604082019050919050565b60006153bd602883615ac1565b91507f455243313135353a2069647320616e6420616d6f756e7473206c656e6774682060008301527f6d69736d617463680000000000000000000000000000000000000000000000006020830152604082019050919050565b6000615423602183615ac1565b91507f455243313135353a206d696e7420746f20746865207a65726f2061646472657360008301527f73000000000000000000000000000000000000000000000000000000000000006020830152604082019050919050565b61548581615c1d565b82525050565b61549481615c1d565b82525050565b60006020820190506154af6000830184614b60565b92915050565b600060a0820190506154ca6000830188614b60565b6154d76020830187614b60565b81810360408301526154e98186614b6f565b905081810360608301526154fd8185614b6f565b905081810360808301526155118184614bdc565b90509695505050505050565b600060a0820190506155326000830188614b60565b61553f6020830187614b60565b61554c604083018661548b565b615559606083018561548b565b818103608083015261556b8184614bdc565b90509695505050505050565b600060608201905061558c6000830186614b60565b615599602083018561548b565b6155a6604083018461548b565b949350505050565b600060208201905081810360008301526155c88184614b6f565b905092915050565b600060408201905081810360008301526155ea8185614b6f565b905081810360208301526155fe8184614b6f565b90509392505050565b600060208201905061561c6000830184614bcd565b92915050565b6000602082019050818103600083015261563c8184614c15565b905092915050565b6000602082019050818103600083015261565d81614c4e565b9050919050565b6000602082019050818103600083015261567d81614cb4565b9050919050565b6000602082019050818103600083015261569d81614d1a565b9050919050565b600060208201905081810360008301526156bd81614d80565b9050919050565b600060208201905081810360008301526156dd81614dc0565b9050919050565b600060208201905081810360008301526156fd81614e26565b9050919050565b6000602082019050818103600083015261571d81614e8c565b9050919050565b6000602082019050818103600083015261573d81614ecc565b9050919050565b6000602082019050818103600083015261575d81614f0c565b9050919050565b6000602082019050818103600083015261577d81614f72565b9050919050565b6000602082019050818103600083015261579d81614fd8565b9050919050565b600060208201905081810360008301526157bd81615018565b9050919050565b600060208201905081810360008301526157dd81615058565b9050919050565b600060208201905081810360008301526157fd816150be565b9050919050565b6000602082019050818103600083015261581d816150fe565b9050919050565b6000602082019050818103600083015261583d8161513e565b9050919050565b6000602082019050818103600083015261585d816151a4565b9050919050565b6000602082019050818103600083015261587d816151e4565b9050919050565b6000602082019050818103600083015261589d81615224565b9050919050565b600060208201905081810360008301526158bd81615264565b9050919050565b600060208201905081810360008301526158dd816152a4565b9050919050565b600060208201905081810360008301526158fd8161530a565b9050919050565b6000602082019050818103600083015261591d8161534a565b9050919050565b6000602082019050818103600083015261593d816153b0565b9050919050565b6000602082019050818103600083015261595d81615416565b9050919050565b6000602082019050615979600083018461548b565b92915050565b6000604082019050615994600083018561548b565b6159a1602083018461548b565b9392505050565b6000604051905081810181811067ffffffffffffffff821117156159cf576159ce615d71565b5b8060405250919050565b600067ffffffffffffffff8211156159f4576159f3615d71565b5b602082029050602081019050919050565b600067ffffffffffffffff821115615a2057615a1f615d71565b5b602082029050602081019050919050565b600067ffffffffffffffff821115615a4c57615a4b615d71565b5b601f19601f8301169050602081019050919050565b6000819050602082019050919050565b600081519050919050565b600081519050919050565b600081519050919050565b6000602082019050919050565b600082825260208201905092915050565b600082825260208201905092915050565b600082825260208201905092915050565b6000615add82615c1d565b9150615ae883615c1d565b9250827fffffffffffffffffffffffffffffffffffffffffffffffffffffffffffffffff03821115615b1d57615b1c615ce4565b5b828201905092915050565b6000615b3382615c1d565b9150615b3e83615c1d565b925082615b4e57615b4d615d13565b5b828204905092915050565b6000615b6482615c1d565b9150615b6f83615c1d565b9250817fffffffffffffffffffffffffffffffffffffffffffffffffffffffffffffffff0483118215151615615ba857615ba7615ce4565b5b828202905092915050565b6000615bbe82615bfd565b9050919050565b60008115159050919050565b60007fffffffff0000000000000000000000000000000000000000000000000000000082169050919050565b600073ffffffffffffffffffffffffffffffffffffffff82169050919050565b6000819050919050565b82818337600083830152505050565b60005b83811015615c54578082015181840152602081019050615c39565b83811115615c63576000848401525b50505050565b60006002820490506001821680615c8157607f821691505b60208210811415615c9557615c94615d42565b5b50919050565b6000615ca682615c1d565b91507fffffffffffffffffffffffffffffffffffffffffffffffffffffffffffffffff821415615cd957615cd8615ce4565b5b600182019050919050565b7f4e487b7100000000000000000000000000000000000000000000000000000000600052601160045260246000fd5b7f4e487b7100000000000000000000000000000000000000000000000000000000600052601260045260246000fd5b7f4e487b7100000000000000000000000000000000000000000000000000000000600052602260045260246000fd5b7f4e487b7100000000000000000000000000000000000000000000000000000000600052604160045260246000fd5b6000601f19601f8301169050919050565b60008160e01c9050919050565b600060443d1015615dce57615e71565b60046000803e615ddf600051615db1565b6308c379a08114615df05750615e71565b60405160043d036004823e80513d602482011167ffffffffffffffff82111715615e1c57505050615e71565b808201805167ffffffffffffffff811115615e3b575050505050615e71565b8060208301013d8501811115615e5657505050505050615e71565b615e5f82615da0565b60208401016040528296505050505050505b90565b615e7d81615bb3565b8114615e8857600080fd5b50565b615e9481615bc5565b8114615e9f57600080fd5b50565b615eab81615bd1565b8114615eb657600080fd5b50565b615ec281615c1d565b8114615ecd57600080fd5b5056fea2646970667358221220dc85198321660fb92c2efca8214e0c84ae5548dca75a9013843dbcb2401d047d64736f6c63430008000033",
  "linkReferences": {},
  "deployedLinkReferences": {}
}