{
  "_format": "hh-sol-artifact-1",
  "contractName": "Royalties",
  "sourceName": "contracts/Royalties.sol",
  "abi": [
    {
      "anonymous": false,
      "inputs": [
        {
          "indexed": true,
          "internalType": "address",
          "name": "previousOwner",
          "type": "address"
        },
        {
          "indexed": true,
          "internalType": "address",
          "name": "newOwner",
          "type": "address"
        }
      ],
      "name": "OwnershipTransferred",
      "type": "event"
    },
    {
      "inputs": [
        {
          "internalType": "uint256",
          "name": "",
          "type": "uint256"
        }
      ],
      "name": "_exists",
      "outputs": [
        {
          "internalType": "bool",
          "name": "",
          "type": "bool"
        }
      ],
      "stateMutability": "view",
      "type": "function"
    },
    {
      "inputs": [],
      "name": "_name",
      "outputs": [
        {
          "internalType": "string",
          "name": "",
          "type": "string"
        }
      ],
      "stateMutability": "view",
      "type": "function"
    },
    {
      "inputs": [],
      "name": "_royaltiesPercentage",
      "outputs": [
        {
          "internalType": "uint256",
          "name": "",
          "type": "uint256"
        }
      ],
      "stateMutability": "view",
      "type": "function"
    },
    {
      "inputs": [],
      "name": "_royaltiesReceiver",
      "outputs": [
        {
          "internalType": "address",
          "name": "",
          "type": "address"
        }
      ],
      "stateMutability": "view",
      "type": "function"
    },
    {
      "inputs": [],
      "name": "_symbol",
      "outputs": [
        {
          "internalType": "string",
          "name": "",
          "type": "string"
        }
      ],
      "stateMutability": "view",
      "type": "function"
    },
    {
      "inputs": [
        {
          "internalType": "address",
          "name": "",
          "type": "address"
        }
      ],
      "name": "blackListed",
      "outputs": [
        {
          "internalType": "bool",
          "name": "",
          "type": "bool"
        }
      ],
      "stateMutability": "view",
      "type": "function"
    },
    {
      "inputs": [],
      "name": "owner",
      "outputs": [
        {
          "internalType": "address",
          "name": "",
          "type": "address"
        }
      ],
      "stateMutability": "view",
      "type": "function"
    },
    {
      "inputs": [],
      "name": "publicMinting",
      "outputs": [
        {
          "internalType": "bool",
          "name": "",
          "type": "bool"
        }
      ],
      "stateMutability": "view",
      "type": "function"
    },
    {
      "inputs": [],
      "name": "renounceOwnership",
      "outputs": [],
      "stateMutability": "nonpayable",
      "type": "function"
    },
    {
      "inputs": [
        {
          "internalType": "uint256",
          "name": "_nftId",
          "type": "uint256"
        },
        {
          "internalType": "uint256",
          "name": "_salePrice",
          "type": "uint256"
        }
      ],
      "name": "royaltyInfo",
      "outputs": [
        {
          "internalType": "address",
          "name": "receiver",
          "type": "address"
        },
        {
          "internalType": "uint256",
          "name": "royaltyAmount",
          "type": "uint256"
        },
        {
          "internalType": "uint256",
          "name": "tokenId",
          "type": "uint256"
        }
      ],
      "stateMutability": "view",
      "type": "function"
    },
    {
      "inputs": [
        {
          "internalType": "uint256",
          "name": "newRoyalties",
          "type": "uint256"
        }
      ],
      "name": "setRoyalties",
      "outputs": [],
      "stateMutability": "nonpayable",
      "type": "function"
    },
    {
      "inputs": [
        {
          "internalType": "address",
          "name": "newRoyaltiesReceiver",
          "type": "address"
        }
      ],
      "name": "setRoyaltiesReceiver",
      "outputs": [],
      "stateMutability": "nonpayable",
      "type": "function"
    },
    {
      "inputs": [
        {
          "internalType": "uint256",
          "name": "",
          "type": "uint256"
        }
      ],
      "name": "tokenMinter",
      "outputs": [
        {
          "internalType": "address",
          "name": "",
          "type": "address"
        }
      ],
      "stateMutability": "view",
      "type": "function"
    },
    {
      "inputs": [
        {
          "internalType": "address",
          "name": "newOwner",
          "type": "address"
        }
      ],
      "name": "transferOwnership",
      "outputs": [],
      "stateMutability": "nonpayable",
      "type": "function"
    },
    {
      "inputs": [
        {
          "internalType": "address",
          "name": "",
          "type": "address"
        }
      ],
      "name": "whiteListed",
      "outputs": [
        {
          "internalType": "bool",
          "name": "",
          "type": "bool"
        }
      ],
      "stateMutability": "view",
      "type": "function"
    }
  ],
  "bytecode": "0x608060405234801561001057600080fd5b50610e68806100206000396000f3fe608060405234801561001057600080fd5b50600436106100f55760003560e01c8063b09f126611610097578063d28d885211610066578063d28d885214610264578063f2fde38b14610282578063f8e76cc01461029e578063fa0fca84146102ce576100f5565b8063b09f1266146101dc578063b5143715146101fa578063bbde5b2514610216578063cf7761ee14610246576100f5565b8063715018a6116100d3578063715018a6146101665780637c57d947146101705780638da5cb5b146101a057806391a83711146101be576100f5565b80632a55205a146100fa5780632b80183f1461012c57806353ac010a14610148575b600080fd5b610114600480360381019061010f91906109e0565b6102fe565b60405161012393929190610b43565b60405180910390f35b610146600480360381019061014191906109b7565b61034e565b005b6101506103e3565b60405161015d9190610b7a565b60405180910390f35b61016e6103f6565b005b61018a600480360381019061018591906109b7565b61047e565b6040516101979190610b28565b60405180910390f35b6101a86104b1565b6040516101b59190610b28565b60405180910390f35b6101c66104db565b6040516101d39190610b28565b60405180910390f35b6101e4610501565b6040516101f19190610b95565b60405180910390f35b610214600480360381019061020f919061098e565b61058f565b005b610230600480360381019061022b919061098e565b6106aa565b60405161023d9190610b7a565b60405180910390f35b61024e6106ca565b60405161025b9190610bf7565b60405180910390f35b61026c6106d0565b6040516102799190610b95565b60405180910390f35b61029c6004803603810190610297919061098e565b61075e565b005b6102b860048036038101906102b391906109b7565b610856565b6040516102c59190610b7a565b60405180910390f35b6102e860048036038101906102e3919061098e565b610876565b6040516102f59190610b7a565b60405180910390f35b6000806000606760009054906101000a900473ffffffffffffffffffffffffffffffffffffffff1660646068546103359190610c2e565b856103409190610c5f565b869250925092509250925092565b610356610896565b73ffffffffffffffffffffffffffffffffffffffff166103746104b1565b73ffffffffffffffffffffffffffffffffffffffff16146103ca576040517f08c379a00000000000000000000000000000000000000000000000000000000081526004016103c190610bd7565b60405180910390fd5b6068548114156103d957600080fd5b8060688190555050565b606960009054906101000a900460ff1681565b6103fe610896565b73ffffffffffffffffffffffffffffffffffffffff1661041c6104b1565b73ffffffffffffffffffffffffffffffffffffffff1614610472576040517f08c379a000000000000000000000000000000000000000000000000000000000815260040161046990610bd7565b60405180910390fd5b61047c600061089e565b565b606d6020528060005260406000206000915054906101000a900473ffffffffffffffffffffffffffffffffffffffff1681565b6000603360009054906101000a900473ffffffffffffffffffffffffffffffffffffffff16905090565b606760009054906101000a900473ffffffffffffffffffffffffffffffffffffffff1681565b6066805461050e90610d34565b80601f016020809104026020016040519081016040528092919081815260200182805461053a90610d34565b80156105875780601f1061055c57610100808354040283529160200191610587565b820191906000526020600020905b81548152906001019060200180831161056a57829003601f168201915b505050505081565b610597610896565b73ffffffffffffffffffffffffffffffffffffffff166105b56104b1565b73ffffffffffffffffffffffffffffffffffffffff161461060b576040517f08c379a000000000000000000000000000000000000000000000000000000000815260040161060290610bd7565b60405180910390fd5b606760009054906101000a900473ffffffffffffffffffffffffffffffffffffffff1673ffffffffffffffffffffffffffffffffffffffff168173ffffffffffffffffffffffffffffffffffffffff16141561066657600080fd5b80606760006101000a81548173ffffffffffffffffffffffffffffffffffffffff021916908373ffffffffffffffffffffffffffffffffffffffff16021790555050565b606c6020528060005260406000206000915054906101000a900460ff1681565b60685481565b606580546106dd90610d34565b80601f016020809104026020016040519081016040528092919081815260200182805461070990610d34565b80156107565780601f1061072b57610100808354040283529160200191610756565b820191906000526020600020905b81548152906001019060200180831161073957829003601f168201915b505050505081565b610766610896565b73ffffffffffffffffffffffffffffffffffffffff166107846104b1565b73ffffffffffffffffffffffffffffffffffffffff16146107da576040517f08c379a00000000000000000000000000000000000000000000000000000000081526004016107d190610bd7565b60405180910390fd5b600073ffffffffffffffffffffffffffffffffffffffff168173ffffffffffffffffffffffffffffffffffffffff16141561084a576040517f08c379a000000000000000000000000000000000000000000000000000000000815260040161084190610bb7565b60405180910390fd5b6108538161089e565b50565b606a6020528060005260406000206000915054906101000a900460ff1681565b606b6020528060005260406000206000915054906101000a900460ff1681565b600033905090565b6000603360009054906101000a900473ffffffffffffffffffffffffffffffffffffffff16905081603360006101000a81548173ffffffffffffffffffffffffffffffffffffffff021916908373ffffffffffffffffffffffffffffffffffffffff1602179055508173ffffffffffffffffffffffffffffffffffffffff168173ffffffffffffffffffffffffffffffffffffffff167f8be0079c531659141344cd1fd0a4f28419497f9722a3daafe3b4186f6b6457e060405160405180910390a35050565b60008135905061097381610e04565b92915050565b60008135905061098881610e1b565b92915050565b6000602082840312156109a057600080fd5b60006109ae84828501610964565b91505092915050565b6000602082840312156109c957600080fd5b60006109d784828501610979565b91505092915050565b600080604083850312156109f357600080fd5b6000610a0185828601610979565b9250506020610a1285828601610979565b9150509250929050565b610a2581610cb9565b82525050565b610a3481610ccb565b82525050565b6000610a4582610c12565b610a4f8185610c1d565b9350610a5f818560208601610d01565b610a6881610df3565b840191505092915050565b6000610a80602683610c1d565b91507f4f776e61626c653a206e6577206f776e657220697320746865207a65726f206160008301527f64647265737300000000000000000000000000000000000000000000000000006020830152604082019050919050565b6000610ae6602083610c1d565b91507f4f776e61626c653a2063616c6c6572206973206e6f7420746865206f776e65726000830152602082019050919050565b610b2281610cf7565b82525050565b6000602082019050610b3d6000830184610a1c565b92915050565b6000606082019050610b586000830186610a1c565b610b656020830185610b19565b610b726040830184610b19565b949350505050565b6000602082019050610b8f6000830184610a2b565b92915050565b60006020820190508181036000830152610baf8184610a3a565b905092915050565b60006020820190508181036000830152610bd081610a73565b9050919050565b60006020820190508181036000830152610bf081610ad9565b9050919050565b6000602082019050610c0c6000830184610b19565b92915050565b600081519050919050565b600082825260208201905092915050565b6000610c3982610cf7565b9150610c4483610cf7565b925082610c5457610c53610d95565b5b828204905092915050565b6000610c6a82610cf7565b9150610c7583610cf7565b9250817fffffffffffffffffffffffffffffffffffffffffffffffffffffffffffffffff0483118215151615610cae57610cad610d66565b5b828202905092915050565b6000610cc482610cd7565b9050919050565b60008115159050919050565b600073ffffffffffffffffffffffffffffffffffffffff82169050919050565b6000819050919050565b60005b83811015610d1f578082015181840152602081019050610d04565b83811115610d2e576000848401525b50505050565b60006002820490506001821680610d4c57607f821691505b60208210811415610d6057610d5f610dc4565b5b50919050565b7f4e487b7100000000000000000000000000000000000000000000000000000000600052601160045260246000fd5b7f4e487b7100000000000000000000000000000000000000000000000000000000600052601260045260246000fd5b7f4e487b7100000000000000000000000000000000000000000000000000000000600052602260045260246000fd5b6000601f19601f8301169050919050565b610e0d81610cb9565b8114610e1857600080fd5b50565b610e2481610cf7565b8114610e2f57600080fd5b5056fea26469706673582212209e087f61d58ba50097380c73c7025a5d60af18338b12c47f1375957dd1c5983164736f6c63430008000033",
  "linkReferences": {},
  "deployedLinkReferences": {}
}