{
  "_format": "hh-sol-artifact-1",
  "contractName": "Royalties",
  "sourceName": "contracts/Royalties.sol",
  "abi": [
    {
      "anonymous": false,
      "inputs": [
        {
          "indexed": true,
          "internalType": "address",
          "name": "previousOwner",
          "type": "address"
        },
        {
          "indexed": true,
          "internalType": "address",
          "name": "newOwner",
          "type": "address"
        }
      ],
      "name": "OwnershipTransferred",
      "type": "event"
    },
    {
      "inputs": [],
      "name": "__Storage_initialize",
      "outputs": [],
      "stateMutability": "nonpayable",
      "type": "function"
    },
    {
      "inputs": [
        {
          "internalType": "uint256",
          "name": "",
          "type": "uint256"
        }
      ],
      "name": "_exists",
      "outputs": [
        {
          "internalType": "bool",
          "name": "",
          "type": "bool"
        }
      ],
      "stateMutability": "view",
      "type": "function"
    },
    {
      "inputs": [],
      "name": "_name",
      "outputs": [
        {
          "internalType": "string",
          "name": "",
          "type": "string"
        }
      ],
      "stateMutability": "view",
      "type": "function"
    },
    {
      "inputs": [],
      "name": "_royaltiesPercentage",
      "outputs": [
        {
          "internalType": "uint256",
          "name": "",
          "type": "uint256"
        }
      ],
      "stateMutability": "view",
      "type": "function"
    },
    {
      "inputs": [],
      "name": "_royaltiesReceiver",
      "outputs": [
        {
          "internalType": "address",
          "name": "",
          "type": "address"
        }
      ],
      "stateMutability": "view",
      "type": "function"
    },
    {
      "inputs": [],
      "name": "_symbol",
      "outputs": [
        {
          "internalType": "string",
          "name": "",
          "type": "string"
        }
      ],
      "stateMutability": "view",
      "type": "function"
    },
    {
      "inputs": [
        {
          "internalType": "address",
          "name": "",
          "type": "address"
        }
      ],
      "name": "blackListed",
      "outputs": [
        {
          "internalType": "bool",
          "name": "",
          "type": "bool"
        }
      ],
      "stateMutability": "view",
      "type": "function"
    },
    {
      "inputs": [],
      "name": "owner",
      "outputs": [
        {
          "internalType": "address",
          "name": "",
          "type": "address"
        }
      ],
      "stateMutability": "view",
      "type": "function"
    },
    {
      "inputs": [],
      "name": "publicMinting",
      "outputs": [
        {
          "internalType": "bool",
          "name": "",
          "type": "bool"
        }
      ],
      "stateMutability": "view",
      "type": "function"
    },
    {
      "inputs": [],
      "name": "renounceOwnership",
      "outputs": [],
      "stateMutability": "nonpayable",
      "type": "function"
    },
    {
      "inputs": [
        {
          "internalType": "uint256",
          "name": "_nftId",
          "type": "uint256"
        },
        {
          "internalType": "uint256",
          "name": "_salePrice",
          "type": "uint256"
        }
      ],
      "name": "royaltyInfo",
      "outputs": [
        {
          "internalType": "address",
          "name": "receiver",
          "type": "address"
        },
        {
          "internalType": "uint256",
          "name": "royaltyAmount",
          "type": "uint256"
        },
        {
          "internalType": "uint256",
          "name": "tokenId",
          "type": "uint256"
        }
      ],
      "stateMutability": "view",
      "type": "function"
    },
    {
      "inputs": [
        {
          "internalType": "uint256",
          "name": "newRoyalties",
          "type": "uint256"
        }
      ],
      "name": "setRoyalties",
      "outputs": [],
      "stateMutability": "nonpayable",
      "type": "function"
    },
    {
      "inputs": [
        {
          "internalType": "address",
          "name": "newRoyaltiesReceiver",
          "type": "address"
        }
      ],
      "name": "setRoyaltiesReceiver",
      "outputs": [],
      "stateMutability": "nonpayable",
      "type": "function"
    },
    {
      "inputs": [
        {
          "internalType": "uint256",
          "name": "",
          "type": "uint256"
        }
      ],
      "name": "tokenMinter",
      "outputs": [
        {
          "internalType": "address",
          "name": "",
          "type": "address"
        }
      ],
      "stateMutability": "view",
      "type": "function"
    },
    {
      "inputs": [
        {
          "internalType": "address",
          "name": "newOwner",
          "type": "address"
        }
      ],
      "name": "transferOwnership",
      "outputs": [],
      "stateMutability": "nonpayable",
      "type": "function"
    },
    {
      "inputs": [
        {
          "internalType": "address",
          "name": "",
          "type": "address"
        }
      ],
      "name": "whiteListed",
      "outputs": [
        {
          "internalType": "bool",
          "name": "",
          "type": "bool"
        }
      ],
      "stateMutability": "view",
      "type": "function"
    }
  ],
  "bytecode": "0x608060405234801561001057600080fd5b50610fe1806100206000396000f3fe608060405234801561001057600080fd5b50600436106101005760003560e01c8063b09f126611610097578063d28d885211610066578063d28d885214610279578063f2fde38b14610297578063f8e76cc0146102b3578063fa0fca84146102e357610100565b8063b09f1266146101f1578063b51437151461020f578063bbde5b251461022b578063cf7761ee1461025b57610100565b8063715018a6116100d3578063715018a61461017b5780637c57d947146101855780638da5cb5b146101b557806391a83711146101d357610100565b80632a55205a146101055780632b80183f1461013757806346d6e6cb1461015357806353ac010a1461015d575b600080fd5b61011f600480360381019061011a9190610ad3565b610313565b60405161012e93929190610c9c565b60405180910390f35b610151600480360381019061014c9190610aaa565b610368565b005b61015b6103fd565b005b6101656104d6565b6040516101729190610cd3565b60405180910390f35b6101836104e9565b005b61019f600480360381019061019a9190610aaa565b610571565b6040516101ac9190610c81565b60405180910390f35b6101bd6105a4565b6040516101ca9190610c81565b60405180910390f35b6101db6105ce565b6040516101e89190610c81565b60405180910390f35b6101f96105f4565b6040516102069190610cee565b60405180910390f35b61022960048036038101906102249190610a81565b610682565b005b61024560048036038101906102409190610a81565b61079d565b6040516102529190610cd3565b60405180910390f35b6102636107bd565b6040516102709190610d70565b60405180910390f35b6102816107c3565b60405161028e9190610cee565b60405180910390f35b6102b160048036038101906102ac9190610a81565b610851565b005b6102cd60048036038101906102c89190610aaa565b610949565b6040516102da9190610cd3565b60405180910390f35b6102fd60048036038101906102f89190610a81565b610969565b60405161030a9190610cd3565b60405180910390f35b6000806000806064606854866103299190610dd8565b6103339190610da7565b9050606760009054906101000a900473ffffffffffffffffffffffffffffffffffffffff168187935093509350509250925092565b610370610989565b73ffffffffffffffffffffffffffffffffffffffff1661038e6105a4565b73ffffffffffffffffffffffffffffffffffffffff16146103e4576040517f08c379a00000000000000000000000000000000000000000000000000000000081526004016103db90610d50565b60405180910390fd5b6068548114156103f357600080fd5b8060688190555050565b600060019054906101000a900460ff1680610423575060008054906101000a900460ff16155b610462576040517f08c379a000000000000000000000000000000000000000000000000000000000815260040161045990610d30565b60405180910390fd5b60008060019054906101000a900460ff1615905080156104b2576001600060016101000a81548160ff02191690831515021790555060016000806101000a81548160ff0219169083151502179055505b80156104d35760008060016101000a81548160ff0219169083151502179055505b50565b606960009054906101000a900460ff1681565b6104f1610989565b73ffffffffffffffffffffffffffffffffffffffff1661050f6105a4565b73ffffffffffffffffffffffffffffffffffffffff1614610565576040517f08c379a000000000000000000000000000000000000000000000000000000000815260040161055c90610d50565b60405180910390fd5b61056f6000610991565b565b606d6020528060005260406000206000915054906101000a900473ffffffffffffffffffffffffffffffffffffffff1681565b6000603360009054906101000a900473ffffffffffffffffffffffffffffffffffffffff16905090565b606760009054906101000a900473ffffffffffffffffffffffffffffffffffffffff1681565b6066805461060190610ead565b80601f016020809104026020016040519081016040528092919081815260200182805461062d90610ead565b801561067a5780601f1061064f5761010080835404028352916020019161067a565b820191906000526020600020905b81548152906001019060200180831161065d57829003601f168201915b505050505081565b61068a610989565b73ffffffffffffffffffffffffffffffffffffffff166106a86105a4565b73ffffffffffffffffffffffffffffffffffffffff16146106fe576040517f08c379a00000000000000000000000000000000000000000000000000000000081526004016106f590610d50565b60405180910390fd5b606760009054906101000a900473ffffffffffffffffffffffffffffffffffffffff1673ffffffffffffffffffffffffffffffffffffffff168173ffffffffffffffffffffffffffffffffffffffff16141561075957600080fd5b80606760006101000a81548173ffffffffffffffffffffffffffffffffffffffff021916908373ffffffffffffffffffffffffffffffffffffffff16021790555050565b606c6020528060005260406000206000915054906101000a900460ff1681565b60685481565b606580546107d090610ead565b80601f01602080910402602001604051908101604052809291908181526020018280546107fc90610ead565b80156108495780601f1061081e57610100808354040283529160200191610849565b820191906000526020600020905b81548152906001019060200180831161082c57829003601f168201915b505050505081565b610859610989565b73ffffffffffffffffffffffffffffffffffffffff166108776105a4565b73ffffffffffffffffffffffffffffffffffffffff16146108cd576040517f08c379a00000000000000000000000000000000000000000000000000000000081526004016108c490610d50565b60405180910390fd5b600073ffffffffffffffffffffffffffffffffffffffff168173ffffffffffffffffffffffffffffffffffffffff16141561093d576040517f08c379a000000000000000000000000000000000000000000000000000000000815260040161093490610d10565b60405180910390fd5b61094681610991565b50565b606a6020528060005260406000206000915054906101000a900460ff1681565b606b6020528060005260406000206000915054906101000a900460ff1681565b600033905090565b6000603360009054906101000a900473ffffffffffffffffffffffffffffffffffffffff16905081603360006101000a81548173ffffffffffffffffffffffffffffffffffffffff021916908373ffffffffffffffffffffffffffffffffffffffff1602179055508173ffffffffffffffffffffffffffffffffffffffff168173ffffffffffffffffffffffffffffffffffffffff167f8be0079c531659141344cd1fd0a4f28419497f9722a3daafe3b4186f6b6457e060405160405180910390a35050565b600081359050610a6681610f7d565b92915050565b600081359050610a7b81610f94565b92915050565b600060208284031215610a9357600080fd5b6000610aa184828501610a57565b91505092915050565b600060208284031215610abc57600080fd5b6000610aca84828501610a6c565b91505092915050565b60008060408385031215610ae657600080fd5b6000610af485828601610a6c565b9250506020610b0585828601610a6c565b9150509250929050565b610b1881610e32565b82525050565b610b2781610e44565b82525050565b6000610b3882610d8b565b610b428185610d96565b9350610b52818560208601610e7a565b610b5b81610f6c565b840191505092915050565b6000610b73602683610d96565b91507f4f776e61626c653a206e6577206f776e657220697320746865207a65726f206160008301527f64647265737300000000000000000000000000000000000000000000000000006020830152604082019050919050565b6000610bd9602e83610d96565b91507f496e697469616c697a61626c653a20636f6e747261637420697320616c72656160008301527f647920696e697469616c697a65640000000000000000000000000000000000006020830152604082019050919050565b6000610c3f602083610d96565b91507f4f776e61626c653a2063616c6c6572206973206e6f7420746865206f776e65726000830152602082019050919050565b610c7b81610e70565b82525050565b6000602082019050610c966000830184610b0f565b92915050565b6000606082019050610cb16000830186610b0f565b610cbe6020830185610c72565b610ccb6040830184610c72565b949350505050565b6000602082019050610ce86000830184610b1e565b92915050565b60006020820190508181036000830152610d088184610b2d565b905092915050565b60006020820190508181036000830152610d2981610b66565b9050919050565b60006020820190508181036000830152610d4981610bcc565b9050919050565b60006020820190508181036000830152610d6981610c32565b9050919050565b6000602082019050610d856000830184610c72565b92915050565b600081519050919050565b600082825260208201905092915050565b6000610db282610e70565b9150610dbd83610e70565b925082610dcd57610dcc610f0e565b5b828204905092915050565b6000610de382610e70565b9150610dee83610e70565b9250817fffffffffffffffffffffffffffffffffffffffffffffffffffffffffffffffff0483118215151615610e2757610e26610edf565b5b828202905092915050565b6000610e3d82610e50565b9050919050565b60008115159050919050565b600073ffffffffffffffffffffffffffffffffffffffff82169050919050565b6000819050919050565b60005b83811015610e98578082015181840152602081019050610e7d565b83811115610ea7576000848401525b50505050565b60006002820490506001821680610ec557607f821691505b60208210811415610ed957610ed8610f3d565b5b50919050565b7f4e487b7100000000000000000000000000000000000000000000000000000000600052601160045260246000fd5b7f4e487b7100000000000000000000000000000000000000000000000000000000600052601260045260246000fd5b7f4e487b7100000000000000000000000000000000000000000000000000000000600052602260045260246000fd5b6000601f19601f8301169050919050565b610f8681610e32565b8114610f9157600080fd5b50565b610f9d81610e70565b8114610fa857600080fd5b5056fea264697066735822122053dcf8d465da141fa13efe3df25db82a83cb4f67d88ad19e08dac569f9b3fcea64736f6c63430008000033",
  "linkReferences": {},
  "deployedLinkReferences": {}
}