{
  "_format": "hh-sol-artifact-1",
  "contractName": "Access_Control",
  "sourceName": "contracts/Access_Control.sol",
  "abi": [
    {
      "anonymous": false,
      "inputs": [
        {
          "indexed": true,
          "internalType": "address",
          "name": "previousOwner",
          "type": "address"
        },
        {
          "indexed": true,
          "internalType": "address",
          "name": "newOwner",
          "type": "address"
        }
      ],
      "name": "OwnershipTransferred",
      "type": "event"
    },
    {
      "inputs": [],
      "name": "__Storage_initialize",
      "outputs": [],
      "stateMutability": "nonpayable",
      "type": "function"
    },
    {
      "inputs": [
        {
          "internalType": "uint256",
          "name": "",
          "type": "uint256"
        }
      ],
      "name": "_exists",
      "outputs": [
        {
          "internalType": "bool",
          "name": "",
          "type": "bool"
        }
      ],
      "stateMutability": "view",
      "type": "function"
    },
    {
      "inputs": [],
      "name": "_name",
      "outputs": [
        {
          "internalType": "string",
          "name": "",
          "type": "string"
        }
      ],
      "stateMutability": "view",
      "type": "function"
    },
    {
      "inputs": [],
      "name": "_royaltiesPercentage",
      "outputs": [
        {
          "internalType": "uint256",
          "name": "",
          "type": "uint256"
        }
      ],
      "stateMutability": "view",
      "type": "function"
    },
    {
      "inputs": [],
      "name": "_royaltiesReceiver",
      "outputs": [
        {
          "internalType": "address",
          "name": "",
          "type": "address"
        }
      ],
      "stateMutability": "view",
      "type": "function"
    },
    {
      "inputs": [],
      "name": "_symbol",
      "outputs": [
        {
          "internalType": "string",
          "name": "",
          "type": "string"
        }
      ],
      "stateMutability": "view",
      "type": "function"
    },
    {
      "inputs": [
        {
          "internalType": "address",
          "name": "_addr",
          "type": "address"
        }
      ],
      "name": "addBlackList",
      "outputs": [],
      "stateMutability": "nonpayable",
      "type": "function"
    },
    {
      "inputs": [
        {
          "internalType": "address",
          "name": "",
          "type": "address"
        }
      ],
      "name": "blackListed",
      "outputs": [
        {
          "internalType": "bool",
          "name": "",
          "type": "bool"
        }
      ],
      "stateMutability": "view",
      "type": "function"
    },
    {
      "inputs": [],
      "name": "owner",
      "outputs": [
        {
          "internalType": "address",
          "name": "",
          "type": "address"
        }
      ],
      "stateMutability": "view",
      "type": "function"
    },
    {
      "inputs": [],
      "name": "publicMinting",
      "outputs": [
        {
          "internalType": "bool",
          "name": "",
          "type": "bool"
        }
      ],
      "stateMutability": "view",
      "type": "function"
    },
    {
      "inputs": [
        {
          "internalType": "address",
          "name": "_addr",
          "type": "address"
        }
      ],
      "name": "removeBlackList",
      "outputs": [],
      "stateMutability": "nonpayable",
      "type": "function"
    },
    {
      "inputs": [
        {
          "internalType": "address",
          "name": "_addr",
          "type": "address"
        }
      ],
      "name": "removeWhiteList",
      "outputs": [],
      "stateMutability": "nonpayable",
      "type": "function"
    },
    {
      "inputs": [
        {
          "internalType": "address",
          "name": "_addr",
          "type": "address"
        }
      ],
      "name": "removeWhiteList_Admin",
      "outputs": [],
      "stateMutability": "nonpayable",
      "type": "function"
    },
    {
      "inputs": [],
      "name": "renounceOwnership",
      "outputs": [],
      "stateMutability": "nonpayable",
      "type": "function"
    },
    {
      "inputs": [
        {
          "internalType": "uint256",
          "name": "_tokenId",
          "type": "uint256"
        }
      ],
      "name": "revokeTokenMintingPriv",
      "outputs": [],
      "stateMutability": "nonpayable",
      "type": "function"
    },
    {
      "inputs": [
        {
          "internalType": "address",
          "name": "_addr",
          "type": "address"
        }
      ],
      "name": "setWhiteList",
      "outputs": [],
      "stateMutability": "nonpayable",
      "type": "function"
    },
    {
      "inputs": [
        {
          "internalType": "address",
          "name": "_addr",
          "type": "address"
        }
      ],
      "name": "setWhiteList_Admin",
      "outputs": [],
      "stateMutability": "nonpayable",
      "type": "function"
    },
    {
      "inputs": [],
      "name": "togglePublicMinting",
      "outputs": [],
      "stateMutability": "nonpayable",
      "type": "function"
    },
    {
      "inputs": [
        {
          "internalType": "uint256",
          "name": "",
          "type": "uint256"
        }
      ],
      "name": "tokenMinter",
      "outputs": [
        {
          "internalType": "address",
          "name": "",
          "type": "address"
        }
      ],
      "stateMutability": "view",
      "type": "function"
    },
    {
      "inputs": [
        {
          "internalType": "address",
          "name": "newOwner",
          "type": "address"
        }
      ],
      "name": "transferOwnership",
      "outputs": [],
      "stateMutability": "nonpayable",
      "type": "function"
    },
    {
      "inputs": [
        {
          "internalType": "address",
          "name": "",
          "type": "address"
        }
      ],
      "name": "whiteListed",
      "outputs": [
        {
          "internalType": "bool",
          "name": "",
          "type": "bool"
        }
      ],
      "stateMutability": "view",
      "type": "function"
    }
  ],
  "bytecode": "0x608060405234801561001057600080fd5b506113ab806100206000396000f3fe608060405234801561001057600080fd5b50600436106101375760003560e01c80638da5cb5b116100b8578063d28d88521161007c578063d28d8852146102dc578063e4997dc5146102fa578063ecacecc214610316578063f2fde38b14610332578063f8e76cc01461034e578063fa0fca841461037e57610137565b80638da5cb5b1461023457806391a8371114610252578063b09f126614610270578063bbde5b251461028e578063cf7761ee146102be57610137565b806346d6e6cb116100ff57806346d6e6cb146101c857806353ac010a146101d25780636b8a21fc146101f0578063715018a6146101fa5780637c57d9471461020457610137565b80630ecb93c01461013c5780632042e5c21461015857806339e899ee146101745780634211da721461019057806346a2a946146101ac575b600080fd5b61015660048036038101906101519190610e87565b6103ae565b005b610172600480360381019061016d9190610e87565b610438565b005b61018e60048036038101906101899190610e87565b6104b4565b005b6101aa60048036038101906101a59190610eb0565b610511565b005b6101c660048036038101906101c19190610e87565b6105c0565b005b6101d061064a565b005b6101da610723565b6040516101e79190611126565b60405180910390f35b6101f8610736565b005b6102026107cd565b005b61021e60048036038101906102199190610eb0565b610855565b60405161022b919061110b565b60405180910390f35b61023c610888565b604051610249919061110b565b60405180910390f35b61025a6108b2565b604051610267919061110b565b60405180910390f35b6102786108d8565b6040516102859190611141565b60405180910390f35b6102a860048036038101906102a39190610e87565b610966565b6040516102b59190611126565b60405180910390f35b6102c6610986565b6040516102d39190611223565b60405180910390f35b6102e461098c565b6040516102f19190611141565b60405180910390f35b610314600480360381019061030f9190610e87565b610a1a565b005b610330600480360381019061032b9190610e87565b610aa4565b005b61034c60048036038101906103479190610e87565b610b2e565b005b61036860048036038101906103639190610eb0565b610c26565b6040516103759190611126565b60405180910390f35b61039860048036038101906103939190610e87565b610c46565b6040516103a59190611126565b60405180910390f35b6103b6610c66565b73ffffffffffffffffffffffffffffffffffffffff166103d4610888565b73ffffffffffffffffffffffffffffffffffffffff161461042a576040517f08c379a0000000000000000000000000000000000000000000000000000000008152600401610421906111e3565b60405180910390fd5b610435816001610c6e565b50565b8073ffffffffffffffffffffffffffffffffffffffff163373ffffffffffffffffffffffffffffffffffffffff16146104a6576040517f08c379a000000000000000000000000000000000000000000000000000000000815260040161049d90611203565b60405180910390fd5b6104b1816000610cc9565b50565b606960009054906101000a900460ff16610503576040517f08c379a00000000000000000000000000000000000000000000000000000000081526004016104fa90611163565b60405180910390fd5b61050e816001610cc9565b50565b3373ffffffffffffffffffffffffffffffffffffffff16606d600083815260200190815260200160002060009054906101000a900473ffffffffffffffffffffffffffffffffffffffff1673ffffffffffffffffffffffffffffffffffffffff16146105b2576040517f08c379a00000000000000000000000000000000000000000000000000000000081526004016105a9906111a3565b60405180910390fd5b6105bd816000610d24565b50565b6105c8610c66565b73ffffffffffffffffffffffffffffffffffffffff166105e6610888565b73ffffffffffffffffffffffffffffffffffffffff161461063c576040517f08c379a0000000000000000000000000000000000000000000000000000000008152600401610633906111e3565b60405180910390fd5b610647816000610cc9565b50565b600060019054906101000a900460ff1680610670575060008054906101000a900460ff16155b6106af576040517f08c379a00000000000000000000000000000000000000000000000000000000081526004016106a6906111c3565b60405180910390fd5b60008060019054906101000a900460ff1615905080156106ff576001600060016101000a81548160ff02191690831515021790555060016000806101000a81548160ff0219169083151502179055505b80156107205760008060016101000a81548160ff0219169083151502179055505b50565b606960009054906101000a900460ff1681565b61073e610c66565b73ffffffffffffffffffffffffffffffffffffffff1661075c610888565b73ffffffffffffffffffffffffffffffffffffffff16146107b2576040517f08c379a00000000000000000000000000000000000000000000000000000000081526004016107a9906111e3565b60405180910390fd5b6107cb606960009054906101000a900460ff1615610d7a565b565b6107d5610c66565b73ffffffffffffffffffffffffffffffffffffffff166107f3610888565b73ffffffffffffffffffffffffffffffffffffffff1614610849576040517f08c379a0000000000000000000000000000000000000000000000000000000008152600401610840906111e3565b60405180910390fd5b6108536000610d97565b565b606d6020528060005260406000206000915054906101000a900473ffffffffffffffffffffffffffffffffffffffff1681565b6000603360009054906101000a900473ffffffffffffffffffffffffffffffffffffffff16905090565b606760009054906101000a900473ffffffffffffffffffffffffffffffffffffffff1681565b606680546108e5906112d5565b80601f0160208091040260200160405190810160405280929190818152602001828054610911906112d5565b801561095e5780601f106109335761010080835404028352916020019161095e565b820191906000526020600020905b81548152906001019060200180831161094157829003601f168201915b505050505081565b606c6020528060005260406000206000915054906101000a900460ff1681565b60685481565b60658054610999906112d5565b80601f01602080910402602001604051908101604052809291908181526020018280546109c5906112d5565b8015610a125780601f106109e757610100808354040283529160200191610a12565b820191906000526020600020905b8154815290600101906020018083116109f557829003601f168201915b505050505081565b610a22610c66565b73ffffffffffffffffffffffffffffffffffffffff16610a40610888565b73ffffffffffffffffffffffffffffffffffffffff1614610a96576040517f08c379a0000000000000000000000000000000000000000000000000000000008152600401610a8d906111e3565b60405180910390fd5b610aa1816000610c6e565b50565b610aac610c66565b73ffffffffffffffffffffffffffffffffffffffff16610aca610888565b73ffffffffffffffffffffffffffffffffffffffff1614610b20576040517f08c379a0000000000000000000000000000000000000000000000000000000008152600401610b17906111e3565b60405180910390fd5b610b2b816001610cc9565b50565b610b36610c66565b73ffffffffffffffffffffffffffffffffffffffff16610b54610888565b73ffffffffffffffffffffffffffffffffffffffff1614610baa576040517f08c379a0000000000000000000000000000000000000000000000000000000008152600401610ba1906111e3565b60405180910390fd5b600073ffffffffffffffffffffffffffffffffffffffff168173ffffffffffffffffffffffffffffffffffffffff161415610c1a576040517f08c379a0000000000000000000000000000000000000000000000000000000008152600401610c1190611183565b60405180910390fd5b610c2381610d97565b50565b606a6020528060005260406000206000915054906101000a900460ff1681565b606b6020528060005260406000206000915054906101000a900460ff1681565b600033905090565b80606c60008473ffffffffffffffffffffffffffffffffffffffff1673ffffffffffffffffffffffffffffffffffffffff16815260200190815260200160002060006101000a81548160ff0219169083151502179055505050565b80606b60008473ffffffffffffffffffffffffffffffffffffffff1673ffffffffffffffffffffffffffffffffffffffff16815260200190815260200160002060006101000a81548160ff0219169083151502179055505050565b80606d600084815260200190815260200160002060006101000a81548173ffffffffffffffffffffffffffffffffffffffff021916908373ffffffffffffffffffffffffffffffffffffffff1602179055505050565b80606960006101000a81548160ff02191690831515021790555050565b6000603360009054906101000a900473ffffffffffffffffffffffffffffffffffffffff16905081603360006101000a81548173ffffffffffffffffffffffffffffffffffffffff021916908373ffffffffffffffffffffffffffffffffffffffff1602179055508173ffffffffffffffffffffffffffffffffffffffff168173ffffffffffffffffffffffffffffffffffffffff167f8be0079c531659141344cd1fd0a4f28419497f9722a3daafe3b4186f6b6457e060405160405180910390a35050565b600081359050610e6c81611347565b92915050565b600081359050610e818161135e565b92915050565b600060208284031215610e9957600080fd5b6000610ea784828501610e5d565b91505092915050565b600060208284031215610ec257600080fd5b6000610ed084828501610e72565b91505092915050565b610ee28161125a565b82525050565b610ef18161126c565b82525050565b6000610f028261123e565b610f0c8185611249565b9350610f1c8185602086016112a2565b610f2581611336565b840191505092915050565b6000610f3d600683611249565b91507f4e504d494e5400000000000000000000000000000000000000000000000000006000830152602082019050919050565b6000610f7d602683611249565b91507f4f776e61626c653a206e6577206f776e657220697320746865207a65726f206160008301527f64647265737300000000000000000000000000000000000000000000000000006020830152604082019050919050565b6000610fe3600683611249565b91507f4e4d494e545000000000000000000000000000000000000000000000000000006000830152602082019050919050565b6000611023602e83611249565b91507f496e697469616c697a61626c653a20636f6e747261637420697320616c72656160008301527f647920696e697469616c697a65640000000000000000000000000000000000006020830152604082019050919050565b6000611089602083611249565b91507f4f776e61626c653a2063616c6c6572206973206e6f7420746865206f776e65726000830152602082019050919050565b60006110c9600983611249565b91507f4e4f54204f574e455200000000000000000000000000000000000000000000006000830152602082019050919050565b61110581611298565b82525050565b60006020820190506111206000830184610ed9565b92915050565b600060208201905061113b6000830184610ee8565b92915050565b6000602082019050818103600083015261115b8184610ef7565b905092915050565b6000602082019050818103600083015261117c81610f30565b9050919050565b6000602082019050818103600083015261119c81610f70565b9050919050565b600060208201905081810360008301526111bc81610fd6565b9050919050565b600060208201905081810360008301526111dc81611016565b9050919050565b600060208201905081810360008301526111fc8161107c565b9050919050565b6000602082019050818103600083015261121c816110bc565b9050919050565b600060208201905061123860008301846110fc565b92915050565b600081519050919050565b600082825260208201905092915050565b600061126582611278565b9050919050565b60008115159050919050565b600073ffffffffffffffffffffffffffffffffffffffff82169050919050565b6000819050919050565b60005b838110156112c05780820151818401526020810190506112a5565b838111156112cf576000848401525b50505050565b600060028204905060018216806112ed57607f821691505b6020821081141561130157611300611307565b5b50919050565b7f4e487b7100000000000000000000000000000000000000000000000000000000600052602260045260246000fd5b6000601f19601f8301169050919050565b6113508161125a565b811461135b57600080fd5b50565b61136781611298565b811461137257600080fd5b5056fea264697066735822122002c29de24d563e6fcfba9e330e98de6edde73269176bb37e0dab2d556fa1f34e64736f6c63430008000033",
  "linkReferences": {},
  "deployedLinkReferences": {}
}