{
  "_format": "hh-sol-artifact-1",
  "contractName": "Access_Control",
  "sourceName": "contracts/Access_Control.sol",
  "abi": [
    {
      "anonymous": false,
      "inputs": [
        {
          "indexed": true,
          "internalType": "address",
          "name": "previousOwner",
          "type": "address"
        },
        {
          "indexed": true,
          "internalType": "address",
          "name": "newOwner",
          "type": "address"
        }
      ],
      "name": "OwnershipTransferred",
      "type": "event"
    },
    {
      "inputs": [
        {
          "internalType": "uint256",
          "name": "",
          "type": "uint256"
        }
      ],
      "name": "_exists",
      "outputs": [
        {
          "internalType": "bool",
          "name": "",
          "type": "bool"
        }
      ],
      "stateMutability": "view",
      "type": "function"
    },
    {
      "inputs": [],
      "name": "_name",
      "outputs": [
        {
          "internalType": "string",
          "name": "",
          "type": "string"
        }
      ],
      "stateMutability": "view",
      "type": "function"
    },
    {
      "inputs": [],
      "name": "_royaltiesPercentage",
      "outputs": [
        {
          "internalType": "uint256",
          "name": "",
          "type": "uint256"
        }
      ],
      "stateMutability": "view",
      "type": "function"
    },
    {
      "inputs": [],
      "name": "_royaltiesReceiver",
      "outputs": [
        {
          "internalType": "address",
          "name": "",
          "type": "address"
        }
      ],
      "stateMutability": "view",
      "type": "function"
    },
    {
      "inputs": [],
      "name": "_symbol",
      "outputs": [
        {
          "internalType": "string",
          "name": "",
          "type": "string"
        }
      ],
      "stateMutability": "view",
      "type": "function"
    },
    {
      "inputs": [
        {
          "internalType": "address",
          "name": "_addr",
          "type": "address"
        }
      ],
      "name": "addBlackList",
      "outputs": [],
      "stateMutability": "nonpayable",
      "type": "function"
    },
    {
      "inputs": [
        {
          "internalType": "address",
          "name": "",
          "type": "address"
        }
      ],
      "name": "blackListed",
      "outputs": [
        {
          "internalType": "bool",
          "name": "",
          "type": "bool"
        }
      ],
      "stateMutability": "view",
      "type": "function"
    },
    {
      "inputs": [],
      "name": "owner",
      "outputs": [
        {
          "internalType": "address",
          "name": "",
          "type": "address"
        }
      ],
      "stateMutability": "view",
      "type": "function"
    },
    {
      "inputs": [],
      "name": "publicMinting",
      "outputs": [
        {
          "internalType": "bool",
          "name": "",
          "type": "bool"
        }
      ],
      "stateMutability": "view",
      "type": "function"
    },
    {
      "inputs": [
        {
          "internalType": "address",
          "name": "_addr",
          "type": "address"
        }
      ],
      "name": "removeBlackList",
      "outputs": [],
      "stateMutability": "nonpayable",
      "type": "function"
    },
    {
      "inputs": [
        {
          "internalType": "address",
          "name": "_addr",
          "type": "address"
        }
      ],
      "name": "removeWhiteList",
      "outputs": [],
      "stateMutability": "nonpayable",
      "type": "function"
    },
    {
      "inputs": [],
      "name": "renounceOwnership",
      "outputs": [],
      "stateMutability": "nonpayable",
      "type": "function"
    },
    {
      "inputs": [
        {
          "internalType": "address",
          "name": "_addr",
          "type": "address"
        }
      ],
      "name": "setWhiteList",
      "outputs": [],
      "stateMutability": "nonpayable",
      "type": "function"
    },
    {
      "inputs": [
        {
          "internalType": "address",
          "name": "_addr",
          "type": "address"
        }
      ],
      "name": "setWhiteList_Admin",
      "outputs": [],
      "stateMutability": "nonpayable",
      "type": "function"
    },
    {
      "inputs": [],
      "name": "togglePublicMinting",
      "outputs": [],
      "stateMutability": "nonpayable",
      "type": "function"
    },
    {
      "inputs": [
        {
          "internalType": "uint256",
          "name": "",
          "type": "uint256"
        }
      ],
      "name": "tokenMinter",
      "outputs": [
        {
          "internalType": "address",
          "name": "",
          "type": "address"
        }
      ],
      "stateMutability": "view",
      "type": "function"
    },
    {
      "inputs": [
        {
          "internalType": "address",
          "name": "newOwner",
          "type": "address"
        }
      ],
      "name": "transferOwnership",
      "outputs": [],
      "stateMutability": "nonpayable",
      "type": "function"
    },
    {
      "inputs": [
        {
          "internalType": "address",
          "name": "",
          "type": "address"
        }
      ],
      "name": "whiteListed",
      "outputs": [
        {
          "internalType": "bool",
          "name": "",
          "type": "bool"
        }
      ],
      "stateMutability": "view",
      "type": "function"
    }
  ],
  "bytecode": "0x608060405234801561001057600080fd5b50611005806100206000396000f3fe608060405234801561001057600080fd5b50600436106101165760003560e01c8063b09f1266116100a2578063e4997dc511610071578063e4997dc514610297578063ecacecc2146102b3578063f2fde38b146102cf578063f8e76cc0146102eb578063fa0fca841461031b57610116565b8063b09f12661461020d578063bbde5b251461022b578063cf7761ee1461025b578063d28d88521461027957610116565b80636b8a21fc116100e95780636b8a21fc1461018d578063715018a6146101975780637c57d947146101a15780638da5cb5b146101d157806391a83711146101ef57610116565b80630ecb93c01461011b5780632042e5c21461013757806339e899ee1461015357806353ac010a1461016f575b600080fd5b61013560048036038101906101309190610bc7565b61034b565b005b610151600480360381019061014c9190610bc7565b6103e0565b005b61016d60048036038101906101689190610bc7565b61045c565b005b6101776104b9565b6040516101849190610dc0565b60405180910390f35b6101956104cc565b005b61019f610563565b005b6101bb60048036038101906101b69190610bf0565b6105eb565b6040516101c89190610da5565b60405180910390f35b6101d961061e565b6040516101e69190610da5565b60405180910390f35b6101f7610648565b6040516102049190610da5565b60405180910390f35b61021561066e565b6040516102229190610ddb565b60405180910390f35b61024560048036038101906102409190610bc7565b6106fc565b6040516102529190610dc0565b60405180910390f35b61026361071c565b6040516102709190610e7d565b60405180910390f35b610281610722565b60405161028e9190610ddb565b60405180910390f35b6102b160048036038101906102ac9190610bc7565b6107b0565b005b6102cd60048036038101906102c89190610bc7565b61083a565b005b6102e960048036038101906102e49190610bc7565b6108c4565b005b61030560048036038101906103009190610bf0565b6109bc565b6040516103129190610dc0565b60405180910390f35b61033560048036038101906103309190610bc7565b6109dc565b6040516103429190610dc0565b60405180910390f35b6103536109fc565b73ffffffffffffffffffffffffffffffffffffffff1661037161061e565b73ffffffffffffffffffffffffffffffffffffffff16146103c7576040517f08c379a00000000000000000000000000000000000000000000000000000000081526004016103be90610e3d565b60405180910390fd5b6103d2816000610a04565b6103dd816001610a5f565b50565b8073ffffffffffffffffffffffffffffffffffffffff163373ffffffffffffffffffffffffffffffffffffffff161461044e576040517f08c379a000000000000000000000000000000000000000000000000000000000815260040161044590610e5d565b60405180910390fd5b610459816000610a04565b50565b606960009054906101000a900460ff166104ab576040517f08c379a00000000000000000000000000000000000000000000000000000000081526004016104a290610dfd565b60405180910390fd5b6104b6816001610a04565b50565b606960009054906101000a900460ff1681565b6104d46109fc565b73ffffffffffffffffffffffffffffffffffffffff166104f261061e565b73ffffffffffffffffffffffffffffffffffffffff1614610548576040517f08c379a000000000000000000000000000000000000000000000000000000000815260040161053f90610e3d565b60405180910390fd5b610561606960009054906101000a900460ff1615610aba565b565b61056b6109fc565b73ffffffffffffffffffffffffffffffffffffffff1661058961061e565b73ffffffffffffffffffffffffffffffffffffffff16146105df576040517f08c379a00000000000000000000000000000000000000000000000000000000081526004016105d690610e3d565b60405180910390fd5b6105e96000610ad7565b565b606d6020528060005260406000206000915054906101000a900473ffffffffffffffffffffffffffffffffffffffff1681565b6000603360009054906101000a900473ffffffffffffffffffffffffffffffffffffffff16905090565b606760009054906101000a900473ffffffffffffffffffffffffffffffffffffffff1681565b6066805461067b90610f2f565b80601f01602080910402602001604051908101604052809291908181526020018280546106a790610f2f565b80156106f45780601f106106c9576101008083540402835291602001916106f4565b820191906000526020600020905b8154815290600101906020018083116106d757829003601f168201915b505050505081565b606c6020528060005260406000206000915054906101000a900460ff1681565b60685481565b6065805461072f90610f2f565b80601f016020809104026020016040519081016040528092919081815260200182805461075b90610f2f565b80156107a85780601f1061077d576101008083540402835291602001916107a8565b820191906000526020600020905b81548152906001019060200180831161078b57829003601f168201915b505050505081565b6107b86109fc565b73ffffffffffffffffffffffffffffffffffffffff166107d661061e565b73ffffffffffffffffffffffffffffffffffffffff161461082c576040517f08c379a000000000000000000000000000000000000000000000000000000000815260040161082390610e3d565b60405180910390fd5b610837816000610a5f565b50565b6108426109fc565b73ffffffffffffffffffffffffffffffffffffffff1661086061061e565b73ffffffffffffffffffffffffffffffffffffffff16146108b6576040517f08c379a00000000000000000000000000000000000000000000000000000000081526004016108ad90610e3d565b60405180910390fd5b6108c1816001610a04565b50565b6108cc6109fc565b73ffffffffffffffffffffffffffffffffffffffff166108ea61061e565b73ffffffffffffffffffffffffffffffffffffffff1614610940576040517f08c379a000000000000000000000000000000000000000000000000000000000815260040161093790610e3d565b60405180910390fd5b600073ffffffffffffffffffffffffffffffffffffffff168173ffffffffffffffffffffffffffffffffffffffff1614156109b0576040517f08c379a00000000000000000000000000000000000000000000000000000000081526004016109a790610e1d565b60405180910390fd5b6109b981610ad7565b50565b606a6020528060005260406000206000915054906101000a900460ff1681565b606b6020528060005260406000206000915054906101000a900460ff1681565b600033905090565b80606b60008473ffffffffffffffffffffffffffffffffffffffff1673ffffffffffffffffffffffffffffffffffffffff16815260200190815260200160002060006101000a81548160ff0219169083151502179055505050565b80606c60008473ffffffffffffffffffffffffffffffffffffffff1673ffffffffffffffffffffffffffffffffffffffff16815260200190815260200160002060006101000a81548160ff0219169083151502179055505050565b80606960006101000a81548160ff02191690831515021790555050565b6000603360009054906101000a900473ffffffffffffffffffffffffffffffffffffffff16905081603360006101000a81548173ffffffffffffffffffffffffffffffffffffffff021916908373ffffffffffffffffffffffffffffffffffffffff1602179055508173ffffffffffffffffffffffffffffffffffffffff168173ffffffffffffffffffffffffffffffffffffffff167f8be0079c531659141344cd1fd0a4f28419497f9722a3daafe3b4186f6b6457e060405160405180910390a35050565b600081359050610bac81610fa1565b92915050565b600081359050610bc181610fb8565b92915050565b600060208284031215610bd957600080fd5b6000610be784828501610b9d565b91505092915050565b600060208284031215610c0257600080fd5b6000610c1084828501610bb2565b91505092915050565b610c2281610eb4565b82525050565b610c3181610ec6565b82525050565b6000610c4282610e98565b610c4c8185610ea3565b9350610c5c818560208601610efc565b610c6581610f90565b840191505092915050565b6000610c7d600683610ea3565b91507f4e504d494e5400000000000000000000000000000000000000000000000000006000830152602082019050919050565b6000610cbd602683610ea3565b91507f4f776e61626c653a206e6577206f776e657220697320746865207a65726f206160008301527f64647265737300000000000000000000000000000000000000000000000000006020830152604082019050919050565b6000610d23602083610ea3565b91507f4f776e61626c653a2063616c6c6572206973206e6f7420746865206f776e65726000830152602082019050919050565b6000610d63600983610ea3565b91507f4e4f54204f574e455200000000000000000000000000000000000000000000006000830152602082019050919050565b610d9f81610ef2565b82525050565b6000602082019050610dba6000830184610c19565b92915050565b6000602082019050610dd56000830184610c28565b92915050565b60006020820190508181036000830152610df58184610c37565b905092915050565b60006020820190508181036000830152610e1681610c70565b9050919050565b60006020820190508181036000830152610e3681610cb0565b9050919050565b60006020820190508181036000830152610e5681610d16565b9050919050565b60006020820190508181036000830152610e7681610d56565b9050919050565b6000602082019050610e926000830184610d96565b92915050565b600081519050919050565b600082825260208201905092915050565b6000610ebf82610ed2565b9050919050565b60008115159050919050565b600073ffffffffffffffffffffffffffffffffffffffff82169050919050565b6000819050919050565b60005b83811015610f1a578082015181840152602081019050610eff565b83811115610f29576000848401525b50505050565b60006002820490506001821680610f4757607f821691505b60208210811415610f5b57610f5a610f61565b5b50919050565b7f4e487b7100000000000000000000000000000000000000000000000000000000600052602260045260246000fd5b6000601f19601f8301169050919050565b610faa81610eb4565b8114610fb557600080fd5b50565b610fc181610ef2565b8114610fcc57600080fd5b5056fea26469706673582212208a44daefc4b4e3292befbb5c9ab8ccf9bac2e0339f57c0e80553f5a8bd3b78a564736f6c63430008000033",
  "linkReferences": {},
  "deployedLinkReferences": {}
}