{
  "_format": "hh-sol-artifact-1",
  "contractName": "NFT_Types",
  "sourceName": "contracts/NFT_Types.sol",
  "abi": [
    {
      "inputs": [
        {
          "internalType": "uint256",
          "name": "",
          "type": "uint256"
        }
      ],
      "name": "NFT_Type",
      "outputs": [
        {
          "internalType": "string",
          "name": "",
          "type": "string"
        }
      ],
      "stateMutability": "view",
      "type": "function"
    }
  ],
  "bytecode": "0x608060405234801561001057600080fd5b506102b1806100206000396000f3fe608060405234801561001057600080fd5b506004361061002b5760003560e01c80635ef8693914610030575b600080fd5b61004a60048036038101906100459190610115565b610060565b6040516100579190610177565b60405180910390f35b6000602052806000526040600020600091509050805461007f906101f2565b80601f01602080910402602001604051908101604052809291908181526020018280546100ab906101f2565b80156100f85780601f106100cd576101008083540402835291602001916100f8565b820191906000526020600020905b8154815290600101906020018083116100db57829003601f168201915b505050505081565b60008135905061010f81610264565b92915050565b60006020828403121561012757600080fd5b600061013584828501610100565b91505092915050565b600061014982610199565b61015381856101a4565b93506101638185602086016101bf565b61016c81610253565b840191505092915050565b60006020820190508181036000830152610191818461013e565b905092915050565b600081519050919050565b600082825260208201905092915050565b6000819050919050565b60005b838110156101dd5780820151818401526020810190506101c2565b838111156101ec576000848401525b50505050565b6000600282049050600182168061020a57607f821691505b6020821081141561021e5761021d610224565b5b50919050565b7f4e487b7100000000000000000000000000000000000000000000000000000000600052602260045260246000fd5b6000601f19601f8301169050919050565b61026d816101b5565b811461027857600080fd5b5056fea26469706673582212207257f79361366893a2ea9961ae0bc5cff90d752f3aaa1f7cef8cb6f614b3ad9f64736f6c63430008000033",
  "linkReferences": {},
  "deployedLinkReferences": {}
}